{
  "address": "0x8444bb79b72d0167d676c57D5FC3CD55E94f871B",
  "abi": [
    {
      "inputs": [],
      "name": "ApprovalCallerNotOwnerNorApproved",
      "type": "error"
    },
    {
      "inputs": [],
      "name": "ApprovalQueryForNonexistentToken",
      "type": "error"
    },
    {
      "inputs": [],
      "name": "ApprovalToCurrentOwner",
      "type": "error"
    },
    {
      "inputs": [],
      "name": "ApproveToCaller",
      "type": "error"
    },
    {
      "inputs": [],
      "name": "BalanceQueryForZeroAddress",
      "type": "error"
    },
    {
      "inputs": [],
      "name": "ERC721__URIQueryForNonexistentToken",
      "type": "error"
    },
    {
      "inputs": [],
      "name": "InsufficientFunds",
      "type": "error"
    },
    {
      "inputs": [],
      "name": "InvalidMintAmount",
      "type": "error"
    },
    {
      "inputs": [],
      "name": "MaxSupplyExceeded",
      "type": "error"
    },
    {
      "inputs": [],
      "name": "MintToZeroAddress",
      "type": "error"
    },
    {
      "inputs": [],
      "name": "MintZeroQuantity",
      "type": "error"
    },
    {
      "inputs": [],
      "name": "OwnerQueryForNonexistentToken",
      "type": "error"
    },
    {
      "inputs": [],
      "name": "TheContractIsPaused",
      "type": "error"
    },
    {
      "inputs": [],
      "name": "TransferCallerNotOwnerNorApproved",
      "type": "error"
    },
    {
      "inputs": [],
      "name": "TransferFromIncorrectOwner",
      "type": "error"
    },
    {
      "inputs": [],
      "name": "TransferToNonERC721ReceiverImplementer",
      "type": "error"
    },
    {
      "inputs": [],
      "name": "TransferToZeroAddress",
      "type": "error"
    },
    {
      "inputs": [],
      "name": "URIQueryForNonexistentToken",
      "type": "error"
    },
    {
      "anonymous": false,
      "inputs": [
        {
          "indexed": true,
          "internalType": "address",
          "name": "owner",
          "type": "address"
        },
        {
          "indexed": true,
          "internalType": "address",
          "name": "approved",
          "type": "address"
        },
        {
          "indexed": true,
          "internalType": "uint256",
          "name": "tokenId",
          "type": "uint256"
        }
      ],
      "name": "Approval",
      "type": "event"
    },
    {
      "anonymous": false,
      "inputs": [
        {
          "indexed": true,
          "internalType": "address",
          "name": "owner",
          "type": "address"
        },
        {
          "indexed": true,
          "internalType": "address",
          "name": "operator",
          "type": "address"
        },
        {
          "indexed": false,
          "internalType": "bool",
          "name": "approved",
          "type": "bool"
        }
      ],
      "name": "ApprovalForAll",
      "type": "event"
    },
    {
      "anonymous": false,
      "inputs": [
        {
          "indexed": false,
          "internalType": "uint8",
          "name": "version",
          "type": "uint8"
        }
      ],
      "name": "Initialized",
      "type": "event"
    },
    {
      "anonymous": false,
      "inputs": [
        {
          "indexed": true,
          "internalType": "address",
          "name": "previousOwner",
          "type": "address"
        },
        {
          "indexed": true,
          "internalType": "address",
          "name": "newOwner",
          "type": "address"
        }
      ],
      "name": "OwnershipTransferred",
      "type": "event"
    },
    {
      "anonymous": false,
      "inputs": [
        {
          "indexed": true,
          "internalType": "address",
          "name": "from",
          "type": "address"
        },
        {
          "indexed": true,
          "internalType": "address",
          "name": "to",
          "type": "address"
        },
        {
          "indexed": true,
          "internalType": "uint256",
          "name": "tokenId",
          "type": "uint256"
        }
      ],
      "name": "Transfer",
      "type": "event"
    },
    {
      "inputs": [
        {
          "internalType": "address",
          "name": "to",
          "type": "address"
        },
        {
          "internalType": "uint256",
          "name": "tokenId",
          "type": "uint256"
        }
      ],
      "name": "approve",
      "outputs": [],
      "stateMutability": "nonpayable",
      "type": "function"
    },
    {
      "inputs": [
        {
          "internalType": "address",
          "name": "owner",
          "type": "address"
        }
      ],
      "name": "balanceOf",
      "outputs": [
        {
          "internalType": "uint256",
          "name": "",
          "type": "uint256"
        }
      ],
      "stateMutability": "view",
      "type": "function"
    },
    {
      "inputs": [],
      "name": "cost",
      "outputs": [
        {
          "internalType": "uint256",
          "name": "",
          "type": "uint256"
        }
      ],
      "stateMutability": "view",
      "type": "function"
    },
    {
      "inputs": [
        {
          "internalType": "uint256",
          "name": "tokenId",
          "type": "uint256"
        }
      ],
      "name": "getApproved",
      "outputs": [
        {
          "internalType": "address",
          "name": "",
          "type": "address"
        }
      ],
      "stateMutability": "view",
      "type": "function"
    },
    {
      "inputs": [],
      "name": "hiddenMetadataUri",
      "outputs": [
        {
          "internalType": "string",
          "name": "",
          "type": "string"
        }
      ],
      "stateMutability": "view",
      "type": "function"
    },
    {
      "inputs": [
        {
          "internalType": "string",
          "name": "_name",
          "type": "string"
        },
        {
          "internalType": "string",
          "name": "_symbol",
          "type": "string"
        },
        {
          "internalType": "uint256",
          "name": "_cost",
          "type": "uint256"
        },
        {
          "internalType": "uint256",
          "name": "_maxSupply",
          "type": "uint256"
        },
        {
          "internalType": "uint256",
          "name": "_maxMintAmountPerTx",
          "type": "uint256"
        },
        {
          "internalType": "string",
          "name": "_hiddenMetadataUri",
          "type": "string"
        },
        {
          "internalType": "string",
          "name": "_uriPrefix",
          "type": "string"
        },
        {
          "internalType": "address",
          "name": "_royaltyReceiver",
          "type": "address"
        },
        {
          "internalType": "uint96",
          "name": "_feePercent",
          "type": "uint96"
        },
        {
          "internalType": "address",
          "name": "_owner",
          "type": "address"
        }
      ],
      "name": "initialize",
      "outputs": [],
      "stateMutability": "nonpayable",
      "type": "function"
    },
    {
      "inputs": [
        {
          "internalType": "address",
          "name": "owner",
          "type": "address"
        },
        {
          "internalType": "address",
          "name": "operator",
          "type": "address"
        }
      ],
      "name": "isApprovedForAll",
      "outputs": [
        {
          "internalType": "bool",
          "name": "",
          "type": "bool"
        }
      ],
      "stateMutability": "view",
      "type": "function"
    },
    {
      "inputs": [],
      "name": "maxMintAmountPerTx",
      "outputs": [
        {
          "internalType": "uint256",
          "name": "",
          "type": "uint256"
        }
      ],
      "stateMutability": "view",
      "type": "function"
    },
    {
      "inputs": [],
      "name": "maxSupply",
      "outputs": [
        {
          "internalType": "uint256",
          "name": "",
          "type": "uint256"
        }
      ],
      "stateMutability": "view",
      "type": "function"
    },
    {
      "inputs": [
        {
          "internalType": "uint256",
          "name": "_mintAmount",
          "type": "uint256"
        }
      ],
      "name": "mint",
      "outputs": [],
      "stateMutability": "payable",
      "type": "function"
    },
    {
      "inputs": [
        {
          "internalType": "uint256",
          "name": "_mintAmount",
          "type": "uint256"
        },
        {
          "internalType": "address",
          "name": "_receiver",
          "type": "address"
        }
      ],
      "name": "mintForAddress",
      "outputs": [],
      "stateMutability": "nonpayable",
      "type": "function"
    },
    {
      "inputs": [],
      "name": "name",
      "outputs": [
        {
          "internalType": "string",
          "name": "",
          "type": "string"
        }
      ],
      "stateMutability": "view",
      "type": "function"
    },
    {
      "inputs": [],
      "name": "owner",
      "outputs": [
        {
          "internalType": "address",
          "name": "",
          "type": "address"
        }
      ],
      "stateMutability": "view",
      "type": "function"
    },
    {
      "inputs": [
        {
          "internalType": "uint256",
          "name": "tokenId",
          "type": "uint256"
        }
      ],
      "name": "ownerOf",
      "outputs": [
        {
          "internalType": "address",
          "name": "",
          "type": "address"
        }
      ],
      "stateMutability": "view",
      "type": "function"
    },
    {
      "inputs": [],
      "name": "paused",
      "outputs": [
        {
          "internalType": "bool",
          "name": "",
          "type": "bool"
        }
      ],
      "stateMutability": "view",
      "type": "function"
    },
    {
      "inputs": [],
      "name": "renounceOwnership",
      "outputs": [],
      "stateMutability": "nonpayable",
      "type": "function"
    },
    {
      "inputs": [],
      "name": "revealed",
      "outputs": [
        {
          "internalType": "bool",
          "name": "",
          "type": "bool"
        }
      ],
      "stateMutability": "view",
      "type": "function"
    },
    {
      "inputs": [
        {
          "internalType": "uint256",
          "name": "_tokenId",
          "type": "uint256"
        },
        {
          "internalType": "uint256",
          "name": "_salePrice",
          "type": "uint256"
        }
      ],
      "name": "royaltyInfo",
      "outputs": [
        {
          "internalType": "address",
          "name": "",
          "type": "address"
        },
        {
          "internalType": "uint256",
          "name": "",
          "type": "uint256"
        }
      ],
      "stateMutability": "view",
      "type": "function"
    },
    {
      "inputs": [
        {
          "internalType": "address",
          "name": "from",
          "type": "address"
        },
        {
          "internalType": "address",
          "name": "to",
          "type": "address"
        },
        {
          "internalType": "uint256",
          "name": "tokenId",
          "type": "uint256"
        }
      ],
      "name": "safeTransferFrom",
      "outputs": [],
      "stateMutability": "nonpayable",
      "type": "function"
    },
    {
      "inputs": [
        {
          "internalType": "address",
          "name": "from",
          "type": "address"
        },
        {
          "internalType": "address",
          "name": "to",
          "type": "address"
        },
        {
          "internalType": "uint256",
          "name": "tokenId",
          "type": "uint256"
        },
        {
          "internalType": "bytes",
          "name": "_data",
          "type": "bytes"
        }
      ],
      "name": "safeTransferFrom",
      "outputs": [],
      "stateMutability": "nonpayable",
      "type": "function"
    },
    {
      "inputs": [
        {
          "internalType": "address",
          "name": "operator",
          "type": "address"
        },
        {
          "internalType": "bool",
          "name": "approved",
          "type": "bool"
        }
      ],
      "name": "setApprovalForAll",
      "outputs": [],
      "stateMutability": "nonpayable",
      "type": "function"
    },
    {
      "inputs": [
        {
          "internalType": "uint256",
          "name": "_cost",
          "type": "uint256"
        }
      ],
      "name": "setCost",
      "outputs": [],
      "stateMutability": "nonpayable",
      "type": "function"
    },
    {
      "inputs": [
        {
          "internalType": "string",
          "name": "_hiddenMetadataUri",
          "type": "string"
        }
      ],
      "name": "setHiddenMetadataUri",
      "outputs": [],
      "stateMutability": "nonpayable",
      "type": "function"
    },
    {
      "inputs": [
        {
          "internalType": "uint256",
          "name": "_maxMintAmountPerTx",
          "type": "uint256"
        }
      ],
      "name": "setMaxMintAmountPerTx",
      "outputs": [],
      "stateMutability": "nonpayable",
      "type": "function"
    },
    {
      "inputs": [
        {
          "internalType": "bool",
          "name": "_state",
          "type": "bool"
        }
      ],
      "name": "setPaused",
      "outputs": [],
      "stateMutability": "nonpayable",
      "type": "function"
    },
    {
      "inputs": [
        {
          "internalType": "bool",
          "name": "_state",
          "type": "bool"
        }
      ],
      "name": "setRevealed",
      "outputs": [],
      "stateMutability": "nonpayable",
      "type": "function"
    },
    {
      "inputs": [
        {
          "internalType": "address",
          "name": "_royaltyReceiver",
          "type": "address"
        },
        {
          "internalType": "uint96",
          "name": "_feePercent",
          "type": "uint96"
        }
      ],
      "name": "setRoyaltyInfo",
      "outputs": [],
      "stateMutability": "nonpayable",
      "type": "function"
    },
    {
      "inputs": [
        {
          "internalType": "uint256",
          "name": "_tokenId",
          "type": "uint256"
        },
        {
          "internalType": "address",
          "name": "_royaltyReceiver",
          "type": "address"
        },
        {
          "internalType": "uint96",
          "name": "_feePercent",
          "type": "uint96"
        }
      ],
      "name": "setTokenRoyaltyInfo",
      "outputs": [],
      "stateMutability": "nonpayable",
      "type": "function"
    },
    {
      "inputs": [
        {
          "internalType": "string",
          "name": "_uriPrefix",
          "type": "string"
        }
      ],
      "name": "setUriPrefix",
      "outputs": [],
      "stateMutability": "nonpayable",
      "type": "function"
    },
    {
      "inputs": [
        {
          "internalType": "string",
          "name": "_uriSuffix",
          "type": "string"
        }
      ],
      "name": "setUriSuffix",
      "outputs": [],
      "stateMutability": "nonpayable",
      "type": "function"
    },
    {
      "inputs": [
        {
          "internalType": "bytes4",
          "name": "_interfaceId",
          "type": "bytes4"
        }
      ],
      "name": "supportsInterface",
      "outputs": [
        {
          "internalType": "bool",
          "name": "",
          "type": "bool"
        }
      ],
      "stateMutability": "view",
      "type": "function"
    },
    {
      "inputs": [],
      "name": "symbol",
      "outputs": [
        {
          "internalType": "string",
          "name": "",
          "type": "string"
        }
      ],
      "stateMutability": "view",
      "type": "function"
    },
    {
      "inputs": [
        {
          "internalType": "uint256",
          "name": "_tokenId",
          "type": "uint256"
        }
      ],
      "name": "tokenURI",
      "outputs": [
        {
          "internalType": "string",
          "name": "",
          "type": "string"
        }
      ],
      "stateMutability": "view",
      "type": "function"
    },
    {
      "inputs": [],
      "name": "totalSupply",
      "outputs": [
        {
          "internalType": "uint256",
          "name": "",
          "type": "uint256"
        }
      ],
      "stateMutability": "view",
      "type": "function"
    },
    {
      "inputs": [
        {
          "internalType": "address",
          "name": "from",
          "type": "address"
        },
        {
          "internalType": "address",
          "name": "to",
          "type": "address"
        },
        {
          "internalType": "uint256",
          "name": "tokenId",
          "type": "uint256"
        }
      ],
      "name": "transferFrom",
      "outputs": [],
      "stateMutability": "nonpayable",
      "type": "function"
    },
    {
      "inputs": [
        {
          "internalType": "address",
          "name": "newOwner",
          "type": "address"
        }
      ],
      "name": "transferOwnership",
      "outputs": [],
      "stateMutability": "nonpayable",
      "type": "function"
    },
    {
      "inputs": [],
      "name": "uriPrefix",
      "outputs": [
        {
          "internalType": "string",
          "name": "",
          "type": "string"
        }
      ],
      "stateMutability": "view",
      "type": "function"
    },
    {
      "inputs": [],
      "name": "uriSuffix",
      "outputs": [
        {
          "internalType": "string",
          "name": "",
          "type": "string"
        }
      ],
      "stateMutability": "view",
      "type": "function"
    },
    {
      "inputs": [
        {
          "internalType": "address",
          "name": "_owner",
          "type": "address"
        }
      ],
      "name": "walletOfOwner",
      "outputs": [
        {
          "internalType": "uint256[]",
          "name": "",
          "type": "uint256[]"
        }
      ],
      "stateMutability": "view",
      "type": "function"
    },
    {
      "inputs": [],
      "name": "withdraw",
      "outputs": [],
      "stateMutability": "nonpayable",
      "type": "function"
    }
  ],
  "transactionHash": "0xc324f1be3d78f11623efeede0a7d9aadef552e216dbd95f5920a4bca05ea9b49",
  "args": [],
  "numDeployments": 1,
  "solcInputHash": "5a28d9aaf5d1166556a86cf41e96d9c3",
  "bytecode": "0x608060405234801561001057600080fd5b50614c95806100206000396000f3fe60806040526004361061023b5760003560e01c806362b99ad41161012e578063a45ba8e7116100ab578063d5abeb011161006f578063d5abeb011461084d578063e0a8085314610878578063e985e9c5146108a1578063efbd73f4146108de578063f2fde38b146109075761023b565b8063a45ba8e71461076a578063b071401b14610795578063b88d4fde146107be578063b8f73003146107e7578063c87b56dd146108105761023b565b80638da5cb5b116100f25780638da5cb5b146106a457806394354fd0146106cf57806395d89b41146106fa578063a0712d6814610725578063a22cb465146107415761023b565b806362b99ad4146105bf5780636352211e146105ea57806370a0823114610627578063715018a6146106645780637ec4a6591461067b5761023b565b806323b872dd116101bc57806344a0d68a1161018057806344a0d68a146104ec5780634fdd43cb14610515578063518302271461053e5780635503a0e8146105695780635c975abb146105945761023b565b806323b872dd146104085780632a55205a146104315780633ccfd60b1461046f57806342842e0e14610486578063438b6300146104af5761023b565b806313cfbe501161020357806313cfbe501461033757806313faede61461036057806316ba10e01461038b57806316c38b3c146103b457806318160ddd146103dd5761023b565b806301ffc9a71461024057806302fa7c471461027d57806306fdde03146102a6578063081812fc146102d1578063095ea7b31461030e575b600080fd5b34801561024c57600080fd5b5061026760048036038101906102629190613c37565b610930565b604051610274919061437c565b60405180910390f35b34801561028957600080fd5b506102a4600480360381019061029f9190613bca565b610962565b005b3480156102b257600080fd5b506102bb6109c6565b6040516102c891906143b2565b60405180910390f35b3480156102dd57600080fd5b506102f860048036038101906102f39190613e29565b610a58565b60405161030591906142ca565b60405180910390f35b34801561031a57600080fd5b5061033560048036038101906103309190613b8a565b610ad4565b005b34801561034357600080fd5b5061035e60048036038101906103599190613cda565b610bd9565b005b34801561036c57600080fd5b50610375610dda565b60405161038291906144d4565b60405180910390f35b34801561039757600080fd5b506103b260048036038101906103ad9190613c91565b610de1565b005b3480156103c057600080fd5b506103db60048036038101906103d69190613c0a565b610e04565b005b3480156103e957600080fd5b506103f2610e2a565b6040516103ff91906144d4565b60405180910390f35b34801561041457600080fd5b5061042f600480360381019061042a9190613a74565b610e41565b005b34801561043d57600080fd5b5061045860048036038101906104539190613ee9565b610e51565b604051610466929190614331565b60405180910390f35b34801561047b57600080fd5b5061048461103c565b005b34801561049257600080fd5b506104ad60048036038101906104a89190613a74565b6110d4565b005b3480156104bb57600080fd5b506104d660048036038101906104d19190613a07565b6110f4565b6040516104e3919061435a565b60405180910390f35b3480156104f857600080fd5b50610513600480360381019061050e9190613e29565b611310565b005b34801561052157600080fd5b5061053c60048036038101906105379190613c91565b611323565b005b34801561054a57600080fd5b50610553611346565b604051610560919061437c565b60405180910390f35b34801561057557600080fd5b5061057e61135a565b60405161058b91906143b2565b60405180910390f35b3480156105a057600080fd5b506105a96113e9565b6040516105b6919061437c565b60405180910390f35b3480156105cb57600080fd5b506105d46113fd565b6040516105e191906143b2565b60405180910390f35b3480156105f657600080fd5b50610611600480360381019061060c9190613e29565b61148c565b60405161061e91906142ca565b60405180910390f35b34801561063357600080fd5b5061064e60048036038101906106499190613a07565b6114a2565b60405161065b91906144d4565b60405180910390f35b34801561067057600080fd5b50610679611572565b005b34801561068757600080fd5b506106a2600480360381019061069d9190613c91565b611586565b005b3480156106b057600080fd5b506106b96115a9565b6040516106c691906142ca565b60405180910390f35b3480156106db57600080fd5b506106e46115d3565b6040516106f191906144d4565b60405180910390f35b34801561070657600080fd5b5061070f6115da565b60405161071c91906143b2565b60405180910390f35b61073f600480360381019061073a9190613e29565b61166c565b005b34801561074d57600080fd5b5061076860048036038101906107639190613b4a565b6117ac565b005b34801561077657600080fd5b5061077f611924565b60405161078c91906143b2565b60405180910390f35b3480156107a157600080fd5b506107bc60048036038101906107b79190613e29565b6119b3565b005b3480156107ca57600080fd5b506107e560048036038101906107e09190613ac7565b6119c6565b005b3480156107f357600080fd5b5061080e60048036038101906108099190613e96565b611a3e565b005b34801561081c57600080fd5b5061083760048036038101906108329190613e29565b611aa6565b60405161084491906143b2565b60405180910390f35b34801561085957600080fd5b50610862611bf9565b60405161086f91906144d4565b60405180910390f35b34801561088457600080fd5b5061089f600480360381019061089a9190613c0a565b611c00565b005b3480156108ad57600080fd5b506108c860048036038101906108c39190613a34565b611c26565b6040516108d5919061437c565b60405180910390f35b3480156108ea57600080fd5b5061090560048036038101906109009190613e56565b611cba565b005b34801561091357600080fd5b5061092e60048036038101906109299190613a07565b611d6a565b005b600061093b82611dee565b8061094b575061094a82611ed0565b5b8061095b575061095a82611ed0565b5b9050919050565b61096a611f4a565b6109748282611fc8565b8173ffffffffffffffffffffffffffffffffffffffff167f649787d44a877bdd8d255fbfdaba9927f56be0ec7aae8fb86cd16841966479d2826040516109ba9190614518565b60405180910390a25050565b6060606780546109d590614824565b80601f0160208091040260200160405190810160405280929190818152602001828054610a0190614824565b8015610a4e5780601f10610a2357610100808354040283529160200191610a4e565b820191906000526020600020905b815481529060010190602001808311610a3157829003601f168201915b5050505050905090565b6000610a638261215e565b610a99576040517fcf4700e400000000000000000000000000000000000000000000000000000000815260040160405180910390fd5b606b600083815260200190815260200160002060009054906101000a900473ffffffffffffffffffffffffffffffffffffffff169050919050565b6000610adf8261148c565b90508073ffffffffffffffffffffffffffffffffffffffff168373ffffffffffffffffffffffffffffffffffffffff161415610b47576040517f943f7b8c00000000000000000000000000000000000000000000000000000000815260040160405180910390fd5b8073ffffffffffffffffffffffffffffffffffffffff16610b666121ac565b73ffffffffffffffffffffffffffffffffffffffff1614610bc957610b9281610b8d6121ac565b611c26565b610bc8576040517fcfb3b94200000000000000000000000000000000000000000000000000000000815260040160405180910390fd5b5b610bd48383836121b4565b505050565b60008060019054906101000a900460ff16159050808015610c0a5750600160008054906101000a900460ff1660ff16105b80610c375750610c1930612266565b158015610c365750600160008054906101000a900460ff1660ff16145b5b610c76576040517f08c379a0000000000000000000000000000000000000000000000000000000008152600401610c6d906143f4565b60405180910390fd5b60016000806101000a81548160ff021916908360ff1602179055508015610cb3576001600060016101000a81548160ff0219169083151502179055505b610cbb612289565b610cc36122e2565b610ccb612333565b610cd58b8b61238c565b88610130819055508761013181905550610cee876119b3565b610cf786611323565b610d0085611586565b610d0a6001610e04565b610d146000611c00565b610d1e8484610962565b610d2782611d6a565b6040518060400160405280600581526020017f2e6a736f6e00000000000000000000000000000000000000000000000000000081525061012e9080519060200190610d739291906137c3565b508015610dcd5760008060016101000a81548160ff0219169083151502179055507f7f26b83ff96e1f2b6a682f133852f6798a09c465da95921460cefb38474024986001604051610dc49190614397565b60405180910390a15b5050505050505050505050565b6101305481565b610de9611f4a565b8061012e9080519060200190610e009291906137c3565b5050565b610e0c611f4a565b8061013360006101000a81548160ff02191690831515021790555050565b6000610e346123e9565b6066546065540303905090565b610e4c8383836123f2565b505050565b600080600060ca60008681526020019081526020016000206040518060400160405290816000820160009054906101000a900473ffffffffffffffffffffffffffffffffffffffff1673ffffffffffffffffffffffffffffffffffffffff1673ffffffffffffffffffffffffffffffffffffffff1681526020016000820160149054906101000a90046bffffffffffffffffffffffff166bffffffffffffffffffffffff166bffffffffffffffffffffffff16815250509050600073ffffffffffffffffffffffffffffffffffffffff16816000015173ffffffffffffffffffffffffffffffffffffffff161415610fe75760c96040518060400160405290816000820160009054906101000a900473ffffffffffffffffffffffffffffffffffffffff1673ffffffffffffffffffffffffffffffffffffffff1673ffffffffffffffffffffffffffffffffffffffff1681526020016000820160149054906101000a90046bffffffffffffffffffffffff166bffffffffffffffffffffffff166bffffffffffffffffffffffff168152505090505b6000610ff16128a8565b6bffffffffffffffffffffffff1682602001516bffffffffffffffffffffffff168661101d91906146dd565b61102791906146ac565b90508160000151819350935050509250929050565b611044611f4a565b61104c6128b2565b60006110566115a9565b73ffffffffffffffffffffffffffffffffffffffff1647604051611079906142b5565b60006040518083038185875af1925050503d80600081146110b6576040519150601f19603f3d011682016040523d82523d6000602084013e6110bb565b606091505b50509050806110c957600080fd5b506110d2612902565b565b6110ef838383604051806020016040528060008152506119c6565b505050565b60606000611101836114a2565b905060008167ffffffffffffffff81111561111f5761111e61498c565b5b60405190808252806020026020018201604052801561114d5781602001602082028036833780820191505090505b509050600061115a6123e9565b90506000805b84821080156111725750610131548311155b15611303576000606960008581526020019081526020016000206040518060600160405290816000820160009054906101000a900473ffffffffffffffffffffffffffffffffffffffff1673ffffffffffffffffffffffffffffffffffffffff1673ffffffffffffffffffffffffffffffffffffffff1681526020016000820160149054906101000a900467ffffffffffffffff1667ffffffffffffffff1667ffffffffffffffff16815260200160008201601c9054906101000a900460ff1615151515815250509050806040015115801561127f5750600073ffffffffffffffffffffffffffffffffffffffff16816000015173ffffffffffffffffffffffffffffffffffffffff1614155b1561128c57806000015191505b8773ffffffffffffffffffffffffffffffffffffffff168273ffffffffffffffffffffffffffffffffffffffff1614156112ef57838584815181106112d4576112d361495d565b5b60200260200101818152505082806112eb90614887565b9350505b83806112fa90614887565b94505050611160565b8395505050505050919050565b611318611f4a565b806101308190555050565b61132b611f4a565b8061012f90805190602001906113429291906137c3565b5050565b61013360019054906101000a900460ff1681565b61012e805461136890614824565b80601f016020809104026020016040519081016040528092919081815260200182805461139490614824565b80156113e15780601f106113b6576101008083540402835291602001916113e1565b820191906000526020600020905b8154815290600101906020018083116113c457829003601f168201915b505050505081565b61013360009054906101000a900460ff1681565b61012d805461140b90614824565b80601f016020809104026020016040519081016040528092919081815260200182805461143790614824565b80156114845780601f1061145957610100808354040283529160200191611484565b820191906000526020600020905b81548152906001019060200180831161146757829003601f168201915b505050505081565b60006114978261290c565b600001519050919050565b60008073ffffffffffffffffffffffffffffffffffffffff168273ffffffffffffffffffffffffffffffffffffffff16141561150a576040517f8f4eb60400000000000000000000000000000000000000000000000000000000815260040160405180910390fd5b606a60008373ffffffffffffffffffffffffffffffffffffffff1673ffffffffffffffffffffffffffffffffffffffff16815260200190815260200160002060000160009054906101000a900467ffffffffffffffff1667ffffffffffffffff169050919050565b61157a611f4a565b6115846000612b97565b565b61158e611f4a565b8061012d90805190602001906115a59291906137c3565b5050565b6000609760009054906101000a900473ffffffffffffffffffffffffffffffffffffffff16905090565b6101325481565b6060606880546115e990614824565b80601f016020809104026020016040519081016040528092919081815260200182805461161590614824565b80156116625780601f1061163757610100808354040283529160200191611662565b820191906000526020600020905b81548152906001019060200180831161164557829003601f168201915b5050505050905090565b8060008111158061167f57506101325481115b156116b6576040517fccfad01800000000000000000000000000000000000000000000000000000000815260040160405180910390fd5b61013154816116c3610e2a565b6116cd9190614656565b1115611705576040517f8a164f6300000000000000000000000000000000000000000000000000000000815260040160405180910390fd5b81806101305461171591906146dd565b34101561174e576040517f356680b700000000000000000000000000000000000000000000000000000000815260040160405180910390fd5b61013360009054906101000a900460ff1615611796576040517f4c940fff00000000000000000000000000000000000000000000000000000000815260040160405180910390fd5b6117a76117a16121ac565b84612c5d565b505050565b6117b46121ac565b73ffffffffffffffffffffffffffffffffffffffff168273ffffffffffffffffffffffffffffffffffffffff161415611819576040517fb06307db00000000000000000000000000000000000000000000000000000000815260040160405180910390fd5b80606c60006118266121ac565b73ffffffffffffffffffffffffffffffffffffffff1673ffffffffffffffffffffffffffffffffffffffff16815260200190815260200160002060008473ffffffffffffffffffffffffffffffffffffffff1673ffffffffffffffffffffffffffffffffffffffff16815260200190815260200160002060006101000a81548160ff0219169083151502179055508173ffffffffffffffffffffffffffffffffffffffff166118d36121ac565b73ffffffffffffffffffffffffffffffffffffffff167f17307eab39ab6107e8899845ad3d59bd9653f200f220920489ca2b5937696c3183604051611918919061437c565b60405180910390a35050565b61012f805461193290614824565b80601f016020809104026020016040519081016040528092919081815260200182805461195e90614824565b80156119ab5780601f10611980576101008083540402835291602001916119ab565b820191906000526020600020905b81548152906001019060200180831161198e57829003601f168201915b505050505081565b6119bb611f4a565b806101328190555050565b6119d18484846123f2565b6119f08373ffffffffffffffffffffffffffffffffffffffff16612266565b15611a3857611a0184848484612c7b565b611a37576040517fd1a57ed600000000000000000000000000000000000000000000000000000000815260040160405180910390fd5b5b50505050565b611a46611f4a565b611a51838383612ddb565b8173ffffffffffffffffffffffffffffffffffffffff167f6b487ddd0efdbfd7606e8030e43550f55602ad00f641f939c333b8731daca8a28483604051611a999291906144ef565b60405180910390a2505050565b6060611ab18261215e565b611ae7576040517fecf0f7a000000000000000000000000000000000000000000000000000000000815260040160405180910390fd5b6000151561013360019054906101000a900460ff1615151415611b975761012f8054611b1290614824565b80601f0160208091040260200160405190810160405280929190818152602001828054611b3e90614824565b8015611b8b5780601f10611b6057610100808354040283529160200191611b8b565b820191906000526020600020905b815481529060010190602001808311611b6e57829003601f168201915b50505050509050611bf4565b6000611ba1612f83565b90506000815111611bc15760405180602001604052806000815250611bf0565b80611bcb84613016565b61012e604051602001611be093929190614279565b6040516020818303038152906040525b9150505b919050565b6101315481565b611c08611f4a565b8061013360016101000a81548160ff02191690831515021790555050565b6000606c60008473ffffffffffffffffffffffffffffffffffffffff1673ffffffffffffffffffffffffffffffffffffffff16815260200190815260200160002060008373ffffffffffffffffffffffffffffffffffffffff1673ffffffffffffffffffffffffffffffffffffffff16815260200190815260200160002060009054906101000a900460ff16905092915050565b81600081111580611ccd57506101325481115b15611d04576040517fccfad01800000000000000000000000000000000000000000000000000000000815260040160405180910390fd5b6101315481611d11610e2a565b611d1b9190614656565b1115611d53576040517f8a164f6300000000000000000000000000000000000000000000000000000000815260040160405180910390fd5b611d5b611f4a565b611d658284612c5d565b505050565b611d72611f4a565b600073ffffffffffffffffffffffffffffffffffffffff168173ffffffffffffffffffffffffffffffffffffffff161415611de2576040517f08c379a0000000000000000000000000000000000000000000000000000000008152600401611dd9906143d4565b60405180910390fd5b611deb81612b97565b50565b60007f80ac58cd000000000000000000000000000000000000000000000000000000007bffffffffffffffffffffffffffffffffffffffffffffffffffffffff1916827bffffffffffffffffffffffffffffffffffffffffffffffffffffffff19161480611eb957507f5b5e139f000000000000000000000000000000000000000000000000000000007bffffffffffffffffffffffffffffffffffffffffffffffffffffffff1916827bffffffffffffffffffffffffffffffffffffffffffffffffffffffff1916145b80611ec95750611ec8826130ee565b5b9050919050565b60007f2a55205a000000000000000000000000000000000000000000000000000000007bffffffffffffffffffffffffffffffffffffffffffffffffffffffff1916827bffffffffffffffffffffffffffffffffffffffffffffffffffffffff19161480611f435750611f4282611dee565b5b9050919050565b611f526121ac565b73ffffffffffffffffffffffffffffffffffffffff16611f706115a9565b73ffffffffffffffffffffffffffffffffffffffff1614611fc6576040517f08c379a0000000000000000000000000000000000000000000000000000000008152600401611fbd90614414565b60405180910390fd5b565b611fd06128a8565b6bffffffffffffffffffffffff16816bffffffffffffffffffffffff16111561202e576040517f08c379a000000000000000000000000000000000000000000000000000000000815260040161202590614474565b60405180910390fd5b600073ffffffffffffffffffffffffffffffffffffffff168273ffffffffffffffffffffffffffffffffffffffff16141561209e576040517f08c379a0000000000000000000000000000000000000000000000000000000008152600401612095906144b4565b60405180910390fd5b60405180604001604052808373ffffffffffffffffffffffffffffffffffffffff168152602001826bffffffffffffffffffffffff1681525060c960008201518160000160006101000a81548173ffffffffffffffffffffffffffffffffffffffff021916908373ffffffffffffffffffffffffffffffffffffffff16021790555060208201518160000160146101000a8154816bffffffffffffffffffffffff02191690836bffffffffffffffffffffffff1602179055509050505050565b6000816121696123e9565b11158015612178575060655482105b80156121a5575060696000838152602001908152602001600020600001601c9054906101000a900460ff16155b9050919050565b600033905090565b82606b600084815260200190815260200160002060006101000a81548173ffffffffffffffffffffffffffffffffffffffff021916908373ffffffffffffffffffffffffffffffffffffffff160217905550818373ffffffffffffffffffffffffffffffffffffffff168273ffffffffffffffffffffffffffffffffffffffff167f8c5be1e5ebec7d5bd14f71427d1e84f3dd0314c0f7b2291e5b200ac8c7c3b92560405160405180910390a4505050565b6000808273ffffffffffffffffffffffffffffffffffffffff163b119050919050565b600060019054906101000a900460ff166122d8576040517f08c379a00000000000000000000000000000000000000000000000000000000081526004016122cf90614454565b60405180910390fd5b6122e0613158565b565b600060019054906101000a900460ff16612331576040517f08c379a000000000000000000000000000000000000000000000000000000000815260040161232890614454565b60405180910390fd5b565b600060019054906101000a900460ff16612382576040517f08c379a000000000000000000000000000000000000000000000000000000000815260040161237990614454565b60405180910390fd5b61238a6131b9565b565b600060019054906101000a900460ff166123db576040517f08c379a00000000000000000000000000000000000000000000000000000000081526004016123d290614454565b60405180910390fd5b6123e58282613212565b5050565b60006001905090565b60006123fd8261290c565b90508373ffffffffffffffffffffffffffffffffffffffff16816000015173ffffffffffffffffffffffffffffffffffffffff1614612468576040517fa114810000000000000000000000000000000000000000000000000000000000815260040160405180910390fd5b60008473ffffffffffffffffffffffffffffffffffffffff166124896121ac565b73ffffffffffffffffffffffffffffffffffffffff1614806124b857506124b7856124b26121ac565b611c26565b5b806124fd57506124c66121ac565b73ffffffffffffffffffffffffffffffffffffffff166124e584610a58565b73ffffffffffffffffffffffffffffffffffffffff16145b905080612536576040517f59c896be00000000000000000000000000000000000000000000000000000000815260040160405180910390fd5b600073ffffffffffffffffffffffffffffffffffffffff168473ffffffffffffffffffffffffffffffffffffffff16141561259d576040517fea553b3400000000000000000000000000000000000000000000000000000000815260040160405180910390fd5b6125aa85858560016132a1565b6125b6600084876121b4565b6001606a60008773ffffffffffffffffffffffffffffffffffffffff1673ffffffffffffffffffffffffffffffffffffffff16815260200190815260200160002060000160008282829054906101000a900467ffffffffffffffff160392506101000a81548167ffffffffffffffff021916908367ffffffffffffffff1602179055506001606a60008673ffffffffffffffffffffffffffffffffffffffff1673ffffffffffffffffffffffffffffffffffffffff16815260200190815260200160002060000160008282829054906101000a900467ffffffffffffffff160192506101000a81548167ffffffffffffffff021916908367ffffffffffffffff1602179055506000606960008581526020019081526020016000209050848160000160006101000a81548173ffffffffffffffffffffffffffffffffffffffff021916908373ffffffffffffffffffffffffffffffffffffffff160217905550428160000160146101000a81548167ffffffffffffffff021916908367ffffffffffffffff16021790555060006001850190506000606960008381526020019081526020016000209050600073ffffffffffffffffffffffffffffffffffffffff168160000160009054906101000a900473ffffffffffffffffffffffffffffffffffffffff1673ffffffffffffffffffffffffffffffffffffffff16141561283657606554821461283557878160000160006101000a81548173ffffffffffffffffffffffffffffffffffffffff021916908373ffffffffffffffffffffffffffffffffffffffff16021790555084602001518160000160146101000a81548167ffffffffffffffff021916908367ffffffffffffffff1602179055505b5b505050828473ffffffffffffffffffffffffffffffffffffffff168673ffffffffffffffffffffffffffffffffffffffff167fddf252ad1be2c89b69c2b068fc378daa952ba7f163c4a11628f55a4df523b3ef60405160405180910390a46128a185858560016132a7565b5050505050565b6000612710905090565b600260fb5414156128f8576040517f08c379a00000000000000000000000000000000000000000000000000000000081526004016128ef90614494565b60405180910390fd5b600260fb81905550565b600160fb81905550565b612914613849565b6000829050806129226123e9565b11612b6057606554811015612b5f576000606960008381526020019081526020016000206040518060600160405290816000820160009054906101000a900473ffffffffffffffffffffffffffffffffffffffff1673ffffffffffffffffffffffffffffffffffffffff1673ffffffffffffffffffffffffffffffffffffffff1681526020016000820160149054906101000a900467ffffffffffffffff1667ffffffffffffffff1667ffffffffffffffff16815260200160008201601c9054906101000a900460ff16151515158152505090508060400151612b5d57600073ffffffffffffffffffffffffffffffffffffffff16816000015173ffffffffffffffffffffffffffffffffffffffff1614612a41578092505050612b92565b5b600115612b5c57818060019003925050606960008381526020019081526020016000206040518060600160405290816000820160009054906101000a900473ffffffffffffffffffffffffffffffffffffffff1673ffffffffffffffffffffffffffffffffffffffff1673ffffffffffffffffffffffffffffffffffffffff1681526020016000820160149054906101000a900467ffffffffffffffff1667ffffffffffffffff1667ffffffffffffffff16815260200160008201601c9054906101000a900460ff1615151515815250509050600073ffffffffffffffffffffffffffffffffffffffff16816000015173ffffffffffffffffffffffffffffffffffffffff1614612b57578092505050612b92565b612a42565b5b505b5b6040517fdf2d9b4200000000000000000000000000000000000000000000000000000000815260040160405180910390fd5b919050565b6000609760009054906101000a900473ffffffffffffffffffffffffffffffffffffffff16905081609760006101000a81548173ffffffffffffffffffffffffffffffffffffffff021916908373ffffffffffffffffffffffffffffffffffffffff1602179055508173ffffffffffffffffffffffffffffffffffffffff168173ffffffffffffffffffffffffffffffffffffffff167f8be0079c531659141344cd1fd0a4f28419497f9722a3daafe3b4186f6b6457e060405160405180910390a35050565b612c778282604051806020016040528060008152506132ad565b5050565b60008373ffffffffffffffffffffffffffffffffffffffff1663150b7a02612ca16121ac565b8786866040518563ffffffff1660e01b8152600401612cc394939291906142e5565b602060405180830381600087803b158015612cdd57600080fd5b505af1925050508015612d0e57506040513d601f19601f82011682018060405250810190612d0b9190613c64565b60015b612d88573d8060008114612d3e576040519150601f19603f3d011682016040523d82523d6000602084013e612d43565b606091505b50600081511415612d80576040517fd1a57ed600000000000000000000000000000000000000000000000000000000815260040160405180910390fd5b805181602001fd5b63150b7a0260e01b7bffffffffffffffffffffffffffffffffffffffffffffffffffffffff1916817bffffffffffffffffffffffffffffffffffffffffffffffffffffffff191614915050949350505050565b612de36128a8565b6bffffffffffffffffffffffff16816bffffffffffffffffffffffff161115612e41576040517f08c379a0000000000000000000000000000000000000000000000000000000008152600401612e3890614474565b60405180910390fd5b600073ffffffffffffffffffffffffffffffffffffffff168273ffffffffffffffffffffffffffffffffffffffff161415612eb1576040517f08c379a0000000000000000000000000000000000000000000000000000000008152600401612ea890614434565b60405180910390fd5b60405180604001604052808373ffffffffffffffffffffffffffffffffffffffff168152602001826bffffffffffffffffffffffff1681525060ca600085815260200190815260200160002060008201518160000160006101000a81548173ffffffffffffffffffffffffffffffffffffffff021916908373ffffffffffffffffffffffffffffffffffffffff16021790555060208201518160000160146101000a8154816bffffffffffffffffffffffff02191690836bffffffffffffffffffffffff160217905550905050505050565b606061012d8054612f9390614824565b80601f0160208091040260200160405190810160405280929190818152602001828054612fbf90614824565b801561300c5780601f10612fe15761010080835404028352916020019161300c565b820191906000526020600020905b815481529060010190602001808311612fef57829003601f168201915b5050505050905090565b60606000600161302584613670565b01905060008167ffffffffffffffff8111156130445761304361498c565b5b6040519080825280601f01601f1916602001820160405280156130765781602001600182028036833780820191505090505b509050600082602001820190505b6001156130e3578080600190039150507f3031323334353637383961626364656600000000000000000000000000000000600a86061a8153600a85816130cd576130cc6148ff565b5b04945060008514156130de576130e3565b613084565b819350505050919050565b60007f01ffc9a7000000000000000000000000000000000000000000000000000000007bffffffffffffffffffffffffffffffffffffffffffffffffffffffff1916827bffffffffffffffffffffffffffffffffffffffffffffffffffffffff1916149050919050565b600060019054906101000a900460ff166131a7576040517f08c379a000000000000000000000000000000000000000000000000000000000815260040161319e90614454565b60405180910390fd5b6131b76131b26121ac565b612b97565b565b600060019054906101000a900460ff16613208576040517f08c379a00000000000000000000000000000000000000000000000000000000081526004016131ff90614454565b60405180910390fd5b600160fb81905550565b600060019054906101000a900460ff16613261576040517f08c379a000000000000000000000000000000000000000000000000000000000815260040161325890614454565b60405180910390fd5b81606790805190602001906132779291906137c3565b50806068908051906020019061328e9291906137c3565b506132976123e9565b6065819055505050565b50505050565b50505050565b60006065549050600073ffffffffffffffffffffffffffffffffffffffff168473ffffffffffffffffffffffffffffffffffffffff16141561331b576040517f2e07630000000000000000000000000000000000000000000000000000000000815260040160405180910390fd5b6000831415613356576040517fb562e8dd00000000000000000000000000000000000000000000000000000000815260040160405180910390fd5b61336360008583866132a1565b82606a60008673ffffffffffffffffffffffffffffffffffffffff1673ffffffffffffffffffffffffffffffffffffffff16815260200190815260200160002060000160008282829054906101000a900467ffffffffffffffff160192506101000a81548167ffffffffffffffff021916908367ffffffffffffffff16021790555082606a60008673ffffffffffffffffffffffffffffffffffffffff1673ffffffffffffffffffffffffffffffffffffffff16815260200190815260200160002060000160088282829054906101000a900467ffffffffffffffff160192506101000a81548167ffffffffffffffff021916908367ffffffffffffffff160217905550836069600083815260200190815260200160002060000160006101000a81548173ffffffffffffffffffffffffffffffffffffffff021916908373ffffffffffffffffffffffffffffffffffffffff160217905550426069600083815260200190815260200160002060000160146101000a81548167ffffffffffffffff021916908367ffffffffffffffff1602179055506000819050600084820190506135248673ffffffffffffffffffffffffffffffffffffffff16612266565b156135e9575b818673ffffffffffffffffffffffffffffffffffffffff16600073ffffffffffffffffffffffffffffffffffffffff167fddf252ad1be2c89b69c2b068fc378daa952ba7f163c4a11628f55a4df523b3ef60405160405180910390a46135996000878480600101955087612c7b565b6135cf576040517fd1a57ed600000000000000000000000000000000000000000000000000000000815260040160405180910390fd5b80821061352a5782606554146135e457600080fd5b613654565b5b818060010192508673ffffffffffffffffffffffffffffffffffffffff16600073ffffffffffffffffffffffffffffffffffffffff167fddf252ad1be2c89b69c2b068fc378daa952ba7f163c4a11628f55a4df523b3ef60405160405180910390a48082106135ea575b81606581905550505061366a60008583866132a7565b50505050565b600080600090507a184f03e93ff9f4daa797ed6e38ed64bf6a1f01000000000000000083106136ce577a184f03e93ff9f4daa797ed6e38ed64bf6a1f01000000000000000083816136c4576136c36148ff565b5b0492506040810190505b6d04ee2d6d415b85acef8100000000831061370b576d04ee2d6d415b85acef81000000008381613701576137006148ff565b5b0492506020810190505b662386f26fc10000831061373a57662386f26fc1000083816137305761372f6148ff565b5b0492506010810190505b6305f5e1008310613763576305f5e1008381613759576137586148ff565b5b0492506008810190505b612710831061378857612710838161377e5761377d6148ff565b5b0492506004810190505b606483106137ab57606483816137a1576137a06148ff565b5b0492506002810190505b600a83106137ba576001810190505b80915050919050565b8280546137cf90614824565b90600052602060002090601f0160209004810192826137f15760008555613838565b82601f1061380a57805160ff1916838001178555613838565b82800160010185558215613838579182015b8281111561383757825182559160200191906001019061381c565b5b509050613845919061388c565b5090565b6040518060600160405280600073ffffffffffffffffffffffffffffffffffffffff168152602001600067ffffffffffffffff1681526020016000151581525090565b5b808211156138a557600081600090555060010161388d565b5090565b60006138bc6138b784614558565b614533565b9050828152602081018484840111156138d8576138d76149c0565b5b6138e38482856147e2565b509392505050565b60006138fe6138f984614589565b614533565b90508281526020810184848401111561391a576139196149c0565b5b6139258482856147e2565b509392505050565b60008135905061393c81614bec565b92915050565b60008135905061395181614c03565b92915050565b60008135905061396681614c1a565b92915050565b60008151905061397b81614c1a565b92915050565b600082601f830112613996576139956149bb565b5b81356139a68482602086016138a9565b91505092915050565b600082601f8301126139c4576139c36149bb565b5b81356139d48482602086016138eb565b91505092915050565b6000813590506139ec81614c31565b92915050565b600081359050613a0181614c48565b92915050565b600060208284031215613a1d57613a1c6149ca565b5b6000613a2b8482850161392d565b91505092915050565b60008060408385031215613a4b57613a4a6149ca565b5b6000613a598582860161392d565b9250506020613a6a8582860161392d565b9150509250929050565b600080600060608486031215613a8d57613a8c6149ca565b5b6000613a9b8682870161392d565b9350506020613aac8682870161392d565b9250506040613abd868287016139dd565b9150509250925092565b60008060008060808587031215613ae157613ae06149ca565b5b6000613aef8782880161392d565b9450506020613b008782880161392d565b9350506040613b11878288016139dd565b925050606085013567ffffffffffffffff811115613b3257613b316149c5565b5b613b3e87828801613981565b91505092959194509250565b60008060408385031215613b6157613b606149ca565b5b6000613b6f8582860161392d565b9250506020613b8085828601613942565b9150509250929050565b60008060408385031215613ba157613ba06149ca565b5b6000613baf8582860161392d565b9250506020613bc0858286016139dd565b9150509250929050565b60008060408385031215613be157613be06149ca565b5b6000613bef8582860161392d565b9250506020613c00858286016139f2565b9150509250929050565b600060208284031215613c2057613c1f6149ca565b5b6000613c2e84828501613942565b91505092915050565b600060208284031215613c4d57613c4c6149ca565b5b6000613c5b84828501613957565b91505092915050565b600060208284031215613c7a57613c796149ca565b5b6000613c888482850161396c565b91505092915050565b600060208284031215613ca757613ca66149ca565b5b600082013567ffffffffffffffff811115613cc557613cc46149c5565b5b613cd1848285016139af565b91505092915050565b6000806000806000806000806000806101408b8d031215613cfe57613cfd6149ca565b5b60008b013567ffffffffffffffff811115613d1c57613d1b6149c5565b5b613d288d828e016139af565b9a505060208b013567ffffffffffffffff811115613d4957613d486149c5565b5b613d558d828e016139af565b9950506040613d668d828e016139dd565b9850506060613d778d828e016139dd565b9750506080613d888d828e016139dd565b96505060a08b013567ffffffffffffffff811115613da957613da86149c5565b5b613db58d828e016139af565b95505060c08b013567ffffffffffffffff811115613dd657613dd56149c5565b5b613de28d828e016139af565b94505060e0613df38d828e0161392d565b935050610100613e058d828e016139f2565b925050610120613e178d828e0161392d565b9150509295989b9194979a5092959850565b600060208284031215613e3f57613e3e6149ca565b5b6000613e4d848285016139dd565b91505092915050565b60008060408385031215613e6d57613e6c6149ca565b5b6000613e7b858286016139dd565b9250506020613e8c8582860161392d565b9150509250929050565b600080600060608486031215613eaf57613eae6149ca565b5b6000613ebd868287016139dd565b9350506020613ece8682870161392d565b9250506040613edf868287016139f2565b9150509250925092565b60008060408385031215613f0057613eff6149ca565b5b6000613f0e858286016139dd565b9250506020613f1f858286016139dd565b9150509250929050565b6000613f35838361424c565b60208301905092915050565b613f4a81614737565b82525050565b6000613f5b826145df565b613f65818561460d565b9350613f70836145ba565b8060005b83811015613fa1578151613f888882613f29565b9750613f9383614600565b925050600181019050613f74565b5085935050505092915050565b613fb781614749565b82525050565b6000613fc8826145ea565b613fd2818561461e565b9350613fe28185602086016147f1565b613feb816149cf565b840191505092915050565b613fff816147d0565b82525050565b6000614010826145f5565b61401a818561463a565b935061402a8185602086016147f1565b614033816149cf565b840191505092915050565b6000614049826145f5565b614053818561464b565b93506140638185602086016147f1565b80840191505092915050565b6000815461407c81614824565b614086818661464b565b945060018216600081146140a157600181146140b2576140e5565b60ff198316865281860193506140e5565b6140bb856145ca565b60005b838110156140dd578154818901526001820191506020810190506140be565b838801955050505b50505092915050565b60006140fb60268361463a565b9150614106826149e0565b604082019050919050565b600061411e602e8361463a565b915061412982614a2f565b604082019050919050565b600061414160208361463a565b915061414c82614a7e565b602082019050919050565b600061416460008361462f565b915061416f82614aa7565b600082019050919050565b6000614187601b8361463a565b915061419282614aaa565b602082019050919050565b60006141aa602b8361463a565b91506141b582614ad3565b604082019050919050565b60006141cd602a8361463a565b91506141d882614b22565b604082019050919050565b60006141f0601f8361463a565b91506141fb82614b71565b602082019050919050565b600061421360198361463a565b915061421e82614b9a565b602082019050919050565b600061423660018361464b565b915061424182614bc3565b600182019050919050565b614255816147a1565b82525050565b614264816147a1565b82525050565b614273816147b8565b82525050565b6000614285828661403e565b915061429082614229565b915061429c828561403e565b91506142a8828461406f565b9150819050949350505050565b60006142c082614157565b9150819050919050565b60006020820190506142df6000830184613f41565b92915050565b60006080820190506142fa6000830187613f41565b6143076020830186613f41565b614314604083018561425b565b81810360608301526143268184613fbd565b905095945050505050565b60006040820190506143466000830185613f41565b614353602083018461425b565b9392505050565b600060208201905081810360008301526143748184613f50565b905092915050565b60006020820190506143916000830184613fae565b92915050565b60006020820190506143ac6000830184613ff6565b92915050565b600060208201905081810360008301526143cc8184614005565b905092915050565b600060208201905081810360008301526143ed816140ee565b9050919050565b6000602082019050818103600083015261440d81614111565b9050919050565b6000602082019050818103600083015261442d81614134565b9050919050565b6000602082019050818103600083015261444d8161417a565b9050919050565b6000602082019050818103600083015261446d8161419d565b9050919050565b6000602082019050818103600083015261448d816141c0565b9050919050565b600060208201905081810360008301526144ad816141e3565b9050919050565b600060208201905081810360008301526144cd81614206565b9050919050565b60006020820190506144e9600083018461425b565b92915050565b6000604082019050614504600083018561425b565b614511602083018461426a565b9392505050565b600060208201905061452d600083018461426a565b92915050565b600061453d61454e565b90506145498282614856565b919050565b6000604051905090565b600067ffffffffffffffff8211156145735761457261498c565b5b61457c826149cf565b9050602081019050919050565b600067ffffffffffffffff8211156145a4576145a361498c565b5b6145ad826149cf565b9050602081019050919050565b6000819050602082019050919050565b60008190508160005260206000209050919050565b600081519050919050565b600081519050919050565b600081519050919050565b6000602082019050919050565b600082825260208201905092915050565b600082825260208201905092915050565b600081905092915050565b600082825260208201905092915050565b600081905092915050565b6000614661826147a1565b915061466c836147a1565b9250827fffffffffffffffffffffffffffffffffffffffffffffffffffffffffffffffff038211156146a1576146a06148d0565b5b828201905092915050565b60006146b7826147a1565b91506146c2836147a1565b9250826146d2576146d16148ff565b5b828204905092915050565b60006146e8826147a1565b91506146f3836147a1565b9250817fffffffffffffffffffffffffffffffffffffffffffffffffffffffffffffffff048311821515161561472c5761472b6148d0565b5b828202905092915050565b600061474282614781565b9050919050565b60008115159050919050565b60007fffffffff0000000000000000000000000000000000000000000000000000000082169050919050565b600073ffffffffffffffffffffffffffffffffffffffff82169050919050565b6000819050919050565b600060ff82169050919050565b60006bffffffffffffffffffffffff82169050919050565b60006147db826147ab565b9050919050565b82818337600083830152505050565b60005b8381101561480f5780820151818401526020810190506147f4565b8381111561481e576000848401525b50505050565b6000600282049050600182168061483c57607f821691505b602082108114156148505761484f61492e565b5b50919050565b61485f826149cf565b810181811067ffffffffffffffff8211171561487e5761487d61498c565b5b80604052505050565b6000614892826147a1565b91507fffffffffffffffffffffffffffffffffffffffffffffffffffffffffffffffff8214156148c5576148c46148d0565b5b600182019050919050565b7f4e487b7100000000000000000000000000000000000000000000000000000000600052601160045260246000fd5b7f4e487b7100000000000000000000000000000000000000000000000000000000600052601260045260246000fd5b7f4e487b7100000000000000000000000000000000000000000000000000000000600052602260045260246000fd5b7f4e487b7100000000000000000000000000000000000000000000000000000000600052603260045260246000fd5b7f4e487b7100000000000000000000000000000000000000000000000000000000600052604160045260246000fd5b600080fd5b600080fd5b600080fd5b600080fd5b6000601f19601f8301169050919050565b7f4f776e61626c653a206e6577206f776e657220697320746865207a65726f206160008201527f6464726573730000000000000000000000000000000000000000000000000000602082015250565b7f496e697469616c697a61626c653a20636f6e747261637420697320616c72656160008201527f647920696e697469616c697a6564000000000000000000000000000000000000602082015250565b7f4f776e61626c653a2063616c6c6572206973206e6f7420746865206f776e6572600082015250565b50565b7f455243323938313a20496e76616c696420706172616d65746572730000000000600082015250565b7f496e697469616c697a61626c653a20636f6e7472616374206973206e6f74206960008201527f6e697469616c697a696e67000000000000000000000000000000000000000000602082015250565b7f455243323938313a20726f79616c7479206665652077696c6c2065786365656460008201527f2073616c65507269636500000000000000000000000000000000000000000000602082015250565b7f5265656e7472616e637947756172643a207265656e7472616e742063616c6c00600082015250565b7f455243323938313a20696e76616c696420726563656976657200000000000000600082015250565b7f2f00000000000000000000000000000000000000000000000000000000000000600082015250565b614bf581614737565b8114614c0057600080fd5b50565b614c0c81614749565b8114614c1757600080fd5b50565b614c2381614755565b8114614c2e57600080fd5b50565b614c3a816147a1565b8114614c4557600080fd5b50565b614c51816147b8565b8114614c5c57600080fd5b5056fea2646970667358221220a251afc3d3ada2e3de5cb0a4da3890cfb71aec3fa824c18b9314ab72aeed126e64736f6c63430008070033",
  "devdoc": {
    "kind": "dev",
    "methods": {
      "approve(address,uint256)": {
        "details": "See {IERC721-approve}."
      },
      "balanceOf(address)": {
        "details": "See {IERC721-balanceOf}."
      },
      "getApproved(uint256)": {
        "details": "See {IERC721-getApproved}."
      },
      "initialize(string,string,uint256,uint256,uint256,string,string,address,uint96,address)": {
        "params": {
          "_cost": "Contract mint cost",
          "_feePercent": "Royalty fee numerator; denominator is 10,000. So 500 represents 5%",
          "_hiddenMetadataUri": "Hidden metadata uri",
          "_maxMintAmountPerTx": "Max mint amount per transaction",
          "_maxSupply": "Contract maxSupply",
          "_name": "Contract name",
          "_owner": "Contract owner",
          "_royaltyReceiver": "Royalty fee collector",
          "_symbol": "Contract symbol",
          "_uriPrefix": "Metadata uri prefix"
        }
      },
      "isApprovedForAll(address,address)": {
        "details": "See {IERC721-isApprovedForAll}."
      },
      "mint(uint256)": {
        "params": {
          "_mintAmount": "Amount of tokens to be minted"
        }
      },
      "mintForAddress(uint256,address)": {
        "params": {
          "_mintAmount": "Amount of tokens to be minted",
          "_receiver": "Receiver address"
        }
      },
      "name()": {
        "details": "See {IERC721Metadata-name}."
      },
      "owner()": {
        "details": "Returns the address of the current owner."
      },
      "ownerOf(uint256)": {
        "details": "See {IERC721-ownerOf}."
      },
      "renounceOwnership()": {
        "details": "Leaves the contract without owner. It will not be possible to call `onlyOwner` functions anymore. Can only be called by the current owner. NOTE: Renouncing ownership will leave the contract without an owner, thereby removing any functionality that is only available to the owner."
      },
      "royaltyInfo(uint256,uint256)": {
        "details": "Returns how much royalty is owed and to whom, based on a sale price that may be denominated in any unit of exchange. The royalty amount is denominated and should be paid in that same unit of exchange."
      },
      "safeTransferFrom(address,address,uint256)": {
        "details": "See {IERC721-safeTransferFrom}."
      },
      "safeTransferFrom(address,address,uint256,bytes)": {
        "details": "See {IERC721-safeTransferFrom}."
      },
      "setApprovalForAll(address,bool)": {
        "details": "See {IERC721-setApprovalForAll}."
      },
      "setCost(uint256)": {
        "details": "Can only be called by project owner",
        "params": {
          "_cost": "Cost price to be set"
        }
      },
      "setHiddenMetadataUri(string)": {
        "details": "Can only be called by project owner",
        "params": {
          "_hiddenMetadataUri": "Hidden metadata uri to be set"
        }
      },
      "setMaxMintAmountPerTx(uint256)": {
        "details": "Can only be called by project owner",
        "params": {
          "_maxMintAmountPerTx": "Max mint amount per tx to be set"
        }
      },
      "setPaused(bool)": {
        "details": "Can only be called by project owner",
        "params": {
          "_state": "Paused state to be set"
        }
      },
      "setRevealed(bool)": {
        "details": "Can only be called by project owner",
        "params": {
          "_state": "Revealed state to be set"
        }
      },
      "setRoyaltyInfo(address,uint96)": {
        "details": "Can only be called by project ownerOwner can prevent any sale by setting the address to any address that can't receive native network token",
        "params": {
          "_feePercent": "Royalty fee numerator; denominator is 10,000. So 500 represents 5%",
          "_royaltyReceiver": "Royalty fee collector"
        }
      },
      "setTokenRoyaltyInfo(uint256,address,uint96)": {
        "details": "Can only be called by project ownerOwner can prevent any sale by setting the address to any address that can't receive native network token",
        "params": {
          "_feePercent": "Royalty fee numerator; denominator is 10,000. So 500 represents 5%",
          "_royaltyReceiver": "Royalty fee collector",
          "_tokenId": "Token ID royalty to be set"
        }
      },
      "setUriPrefix(string)": {
        "details": "Can only be called by project owner",
        "params": {
          "_uriPrefix": "Uri prefix to be set"
        }
      },
      "setUriSuffix(string)": {
        "details": "Can only be called by project owner",
        "params": {
          "_uriSuffix": "Uri suffix to be set"
        }
      },
      "supportsInterface(bytes4)": {
        "details": "Needs to be overridden cause two base contracts implement it",
        "params": {
          "_interfaceId": "InterfaceId to consider. Comes from type(InterfaceContract).interfaceId"
        },
        "returns": {
          "_0": "bool True if the considered interface is supported"
        }
      },
      "symbol()": {
        "details": "See {IERC721Metadata-symbol}."
      },
      "tokenURI(uint256)": {
        "params": {
          "_tokenId": "Token id"
        },
        "returns": {
          "_0": "string Token uri"
        }
      },
      "totalSupply()": {
        "details": "Burned tokens are calculated here, use _totalMinted() if you want to count just minted tokens."
      },
      "transferFrom(address,address,uint256)": {
        "details": "See {IERC721-transferFrom}."
      },
      "transferOwnership(address)": {
        "details": "Transfers ownership of the contract to a new account (`newOwner`). Can only be called by the current owner."
      },
      "walletOfOwner(address)": {
        "params": {
          "_owner": "Address of wallet owner"
        },
        "returns": {
          "_0": "uint256[] Owned token ids"
        }
      },
      "withdraw()": {
        "details": "Can only be called by project owner"
      }
    },
    "version": 1
  },
  "userdoc": {
    "errors": {
      "ApprovalCallerNotOwnerNorApproved()": [
        {
          "notice": "The caller must own the token or be an approved operator."
        }
      ],
      "ApprovalQueryForNonexistentToken()": [
        {
          "notice": "The token does not exist."
        }
      ],
      "ApprovalToCurrentOwner()": [
        {
          "notice": "The caller cannot approve to the current owner."
        }
      ],
      "ApproveToCaller()": [
        {
          "notice": "The caller cannot approve to their own address."
        }
      ],
      "BalanceQueryForZeroAddress()": [
        {
          "notice": "Cannot query the balance for the zero address."
        }
      ],
      "ERC721__URIQueryForNonexistentToken()": [
        {
          "notice": "URI query for nonexistent token!"
        }
      ],
      "InsufficientFunds()": [
        {
          "notice": "Insufficient funds!"
        }
      ],
      "InvalidMintAmount()": [
        {
          "notice": "Invalid mint amount!"
        }
      ],
      "MaxSupplyExceeded()": [
        {
          "notice": "Max supply exceeded!"
        }
      ],
      "MintToZeroAddress()": [
        {
          "notice": "Cannot mint to the zero address."
        }
      ],
      "MintZeroQuantity()": [
        {
          "notice": "The quantity of tokens minted must be more than zero."
        }
      ],
      "OwnerQueryForNonexistentToken()": [
        {
          "notice": "The token does not exist."
        }
      ],
      "TheContractIsPaused()": [
        {
          "notice": "The contract is paused!"
        }
      ],
      "TransferCallerNotOwnerNorApproved()": [
        {
          "notice": "The caller must own the token or be an approved operator."
        }
      ],
      "TransferFromIncorrectOwner()": [
        {
          "notice": "The token must be owned by `from`."
        }
      ],
      "TransferToNonERC721ReceiverImplementer()": [
        {
          "notice": "Cannot safely transfer to a contract that does not implement the ERC721Receiver interface."
        }
      ],
      "TransferToZeroAddress()": [
        {
          "notice": "Cannot transfer to the zero address."
        }
      ],
      "URIQueryForNonexistentToken()": [
        {
          "notice": "The token does not exist."
        }
      ]
    },
    "kind": "user",
    "methods": {
      "cost()": {
        "notice": "Mint cost"
      },
      "hiddenMetadataUri()": {
        "notice": "Contract hidden metadata uri"
      },
      "initialize(string,string,uint256,uint256,uint256,string,string,address,uint96,address)": {
        "notice": "Contract initialization"
      },
      "maxMintAmountPerTx()": {
        "notice": "Max mint amount per transaction"
      },
      "maxSupply()": {
        "notice": "Contract maxSupply"
      },
      "mint(uint256)": {
        "notice": "Function to mint new tokens"
      },
      "mintForAddress(uint256,address)": {
        "notice": "Function to mint new tokens for address"
      },
      "paused()": {
        "notice": "Contract status state"
      },
      "revealed()": {
        "notice": "Contract revealed state"
      },
      "setCost(uint256)": {
        "notice": "Function for changing cost price"
      },
      "setHiddenMetadataUri(string)": {
        "notice": "Function for changing hidden metadata uri"
      },
      "setMaxMintAmountPerTx(uint256)": {
        "notice": "Function for changing max mint amount per tx"
      },
      "setPaused(bool)": {
        "notice": "Function for changing paused state"
      },
      "setRevealed(bool)": {
        "notice": "Function for changing revealed state"
      },
      "setRoyaltyInfo(address,uint96)": {
        "notice": "Function for changing royalty information"
      },
      "setTokenRoyaltyInfo(uint256,address,uint96)": {
        "notice": "Function for changing token royalty information"
      },
      "setUriPrefix(string)": {
        "notice": "Function for changing uri prefix"
      },
      "setUriSuffix(string)": {
        "notice": "Function for changing uri suffix"
      },
      "supportsInterface(bytes4)": {
        "notice": "Returns true if this contract implements the interface defined by `interfaceId`"
      },
      "tokenURI(uint256)": {
        "notice": "Function to get token uri"
      },
      "uriPrefix()": {
        "notice": "Contract uri prefix"
      },
      "uriSuffix()": {
        "notice": "Contract uri suffix"
      },
      "walletOfOwner(address)": {
        "notice": "Function for getting list of owned token ids"
      },
      "withdraw()": {
        "notice": "Function for withdrawing contact funds"
      }
    },
    "version": 1
  },
  "storageLayout": {
    "storage": [
      {
        "astId": 203,
        "contract": "contracts/ERC721A/ERC721A_Basic.sol:ERC721A_Basic",
        "label": "_initialized",
        "offset": 0,
        "slot": "0",
        "type": "t_uint8"
      },
      {
        "astId": 206,
        "contract": "contracts/ERC721A/ERC721A_Basic.sol:ERC721A_Basic",
        "label": "_initializing",
        "offset": 1,
        "slot": "0",
        "type": "t_bool"
      },
      {
        "astId": 2565,
        "contract": "contracts/ERC721A/ERC721A_Basic.sol:ERC721A_Basic",
        "label": "__gap",
        "offset": 0,
        "slot": "1",
        "type": "t_array(t_uint256)50_storage"
      },
      {
        "astId": 3286,
        "contract": "contracts/ERC721A/ERC721A_Basic.sol:ERC721A_Basic",
        "label": "__gap",
        "offset": 0,
        "slot": "51",
        "type": "t_array(t_uint256)50_storage"
      },
      {
        "astId": 6220,
        "contract": "contracts/ERC721A/ERC721A_Basic.sol:ERC721A_Basic",
        "label": "_currentIndex",
        "offset": 0,
        "slot": "101",
        "type": "t_uint256"
      },
      {
        "astId": 6222,
        "contract": "contracts/ERC721A/ERC721A_Basic.sol:ERC721A_Basic",
        "label": "_burnCounter",
        "offset": 0,
        "slot": "102",
        "type": "t_uint256"
      },
      {
        "astId": 6224,
        "contract": "contracts/ERC721A/ERC721A_Basic.sol:ERC721A_Basic",
        "label": "_name",
        "offset": 0,
        "slot": "103",
        "type": "t_string_storage"
      },
      {
        "astId": 6226,
        "contract": "contracts/ERC721A/ERC721A_Basic.sol:ERC721A_Basic",
        "label": "_symbol",
        "offset": 0,
        "slot": "104",
        "type": "t_string_storage"
      },
      {
        "astId": 6231,
        "contract": "contracts/ERC721A/ERC721A_Basic.sol:ERC721A_Basic",
        "label": "_ownerships",
        "offset": 0,
        "slot": "105",
        "type": "t_mapping(t_uint256,t_struct(TokenOwnership)7648_storage)"
      },
      {
        "astId": 6236,
        "contract": "contracts/ERC721A/ERC721A_Basic.sol:ERC721A_Basic",
        "label": "_addressData",
        "offset": 0,
        "slot": "106",
        "type": "t_mapping(t_address,t_struct(AddressData)7657_storage)"
      },
      {
        "astId": 6240,
        "contract": "contracts/ERC721A/ERC721A_Basic.sol:ERC721A_Basic",
        "label": "_tokenApprovals",
        "offset": 0,
        "slot": "107",
        "type": "t_mapping(t_uint256,t_address)"
      },
      {
        "astId": 6246,
        "contract": "contracts/ERC721A/ERC721A_Basic.sol:ERC721A_Basic",
        "label": "_operatorApprovals",
        "offset": 0,
        "slot": "108",
        "type": "t_mapping(t_address,t_mapping(t_address,t_bool))"
      },
      {
        "astId": 7592,
        "contract": "contracts/ERC721A/ERC721A_Basic.sol:ERC721A_Basic",
        "label": "__gap",
        "offset": 0,
        "slot": "109",
        "type": "t_array(t_uint256)42_storage"
      },
      {
        "astId": 56,
        "contract": "contracts/ERC721A/ERC721A_Basic.sol:ERC721A_Basic",
        "label": "_owner",
        "offset": 0,
        "slot": "151",
        "type": "t_address"
      },
      {
        "astId": 176,
        "contract": "contracts/ERC721A/ERC721A_Basic.sol:ERC721A_Basic",
        "label": "__gap",
        "offset": 0,
        "slot": "152",
        "type": "t_array(t_uint256)49_storage"
      },
      {
        "astId": 2054,
        "contract": "contracts/ERC721A/ERC721A_Basic.sol:ERC721A_Basic",
        "label": "_defaultRoyaltyInfo",
        "offset": 0,
        "slot": "201",
        "type": "t_struct(RoyaltyInfo)2051_storage"
      },
      {
        "astId": 2059,
        "contract": "contracts/ERC721A/ERC721A_Basic.sol:ERC721A_Basic",
        "label": "_tokenRoyaltyInfo",
        "offset": 0,
        "slot": "202",
        "type": "t_mapping(t_uint256,t_struct(RoyaltyInfo)2051_storage)"
      },
      {
        "astId": 2239,
        "contract": "contracts/ERC721A/ERC721A_Basic.sol:ERC721A_Basic",
        "label": "__gap",
        "offset": 0,
        "slot": "203",
        "type": "t_array(t_uint256)48_storage"
      },
      {
        "astId": 379,
        "contract": "contracts/ERC721A/ERC721A_Basic.sol:ERC721A_Basic",
        "label": "_status",
        "offset": 0,
        "slot": "251",
        "type": "t_uint256"
      },
      {
        "astId": 437,
        "contract": "contracts/ERC721A/ERC721A_Basic.sol:ERC721A_Basic",
        "label": "__gap",
        "offset": 0,
        "slot": "252",
        "type": "t_array(t_uint256)49_storage"
      },
      {
        "astId": 4780,
        "contract": "contracts/ERC721A/ERC721A_Basic.sol:ERC721A_Basic",
        "label": "uriPrefix",
        "offset": 0,
        "slot": "301",
        "type": "t_string_storage"
      },
      {
        "astId": 4783,
        "contract": "contracts/ERC721A/ERC721A_Basic.sol:ERC721A_Basic",
        "label": "uriSuffix",
        "offset": 0,
        "slot": "302",
        "type": "t_string_storage"
      },
      {
        "astId": 4786,
        "contract": "contracts/ERC721A/ERC721A_Basic.sol:ERC721A_Basic",
        "label": "hiddenMetadataUri",
        "offset": 0,
        "slot": "303",
        "type": "t_string_storage"
      },
      {
        "astId": 4789,
        "contract": "contracts/ERC721A/ERC721A_Basic.sol:ERC721A_Basic",
        "label": "cost",
        "offset": 0,
        "slot": "304",
        "type": "t_uint256"
      },
      {
        "astId": 4792,
        "contract": "contracts/ERC721A/ERC721A_Basic.sol:ERC721A_Basic",
        "label": "maxSupply",
        "offset": 0,
        "slot": "305",
        "type": "t_uint256"
      },
      {
        "astId": 4795,
        "contract": "contracts/ERC721A/ERC721A_Basic.sol:ERC721A_Basic",
        "label": "maxMintAmountPerTx",
        "offset": 0,
        "slot": "306",
        "type": "t_uint256"
      },
      {
        "astId": 4798,
        "contract": "contracts/ERC721A/ERC721A_Basic.sol:ERC721A_Basic",
        "label": "paused",
        "offset": 0,
        "slot": "307",
        "type": "t_bool"
      },
      {
        "astId": 4801,
        "contract": "contracts/ERC721A/ERC721A_Basic.sol:ERC721A_Basic",
        "label": "revealed",
        "offset": 1,
        "slot": "307",
        "type": "t_bool"
      }
    ],
    "types": {
      "t_address": {
        "encoding": "inplace",
        "label": "address",
        "numberOfBytes": "20"
      },
      "t_array(t_uint256)42_storage": {
        "base": "t_uint256",
        "encoding": "inplace",
        "label": "uint256[42]",
        "numberOfBytes": "1344"
      },
      "t_array(t_uint256)48_storage": {
        "base": "t_uint256",
        "encoding": "inplace",
        "label": "uint256[48]",
        "numberOfBytes": "1536"
      },
      "t_array(t_uint256)49_storage": {
        "base": "t_uint256",
        "encoding": "inplace",
        "label": "uint256[49]",
        "numberOfBytes": "1568"
      },
      "t_array(t_uint256)50_storage": {
        "base": "t_uint256",
        "encoding": "inplace",
        "label": "uint256[50]",
        "numberOfBytes": "1600"
      },
      "t_bool": {
        "encoding": "inplace",
        "label": "bool",
        "numberOfBytes": "1"
      },
      "t_mapping(t_address,t_bool)": {
        "encoding": "mapping",
        "key": "t_address",
        "label": "mapping(address => bool)",
        "numberOfBytes": "32",
        "value": "t_bool"
      },
      "t_mapping(t_address,t_mapping(t_address,t_bool))": {
        "encoding": "mapping",
        "key": "t_address",
        "label": "mapping(address => mapping(address => bool))",
        "numberOfBytes": "32",
        "value": "t_mapping(t_address,t_bool)"
      },
      "t_mapping(t_address,t_struct(AddressData)7657_storage)": {
        "encoding": "mapping",
        "key": "t_address",
        "label": "mapping(address => struct IERC721AUpgradeable.AddressData)",
        "numberOfBytes": "32",
        "value": "t_struct(AddressData)7657_storage"
      },
      "t_mapping(t_uint256,t_address)": {
        "encoding": "mapping",
        "key": "t_uint256",
        "label": "mapping(uint256 => address)",
        "numberOfBytes": "32",
        "value": "t_address"
      },
      "t_mapping(t_uint256,t_struct(RoyaltyInfo)2051_storage)": {
        "encoding": "mapping",
        "key": "t_uint256",
        "label": "mapping(uint256 => struct ERC2981Upgradeable.RoyaltyInfo)",
        "numberOfBytes": "32",
        "value": "t_struct(RoyaltyInfo)2051_storage"
      },
      "t_mapping(t_uint256,t_struct(TokenOwnership)7648_storage)": {
        "encoding": "mapping",
        "key": "t_uint256",
        "label": "mapping(uint256 => struct IERC721AUpgradeable.TokenOwnership)",
        "numberOfBytes": "32",
        "value": "t_struct(TokenOwnership)7648_storage"
      },
      "t_string_storage": {
        "encoding": "bytes",
        "label": "string",
        "numberOfBytes": "32"
      },
      "t_struct(AddressData)7657_storage": {
        "encoding": "inplace",
        "label": "struct IERC721AUpgradeable.AddressData",
        "members": [
          {
            "astId": 7650,
            "contract": "contracts/ERC721A/ERC721A_Basic.sol:ERC721A_Basic",
            "label": "balance",
            "offset": 0,
            "slot": "0",
            "type": "t_uint64"
          },
          {
            "astId": 7652,
            "contract": "contracts/ERC721A/ERC721A_Basic.sol:ERC721A_Basic",
            "label": "numberMinted",
            "offset": 8,
            "slot": "0",
            "type": "t_uint64"
          },
          {
            "astId": 7654,
            "contract": "contracts/ERC721A/ERC721A_Basic.sol:ERC721A_Basic",
            "label": "numberBurned",
            "offset": 16,
            "slot": "0",
            "type": "t_uint64"
          },
          {
            "astId": 7656,
            "contract": "contracts/ERC721A/ERC721A_Basic.sol:ERC721A_Basic",
            "label": "aux",
            "offset": 24,
            "slot": "0",
            "type": "t_uint64"
          }
        ],
        "numberOfBytes": "32"
      },
      "t_struct(RoyaltyInfo)2051_storage": {
        "encoding": "inplace",
        "label": "struct ERC2981Upgradeable.RoyaltyInfo",
        "members": [
          {
            "astId": 2048,
            "contract": "contracts/ERC721A/ERC721A_Basic.sol:ERC721A_Basic",
            "label": "receiver",
            "offset": 0,
            "slot": "0",
            "type": "t_address"
          },
          {
            "astId": 2050,
            "contract": "contracts/ERC721A/ERC721A_Basic.sol:ERC721A_Basic",
            "label": "royaltyFraction",
            "offset": 20,
            "slot": "0",
            "type": "t_uint96"
          }
        ],
        "numberOfBytes": "32"
      },
      "t_struct(TokenOwnership)7648_storage": {
        "encoding": "inplace",
        "label": "struct IERC721AUpgradeable.TokenOwnership",
        "members": [
          {
            "astId": 7643,
            "contract": "contracts/ERC721A/ERC721A_Basic.sol:ERC721A_Basic",
            "label": "addr",
            "offset": 0,
            "slot": "0",
            "type": "t_address"
          },
          {
            "astId": 7645,
            "contract": "contracts/ERC721A/ERC721A_Basic.sol:ERC721A_Basic",
            "label": "startTimestamp",
            "offset": 20,
            "slot": "0",
            "type": "t_uint64"
          },
          {
            "astId": 7647,
            "contract": "contracts/ERC721A/ERC721A_Basic.sol:ERC721A_Basic",
            "label": "burned",
            "offset": 28,
            "slot": "0",
            "type": "t_bool"
          }
        ],
        "numberOfBytes": "32"
      },
      "t_uint256": {
        "encoding": "inplace",
        "label": "uint256",
        "numberOfBytes": "32"
      },
      "t_uint64": {
        "encoding": "inplace",
        "label": "uint64",
        "numberOfBytes": "8"
      },
      "t_uint8": {
        "encoding": "inplace",
        "label": "uint8",
        "numberOfBytes": "1"
      },
      "t_uint96": {
        "encoding": "inplace",
        "label": "uint96",
        "numberOfBytes": "12"
      }
    }
  }
}