{
  "address": "0xd5A7a9FbBA4a871B26037f12cdD6757990F0fDb6",
  "abi": [
    {
      "inputs": [],
      "name": "AddressAlreadyClaimed",
      "type": "error"
    },
    {
      "inputs": [],
      "name": "ApprovalCallerNotOwnerNorApproved",
      "type": "error"
    },
    {
      "inputs": [],
      "name": "ApprovalQueryForNonexistentToken",
      "type": "error"
    },
    {
      "inputs": [],
      "name": "ApprovalToCurrentOwner",
      "type": "error"
    },
    {
      "inputs": [],
      "name": "ApproveToCaller",
      "type": "error"
    },
    {
      "inputs": [],
      "name": "BalanceQueryForZeroAddress",
      "type": "error"
    },
    {
      "inputs": [],
      "name": "ERC721__URIQueryForNonexistentToken",
      "type": "error"
    },
    {
      "inputs": [],
      "name": "InsufficientFunds",
      "type": "error"
    },
    {
      "inputs": [],
      "name": "InvalidMintAmount",
      "type": "error"
    },
    {
      "inputs": [],
      "name": "InvalidProof",
      "type": "error"
    },
    {
      "inputs": [],
      "name": "MaxSupplyExceeded",
      "type": "error"
    },
    {
      "inputs": [],
      "name": "MintToZeroAddress",
      "type": "error"
    },
    {
      "inputs": [],
      "name": "MintZeroQuantity",
      "type": "error"
    },
    {
      "inputs": [],
      "name": "OwnerQueryForNonexistentToken",
      "type": "error"
    },
    {
      "inputs": [],
      "name": "TheContractIsPaused",
      "type": "error"
    },
    {
      "inputs": [],
      "name": "TheWhitelistSaleIsNotEnabled",
      "type": "error"
    },
    {
      "inputs": [],
      "name": "TransferCallerNotOwnerNorApproved",
      "type": "error"
    },
    {
      "inputs": [],
      "name": "TransferFromIncorrectOwner",
      "type": "error"
    },
    {
      "inputs": [],
      "name": "TransferToNonERC721ReceiverImplementer",
      "type": "error"
    },
    {
      "inputs": [],
      "name": "TransferToZeroAddress",
      "type": "error"
    },
    {
      "inputs": [],
      "name": "URIQueryForNonexistentToken",
      "type": "error"
    },
    {
      "anonymous": false,
      "inputs": [
        {
          "indexed": true,
          "internalType": "address",
          "name": "owner",
          "type": "address"
        },
        {
          "indexed": true,
          "internalType": "address",
          "name": "approved",
          "type": "address"
        },
        {
          "indexed": true,
          "internalType": "uint256",
          "name": "tokenId",
          "type": "uint256"
        }
      ],
      "name": "Approval",
      "type": "event"
    },
    {
      "anonymous": false,
      "inputs": [
        {
          "indexed": true,
          "internalType": "address",
          "name": "owner",
          "type": "address"
        },
        {
          "indexed": true,
          "internalType": "address",
          "name": "operator",
          "type": "address"
        },
        {
          "indexed": false,
          "internalType": "bool",
          "name": "approved",
          "type": "bool"
        }
      ],
      "name": "ApprovalForAll",
      "type": "event"
    },
    {
      "anonymous": false,
      "inputs": [
        {
          "indexed": false,
          "internalType": "uint8",
          "name": "version",
          "type": "uint8"
        }
      ],
      "name": "Initialized",
      "type": "event"
    },
    {
      "anonymous": false,
      "inputs": [
        {
          "indexed": true,
          "internalType": "string",
          "name": "_name",
          "type": "string"
        },
        {
          "indexed": true,
          "internalType": "string",
          "name": "_symbol",
          "type": "string"
        },
        {
          "indexed": false,
          "internalType": "uint256",
          "name": "_cost",
          "type": "uint256"
        },
        {
          "indexed": false,
          "internalType": "uint256",
          "name": "_maxSupply",
          "type": "uint256"
        },
        {
          "indexed": false,
          "internalType": "uint256",
          "name": "_maxMintAmountPerTx",
          "type": "uint256"
        },
        {
          "indexed": false,
          "internalType": "string",
          "name": "_hiddenMetadataUri",
          "type": "string"
        },
        {
          "indexed": false,
          "internalType": "string",
          "name": "_uriPrefix",
          "type": "string"
        },
        {
          "indexed": false,
          "internalType": "address",
          "name": "_royaltyReceiver",
          "type": "address"
        },
        {
          "indexed": false,
          "internalType": "uint96",
          "name": "_feePercent",
          "type": "uint96"
        },
        {
          "indexed": true,
          "internalType": "address",
          "name": "_owner",
          "type": "address"
        }
      ],
      "name": "InitializedContract",
      "type": "event"
    },
    {
      "anonymous": false,
      "inputs": [
        {
          "indexed": true,
          "internalType": "address",
          "name": "previousOwner",
          "type": "address"
        },
        {
          "indexed": true,
          "internalType": "address",
          "name": "newOwner",
          "type": "address"
        }
      ],
      "name": "OwnershipTransferred",
      "type": "event"
    },
    {
      "anonymous": false,
      "inputs": [
        {
          "indexed": true,
          "internalType": "address",
          "name": "from",
          "type": "address"
        },
        {
          "indexed": true,
          "internalType": "address",
          "name": "to",
          "type": "address"
        },
        {
          "indexed": true,
          "internalType": "uint256",
          "name": "tokenId",
          "type": "uint256"
        }
      ],
      "name": "Transfer",
      "type": "event"
    },
    {
      "inputs": [
        {
          "internalType": "address",
          "name": "to",
          "type": "address"
        },
        {
          "internalType": "uint256",
          "name": "tokenId",
          "type": "uint256"
        }
      ],
      "name": "approve",
      "outputs": [],
      "stateMutability": "nonpayable",
      "type": "function"
    },
    {
      "inputs": [
        {
          "internalType": "address",
          "name": "owner",
          "type": "address"
        }
      ],
      "name": "balanceOf",
      "outputs": [
        {
          "internalType": "uint256",
          "name": "",
          "type": "uint256"
        }
      ],
      "stateMutability": "view",
      "type": "function"
    },
    {
      "inputs": [],
      "name": "cost",
      "outputs": [
        {
          "internalType": "uint256",
          "name": "",
          "type": "uint256"
        }
      ],
      "stateMutability": "view",
      "type": "function"
    },
    {
      "inputs": [
        {
          "internalType": "uint256",
          "name": "tokenId",
          "type": "uint256"
        }
      ],
      "name": "getApproved",
      "outputs": [
        {
          "internalType": "address",
          "name": "",
          "type": "address"
        }
      ],
      "stateMutability": "view",
      "type": "function"
    },
    {
      "inputs": [],
      "name": "hiddenMetadataUri",
      "outputs": [
        {
          "internalType": "string",
          "name": "",
          "type": "string"
        }
      ],
      "stateMutability": "view",
      "type": "function"
    },
    {
      "inputs": [
        {
          "internalType": "string",
          "name": "_name",
          "type": "string"
        },
        {
          "internalType": "string",
          "name": "_symbol",
          "type": "string"
        },
        {
          "internalType": "uint256",
          "name": "_cost",
          "type": "uint256"
        },
        {
          "internalType": "uint256",
          "name": "_maxSupply",
          "type": "uint256"
        },
        {
          "internalType": "uint256",
          "name": "_maxMintAmountPerTx",
          "type": "uint256"
        },
        {
          "internalType": "string",
          "name": "_hiddenMetadataUri",
          "type": "string"
        },
        {
          "internalType": "string",
          "name": "_uriPrefix",
          "type": "string"
        },
        {
          "internalType": "address",
          "name": "_royaltyReceiver",
          "type": "address"
        },
        {
          "internalType": "uint96",
          "name": "_feePercent",
          "type": "uint96"
        },
        {
          "internalType": "address",
          "name": "_owner",
          "type": "address"
        }
      ],
      "name": "initialize",
      "outputs": [],
      "stateMutability": "nonpayable",
      "type": "function"
    },
    {
      "inputs": [
        {
          "internalType": "address",
          "name": "owner",
          "type": "address"
        },
        {
          "internalType": "address",
          "name": "operator",
          "type": "address"
        }
      ],
      "name": "isApprovedForAll",
      "outputs": [
        {
          "internalType": "bool",
          "name": "",
          "type": "bool"
        }
      ],
      "stateMutability": "view",
      "type": "function"
    },
    {
      "inputs": [],
      "name": "maxMintAmountPerTx",
      "outputs": [
        {
          "internalType": "uint256",
          "name": "",
          "type": "uint256"
        }
      ],
      "stateMutability": "view",
      "type": "function"
    },
    {
      "inputs": [],
      "name": "maxSupply",
      "outputs": [
        {
          "internalType": "uint256",
          "name": "",
          "type": "uint256"
        }
      ],
      "stateMutability": "view",
      "type": "function"
    },
    {
      "inputs": [],
      "name": "merkleRoot",
      "outputs": [
        {
          "internalType": "bytes32",
          "name": "",
          "type": "bytes32"
        }
      ],
      "stateMutability": "view",
      "type": "function"
    },
    {
      "inputs": [
        {
          "internalType": "uint256",
          "name": "_mintAmount",
          "type": "uint256"
        }
      ],
      "name": "mint",
      "outputs": [],
      "stateMutability": "payable",
      "type": "function"
    },
    {
      "inputs": [
        {
          "internalType": "uint256",
          "name": "_mintAmount",
          "type": "uint256"
        },
        {
          "internalType": "address",
          "name": "_receiver",
          "type": "address"
        }
      ],
      "name": "mintForAddress",
      "outputs": [],
      "stateMutability": "nonpayable",
      "type": "function"
    },
    {
      "inputs": [],
      "name": "name",
      "outputs": [
        {
          "internalType": "string",
          "name": "",
          "type": "string"
        }
      ],
      "stateMutability": "view",
      "type": "function"
    },
    {
      "inputs": [],
      "name": "owner",
      "outputs": [
        {
          "internalType": "address",
          "name": "",
          "type": "address"
        }
      ],
      "stateMutability": "view",
      "type": "function"
    },
    {
      "inputs": [
        {
          "internalType": "uint256",
          "name": "tokenId",
          "type": "uint256"
        }
      ],
      "name": "ownerOf",
      "outputs": [
        {
          "internalType": "address",
          "name": "",
          "type": "address"
        }
      ],
      "stateMutability": "view",
      "type": "function"
    },
    {
      "inputs": [],
      "name": "paused",
      "outputs": [
        {
          "internalType": "bool",
          "name": "",
          "type": "bool"
        }
      ],
      "stateMutability": "view",
      "type": "function"
    },
    {
      "inputs": [],
      "name": "renounceOwnership",
      "outputs": [],
      "stateMutability": "nonpayable",
      "type": "function"
    },
    {
      "inputs": [],
      "name": "revealed",
      "outputs": [
        {
          "internalType": "bool",
          "name": "",
          "type": "bool"
        }
      ],
      "stateMutability": "view",
      "type": "function"
    },
    {
      "inputs": [
        {
          "internalType": "uint256",
          "name": "_tokenId",
          "type": "uint256"
        },
        {
          "internalType": "uint256",
          "name": "_salePrice",
          "type": "uint256"
        }
      ],
      "name": "royaltyInfo",
      "outputs": [
        {
          "internalType": "address",
          "name": "",
          "type": "address"
        },
        {
          "internalType": "uint256",
          "name": "",
          "type": "uint256"
        }
      ],
      "stateMutability": "view",
      "type": "function"
    },
    {
      "inputs": [
        {
          "internalType": "address",
          "name": "from",
          "type": "address"
        },
        {
          "internalType": "address",
          "name": "to",
          "type": "address"
        },
        {
          "internalType": "uint256",
          "name": "tokenId",
          "type": "uint256"
        }
      ],
      "name": "safeTransferFrom",
      "outputs": [],
      "stateMutability": "nonpayable",
      "type": "function"
    },
    {
      "inputs": [
        {
          "internalType": "address",
          "name": "from",
          "type": "address"
        },
        {
          "internalType": "address",
          "name": "to",
          "type": "address"
        },
        {
          "internalType": "uint256",
          "name": "tokenId",
          "type": "uint256"
        },
        {
          "internalType": "bytes",
          "name": "_data",
          "type": "bytes"
        }
      ],
      "name": "safeTransferFrom",
      "outputs": [],
      "stateMutability": "nonpayable",
      "type": "function"
    },
    {
      "inputs": [
        {
          "internalType": "address",
          "name": "operator",
          "type": "address"
        },
        {
          "internalType": "bool",
          "name": "approved",
          "type": "bool"
        }
      ],
      "name": "setApprovalForAll",
      "outputs": [],
      "stateMutability": "nonpayable",
      "type": "function"
    },
    {
      "inputs": [
        {
          "internalType": "uint256",
          "name": "_cost",
          "type": "uint256"
        }
      ],
      "name": "setCost",
      "outputs": [],
      "stateMutability": "nonpayable",
      "type": "function"
    },
    {
      "inputs": [
        {
          "internalType": "string",
          "name": "_hiddenMetadataUri",
          "type": "string"
        }
      ],
      "name": "setHiddenMetadataUri",
      "outputs": [],
      "stateMutability": "nonpayable",
      "type": "function"
    },
    {
      "inputs": [
        {
          "internalType": "uint256",
          "name": "_maxMintAmountPerTx",
          "type": "uint256"
        }
      ],
      "name": "setMaxMintAmountPerTx",
      "outputs": [],
      "stateMutability": "nonpayable",
      "type": "function"
    },
    {
      "inputs": [
        {
          "internalType": "bytes32",
          "name": "_merkleRoot",
          "type": "bytes32"
        }
      ],
      "name": "setMerkleRoot",
      "outputs": [],
      "stateMutability": "nonpayable",
      "type": "function"
    },
    {
      "inputs": [
        {
          "internalType": "bool",
          "name": "_state",
          "type": "bool"
        }
      ],
      "name": "setPaused",
      "outputs": [],
      "stateMutability": "nonpayable",
      "type": "function"
    },
    {
      "inputs": [
        {
          "internalType": "bool",
          "name": "_state",
          "type": "bool"
        }
      ],
      "name": "setRevealed",
      "outputs": [],
      "stateMutability": "nonpayable",
      "type": "function"
    },
    {
      "inputs": [
        {
          "internalType": "address",
          "name": "_royaltyReceiver",
          "type": "address"
        },
        {
          "internalType": "uint96",
          "name": "_feePercent",
          "type": "uint96"
        }
      ],
      "name": "setRoyaltyInfo",
      "outputs": [],
      "stateMutability": "nonpayable",
      "type": "function"
    },
    {
      "inputs": [
        {
          "internalType": "uint256",
          "name": "_tokenId",
          "type": "uint256"
        },
        {
          "internalType": "address",
          "name": "_royaltyReceiver",
          "type": "address"
        },
        {
          "internalType": "uint96",
          "name": "_feePercent",
          "type": "uint96"
        }
      ],
      "name": "setTokenRoyaltyInfo",
      "outputs": [],
      "stateMutability": "nonpayable",
      "type": "function"
    },
    {
      "inputs": [
        {
          "internalType": "string",
          "name": "_uriPrefix",
          "type": "string"
        }
      ],
      "name": "setUriPrefix",
      "outputs": [],
      "stateMutability": "nonpayable",
      "type": "function"
    },
    {
      "inputs": [
        {
          "internalType": "string",
          "name": "_uriSuffix",
          "type": "string"
        }
      ],
      "name": "setUriSuffix",
      "outputs": [],
      "stateMutability": "nonpayable",
      "type": "function"
    },
    {
      "inputs": [
        {
          "internalType": "bool",
          "name": "_state",
          "type": "bool"
        }
      ],
      "name": "setWhitelistMintEnabled",
      "outputs": [],
      "stateMutability": "nonpayable",
      "type": "function"
    },
    {
      "inputs": [
        {
          "internalType": "bytes4",
          "name": "_interfaceId",
          "type": "bytes4"
        }
      ],
      "name": "supportsInterface",
      "outputs": [
        {
          "internalType": "bool",
          "name": "",
          "type": "bool"
        }
      ],
      "stateMutability": "view",
      "type": "function"
    },
    {
      "inputs": [],
      "name": "symbol",
      "outputs": [
        {
          "internalType": "string",
          "name": "",
          "type": "string"
        }
      ],
      "stateMutability": "view",
      "type": "function"
    },
    {
      "inputs": [
        {
          "internalType": "uint256",
          "name": "_tokenId",
          "type": "uint256"
        }
      ],
      "name": "tokenURI",
      "outputs": [
        {
          "internalType": "string",
          "name": "",
          "type": "string"
        }
      ],
      "stateMutability": "view",
      "type": "function"
    },
    {
      "inputs": [],
      "name": "totalSupply",
      "outputs": [
        {
          "internalType": "uint256",
          "name": "",
          "type": "uint256"
        }
      ],
      "stateMutability": "view",
      "type": "function"
    },
    {
      "inputs": [
        {
          "internalType": "address",
          "name": "from",
          "type": "address"
        },
        {
          "internalType": "address",
          "name": "to",
          "type": "address"
        },
        {
          "internalType": "uint256",
          "name": "tokenId",
          "type": "uint256"
        }
      ],
      "name": "transferFrom",
      "outputs": [],
      "stateMutability": "nonpayable",
      "type": "function"
    },
    {
      "inputs": [
        {
          "internalType": "address",
          "name": "newOwner",
          "type": "address"
        }
      ],
      "name": "transferOwnership",
      "outputs": [],
      "stateMutability": "nonpayable",
      "type": "function"
    },
    {
      "inputs": [],
      "name": "uriPrefix",
      "outputs": [
        {
          "internalType": "string",
          "name": "",
          "type": "string"
        }
      ],
      "stateMutability": "view",
      "type": "function"
    },
    {
      "inputs": [],
      "name": "uriSuffix",
      "outputs": [
        {
          "internalType": "string",
          "name": "",
          "type": "string"
        }
      ],
      "stateMutability": "view",
      "type": "function"
    },
    {
      "inputs": [
        {
          "internalType": "address",
          "name": "_owner",
          "type": "address"
        }
      ],
      "name": "walletOfOwner",
      "outputs": [
        {
          "internalType": "uint256[]",
          "name": "",
          "type": "uint256[]"
        }
      ],
      "stateMutability": "view",
      "type": "function"
    },
    {
      "inputs": [
        {
          "internalType": "address",
          "name": "",
          "type": "address"
        }
      ],
      "name": "whitelistClaimed",
      "outputs": [
        {
          "internalType": "bool",
          "name": "",
          "type": "bool"
        }
      ],
      "stateMutability": "view",
      "type": "function"
    },
    {
      "inputs": [
        {
          "internalType": "uint256",
          "name": "_mintAmount",
          "type": "uint256"
        },
        {
          "internalType": "bytes32[]",
          "name": "_merkleProof",
          "type": "bytes32[]"
        }
      ],
      "name": "whitelistMint",
      "outputs": [],
      "stateMutability": "payable",
      "type": "function"
    },
    {
      "inputs": [],
      "name": "whitelistMintEnabled",
      "outputs": [
        {
          "internalType": "bool",
          "name": "",
          "type": "bool"
        }
      ],
      "stateMutability": "view",
      "type": "function"
    },
    {
      "inputs": [],
      "name": "withdraw",
      "outputs": [],
      "stateMutability": "nonpayable",
      "type": "function"
    }
  ],
  "transactionHash": "0xd52e134cfa2cce7e82aadd07a1f42836ce89fed5c8b18e7565d9f7312b1c0a6a",
  "args": [],
  "numDeployments": 1,
  "solcInputHash": "725ec601e4441ef9eaa67d5def2fe774",
  "bytecode": "0x608060405234801561001057600080fd5b50615446806100206000396000f3fe60806040526004361061027d5760003560e01c80636caede3d1161014f578063b071401b116100c1578063d5abeb011161007a578063d5abeb0114610953578063db4bec441461097e578063e0a80853146109bb578063e985e9c5146109e4578063efbd73f414610a21578063f2fde38b14610a4a5761027d565b8063b071401b14610856578063b767a0981461087f578063b88d4fde146108a8578063b8f73003146108d1578063c87b56dd146108fa578063d2cab056146109375761027d565b80638da5cb5b116101135780638da5cb5b1461076557806394354fd01461079057806395d89b41146107bb578063a0712d68146107e6578063a22cb46514610802578063a45ba8e71461082b5761027d565b80636caede3d1461069457806370a08231146106bf578063715018a6146106fc5780637cb64759146107135780637ec4a6591461073c5761027d565b80632a55205a116101f35780634fdd43cb116101ac5780634fdd43cb1461058257806351830227146105ab5780635503a0e8146105d65780635c975abb1461060157806362b99ad41461062c5780636352211e146106575761027d565b80632a55205a146104735780632eb4a7ab146104b15780633ccfd60b146104dc57806342842e0e146104f3578063438b63001461051c57806344a0d68a146105595761027d565b806313cfbe501161024557806313cfbe501461037957806313faede6146103a257806316ba10e0146103cd57806316c38b3c146103f657806318160ddd1461041f57806323b872dd1461044a5761027d565b806301ffc9a71461028257806302fa7c47146102bf57806306fdde03146102e8578063081812fc14610313578063095ea7b314610350575b600080fd5b34801561028e57600080fd5b506102a960048036038101906102a491906141d7565b610a73565b6040516102b691906149d4565b60405180910390f35b3480156102cb57600080fd5b506102e660048036038101906102e1919061413d565b610aa5565b005b3480156102f457600080fd5b506102fd610b09565b60405161030a9190614a25565b60405180910390f35b34801561031f57600080fd5b5061033a600480360381019061033591906143c9565b610b9b565b6040516103479190614922565b60405180910390f35b34801561035c57600080fd5b50610377600480360381019061037291906140fd565b610c17565b005b34801561038557600080fd5b506103a0600480360381019061039b919061427a565b610d1c565b005b3480156103ae57600080fd5b506103b7610fa3565b6040516103c49190614b47565b60405180910390f35b3480156103d957600080fd5b506103f460048036038101906103ef9190614231565b610faa565b005b34801561040257600080fd5b5061041d6004803603810190610418919061417d565b610fcd565b005b34801561042b57600080fd5b50610434610ff3565b6040516104419190614b47565b60405180910390f35b34801561045657600080fd5b50610471600480360381019061046c9190613fe7565b61100a565b005b34801561047f57600080fd5b5061049a600480360381019061049591906144e9565b61101a565b6040516104a8929190614989565b60405180910390f35b3480156104bd57600080fd5b506104c6611205565b6040516104d391906149ef565b60405180910390f35b3480156104e857600080fd5b506104f161120c565b005b3480156104ff57600080fd5b5061051a60048036038101906105159190613fe7565b6112a4565b005b34801561052857600080fd5b50610543600480360381019061053e9190613f7a565b6112c4565b60405161055091906149b2565b60405180910390f35b34801561056557600080fd5b50610580600480360381019061057b91906143c9565b6114e0565b005b34801561058e57600080fd5b506105a960048036038101906105a49190614231565b6114f3565b005b3480156105b757600080fd5b506105c0611516565b6040516105cd91906149d4565b60405180910390f35b3480156105e257600080fd5b506105eb61152a565b6040516105f89190614a25565b60405180910390f35b34801561060d57600080fd5b506106166115b9565b60405161062391906149d4565b60405180910390f35b34801561063857600080fd5b506106416115cd565b60405161064e9190614a25565b60405180910390f35b34801561066357600080fd5b5061067e600480360381019061067991906143c9565b61165c565b60405161068b9190614922565b60405180910390f35b3480156106a057600080fd5b506106a9611672565b6040516106b691906149d4565b60405180910390f35b3480156106cb57600080fd5b506106e660048036038101906106e19190613f7a565b611686565b6040516106f39190614b47565b60405180910390f35b34801561070857600080fd5b50610711611756565b005b34801561071f57600080fd5b5061073a600480360381019061073591906141aa565b61176a565b005b34801561074857600080fd5b50610763600480360381019061075e9190614231565b61177d565b005b34801561077157600080fd5b5061077a6117a0565b6040516107879190614922565b60405180910390f35b34801561079c57600080fd5b506107a56117ca565b6040516107b29190614b47565b60405180910390f35b3480156107c757600080fd5b506107d06117d1565b6040516107dd9190614a25565b60405180910390f35b61080060048036038101906107fb91906143c9565b611863565b005b34801561080e57600080fd5b50610829600480360381019061082491906140bd565b6119a3565b005b34801561083757600080fd5b50610840611b1b565b60405161084d9190614a25565b60405180910390f35b34801561086257600080fd5b5061087d600480360381019061087891906143c9565b611baa565b005b34801561088b57600080fd5b506108a660048036038101906108a1919061417d565b611bbd565b005b3480156108b457600080fd5b506108cf60048036038101906108ca919061403a565b611be3565b005b3480156108dd57600080fd5b506108f860048036038101906108f39190614436565b611c5b565b005b34801561090657600080fd5b50610921600480360381019061091c91906143c9565b611cc3565b60405161092e9190614a25565b60405180910390f35b610951600480360381019061094c9190614489565b611e16565b005b34801561095f57600080fd5b506109686120fb565b6040516109759190614b47565b60405180910390f35b34801561098a57600080fd5b506109a560048036038101906109a09190613f7a565b612102565b6040516109b291906149d4565b60405180910390f35b3480156109c757600080fd5b506109e260048036038101906109dd919061417d565b612123565b005b3480156109f057600080fd5b50610a0b6004803603810190610a069190613fa7565b612149565b604051610a1891906149d4565b60405180910390f35b348015610a2d57600080fd5b50610a486004803603810190610a4391906143f6565b6121dd565b005b348015610a5657600080fd5b50610a716004803603810190610a6c9190613f7a565b61228d565b005b6000610a7e82612311565b80610a8e5750610a8d826123f3565b5b80610a9e5750610a9d826123f3565b5b9050919050565b610aad61246d565b610ab782826124eb565b8173ffffffffffffffffffffffffffffffffffffffff167f649787d44a877bdd8d255fbfdaba9927f56be0ec7aae8fb86cd16841966479d282604051610afd9190614c08565b60405180910390a25050565b606060678054610b1890614f52565b80601f0160208091040260200160405190810160405280929190818152602001828054610b4490614f52565b8015610b915780601f10610b6657610100808354040283529160200191610b91565b820191906000526020600020905b815481529060010190602001808311610b7457829003601f168201915b5050505050905090565b6000610ba682612681565b610bdc576040517fcf4700e400000000000000000000000000000000000000000000000000000000815260040160405180910390fd5b606b600083815260200190815260200160002060009054906101000a900473ffffffffffffffffffffffffffffffffffffffff169050919050565b6000610c228261165c565b90508073ffffffffffffffffffffffffffffffffffffffff168373ffffffffffffffffffffffffffffffffffffffff161415610c8a576040517f943f7b8c00000000000000000000000000000000000000000000000000000000815260040160405180910390fd5b8073ffffffffffffffffffffffffffffffffffffffff16610ca96126cf565b73ffffffffffffffffffffffffffffffffffffffff1614610d0c57610cd581610cd06126cf565b612149565b610d0b576040517fcfb3b94200000000000000000000000000000000000000000000000000000000815260040160405180910390fd5b5b610d178383836126d7565b505050565b60008060019054906101000a900460ff16159050808015610d4d5750600160008054906101000a900460ff1660ff16105b80610d7a5750610d5c30612789565b158015610d795750600160008054906101000a900460ff1660ff16145b5b610db9576040517f08c379a0000000000000000000000000000000000000000000000000000000008152600401610db090614a67565b60405180910390fd5b60016000806101000a81548160ff021916908360ff1602179055508015610df6576001600060016101000a81548160ff0219169083151502179055505b610dfe6127ac565b610e06612805565b610e0e612856565b610e188b8b6128af565b88610132819055508761013381905550610e3187611baa565b610e3a866114f3565b610e438561177d565b610e4d6001610fcd565b610e576000612123565b610e618484610aa5565b610e6a8261228d565b6040518060400160405280600581526020017f2e6a736f6e0000000000000000000000000000000000000000000000000000008152506101309080519060200190610eb6929190613ccb565b508173ffffffffffffffffffffffffffffffffffffffff168a604051610edc91906148ba565b60405180910390208c604051610ef291906148ba565b60405180910390207fdd039a3c64a5c33c935eeb19e610d124078b36b851a41f630aaede0f7d5b67dd8c8c8c8c8c8c8c604051610f359796959493929190614b62565b60405180910390a48015610f965760008060016101000a81548160ff0219169083151502179055507f7f26b83ff96e1f2b6a682f133852f6798a09c465da95921460cefb38474024986001604051610f8d9190614a0a565b60405180910390a15b5050505050505050505050565b6101325481565b610fb261246d565b806101309080519060200190610fc9929190613ccb565b5050565b610fd561246d565b8061013560006101000a81548160ff02191690831515021790555050565b6000610ffd61290c565b6066546065540303905090565b611015838383612915565b505050565b600080600060ca60008681526020019081526020016000206040518060400160405290816000820160009054906101000a900473ffffffffffffffffffffffffffffffffffffffff1673ffffffffffffffffffffffffffffffffffffffff1673ffffffffffffffffffffffffffffffffffffffff1681526020016000820160149054906101000a90046bffffffffffffffffffffffff166bffffffffffffffffffffffff166bffffffffffffffffffffffff16815250509050600073ffffffffffffffffffffffffffffffffffffffff16816000015173ffffffffffffffffffffffffffffffffffffffff1614156111b05760c96040518060400160405290816000820160009054906101000a900473ffffffffffffffffffffffffffffffffffffffff1673ffffffffffffffffffffffffffffffffffffffff1673ffffffffffffffffffffffffffffffffffffffff1681526020016000820160149054906101000a90046bffffffffffffffffffffffff166bffffffffffffffffffffffff166bffffffffffffffffffffffff168152505090505b60006111ba612dcb565b6bffffffffffffffffffffffff1682602001516bffffffffffffffffffffffff16866111e69190614dcd565b6111f09190614d9c565b90508160000151819350935050509250929050565b61012d5481565b61121461246d565b61121c612dd5565b60006112266117a0565b73ffffffffffffffffffffffffffffffffffffffff16476040516112499061490d565b60006040518083038185875af1925050503d8060008114611286576040519150601f19603f3d011682016040523d82523d6000602084013e61128b565b606091505b505090508061129957600080fd5b506112a2612e25565b565b6112bf83838360405180602001604052806000815250611be3565b505050565b606060006112d183611686565b905060008167ffffffffffffffff8111156112ef576112ee61510f565b5b60405190808252806020026020018201604052801561131d5781602001602082028036833780820191505090505b509050600061132a61290c565b90506000805b84821080156113425750610133548311155b156114d3576000606960008581526020019081526020016000206040518060600160405290816000820160009054906101000a900473ffffffffffffffffffffffffffffffffffffffff1673ffffffffffffffffffffffffffffffffffffffff1673ffffffffffffffffffffffffffffffffffffffff1681526020016000820160149054906101000a900467ffffffffffffffff1667ffffffffffffffff1667ffffffffffffffff16815260200160008201601c9054906101000a900460ff1615151515815250509050806040015115801561144f5750600073ffffffffffffffffffffffffffffffffffffffff16816000015173ffffffffffffffffffffffffffffffffffffffff1614155b1561145c57806000015191505b8773ffffffffffffffffffffffffffffffffffffffff168273ffffffffffffffffffffffffffffffffffffffff1614156114bf57838584815181106114a4576114a36150e0565b5b60200260200101818152505082806114bb90614fb5565b9350505b83806114ca90614fb5565b94505050611330565b8395505050505050919050565b6114e861246d565b806101328190555050565b6114fb61246d565b806101319080519060200190611512929190613ccb565b5050565b61013560029054906101000a900460ff1681565b610130805461153890614f52565b80601f016020809104026020016040519081016040528092919081815260200182805461156490614f52565b80156115b15780601f10611586576101008083540402835291602001916115b1565b820191906000526020600020905b81548152906001019060200180831161159457829003601f168201915b505050505081565b61013560009054906101000a900460ff1681565b61012f80546115db90614f52565b80601f016020809104026020016040519081016040528092919081815260200182805461160790614f52565b80156116545780601f1061162957610100808354040283529160200191611654565b820191906000526020600020905b81548152906001019060200180831161163757829003601f168201915b505050505081565b600061166782612e2f565b600001519050919050565b61013560019054906101000a900460ff1681565b60008073ffffffffffffffffffffffffffffffffffffffff168273ffffffffffffffffffffffffffffffffffffffff1614156116ee576040517f8f4eb60400000000000000000000000000000000000000000000000000000000815260040160405180910390fd5b606a60008373ffffffffffffffffffffffffffffffffffffffff1673ffffffffffffffffffffffffffffffffffffffff16815260200190815260200160002060000160009054906101000a900467ffffffffffffffff1667ffffffffffffffff169050919050565b61175e61246d565b61176860006130ba565b565b61177261246d565b8061012d8190555050565b61178561246d565b8061012f908051906020019061179c929190613ccb565b5050565b6000609760009054906101000a900473ffffffffffffffffffffffffffffffffffffffff16905090565b6101345481565b6060606880546117e090614f52565b80601f016020809104026020016040519081016040528092919081815260200182805461180c90614f52565b80156118595780601f1061182e57610100808354040283529160200191611859565b820191906000526020600020905b81548152906001019060200180831161183c57829003601f168201915b5050505050905090565b8060008111158061187657506101345481115b156118ad576040517fccfad01800000000000000000000000000000000000000000000000000000000815260040160405180910390fd5b61013354816118ba610ff3565b6118c49190614d46565b11156118fc576040517f8a164f6300000000000000000000000000000000000000000000000000000000815260040160405180910390fd5b81806101325461190c9190614dcd565b341015611945576040517f356680b700000000000000000000000000000000000000000000000000000000815260040160405180910390fd5b61013560009054906101000a900460ff161561198d576040517f4c940fff00000000000000000000000000000000000000000000000000000000815260040160405180910390fd5b61199e6119986126cf565b84613180565b505050565b6119ab6126cf565b73ffffffffffffffffffffffffffffffffffffffff168273ffffffffffffffffffffffffffffffffffffffff161415611a10576040517fb06307db00000000000000000000000000000000000000000000000000000000815260040160405180910390fd5b80606c6000611a1d6126cf565b73ffffffffffffffffffffffffffffffffffffffff1673ffffffffffffffffffffffffffffffffffffffff16815260200190815260200160002060008473ffffffffffffffffffffffffffffffffffffffff1673ffffffffffffffffffffffffffffffffffffffff16815260200190815260200160002060006101000a81548160ff0219169083151502179055508173ffffffffffffffffffffffffffffffffffffffff16611aca6126cf565b73ffffffffffffffffffffffffffffffffffffffff167f17307eab39ab6107e8899845ad3d59bd9653f200f220920489ca2b5937696c3183604051611b0f91906149d4565b60405180910390a35050565b6101318054611b2990614f52565b80601f0160208091040260200160405190810160405280929190818152602001828054611b5590614f52565b8015611ba25780601f10611b7757610100808354040283529160200191611ba2565b820191906000526020600020905b815481529060010190602001808311611b8557829003601f168201915b505050505081565b611bb261246d565b806101348190555050565b611bc561246d565b8061013560016101000a81548160ff02191690831515021790555050565b611bee848484612915565b611c0d8373ffffffffffffffffffffffffffffffffffffffff16612789565b15611c5557611c1e8484848461319e565b611c54576040517fd1a57ed600000000000000000000000000000000000000000000000000000000815260040160405180910390fd5b5b50505050565b611c6361246d565b611c6e8383836132fe565b8173ffffffffffffffffffffffffffffffffffffffff167f6b487ddd0efdbfd7606e8030e43550f55602ad00f641f939c333b8731daca8a28483604051611cb6929190614bdf565b60405180910390a2505050565b6060611cce82612681565b611d04576040517fecf0f7a000000000000000000000000000000000000000000000000000000000815260040160405180910390fd5b6000151561013560029054906101000a900460ff1615151415611db4576101318054611d2f90614f52565b80601f0160208091040260200160405190810160405280929190818152602001828054611d5b90614f52565b8015611da85780601f10611d7d57610100808354040283529160200191611da8565b820191906000526020600020905b815481529060010190602001808311611d8b57829003601f168201915b50505050509050611e11565b6000611dbe6134a6565b90506000815111611dde5760405180602001604052806000815250611e0d565b80611de884613539565b610130604051602001611dfd939291906148d1565b6040516020818303038152906040525b9150505b919050565b82600081111580611e2957506101345481115b15611e60576040517fccfad01800000000000000000000000000000000000000000000000000000000815260040160405180910390fd5b6101335481611e6d610ff3565b611e779190614d46565b1115611eaf576040517f8a164f6300000000000000000000000000000000000000000000000000000000815260040160405180910390fd5b838061013254611ebf9190614dcd565b341015611ef8576040517f356680b700000000000000000000000000000000000000000000000000000000815260040160405180910390fd5b61013560019054906101000a900460ff16611f3f576040517fe440c91d00000000000000000000000000000000000000000000000000000000815260040160405180910390fd5b61012e6000611f4c6126cf565b73ffffffffffffffffffffffffffffffffffffffff1673ffffffffffffffffffffffffffffffffffffffff16815260200190815260200160002060009054906101000a900460ff1615611fcb576040517f5986e84900000000000000000000000000000000000000000000000000000000815260040160405180910390fd5b6000611fd56126cf565b604051602001611fe5919061489f565b60405160208183030381529060405280519060200120905061204c858580806020026020016040519081016040528093929190818152602001838360200280828437600081840152601f19601f8201169050808301925050505050505061012d548361369a565b612082576040517f09bde33900000000000000000000000000000000000000000000000000000000815260040160405180910390fd5b600161012e60006120916126cf565b73ffffffffffffffffffffffffffffffffffffffff1673ffffffffffffffffffffffffffffffffffffffff16815260200190815260200160002060006101000a81548160ff0219169083151502179055506120f36120ed6126cf565b87613180565b505050505050565b6101335481565b61012e6020528060005260406000206000915054906101000a900460ff1681565b61212b61246d565b8061013560026101000a81548160ff02191690831515021790555050565b6000606c60008473ffffffffffffffffffffffffffffffffffffffff1673ffffffffffffffffffffffffffffffffffffffff16815260200190815260200160002060008373ffffffffffffffffffffffffffffffffffffffff1673ffffffffffffffffffffffffffffffffffffffff16815260200190815260200160002060009054906101000a900460ff16905092915050565b816000811115806121f057506101345481115b15612227576040517fccfad01800000000000000000000000000000000000000000000000000000000815260040160405180910390fd5b6101335481612234610ff3565b61223e9190614d46565b1115612276576040517f8a164f6300000000000000000000000000000000000000000000000000000000815260040160405180910390fd5b61227e61246d565b6122888284613180565b505050565b61229561246d565b600073ffffffffffffffffffffffffffffffffffffffff168173ffffffffffffffffffffffffffffffffffffffff161415612305576040517f08c379a00000000000000000000000000000000000000000000000000000000081526004016122fc90614a47565b60405180910390fd5b61230e816130ba565b50565b60007f80ac58cd000000000000000000000000000000000000000000000000000000007bffffffffffffffffffffffffffffffffffffffffffffffffffffffff1916827bffffffffffffffffffffffffffffffffffffffffffffffffffffffff191614806123dc57507f5b5e139f000000000000000000000000000000000000000000000000000000007bffffffffffffffffffffffffffffffffffffffffffffffffffffffff1916827bffffffffffffffffffffffffffffffffffffffffffffffffffffffff1916145b806123ec57506123eb826136b1565b5b9050919050565b60007f2a55205a000000000000000000000000000000000000000000000000000000007bffffffffffffffffffffffffffffffffffffffffffffffffffffffff1916827bffffffffffffffffffffffffffffffffffffffffffffffffffffffff19161480612466575061246582612311565b5b9050919050565b6124756126cf565b73ffffffffffffffffffffffffffffffffffffffff166124936117a0565b73ffffffffffffffffffffffffffffffffffffffff16146124e9576040517f08c379a00000000000000000000000000000000000000000000000000000000081526004016124e090614a87565b60405180910390fd5b565b6124f3612dcb565b6bffffffffffffffffffffffff16816bffffffffffffffffffffffff161115612551576040517f08c379a000000000000000000000000000000000000000000000000000000000815260040161254890614ae7565b60405180910390fd5b600073ffffffffffffffffffffffffffffffffffffffff168273ffffffffffffffffffffffffffffffffffffffff1614156125c1576040517f08c379a00000000000000000000000000000000000000000000000000000000081526004016125b890614b27565b60405180910390fd5b60405180604001604052808373ffffffffffffffffffffffffffffffffffffffff168152602001826bffffffffffffffffffffffff1681525060c960008201518160000160006101000a81548173ffffffffffffffffffffffffffffffffffffffff021916908373ffffffffffffffffffffffffffffffffffffffff16021790555060208201518160000160146101000a8154816bffffffffffffffffffffffff02191690836bffffffffffffffffffffffff1602179055509050505050565b60008161268c61290c565b1115801561269b575060655482105b80156126c8575060696000838152602001908152602001600020600001601c9054906101000a900460ff16155b9050919050565b600033905090565b82606b600084815260200190815260200160002060006101000a81548173ffffffffffffffffffffffffffffffffffffffff021916908373ffffffffffffffffffffffffffffffffffffffff160217905550818373ffffffffffffffffffffffffffffffffffffffff168273ffffffffffffffffffffffffffffffffffffffff167f8c5be1e5ebec7d5bd14f71427d1e84f3dd0314c0f7b2291e5b200ac8c7c3b92560405160405180910390a4505050565b6000808273ffffffffffffffffffffffffffffffffffffffff163b119050919050565b600060019054906101000a900460ff166127fb576040517f08c379a00000000000000000000000000000000000000000000000000000000081526004016127f290614ac7565b60405180910390fd5b61280361371b565b565b600060019054906101000a900460ff16612854576040517f08c379a000000000000000000000000000000000000000000000000000000000815260040161284b90614ac7565b60405180910390fd5b565b600060019054906101000a900460ff166128a5576040517f08c379a000000000000000000000000000000000000000000000000000000000815260040161289c90614ac7565b60405180910390fd5b6128ad61377c565b565b600060019054906101000a900460ff166128fe576040517f08c379a00000000000000000000000000000000000000000000000000000000081526004016128f590614ac7565b60405180910390fd5b61290882826137d5565b5050565b60006001905090565b600061292082612e2f565b90508373ffffffffffffffffffffffffffffffffffffffff16816000015173ffffffffffffffffffffffffffffffffffffffff161461298b576040517fa114810000000000000000000000000000000000000000000000000000000000815260040160405180910390fd5b60008473ffffffffffffffffffffffffffffffffffffffff166129ac6126cf565b73ffffffffffffffffffffffffffffffffffffffff1614806129db57506129da856129d56126cf565b612149565b5b80612a2057506129e96126cf565b73ffffffffffffffffffffffffffffffffffffffff16612a0884610b9b565b73ffffffffffffffffffffffffffffffffffffffff16145b905080612a59576040517f59c896be00000000000000000000000000000000000000000000000000000000815260040160405180910390fd5b600073ffffffffffffffffffffffffffffffffffffffff168473ffffffffffffffffffffffffffffffffffffffff161415612ac0576040517fea553b3400000000000000000000000000000000000000000000000000000000815260040160405180910390fd5b612acd8585856001613864565b612ad9600084876126d7565b6001606a60008773ffffffffffffffffffffffffffffffffffffffff1673ffffffffffffffffffffffffffffffffffffffff16815260200190815260200160002060000160008282829054906101000a900467ffffffffffffffff160392506101000a81548167ffffffffffffffff021916908367ffffffffffffffff1602179055506001606a60008673ffffffffffffffffffffffffffffffffffffffff1673ffffffffffffffffffffffffffffffffffffffff16815260200190815260200160002060000160008282829054906101000a900467ffffffffffffffff160192506101000a81548167ffffffffffffffff021916908367ffffffffffffffff1602179055506000606960008581526020019081526020016000209050848160000160006101000a81548173ffffffffffffffffffffffffffffffffffffffff021916908373ffffffffffffffffffffffffffffffffffffffff160217905550428160000160146101000a81548167ffffffffffffffff021916908367ffffffffffffffff16021790555060006001850190506000606960008381526020019081526020016000209050600073ffffffffffffffffffffffffffffffffffffffff168160000160009054906101000a900473ffffffffffffffffffffffffffffffffffffffff1673ffffffffffffffffffffffffffffffffffffffff161415612d59576065548214612d5857878160000160006101000a81548173ffffffffffffffffffffffffffffffffffffffff021916908373ffffffffffffffffffffffffffffffffffffffff16021790555084602001518160000160146101000a81548167ffffffffffffffff021916908367ffffffffffffffff1602179055505b5b505050828473ffffffffffffffffffffffffffffffffffffffff168673ffffffffffffffffffffffffffffffffffffffff167fddf252ad1be2c89b69c2b068fc378daa952ba7f163c4a11628f55a4df523b3ef60405160405180910390a4612dc4858585600161386a565b5050505050565b6000612710905090565b600260fb541415612e1b576040517f08c379a0000000000000000000000000000000000000000000000000000000008152600401612e1290614b07565b60405180910390fd5b600260fb81905550565b600160fb81905550565b612e37613d51565b600082905080612e4561290c565b1161308357606554811015613082576000606960008381526020019081526020016000206040518060600160405290816000820160009054906101000a900473ffffffffffffffffffffffffffffffffffffffff1673ffffffffffffffffffffffffffffffffffffffff1673ffffffffffffffffffffffffffffffffffffffff1681526020016000820160149054906101000a900467ffffffffffffffff1667ffffffffffffffff1667ffffffffffffffff16815260200160008201601c9054906101000a900460ff1615151515815250509050806040015161308057600073ffffffffffffffffffffffffffffffffffffffff16816000015173ffffffffffffffffffffffffffffffffffffffff1614612f645780925050506130b5565b5b60011561307f57818060019003925050606960008381526020019081526020016000206040518060600160405290816000820160009054906101000a900473ffffffffffffffffffffffffffffffffffffffff1673ffffffffffffffffffffffffffffffffffffffff1673ffffffffffffffffffffffffffffffffffffffff1681526020016000820160149054906101000a900467ffffffffffffffff1667ffffffffffffffff1667ffffffffffffffff16815260200160008201601c9054906101000a900460ff1615151515815250509050600073ffffffffffffffffffffffffffffffffffffffff16816000015173ffffffffffffffffffffffffffffffffffffffff161461307a5780925050506130b5565b612f65565b5b505b5b6040517fdf2d9b4200000000000000000000000000000000000000000000000000000000815260040160405180910390fd5b919050565b6000609760009054906101000a900473ffffffffffffffffffffffffffffffffffffffff16905081609760006101000a81548173ffffffffffffffffffffffffffffffffffffffff021916908373ffffffffffffffffffffffffffffffffffffffff1602179055508173ffffffffffffffffffffffffffffffffffffffff168173ffffffffffffffffffffffffffffffffffffffff167f8be0079c531659141344cd1fd0a4f28419497f9722a3daafe3b4186f6b6457e060405160405180910390a35050565b61319a828260405180602001604052806000815250613870565b5050565b60008373ffffffffffffffffffffffffffffffffffffffff1663150b7a026131c46126cf565b8786866040518563ffffffff1660e01b81526004016131e6949392919061493d565b602060405180830381600087803b15801561320057600080fd5b505af192505050801561323157506040513d601f19601f8201168201806040525081019061322e9190614204565b60015b6132ab573d8060008114613261576040519150601f19603f3d011682016040523d82523d6000602084013e613266565b606091505b506000815114156132a3576040517fd1a57ed600000000000000000000000000000000000000000000000000000000815260040160405180910390fd5b805181602001fd5b63150b7a0260e01b7bffffffffffffffffffffffffffffffffffffffffffffffffffffffff1916817bffffffffffffffffffffffffffffffffffffffffffffffffffffffff191614915050949350505050565b613306612dcb565b6bffffffffffffffffffffffff16816bffffffffffffffffffffffff161115613364576040517f08c379a000000000000000000000000000000000000000000000000000000000815260040161335b90614ae7565b60405180910390fd5b600073ffffffffffffffffffffffffffffffffffffffff168273ffffffffffffffffffffffffffffffffffffffff1614156133d4576040517f08c379a00000000000000000000000000000000000000000000000000000000081526004016133cb90614aa7565b60405180910390fd5b60405180604001604052808373ffffffffffffffffffffffffffffffffffffffff168152602001826bffffffffffffffffffffffff1681525060ca600085815260200190815260200160002060008201518160000160006101000a81548173ffffffffffffffffffffffffffffffffffffffff021916908373ffffffffffffffffffffffffffffffffffffffff16021790555060208201518160000160146101000a8154816bffffffffffffffffffffffff02191690836bffffffffffffffffffffffff160217905550905050505050565b606061012f80546134b690614f52565b80601f01602080910402602001604051908101604052809291908181526020018280546134e290614f52565b801561352f5780601f106135045761010080835404028352916020019161352f565b820191906000526020600020905b81548152906001019060200180831161351257829003601f168201915b5050505050905090565b60606000821415613581576040518060400160405280600181526020017f30000000000000000000000000000000000000000000000000000000000000008152509050613695565b600082905060005b600082146135b357808061359c90614fb5565b915050600a826135ac9190614d9c565b9150613589565b60008167ffffffffffffffff8111156135cf576135ce61510f565b5b6040519080825280601f01601f1916602001820160405280156136015781602001600182028036833780820191505090505b5090505b6000851461368e5760018261361a9190614e27565b9150600a856136299190615022565b60306136359190614d46565b60f81b81838151811061364b5761364a6150e0565b5b60200101907effffffffffffffffffffffffffffffffffffffffffffffffffffffffffffff1916908160001a905350600a856136879190614d9c565b9450613605565b8093505050505b919050565b6000826136a78584613c33565b1490509392505050565b60007f01ffc9a7000000000000000000000000000000000000000000000000000000007bffffffffffffffffffffffffffffffffffffffffffffffffffffffff1916827bffffffffffffffffffffffffffffffffffffffffffffffffffffffff1916149050919050565b600060019054906101000a900460ff1661376a576040517f08c379a000000000000000000000000000000000000000000000000000000000815260040161376190614ac7565b60405180910390fd5b61377a6137756126cf565b6130ba565b565b600060019054906101000a900460ff166137cb576040517f08c379a00000000000000000000000000000000000000000000000000000000081526004016137c290614ac7565b60405180910390fd5b600160fb81905550565b600060019054906101000a900460ff16613824576040517f08c379a000000000000000000000000000000000000000000000000000000000815260040161381b90614ac7565b60405180910390fd5b816067908051906020019061383a929190613ccb565b508060689080519060200190613851929190613ccb565b5061385a61290c565b6065819055505050565b50505050565b50505050565b60006065549050600073ffffffffffffffffffffffffffffffffffffffff168473ffffffffffffffffffffffffffffffffffffffff1614156138de576040517f2e07630000000000000000000000000000000000000000000000000000000000815260040160405180910390fd5b6000831415613919576040517fb562e8dd00000000000000000000000000000000000000000000000000000000815260040160405180910390fd5b6139266000858386613864565b82606a60008673ffffffffffffffffffffffffffffffffffffffff1673ffffffffffffffffffffffffffffffffffffffff16815260200190815260200160002060000160008282829054906101000a900467ffffffffffffffff160192506101000a81548167ffffffffffffffff021916908367ffffffffffffffff16021790555082606a60008673ffffffffffffffffffffffffffffffffffffffff1673ffffffffffffffffffffffffffffffffffffffff16815260200190815260200160002060000160088282829054906101000a900467ffffffffffffffff160192506101000a81548167ffffffffffffffff021916908367ffffffffffffffff160217905550836069600083815260200190815260200160002060000160006101000a81548173ffffffffffffffffffffffffffffffffffffffff021916908373ffffffffffffffffffffffffffffffffffffffff160217905550426069600083815260200190815260200160002060000160146101000a81548167ffffffffffffffff021916908367ffffffffffffffff160217905550600081905060008482019050613ae78673ffffffffffffffffffffffffffffffffffffffff16612789565b15613bac575b818673ffffffffffffffffffffffffffffffffffffffff16600073ffffffffffffffffffffffffffffffffffffffff167fddf252ad1be2c89b69c2b068fc378daa952ba7f163c4a11628f55a4df523b3ef60405160405180910390a4613b5c600087848060010195508761319e565b613b92576040517fd1a57ed600000000000000000000000000000000000000000000000000000000815260040160405180910390fd5b808210613aed578260655414613ba757600080fd5b613c17565b5b818060010192508673ffffffffffffffffffffffffffffffffffffffff16600073ffffffffffffffffffffffffffffffffffffffff167fddf252ad1be2c89b69c2b068fc378daa952ba7f163c4a11628f55a4df523b3ef60405160405180910390a4808210613bad575b816065819055505050613c2d600085838661386a565b50505050565b60008082905060005b8451811015613c7e57613c6982868381518110613c5c57613c5b6150e0565b5b6020026020010151613c89565b91508080613c7690614fb5565b915050613c3c565b508091505092915050565b6000818310613ca157613c9c8284613cb4565b613cac565b613cab8383613cb4565b5b905092915050565b600082600052816020526040600020905092915050565b828054613cd790614f52565b90600052602060002090601f016020900481019282613cf95760008555613d40565b82601f10613d1257805160ff1916838001178555613d40565b82800160010185558215613d40579182015b82811115613d3f578251825591602001919060010190613d24565b5b509050613d4d9190613d94565b5090565b6040518060600160405280600073ffffffffffffffffffffffffffffffffffffffff168152602001600067ffffffffffffffff1681526020016000151581525090565b5b80821115613dad576000816000905550600101613d95565b5090565b6000613dc4613dbf84614c48565b614c23565b905082815260208101848484011115613de057613ddf61514d565b5b613deb848285614f10565b509392505050565b6000613e06613e0184614c79565b614c23565b905082815260208101848484011115613e2257613e2161514d565b5b613e2d848285614f10565b509392505050565b600081359050613e4481615386565b92915050565b60008083601f840112613e6057613e5f615143565b5b8235905067ffffffffffffffff811115613e7d57613e7c61513e565b5b602083019150836020820283011115613e9957613e98615148565b5b9250929050565b600081359050613eaf8161539d565b92915050565b600081359050613ec4816153b4565b92915050565b600081359050613ed9816153cb565b92915050565b600081519050613eee816153cb565b92915050565b600082601f830112613f0957613f08615143565b5b8135613f19848260208601613db1565b91505092915050565b600082601f830112613f3757613f36615143565b5b8135613f47848260208601613df3565b91505092915050565b600081359050613f5f816153e2565b92915050565b600081359050613f74816153f9565b92915050565b600060208284031215613f9057613f8f615157565b5b6000613f9e84828501613e35565b91505092915050565b60008060408385031215613fbe57613fbd615157565b5b6000613fcc85828601613e35565b9250506020613fdd85828601613e35565b9150509250929050565b60008060006060848603121561400057613fff615157565b5b600061400e86828701613e35565b935050602061401f86828701613e35565b925050604061403086828701613f50565b9150509250925092565b6000806000806080858703121561405457614053615157565b5b600061406287828801613e35565b945050602061407387828801613e35565b935050604061408487828801613f50565b925050606085013567ffffffffffffffff8111156140a5576140a4615152565b5b6140b187828801613ef4565b91505092959194509250565b600080604083850312156140d4576140d3615157565b5b60006140e285828601613e35565b92505060206140f385828601613ea0565b9150509250929050565b6000806040838503121561411457614113615157565b5b600061412285828601613e35565b925050602061413385828601613f50565b9150509250929050565b6000806040838503121561415457614153615157565b5b600061416285828601613e35565b925050602061417385828601613f65565b9150509250929050565b60006020828403121561419357614192615157565b5b60006141a184828501613ea0565b91505092915050565b6000602082840312156141c0576141bf615157565b5b60006141ce84828501613eb5565b91505092915050565b6000602082840312156141ed576141ec615157565b5b60006141fb84828501613eca565b91505092915050565b60006020828403121561421a57614219615157565b5b600061422884828501613edf565b91505092915050565b60006020828403121561424757614246615157565b5b600082013567ffffffffffffffff81111561426557614264615152565b5b61427184828501613f22565b91505092915050565b6000806000806000806000806000806101408b8d03121561429e5761429d615157565b5b60008b013567ffffffffffffffff8111156142bc576142bb615152565b5b6142c88d828e01613f22565b9a505060208b013567ffffffffffffffff8111156142e9576142e8615152565b5b6142f58d828e01613f22565b99505060406143068d828e01613f50565b98505060606143178d828e01613f50565b97505060806143288d828e01613f50565b96505060a08b013567ffffffffffffffff81111561434957614348615152565b5b6143558d828e01613f22565b95505060c08b013567ffffffffffffffff81111561437657614375615152565b5b6143828d828e01613f22565b94505060e06143938d828e01613e35565b9350506101006143a58d828e01613f65565b9250506101206143b78d828e01613e35565b9150509295989b9194979a5092959850565b6000602082840312156143df576143de615157565b5b60006143ed84828501613f50565b91505092915050565b6000806040838503121561440d5761440c615157565b5b600061441b85828601613f50565b925050602061442c85828601613e35565b9150509250929050565b60008060006060848603121561444f5761444e615157565b5b600061445d86828701613f50565b935050602061446e86828701613e35565b925050604061447f86828701613f65565b9150509250925092565b6000806000604084860312156144a2576144a1615157565b5b60006144b086828701613f50565b935050602084013567ffffffffffffffff8111156144d1576144d0615152565b5b6144dd86828701613e4a565b92509250509250925092565b60008060408385031215614500576144ff615157565b5b600061450e85828601613f50565b925050602061451f85828601613f50565b9150509250929050565b60006145358383614872565b60208301905092915050565b61454a81614e5b565b82525050565b61456161455c82614e5b565b614ffe565b82525050565b600061457282614ccf565b61457c8185614cfd565b935061458783614caa565b8060005b838110156145b857815161459f8882614529565b97506145aa83614cf0565b92505060018101905061458b565b5085935050505092915050565b6145ce81614e6d565b82525050565b6145dd81614e79565b82525050565b60006145ee82614cda565b6145f88185614d0e565b9350614608818560208601614f1f565b6146118161515c565b840191505092915050565b61462581614efe565b82525050565b600061463682614ce5565b6146408185614d2a565b9350614650818560208601614f1f565b6146598161515c565b840191505092915050565b600061466f82614ce5565b6146798185614d3b565b9350614689818560208601614f1f565b80840191505092915050565b600081546146a281614f52565b6146ac8186614d3b565b945060018216600081146146c757600181146146d85761470b565b60ff1983168652818601935061470b565b6146e185614cba565b60005b83811015614703578154818901526001820191506020810190506146e4565b838801955050505b50505092915050565b6000614721602683614d2a565b915061472c8261517a565b604082019050919050565b6000614744602e83614d2a565b915061474f826151c9565b604082019050919050565b6000614767602083614d2a565b915061477282615218565b602082019050919050565b600061478a600083614d1f565b915061479582615241565b600082019050919050565b60006147ad601b83614d2a565b91506147b882615244565b602082019050919050565b60006147d0602b83614d2a565b91506147db8261526d565b604082019050919050565b60006147f3602a83614d2a565b91506147fe826152bc565b604082019050919050565b6000614816601f83614d2a565b91506148218261530b565b602082019050919050565b6000614839601983614d2a565b915061484482615334565b602082019050919050565b600061485c600183614d3b565b91506148678261535d565b600182019050919050565b61487b81614ecf565b82525050565b61488a81614ecf565b82525050565b61489981614ee6565b82525050565b60006148ab8284614550565b60148201915081905092915050565b60006148c68284614664565b915081905092915050565b60006148dd8286614664565b91506148e88261484f565b91506148f48285614664565b91506149008284614695565b9150819050949350505050565b60006149188261477d565b9150819050919050565b60006020820190506149376000830184614541565b92915050565b60006080820190506149526000830187614541565b61495f6020830186614541565b61496c6040830185614881565b818103606083015261497e81846145e3565b905095945050505050565b600060408201905061499e6000830185614541565b6149ab6020830184614881565b9392505050565b600060208201905081810360008301526149cc8184614567565b905092915050565b60006020820190506149e960008301846145c5565b92915050565b6000602082019050614a0460008301846145d4565b92915050565b6000602082019050614a1f600083018461461c565b92915050565b60006020820190508181036000830152614a3f818461462b565b905092915050565b60006020820190508181036000830152614a6081614714565b9050919050565b60006020820190508181036000830152614a8081614737565b9050919050565b60006020820190508181036000830152614aa08161475a565b9050919050565b60006020820190508181036000830152614ac0816147a0565b9050919050565b60006020820190508181036000830152614ae0816147c3565b9050919050565b60006020820190508181036000830152614b00816147e6565b9050919050565b60006020820190508181036000830152614b2081614809565b9050919050565b60006020820190508181036000830152614b408161482c565b9050919050565b6000602082019050614b5c6000830184614881565b92915050565b600060e082019050614b77600083018a614881565b614b846020830189614881565b614b916040830188614881565b8181036060830152614ba3818761462b565b90508181036080830152614bb7818661462b565b9050614bc660a0830185614541565b614bd360c0830184614890565b98975050505050505050565b6000604082019050614bf46000830185614881565b614c016020830184614890565b9392505050565b6000602082019050614c1d6000830184614890565b92915050565b6000614c2d614c3e565b9050614c398282614f84565b919050565b6000604051905090565b600067ffffffffffffffff821115614c6357614c6261510f565b5b614c6c8261515c565b9050602081019050919050565b600067ffffffffffffffff821115614c9457614c9361510f565b5b614c9d8261515c565b9050602081019050919050565b6000819050602082019050919050565b60008190508160005260206000209050919050565b600081519050919050565b600081519050919050565b600081519050919050565b6000602082019050919050565b600082825260208201905092915050565b600082825260208201905092915050565b600081905092915050565b600082825260208201905092915050565b600081905092915050565b6000614d5182614ecf565b9150614d5c83614ecf565b9250827fffffffffffffffffffffffffffffffffffffffffffffffffffffffffffffffff03821115614d9157614d90615053565b5b828201905092915050565b6000614da782614ecf565b9150614db283614ecf565b925082614dc257614dc1615082565b5b828204905092915050565b6000614dd882614ecf565b9150614de383614ecf565b9250817fffffffffffffffffffffffffffffffffffffffffffffffffffffffffffffffff0483118215151615614e1c57614e1b615053565b5b828202905092915050565b6000614e3282614ecf565b9150614e3d83614ecf565b925082821015614e5057614e4f615053565b5b828203905092915050565b6000614e6682614eaf565b9050919050565b60008115159050919050565b6000819050919050565b60007fffffffff0000000000000000000000000000000000000000000000000000000082169050919050565b600073ffffffffffffffffffffffffffffffffffffffff82169050919050565b6000819050919050565b600060ff82169050919050565b60006bffffffffffffffffffffffff82169050919050565b6000614f0982614ed9565b9050919050565b82818337600083830152505050565b60005b83811015614f3d578082015181840152602081019050614f22565b83811115614f4c576000848401525b50505050565b60006002820490506001821680614f6a57607f821691505b60208210811415614f7e57614f7d6150b1565b5b50919050565b614f8d8261515c565b810181811067ffffffffffffffff82111715614fac57614fab61510f565b5b80604052505050565b6000614fc082614ecf565b91507fffffffffffffffffffffffffffffffffffffffffffffffffffffffffffffffff821415614ff357614ff2615053565b5b600182019050919050565b600061500982615010565b9050919050565b600061501b8261516d565b9050919050565b600061502d82614ecf565b915061503883614ecf565b92508261504857615047615082565b5b828206905092915050565b7f4e487b7100000000000000000000000000000000000000000000000000000000600052601160045260246000fd5b7f4e487b7100000000000000000000000000000000000000000000000000000000600052601260045260246000fd5b7f4e487b7100000000000000000000000000000000000000000000000000000000600052602260045260246000fd5b7f4e487b7100000000000000000000000000000000000000000000000000000000600052603260045260246000fd5b7f4e487b7100000000000000000000000000000000000000000000000000000000600052604160045260246000fd5b600080fd5b600080fd5b600080fd5b600080fd5b600080fd5b600080fd5b6000601f19601f8301169050919050565b60008160601b9050919050565b7f4f776e61626c653a206e6577206f776e657220697320746865207a65726f206160008201527f6464726573730000000000000000000000000000000000000000000000000000602082015250565b7f496e697469616c697a61626c653a20636f6e747261637420697320616c72656160008201527f647920696e697469616c697a6564000000000000000000000000000000000000602082015250565b7f4f776e61626c653a2063616c6c6572206973206e6f7420746865206f776e6572600082015250565b50565b7f455243323938313a20496e76616c696420706172616d65746572730000000000600082015250565b7f496e697469616c697a61626c653a20636f6e7472616374206973206e6f74206960008201527f6e697469616c697a696e67000000000000000000000000000000000000000000602082015250565b7f455243323938313a20726f79616c7479206665652077696c6c2065786365656460008201527f2073616c65507269636500000000000000000000000000000000000000000000602082015250565b7f5265656e7472616e637947756172643a207265656e7472616e742063616c6c00600082015250565b7f455243323938313a20696e76616c696420726563656976657200000000000000600082015250565b7f2f00000000000000000000000000000000000000000000000000000000000000600082015250565b61538f81614e5b565b811461539a57600080fd5b50565b6153a681614e6d565b81146153b157600080fd5b50565b6153bd81614e79565b81146153c857600080fd5b50565b6153d481614e83565b81146153df57600080fd5b50565b6153eb81614ecf565b81146153f657600080fd5b50565b61540281614ee6565b811461540d57600080fd5b5056fea264697066735822122068f847e1c9171891a71d4a435726fe1ebf6e7061f62409a79cb66d19fc93bfc064736f6c63430008070033",
  "devdoc": {
    "events": {
      "InitializedContract(string,string,uint256,uint256,uint256,string,string,address,uint96,address)": {
        "params": {
          "_cost": "Contract mint cost",
          "_feePercent": "Royalty fee numerator; denominator is 10,000. So 500 represents 5%",
          "_hiddenMetadataUri": "Hidden metadata uri",
          "_maxMintAmountPerTx": "Max mint amount per transaction",
          "_maxSupply": "Contract maxSupply",
          "_name": "Contract name",
          "_owner": "Contract owner",
          "_royaltyReceiver": "Royalty fee collector",
          "_symbol": "Contract symbol",
          "_uriPrefix": "Metadata uri prefix"
        }
      }
    },
    "kind": "dev",
    "methods": {
      "approve(address,uint256)": {
        "details": "See {IERC721-approve}."
      },
      "balanceOf(address)": {
        "details": "See {IERC721-balanceOf}."
      },
      "getApproved(uint256)": {
        "details": "See {IERC721-getApproved}."
      },
      "initialize(string,string,uint256,uint256,uint256,string,string,address,uint96,address)": {
        "params": {
          "_cost": "Contract mint cost",
          "_feePercent": "Royalty fee numerator; denominator is 10,000. So 500 represents 5%",
          "_hiddenMetadataUri": "Hidden metadata uri",
          "_maxMintAmountPerTx": "Max mint amount per transaction",
          "_maxSupply": "Contract maxSupply",
          "_name": "Contract name",
          "_owner": "Contract owner",
          "_royaltyReceiver": "Royalty fee collector",
          "_symbol": "Contract symbol",
          "_uriPrefix": "Metadata uri prefix"
        }
      },
      "isApprovedForAll(address,address)": {
        "details": "See {IERC721-isApprovedForAll}."
      },
      "mint(uint256)": {
        "params": {
          "_mintAmount": "Amount of tokens to be minted"
        }
      },
      "mintForAddress(uint256,address)": {
        "params": {
          "_mintAmount": "Amount of tokens to be minted",
          "_receiver": "Receiver address"
        }
      },
      "name()": {
        "details": "See {IERC721Metadata-name}."
      },
      "owner()": {
        "details": "Returns the address of the current owner."
      },
      "ownerOf(uint256)": {
        "details": "See {IERC721-ownerOf}."
      },
      "renounceOwnership()": {
        "details": "Leaves the contract without owner. It will not be possible to call `onlyOwner` functions anymore. Can only be called by the current owner. NOTE: Renouncing ownership will leave the contract without an owner, thereby removing any functionality that is only available to the owner."
      },
      "royaltyInfo(uint256,uint256)": {
        "details": "Returns how much royalty is owed and to whom, based on a sale price that may be denominated in any unit of exchange. The royalty amount is denominated and should be paid in that same unit of exchange."
      },
      "safeTransferFrom(address,address,uint256)": {
        "details": "See {IERC721-safeTransferFrom}."
      },
      "safeTransferFrom(address,address,uint256,bytes)": {
        "details": "See {IERC721-safeTransferFrom}."
      },
      "setApprovalForAll(address,bool)": {
        "details": "See {IERC721-setApprovalForAll}."
      },
      "setCost(uint256)": {
        "details": "Can only be called by project owner",
        "params": {
          "_cost": "Cost price to be set"
        }
      },
      "setHiddenMetadataUri(string)": {
        "details": "Can only be called by project owner",
        "params": {
          "_hiddenMetadataUri": "Hidden metadata uri to be set"
        }
      },
      "setMaxMintAmountPerTx(uint256)": {
        "details": "Can only be called by project owner",
        "params": {
          "_maxMintAmountPerTx": "Max mint amount per tx to be set"
        }
      },
      "setMerkleRoot(bytes32)": {
        "details": "Can only be called by project owner",
        "params": {
          "_merkleRoot": "Merkle root to be set"
        }
      },
      "setPaused(bool)": {
        "details": "Can only be called by project owner",
        "params": {
          "_state": "Paused state to be set"
        }
      },
      "setRevealed(bool)": {
        "details": "Can only be called by project owner",
        "params": {
          "_state": "Revealed state to be set"
        }
      },
      "setRoyaltyInfo(address,uint96)": {
        "details": "Can only be called by project ownerOwner can prevent any sale by setting the address to any address that can't receive native network token",
        "params": {
          "_feePercent": "Royalty fee numerator; denominator is 10,000. So 500 represents 5%",
          "_royaltyReceiver": "Royalty fee collector"
        }
      },
      "setTokenRoyaltyInfo(uint256,address,uint96)": {
        "details": "Can only be called by project ownerOwner can prevent any sale by setting the address to any address that can't receive native network token",
        "params": {
          "_feePercent": "Royalty fee numerator; denominator is 10,000. So 500 represents 5%",
          "_royaltyReceiver": "Royalty fee collector",
          "_tokenId": "Token ID royalty to be set"
        }
      },
      "setUriPrefix(string)": {
        "details": "Can only be called by project owner",
        "params": {
          "_uriPrefix": "Uri prefix to be set"
        }
      },
      "setUriSuffix(string)": {
        "details": "Can only be called by project owner",
        "params": {
          "_uriSuffix": "Uri suffix to be set"
        }
      },
      "setWhitelistMintEnabled(bool)": {
        "details": "Can only be called by project owner",
        "params": {
          "_state": "Whitelist state to be set"
        }
      },
      "supportsInterface(bytes4)": {
        "details": "Needs to be overridden cause two base contracts implement it",
        "params": {
          "_interfaceId": "InterfaceId to consider. Comes from type(InterfaceContract).interfaceId"
        },
        "returns": {
          "_0": "bool True if the considered interface is supported"
        }
      },
      "symbol()": {
        "details": "See {IERC721Metadata-symbol}."
      },
      "tokenURI(uint256)": {
        "params": {
          "_tokenId": "Token id"
        },
        "returns": {
          "_0": "string Token uri"
        }
      },
      "totalSupply()": {
        "details": "Burned tokens are calculated here, use _totalMinted() if you want to count just minted tokens."
      },
      "transferFrom(address,address,uint256)": {
        "details": "See {IERC721-transferFrom}."
      },
      "transferOwnership(address)": {
        "details": "Transfers ownership of the contract to a new account (`newOwner`). Can only be called by the current owner."
      },
      "walletOfOwner(address)": {
        "params": {
          "_owner": "Address of wallet owner"
        },
        "returns": {
          "_0": "uint256[] Owned token ids"
        }
      },
      "whitelistMint(uint256,bytes32[])": {
        "params": {
          "_merkleProof": "Merkle proof to verify whitelisted address",
          "_mintAmount": "Amount of tokens to be minted"
        }
      },
      "withdraw()": {
        "details": "Can only be called by project owner"
      }
    },
    "version": 1
  },
  "userdoc": {
    "errors": {
      "AddressAlreadyClaimed()": [
        {
          "notice": "Address already claimed!"
        }
      ],
      "ApprovalCallerNotOwnerNorApproved()": [
        {
          "notice": "The caller must own the token or be an approved operator."
        }
      ],
      "ApprovalQueryForNonexistentToken()": [
        {
          "notice": "The token does not exist."
        }
      ],
      "ApprovalToCurrentOwner()": [
        {
          "notice": "The caller cannot approve to the current owner."
        }
      ],
      "ApproveToCaller()": [
        {
          "notice": "The caller cannot approve to their own address."
        }
      ],
      "BalanceQueryForZeroAddress()": [
        {
          "notice": "Cannot query the balance for the zero address."
        }
      ],
      "ERC721__URIQueryForNonexistentToken()": [
        {
          "notice": "URI query for nonexistent token!"
        }
      ],
      "InsufficientFunds()": [
        {
          "notice": "Insufficient funds!"
        }
      ],
      "InvalidMintAmount()": [
        {
          "notice": "Invalid mint amount!"
        }
      ],
      "InvalidProof()": [
        {
          "notice": "Invalid proof!"
        }
      ],
      "MaxSupplyExceeded()": [
        {
          "notice": "Max supply exceeded!"
        }
      ],
      "MintToZeroAddress()": [
        {
          "notice": "Cannot mint to the zero address."
        }
      ],
      "MintZeroQuantity()": [
        {
          "notice": "The quantity of tokens minted must be more than zero."
        }
      ],
      "OwnerQueryForNonexistentToken()": [
        {
          "notice": "The token does not exist."
        }
      ],
      "TheContractIsPaused()": [
        {
          "notice": "The contract is paused!"
        }
      ],
      "TheWhitelistSaleIsNotEnabled()": [
        {
          "notice": "The whitelist sale is not enabled!"
        }
      ],
      "TransferCallerNotOwnerNorApproved()": [
        {
          "notice": "The caller must own the token or be an approved operator."
        }
      ],
      "TransferFromIncorrectOwner()": [
        {
          "notice": "The token must be owned by `from`."
        }
      ],
      "TransferToNonERC721ReceiverImplementer()": [
        {
          "notice": "Cannot safely transfer to a contract that does not implement the ERC721Receiver interface."
        }
      ],
      "TransferToZeroAddress()": [
        {
          "notice": "Cannot transfer to the zero address."
        }
      ],
      "URIQueryForNonexistentToken()": [
        {
          "notice": "The token does not exist."
        }
      ]
    },
    "events": {
      "InitializedContract(string,string,uint256,uint256,uint256,string,string,address,uint96,address)": {
        "notice": "Emmited on initialize()"
      }
    },
    "kind": "user",
    "methods": {
      "cost()": {
        "notice": "Mint cost"
      },
      "hiddenMetadataUri()": {
        "notice": "Contract hidden metadata uri"
      },
      "initialize(string,string,uint256,uint256,uint256,string,string,address,uint96,address)": {
        "notice": "Contract initialization"
      },
      "maxMintAmountPerTx()": {
        "notice": "Max mint amount per transaction"
      },
      "maxSupply()": {
        "notice": "Contract maxSupply"
      },
      "merkleRoot()": {
        "notice": "Contract merkle root"
      },
      "mint(uint256)": {
        "notice": "Function to mint new tokens"
      },
      "mintForAddress(uint256,address)": {
        "notice": "Function to mint new tokens for address"
      },
      "paused()": {
        "notice": "Contract status state"
      },
      "revealed()": {
        "notice": "Contract revealed state"
      },
      "setCost(uint256)": {
        "notice": "Function for changing cost price"
      },
      "setHiddenMetadataUri(string)": {
        "notice": "Function for changing hidden metadata uri"
      },
      "setMaxMintAmountPerTx(uint256)": {
        "notice": "Function for changing max mint amount per tx"
      },
      "setMerkleRoot(bytes32)": {
        "notice": "Function for changing merkle root"
      },
      "setPaused(bool)": {
        "notice": "Function for changing paused state"
      },
      "setRevealed(bool)": {
        "notice": "Function for changing revealed state"
      },
      "setRoyaltyInfo(address,uint96)": {
        "notice": "Function for changing royalty information"
      },
      "setTokenRoyaltyInfo(uint256,address,uint96)": {
        "notice": "Function for changing token royalty information"
      },
      "setUriPrefix(string)": {
        "notice": "Function for changing uri prefix"
      },
      "setUriSuffix(string)": {
        "notice": "Function for changing uri suffix"
      },
      "setWhitelistMintEnabled(bool)": {
        "notice": "Function for changing whitelist state"
      },
      "supportsInterface(bytes4)": {
        "notice": "Returns true if this contract implements the interface defined by `interfaceId`"
      },
      "tokenURI(uint256)": {
        "notice": "Function to get token uri"
      },
      "uriPrefix()": {
        "notice": "Contract uri prefix"
      },
      "uriSuffix()": {
        "notice": "Contract uri suffix"
      },
      "walletOfOwner(address)": {
        "notice": "Function for getting list of owned token ids"
      },
      "whitelistClaimed(address)": {
        "notice": "Mapping of address to whitelist claimed bool"
      },
      "whitelistMint(uint256,bytes32[])": {
        "notice": "Function to whitelist mint new tokens"
      },
      "whitelistMintEnabled()": {
        "notice": "Contract whitelist mint state"
      },
      "withdraw()": {
        "notice": "Function for withdrawing contact funds"
      }
    },
    "version": 1
  },
  "storageLayout": {
    "storage": [
      {
        "astId": 203,
        "contract": "contracts/ERC721A.sol:ERC721A",
        "label": "_initialized",
        "offset": 0,
        "slot": "0",
        "type": "t_uint8"
      },
      {
        "astId": 206,
        "contract": "contracts/ERC721A.sol:ERC721A",
        "label": "_initializing",
        "offset": 1,
        "slot": "0",
        "type": "t_bool"
      },
      {
        "astId": 2565,
        "contract": "contracts/ERC721A.sol:ERC721A",
        "label": "__gap",
        "offset": 0,
        "slot": "1",
        "type": "t_array(t_uint256)50_storage"
      },
      {
        "astId": 2784,
        "contract": "contracts/ERC721A.sol:ERC721A",
        "label": "__gap",
        "offset": 0,
        "slot": "51",
        "type": "t_array(t_uint256)50_storage"
      },
      {
        "astId": 6404,
        "contract": "contracts/ERC721A.sol:ERC721A",
        "label": "_currentIndex",
        "offset": 0,
        "slot": "101",
        "type": "t_uint256"
      },
      {
        "astId": 6406,
        "contract": "contracts/ERC721A.sol:ERC721A",
        "label": "_burnCounter",
        "offset": 0,
        "slot": "102",
        "type": "t_uint256"
      },
      {
        "astId": 6408,
        "contract": "contracts/ERC721A.sol:ERC721A",
        "label": "_name",
        "offset": 0,
        "slot": "103",
        "type": "t_string_storage"
      },
      {
        "astId": 6410,
        "contract": "contracts/ERC721A.sol:ERC721A",
        "label": "_symbol",
        "offset": 0,
        "slot": "104",
        "type": "t_string_storage"
      },
      {
        "astId": 6415,
        "contract": "contracts/ERC721A.sol:ERC721A",
        "label": "_ownerships",
        "offset": 0,
        "slot": "105",
        "type": "t_mapping(t_uint256,t_struct(TokenOwnership)7832_storage)"
      },
      {
        "astId": 6420,
        "contract": "contracts/ERC721A.sol:ERC721A",
        "label": "_addressData",
        "offset": 0,
        "slot": "106",
        "type": "t_mapping(t_address,t_struct(AddressData)7841_storage)"
      },
      {
        "astId": 6424,
        "contract": "contracts/ERC721A.sol:ERC721A",
        "label": "_tokenApprovals",
        "offset": 0,
        "slot": "107",
        "type": "t_mapping(t_uint256,t_address)"
      },
      {
        "astId": 6430,
        "contract": "contracts/ERC721A.sol:ERC721A",
        "label": "_operatorApprovals",
        "offset": 0,
        "slot": "108",
        "type": "t_mapping(t_address,t_mapping(t_address,t_bool))"
      },
      {
        "astId": 7776,
        "contract": "contracts/ERC721A.sol:ERC721A",
        "label": "__gap",
        "offset": 0,
        "slot": "109",
        "type": "t_array(t_uint256)42_storage"
      },
      {
        "astId": 56,
        "contract": "contracts/ERC721A.sol:ERC721A",
        "label": "_owner",
        "offset": 0,
        "slot": "151",
        "type": "t_address"
      },
      {
        "astId": 176,
        "contract": "contracts/ERC721A.sol:ERC721A",
        "label": "__gap",
        "offset": 0,
        "slot": "152",
        "type": "t_array(t_uint256)49_storage"
      },
      {
        "astId": 2054,
        "contract": "contracts/ERC721A.sol:ERC721A",
        "label": "_defaultRoyaltyInfo",
        "offset": 0,
        "slot": "201",
        "type": "t_struct(RoyaltyInfo)2051_storage"
      },
      {
        "astId": 2059,
        "contract": "contracts/ERC721A.sol:ERC721A",
        "label": "_tokenRoyaltyInfo",
        "offset": 0,
        "slot": "202",
        "type": "t_mapping(t_uint256,t_struct(RoyaltyInfo)2051_storage)"
      },
      {
        "astId": 2239,
        "contract": "contracts/ERC721A.sol:ERC721A",
        "label": "__gap",
        "offset": 0,
        "slot": "203",
        "type": "t_array(t_uint256)48_storage"
      },
      {
        "astId": 379,
        "contract": "contracts/ERC721A.sol:ERC721A",
        "label": "_status",
        "offset": 0,
        "slot": "251",
        "type": "t_uint256"
      },
      {
        "astId": 437,
        "contract": "contracts/ERC721A.sol:ERC721A",
        "label": "__gap",
        "offset": 0,
        "slot": "252",
        "type": "t_array(t_uint256)49_storage"
      },
      {
        "astId": 5004,
        "contract": "contracts/ERC721A.sol:ERC721A",
        "label": "merkleRoot",
        "offset": 0,
        "slot": "301",
        "type": "t_bytes32"
      },
      {
        "astId": 5009,
        "contract": "contracts/ERC721A.sol:ERC721A",
        "label": "whitelistClaimed",
        "offset": 0,
        "slot": "302",
        "type": "t_mapping(t_address,t_bool)"
      },
      {
        "astId": 5012,
        "contract": "contracts/ERC721A.sol:ERC721A",
        "label": "uriPrefix",
        "offset": 0,
        "slot": "303",
        "type": "t_string_storage"
      },
      {
        "astId": 5015,
        "contract": "contracts/ERC721A.sol:ERC721A",
        "label": "uriSuffix",
        "offset": 0,
        "slot": "304",
        "type": "t_string_storage"
      },
      {
        "astId": 5018,
        "contract": "contracts/ERC721A.sol:ERC721A",
        "label": "hiddenMetadataUri",
        "offset": 0,
        "slot": "305",
        "type": "t_string_storage"
      },
      {
        "astId": 5021,
        "contract": "contracts/ERC721A.sol:ERC721A",
        "label": "cost",
        "offset": 0,
        "slot": "306",
        "type": "t_uint256"
      },
      {
        "astId": 5024,
        "contract": "contracts/ERC721A.sol:ERC721A",
        "label": "maxSupply",
        "offset": 0,
        "slot": "307",
        "type": "t_uint256"
      },
      {
        "astId": 5027,
        "contract": "contracts/ERC721A.sol:ERC721A",
        "label": "maxMintAmountPerTx",
        "offset": 0,
        "slot": "308",
        "type": "t_uint256"
      },
      {
        "astId": 5030,
        "contract": "contracts/ERC721A.sol:ERC721A",
        "label": "paused",
        "offset": 0,
        "slot": "309",
        "type": "t_bool"
      },
      {
        "astId": 5033,
        "contract": "contracts/ERC721A.sol:ERC721A",
        "label": "whitelistMintEnabled",
        "offset": 1,
        "slot": "309",
        "type": "t_bool"
      },
      {
        "astId": 5036,
        "contract": "contracts/ERC721A.sol:ERC721A",
        "label": "revealed",
        "offset": 2,
        "slot": "309",
        "type": "t_bool"
      }
    ],
    "types": {
      "t_address": {
        "encoding": "inplace",
        "label": "address",
        "numberOfBytes": "20"
      },
      "t_array(t_uint256)42_storage": {
        "base": "t_uint256",
        "encoding": "inplace",
        "label": "uint256[42]",
        "numberOfBytes": "1344"
      },
      "t_array(t_uint256)48_storage": {
        "base": "t_uint256",
        "encoding": "inplace",
        "label": "uint256[48]",
        "numberOfBytes": "1536"
      },
      "t_array(t_uint256)49_storage": {
        "base": "t_uint256",
        "encoding": "inplace",
        "label": "uint256[49]",
        "numberOfBytes": "1568"
      },
      "t_array(t_uint256)50_storage": {
        "base": "t_uint256",
        "encoding": "inplace",
        "label": "uint256[50]",
        "numberOfBytes": "1600"
      },
      "t_bool": {
        "encoding": "inplace",
        "label": "bool",
        "numberOfBytes": "1"
      },
      "t_bytes32": {
        "encoding": "inplace",
        "label": "bytes32",
        "numberOfBytes": "32"
      },
      "t_mapping(t_address,t_bool)": {
        "encoding": "mapping",
        "key": "t_address",
        "label": "mapping(address => bool)",
        "numberOfBytes": "32",
        "value": "t_bool"
      },
      "t_mapping(t_address,t_mapping(t_address,t_bool))": {
        "encoding": "mapping",
        "key": "t_address",
        "label": "mapping(address => mapping(address => bool))",
        "numberOfBytes": "32",
        "value": "t_mapping(t_address,t_bool)"
      },
      "t_mapping(t_address,t_struct(AddressData)7841_storage)": {
        "encoding": "mapping",
        "key": "t_address",
        "label": "mapping(address => struct IERC721AUpgradeable.AddressData)",
        "numberOfBytes": "32",
        "value": "t_struct(AddressData)7841_storage"
      },
      "t_mapping(t_uint256,t_address)": {
        "encoding": "mapping",
        "key": "t_uint256",
        "label": "mapping(uint256 => address)",
        "numberOfBytes": "32",
        "value": "t_address"
      },
      "t_mapping(t_uint256,t_struct(RoyaltyInfo)2051_storage)": {
        "encoding": "mapping",
        "key": "t_uint256",
        "label": "mapping(uint256 => struct ERC2981Upgradeable.RoyaltyInfo)",
        "numberOfBytes": "32",
        "value": "t_struct(RoyaltyInfo)2051_storage"
      },
      "t_mapping(t_uint256,t_struct(TokenOwnership)7832_storage)": {
        "encoding": "mapping",
        "key": "t_uint256",
        "label": "mapping(uint256 => struct IERC721AUpgradeable.TokenOwnership)",
        "numberOfBytes": "32",
        "value": "t_struct(TokenOwnership)7832_storage"
      },
      "t_string_storage": {
        "encoding": "bytes",
        "label": "string",
        "numberOfBytes": "32"
      },
      "t_struct(AddressData)7841_storage": {
        "encoding": "inplace",
        "label": "struct IERC721AUpgradeable.AddressData",
        "members": [
          {
            "astId": 7834,
            "contract": "contracts/ERC721A.sol:ERC721A",
            "label": "balance",
            "offset": 0,
            "slot": "0",
            "type": "t_uint64"
          },
          {
            "astId": 7836,
            "contract": "contracts/ERC721A.sol:ERC721A",
            "label": "numberMinted",
            "offset": 8,
            "slot": "0",
            "type": "t_uint64"
          },
          {
            "astId": 7838,
            "contract": "contracts/ERC721A.sol:ERC721A",
            "label": "numberBurned",
            "offset": 16,
            "slot": "0",
            "type": "t_uint64"
          },
          {
            "astId": 7840,
            "contract": "contracts/ERC721A.sol:ERC721A",
            "label": "aux",
            "offset": 24,
            "slot": "0",
            "type": "t_uint64"
          }
        ],
        "numberOfBytes": "32"
      },
      "t_struct(RoyaltyInfo)2051_storage": {
        "encoding": "inplace",
        "label": "struct ERC2981Upgradeable.RoyaltyInfo",
        "members": [
          {
            "astId": 2048,
            "contract": "contracts/ERC721A.sol:ERC721A",
            "label": "receiver",
            "offset": 0,
            "slot": "0",
            "type": "t_address"
          },
          {
            "astId": 2050,
            "contract": "contracts/ERC721A.sol:ERC721A",
            "label": "royaltyFraction",
            "offset": 20,
            "slot": "0",
            "type": "t_uint96"
          }
        ],
        "numberOfBytes": "32"
      },
      "t_struct(TokenOwnership)7832_storage": {
        "encoding": "inplace",
        "label": "struct IERC721AUpgradeable.TokenOwnership",
        "members": [
          {
            "astId": 7827,
            "contract": "contracts/ERC721A.sol:ERC721A",
            "label": "addr",
            "offset": 0,
            "slot": "0",
            "type": "t_address"
          },
          {
            "astId": 7829,
            "contract": "contracts/ERC721A.sol:ERC721A",
            "label": "startTimestamp",
            "offset": 20,
            "slot": "0",
            "type": "t_uint64"
          },
          {
            "astId": 7831,
            "contract": "contracts/ERC721A.sol:ERC721A",
            "label": "burned",
            "offset": 28,
            "slot": "0",
            "type": "t_bool"
          }
        ],
        "numberOfBytes": "32"
      },
      "t_uint256": {
        "encoding": "inplace",
        "label": "uint256",
        "numberOfBytes": "32"
      },
      "t_uint64": {
        "encoding": "inplace",
        "label": "uint64",
        "numberOfBytes": "8"
      },
      "t_uint8": {
        "encoding": "inplace",
        "label": "uint8",
        "numberOfBytes": "1"
      },
      "t_uint96": {
        "encoding": "inplace",
        "label": "uint96",
        "numberOfBytes": "12"
      }
    }
  }
}