{
  "address": "0x42da06D1a9883270E7C6AB8d3C5345be94E0D575",
  "abi": [
    {
      "inputs": [
        {
          "internalType": "int256",
          "name": "_basicTierCost",
          "type": "int256"
        },
        {
          "internalType": "int256",
          "name": "_premiumTierCost",
          "type": "int256"
        },
        {
          "internalType": "int256",
          "name": "_advancedTierCost",
          "type": "int256"
        },
        {
          "internalType": "address",
          "name": "_priceFeed",
          "type": "address"
        }
      ],
      "stateMutability": "nonpayable",
      "type": "constructor"
    },
    {
      "inputs": [],
      "name": "InsufficientFunds",
      "type": "error"
    },
    {
      "inputs": [
        {
          "internalType": "enum Enums.Standard",
          "name": "_standard",
          "type": "uint8"
        },
        {
          "internalType": "enum Enums.Tier",
          "name": "_tier",
          "type": "uint8"
        }
      ],
      "name": "InvalidContractImplementation",
      "type": "error"
    },
    {
      "inputs": [],
      "name": "InvalidStorageImplementation",
      "type": "error"
    },
    {
      "anonymous": false,
      "inputs": [
        {
          "indexed": true,
          "internalType": "address",
          "name": "contractAddress",
          "type": "address"
        },
        {
          "indexed": false,
          "internalType": "string",
          "name": "name",
          "type": "string"
        },
        {
          "indexed": false,
          "internalType": "string",
          "name": "symbol",
          "type": "string"
        },
        {
          "indexed": false,
          "internalType": "enum Enums.Standard",
          "name": "standard",
          "type": "uint8"
        },
        {
          "indexed": false,
          "internalType": "enum Enums.Tier",
          "name": "tier",
          "type": "uint8"
        },
        {
          "indexed": true,
          "internalType": "address",
          "name": "owner",
          "type": "address"
        }
      ],
      "name": "ContractCreated",
      "type": "event"
    },
    {
      "anonymous": false,
      "inputs": [
        {
          "indexed": true,
          "internalType": "address",
          "name": "previousOwner",
          "type": "address"
        },
        {
          "indexed": true,
          "internalType": "address",
          "name": "newOwner",
          "type": "address"
        }
      ],
      "name": "OwnershipTransferred",
      "type": "event"
    },
    {
      "inputs": [
        {
          "internalType": "enum Enums.Standard",
          "name": "",
          "type": "uint8"
        },
        {
          "internalType": "enum Enums.Tier",
          "name": "",
          "type": "uint8"
        }
      ],
      "name": "contractImplementation",
      "outputs": [
        {
          "internalType": "address",
          "name": "",
          "type": "address"
        }
      ],
      "stateMutability": "view",
      "type": "function"
    },
    {
      "inputs": [
        {
          "internalType": "enum Enums.Tier",
          "name": "",
          "type": "uint8"
        }
      ],
      "name": "cost",
      "outputs": [
        {
          "internalType": "int256",
          "name": "",
          "type": "int256"
        }
      ],
      "stateMutability": "view",
      "type": "function"
    },
    {
      "inputs": [
        {
          "internalType": "string",
          "name": "_name",
          "type": "string"
        },
        {
          "internalType": "string",
          "name": "_symbol",
          "type": "string"
        },
        {
          "internalType": "uint256",
          "name": "_id",
          "type": "uint256"
        },
        {
          "internalType": "uint256",
          "name": "_amount",
          "type": "uint256"
        },
        {
          "internalType": "string",
          "name": "_uri",
          "type": "string"
        },
        {
          "internalType": "address",
          "name": "_royaltyReceiver",
          "type": "address"
        },
        {
          "internalType": "uint96",
          "name": "_feePercent",
          "type": "uint96"
        },
        {
          "internalType": "enum Enums.Tier",
          "name": "_tier",
          "type": "uint8"
        }
      ],
      "name": "createERC1155Contract",
      "outputs": [],
      "stateMutability": "payable",
      "type": "function"
    },
    {
      "inputs": [
        {
          "internalType": "string",
          "name": "_name",
          "type": "string"
        },
        {
          "internalType": "string",
          "name": "_symbol",
          "type": "string"
        },
        {
          "internalType": "uint256",
          "name": "_cost",
          "type": "uint256"
        },
        {
          "internalType": "uint256",
          "name": "_maxSupply",
          "type": "uint256"
        },
        {
          "internalType": "uint256",
          "name": "_maxMintAmountPerTx",
          "type": "uint256"
        },
        {
          "internalType": "string",
          "name": "_hiddenMetadataUri",
          "type": "string"
        },
        {
          "internalType": "string",
          "name": "_uriPrefix",
          "type": "string"
        },
        {
          "internalType": "address",
          "name": "_royaltyReceiver",
          "type": "address"
        },
        {
          "internalType": "uint96",
          "name": "_feePercent",
          "type": "uint96"
        },
        {
          "internalType": "enum Enums.Tier",
          "name": "_tier",
          "type": "uint8"
        }
      ],
      "name": "createERC721AContract",
      "outputs": [],
      "stateMutability": "payable",
      "type": "function"
    },
    {
      "inputs": [
        {
          "internalType": "enum Enums.Tier",
          "name": "_tier",
          "type": "uint8"
        }
      ],
      "name": "getCost",
      "outputs": [
        {
          "internalType": "uint256",
          "name": "",
          "type": "uint256"
        }
      ],
      "stateMutability": "view",
      "type": "function"
    },
    {
      "inputs": [],
      "name": "getLatestPrice",
      "outputs": [
        {
          "internalType": "int256",
          "name": "",
          "type": "int256"
        }
      ],
      "stateMutability": "view",
      "type": "function"
    },
    {
      "inputs": [],
      "name": "owner",
      "outputs": [
        {
          "internalType": "address",
          "name": "",
          "type": "address"
        }
      ],
      "stateMutability": "view",
      "type": "function"
    },
    {
      "inputs": [],
      "name": "priceFeed",
      "outputs": [
        {
          "internalType": "contract AggregatorV3Interface",
          "name": "",
          "type": "address"
        }
      ],
      "stateMutability": "view",
      "type": "function"
    },
    {
      "inputs": [],
      "name": "renounceOwnership",
      "outputs": [],
      "stateMutability": "nonpayable",
      "type": "function"
    },
    {
      "inputs": [
        {
          "internalType": "enum Enums.Standard",
          "name": "_standard",
          "type": "uint8"
        },
        {
          "internalType": "enum Enums.Tier",
          "name": "_tier",
          "type": "uint8"
        },
        {
          "internalType": "address",
          "name": "_contractImplementation",
          "type": "address"
        }
      ],
      "name": "setContractImplementation",
      "outputs": [],
      "stateMutability": "nonpayable",
      "type": "function"
    },
    {
      "inputs": [
        {
          "internalType": "enum Enums.Tier",
          "name": "_tier",
          "type": "uint8"
        },
        {
          "internalType": "int256",
          "name": "_cost",
          "type": "int256"
        }
      ],
      "name": "setCost",
      "outputs": [],
      "stateMutability": "nonpayable",
      "type": "function"
    },
    {
      "inputs": [
        {
          "internalType": "address",
          "name": "_priceFeedAddress",
          "type": "address"
        }
      ],
      "name": "setPriceFeed",
      "outputs": [],
      "stateMutability": "nonpayable",
      "type": "function"
    },
    {
      "inputs": [
        {
          "internalType": "address",
          "name": "_storageImplementation",
          "type": "address"
        }
      ],
      "name": "setStorageImplementation",
      "outputs": [],
      "stateMutability": "nonpayable",
      "type": "function"
    },
    {
      "inputs": [],
      "name": "storageImplementation",
      "outputs": [
        {
          "internalType": "address",
          "name": "",
          "type": "address"
        }
      ],
      "stateMutability": "view",
      "type": "function"
    },
    {
      "inputs": [
        {
          "internalType": "address",
          "name": "newOwner",
          "type": "address"
        }
      ],
      "name": "transferOwnership",
      "outputs": [],
      "stateMutability": "nonpayable",
      "type": "function"
    },
    {
      "inputs": [],
      "name": "withdraw",
      "outputs": [],
      "stateMutability": "nonpayable",
      "type": "function"
    }
  ],
  "transactionHash": "0xfa450224f7f03a0e61f0bf40e8e4093c50da55567d6b486b4a6517bea5cfc395",
  "args": [
    "20000000000000000000",
    "30000000000000000000",
    "40000000000000000000",
    "0xAB594600376Ec9fD91F8e885dADF0CE036862dE0"
  ],
  "numDeployments": 1,
  "solcInputHash": "3ed29a805d4abb0798a90ac909d7bed5",
  "bytecode": "0x60806040523480156200001157600080fd5b506040516200257f3803806200257f83398181016040528101906200003791906200026a565b620000576200004b6200017060201b60201c565b6200017860201b60201c565b6001808190555083600560008060028111156200007957620000786200031a565b5b60028111156200008e576200008d6200031a565b5b815260200190815260200160002081905550826005600060016002811115620000bc57620000bb6200031a565b5b6002811115620000d157620000d06200031a565b5b8152602001908152602001600020819055508160056000600280811115620000fe57620000fd6200031a565b5b60028111156200011357620001126200031a565b5b81526020019081526020016000208190555080600260006101000a81548173ffffffffffffffffffffffffffffffffffffffff021916908373ffffffffffffffffffffffffffffffffffffffff1602179055505050505062000382565b600033905090565b60008060009054906101000a900473ffffffffffffffffffffffffffffffffffffffff169050816000806101000a81548173ffffffffffffffffffffffffffffffffffffffff021916908373ffffffffffffffffffffffffffffffffffffffff1602179055508173ffffffffffffffffffffffffffffffffffffffff168173ffffffffffffffffffffffffffffffffffffffff167f8be0079c531659141344cd1fd0a4f28419497f9722a3daafe3b4186f6b6457e060405160405180910390a35050565b6000815190506200024d816200034e565b92915050565b600081519050620002648162000368565b92915050565b6000806000806080858703121562000287576200028662000349565b5b6000620002978782880162000253565b9450506020620002aa8782880162000253565b9350506040620002bd8782880162000253565b9250506060620002d0878288016200023c565b91505092959194509250565b6000620002e982620002fa565b9050919050565b6000819050919050565b600073ffffffffffffffffffffffffffffffffffffffff82169050919050565b7f4e487b7100000000000000000000000000000000000000000000000000000000600052602160045260246000fd5b600080fd5b6200035981620002dc565b81146200036557600080fd5b50565b6200037381620002f0565b81146200037f57600080fd5b50565b6121ed80620003926000396000f3fe6080604052600436106100f35760003560e01c8063724e78da1161008a5780638e15f473116100595780638e15f473146102d25780638fae83ea146102fd578063bdf2afe31461033a578063f2fde38b14610365576100f3565b8063724e78da14610216578063741bef1a1461023f5780637ff4fdda1461026a5780638da5cb5b146102a7576100f3565b80633d2a7c7a116100c65780633d2a7c7a1461019e5780636733bd40146101ba5780636bf32de6146101e3578063715018a6146101ff576100f3565b8063090dbfe2146100f85780631e158dbd14610121578063375f2b961461014a5780633ccfd60b14610187575b600080fd5b34801561010457600080fd5b5061011f600480360381019061011a919061138a565b61038e565b005b34801561012d57600080fd5b5061014860048036038101906101439190611477565b610441565b005b34801561015657600080fd5b50610171600480360381019061016c919061144a565b610489565b60405161017e9190611bce565b60405180910390f35b34801561019357600080fd5b5061019c6104f4565b005b6101b860048036038101906101b391906115c1565b6105d1565b005b3480156101c657600080fd5b506101e160048036038101906101dc91906113f7565b61093b565b005b6101fd60048036038101906101f891906114b7565b610a67565b005b34801561020b57600080fd5b50610214610dcb565b005b34801561022257600080fd5b5061023d6004803603810190610238919061138a565b610ddf565b005b34801561024b57600080fd5b50610254610e2b565b6040516102619190611951565b60405180910390f35b34801561027657600080fd5b50610291600480360381019061028c91906113b7565b610e51565b60405161029e91906118f1565b60405180910390f35b3480156102b357600080fd5b506102bc610e93565b6040516102c991906118f1565b60405180910390f35b3480156102de57600080fd5b506102e7610ebc565b6040516102f49190611995565b60405180910390f35b34801561030957600080fd5b50610324600480360381019061031f919061144a565b610f7c565b6040516103319190611995565b60405180910390f35b34801561034657600080fd5b5061034f610f94565b60405161035c91906118f1565b60405180910390f35b34801561037157600080fd5b5061038c6004803603810190610387919061138a565b610fba565b005b61039661103e565b600073ffffffffffffffffffffffffffffffffffffffff168173ffffffffffffffffffffffffffffffffffffffff1614156103fd576040517f6996356000000000000000000000000000000000000000000000000000000000815260040160405180910390fd5b80600360006101000a81548173ffffffffffffffffffffffffffffffffffffffff021916908373ffffffffffffffffffffffffffffffffffffffff16021790555050565b61044961103e565b806005600084600281111561046157610460611fac565b5b600281111561047357610472611fac565b5b8152602001908152602001600020819055505050565b600080610494610ebc565b670de0b6b3a7640000600560008660028111156104b4576104b3611fac565b5b60028111156104c6576104c5611fac565b5b8152602001908152602001600020546104df9190611cd0565b6104e99190611c66565b905080915050919050565b6104fc61103e565b60026001541415610542576040517f08c379a000000000000000000000000000000000000000000000000000000000815260040161053990611bae565b60405180910390fd5b60026001819055506000610554610e93565b73ffffffffffffffffffffffffffffffffffffffff1647604051610577906118dc565b60006040518083038185875af1925050503d80600081146105b4576040519150601f19603f3d011682016040523d82523d6000602084013e6105b9565b606091505b50509050806105c757600080fd5b5060018081905550565b6000816105dd81610489565b341015610616576040517f356680b700000000000000000000000000000000000000000000000000000000815260040160405180910390fd5b600073ffffffffffffffffffffffffffffffffffffffff166004600084600181111561064557610644611fac565b5b600181111561065757610656611fac565b5b8152602001908152602001600020600083600281111561067a57610679611fac565b5b600281111561068c5761068b611fac565b5b815260200190815260200160002060009054906101000a900473ffffffffffffffffffffffffffffffffffffffff1673ffffffffffffffffffffffffffffffffffffffff1614156107165781816040517fad87068a00000000000000000000000000000000000000000000000000000000815260040161070d92919061196c565b60405180910390fd5b60006107ad6004600080600181111561073257610731611fac565b5b600181111561074457610743611fac565b5b8152602001908152602001600020600086600281111561076757610766611fac565b5b600281111561077957610778611fac565b5b815260200190815260200160002060009054906101000a900473ffffffffffffffffffffffffffffffffffffffff166110bc565b90508073ffffffffffffffffffffffffffffffffffffffff166313cfbe508e8e8e8e8e8e8e8e8e336040518b63ffffffff1660e01b81526004016107fa9a99989796959493929190611a96565b600060405180830381600087803b15801561081457600080fd5b505af1158015610828573d6000803e3d6000fd5b50505050600360009054906101000a900473ffffffffffffffffffffffffffffffffffffffff1673ffffffffffffffffffffffffffffffffffffffff16638524426e33600087856040518563ffffffff1660e01b815260040161088e949392919061190c565b600060405180830381600087803b1580156108a857600080fd5b505af11580156108bc573d6000803e3d6000fd5b505050503373ffffffffffffffffffffffffffffffffffffffff168173ffffffffffffffffffffffffffffffffffffffff167f9a0fcad21607e308d6c7e3b44a34c8efb90635db1a16ccd6c24cb56f15f141a88f8f60018960405161092494939291906119b0565b60405180910390a350505050505050505050505050565b61094361103e565b600073ffffffffffffffffffffffffffffffffffffffff168173ffffffffffffffffffffffffffffffffffffffff1614156109b75782826040517fad87068a0000000000000000000000000000000000000000000000000000000081526004016109ae92919061196c565b60405180910390fd5b80600460008560018111156109cf576109ce611fac565b5b60018111156109e1576109e0611fac565b5b81526020019081526020016000206000846002811115610a0457610a03611fac565b5b6002811115610a1657610a15611fac565b5b815260200190815260200160002060006101000a81548173ffffffffffffffffffffffffffffffffffffffff021916908373ffffffffffffffffffffffffffffffffffffffff160217905550505050565b600181610a7381610489565b341015610aac576040517f356680b700000000000000000000000000000000000000000000000000000000815260040160405180910390fd5b600073ffffffffffffffffffffffffffffffffffffffff1660046000846001811115610adb57610ada611fac565b5b6001811115610aed57610aec611fac565b5b81526020019081526020016000206000836002811115610b1057610b0f611fac565b5b6002811115610b2257610b21611fac565b5b815260200190815260200160002060009054906101000a900473ffffffffffffffffffffffffffffffffffffffff1673ffffffffffffffffffffffffffffffffffffffff161415610bac5781816040517fad87068a000000000000000000000000000000000000000000000000000000008152600401610ba392919061196c565b60405180910390fd5b6000610c4360046000600180811115610bc857610bc7611fac565b5b6001811115610bda57610bd9611fac565b5b81526020019081526020016000206000866002811115610bfd57610bfc611fac565b5b6002811115610c0f57610c0e611fac565b5b815260200190815260200160002060009054906101000a900473ffffffffffffffffffffffffffffffffffffffff166110bc565b90508073ffffffffffffffffffffffffffffffffffffffff1663f98d53a78c8c8c8c8c8c8c336040518963ffffffff1660e01b8152600401610c8c989796959493929190611a03565b600060405180830381600087803b158015610ca657600080fd5b505af1158015610cba573d6000803e3d6000fd5b50505050600360009054906101000a900473ffffffffffffffffffffffffffffffffffffffff1673ffffffffffffffffffffffffffffffffffffffff16638524426e33600187856040518563ffffffff1660e01b8152600401610d20949392919061190c565b600060405180830381600087803b158015610d3a57600080fd5b505af1158015610d4e573d6000803e3d6000fd5b505050503373ffffffffffffffffffffffffffffffffffffffff168173ffffffffffffffffffffffffffffffffffffffff167f9a0fcad21607e308d6c7e3b44a34c8efb90635db1a16ccd6c24cb56f15f141a88d8d600189604051610db694939291906119b0565b60405180910390a35050505050505050505050565b610dd361103e565b610ddd6000611191565b565b610de761103e565b80600260006101000a81548173ffffffffffffffffffffffffffffffffffffffff021916908373ffffffffffffffffffffffffffffffffffffffff16021790555050565b600260009054906101000a900473ffffffffffffffffffffffffffffffffffffffff1681565b60046020528160005260406000206020528060005260406000206000915091509054906101000a900473ffffffffffffffffffffffffffffffffffffffff1681565b60008060009054906101000a900473ffffffffffffffffffffffffffffffffffffffff16905090565b600080600260009054906101000a900473ffffffffffffffffffffffffffffffffffffffff1673ffffffffffffffffffffffffffffffffffffffff1663feaf968c6040518163ffffffff1660e01b815260040160a06040518083038186803b158015610f2757600080fd5b505afa158015610f3b573d6000803e3d6000fd5b505050506040513d601f19601f82011682018060405250810190610f5f9190611710565b5050509150506402540be40081610f769190611cd0565b91505090565b60056020528060005260406000206000915090505481565b600360009054906101000a900473ffffffffffffffffffffffffffffffffffffffff1681565b610fc261103e565b600073ffffffffffffffffffffffffffffffffffffffff168173ffffffffffffffffffffffffffffffffffffffff161415611032576040517f08c379a000000000000000000000000000000000000000000000000000000000815260040161102990611b4e565b60405180910390fd5b61103b81611191565b50565b611046611255565b73ffffffffffffffffffffffffffffffffffffffff16611064610e93565b73ffffffffffffffffffffffffffffffffffffffff16146110ba576040517f08c379a00000000000000000000000000000000000000000000000000000000081526004016110b190611b8e565b60405180910390fd5b565b60006040517f3d602d80600a3d3981f3363d3d373d3d3d363d7300000000000000000000000081528260601b60148201527f5af43d82803e903d91602b57fd5bf3000000000000000000000000000000000060288201526037816000f0915050600073ffffffffffffffffffffffffffffffffffffffff168173ffffffffffffffffffffffffffffffffffffffff16141561118c576040517f08c379a000000000000000000000000000000000000000000000000000000000815260040161118390611b6e565b60405180910390fd5b919050565b60008060009054906101000a900473ffffffffffffffffffffffffffffffffffffffff169050816000806101000a81548173ffffffffffffffffffffffffffffffffffffffff021916908373ffffffffffffffffffffffffffffffffffffffff1602179055508173ffffffffffffffffffffffffffffffffffffffff168173ffffffffffffffffffffffffffffffffffffffff167f8be0079c531659141344cd1fd0a4f28419497f9722a3daafe3b4186f6b6457e060405160405180910390a35050565b600033905090565b600061127061126b84611c0e565b611be9565b90508281526020810184848401111561128c5761128b61200f565b5b611297848285611edb565b509392505050565b6000813590506112ae81612124565b92915050565b6000813590506112c38161213b565b92915050565b6000813590506112d88161214b565b92915050565b6000813590506112ed8161215b565b92915050565b6000815190506113028161215b565b92915050565b600082601f83011261131d5761131c61200a565b5b813561132d84826020860161125d565b91505092915050565b60008135905061134581612172565b92915050565b60008151905061135a81612172565b92915050565b60008151905061136f81612189565b92915050565b600081359050611384816121a0565b92915050565b6000602082840312156113a05761139f612019565b5b60006113ae8482850161129f565b91505092915050565b600080604083850312156113ce576113cd612019565b5b60006113dc858286016112b4565b92505060206113ed858286016112c9565b9150509250929050565b6000806000606084860312156114105761140f612019565b5b600061141e868287016112b4565b935050602061142f868287016112c9565b92505060406114408682870161129f565b9150509250925092565b6000602082840312156114605761145f612019565b5b600061146e848285016112c9565b91505092915050565b6000806040838503121561148e5761148d612019565b5b600061149c858286016112c9565b92505060206114ad858286016112de565b9150509250929050565b600080600080600080600080610100898b0312156114d8576114d7612019565b5b600089013567ffffffffffffffff8111156114f6576114f5612014565b5b6115028b828c01611308565b985050602089013567ffffffffffffffff81111561152357611522612014565b5b61152f8b828c01611308565b97505060406115408b828c01611336565b96505060606115518b828c01611336565b955050608089013567ffffffffffffffff81111561157257611571612014565b5b61157e8b828c01611308565b94505060a061158f8b828c0161129f565b93505060c06115a08b828c01611375565b92505060e06115b18b828c016112c9565b9150509295985092959890939650565b6000806000806000806000806000806101408b8d0312156115e5576115e4612019565b5b60008b013567ffffffffffffffff81111561160357611602612014565b5b61160f8d828e01611308565b9a505060208b013567ffffffffffffffff8111156116305761162f612014565b5b61163c8d828e01611308565b995050604061164d8d828e01611336565b985050606061165e8d828e01611336565b975050608061166f8d828e01611336565b96505060a08b013567ffffffffffffffff8111156116905761168f612014565b5b61169c8d828e01611308565b95505060c08b013567ffffffffffffffff8111156116bd576116bc612014565b5b6116c98d828e01611308565b94505060e06116da8d828e0161129f565b9350506101006116ec8d828e01611375565b9250506101206116fe8d828e016112c9565b9150509295989b9194979a5092959850565b600080600080600060a0868803121561172c5761172b612019565b5b600061173a88828901611360565b955050602061174b888289016112f3565b945050604061175c8882890161134b565b935050606061176d8882890161134b565b925050608061177e88828901611360565b9150509295509295909350565b61179481611de7565b82525050565b6117a381611e81565b82525050565b6117b281611e93565b82525050565b6117c181611ea5565b82525050565b6117d081611e1f565b82525050565b60006117e182611c3f565b6117eb8185611c55565b93506117fb818560208601611eea565b6118048161201e565b840191505092915050565b600061181c602683611c55565b91506118278261202f565b604082019050919050565b600061183f601683611c55565b915061184a8261207e565b602082019050919050565b6000611862602083611c55565b915061186d826120a7565b602082019050919050565b6000611885600083611c4a565b9150611890826120d0565b600082019050919050565b60006118a8601f83611c55565b91506118b3826120d3565b602082019050919050565b6118c781611e49565b82525050565b6118d681611e69565b82525050565b60006118e782611878565b9150819050919050565b6000602082019050611906600083018461178b565b92915050565b6000608082019050611921600083018761178b565b61192e60208301866117a9565b61193b60408301856117b8565b611948606083018461178b565b95945050505050565b6000602082019050611966600083018461179a565b92915050565b600060408201905061198160008301856117a9565b61198e60208301846117b8565b9392505050565b60006020820190506119aa60008301846117c7565b92915050565b600060808201905081810360008301526119ca81876117d6565b905081810360208301526119de81866117d6565b90506119ed60408301856117a9565b6119fa60608301846117b8565b95945050505050565b6000610100820190508181036000830152611a1e818b6117d6565b90508181036020830152611a32818a6117d6565b9050611a4160408301896118be565b611a4e60608301886118be565b8181036080830152611a6081876117d6565b9050611a6f60a083018661178b565b611a7c60c08301856118cd565b611a8960e083018461178b565b9998505050505050505050565b6000610140820190508181036000830152611ab1818d6117d6565b90508181036020830152611ac5818c6117d6565b9050611ad4604083018b6118be565b611ae1606083018a6118be565b611aee60808301896118be565b81810360a0830152611b0081886117d6565b905081810360c0830152611b1481876117d6565b9050611b2360e083018661178b565b611b316101008301856118cd565b611b3f61012083018461178b565b9b9a5050505050505050505050565b60006020820190508181036000830152611b678161180f565b9050919050565b60006020820190508181036000830152611b8781611832565b9050919050565b60006020820190508181036000830152611ba781611855565b9050919050565b60006020820190508181036000830152611bc78161189b565b9050919050565b6000602082019050611be360008301846118be565b92915050565b6000611bf3611c04565b9050611bff8282611f1d565b919050565b6000604051905090565b600067ffffffffffffffff821115611c2957611c28611fdb565b5b611c328261201e565b9050602081019050919050565b600081519050919050565b600081905092915050565b600082825260208201905092915050565b6000611c7182611e1f565b9150611c7c83611e1f565b925082611c8c57611c8b611f7d565b5b600160000383147f800000000000000000000000000000000000000000000000000000000000000083141615611cc557611cc4611f4e565b5b828205905092915050565b6000611cdb82611e1f565b9150611ce683611e1f565b9250827f7fffffffffffffffffffffffffffffffffffffffffffffffffffffffffffffff0482116000841360008413161615611d2557611d24611f4e565b5b817f80000000000000000000000000000000000000000000000000000000000000000583126000841260008413161615611d6257611d61611f4e565b5b827f80000000000000000000000000000000000000000000000000000000000000000582126000841360008412161615611d9f57611d9e611f4e565b5b827f7fffffffffffffffffffffffffffffffffffffffffffffffffffffffffffffff0582126000841260008412161615611ddc57611ddb611f4e565b5b828202905092915050565b6000611df282611e29565b9050919050565b6000819050611e07826120fc565b919050565b6000819050611e1a82612110565b919050565b6000819050919050565b600073ffffffffffffffffffffffffffffffffffffffff82169050919050565b6000819050919050565b600069ffffffffffffffffffff82169050919050565b60006bffffffffffffffffffffffff82169050919050565b6000611e8c82611eb7565b9050919050565b6000611e9e82611df9565b9050919050565b6000611eb082611e0c565b9050919050565b6000611ec282611ec9565b9050919050565b6000611ed482611e29565b9050919050565b82818337600083830152505050565b60005b83811015611f08578082015181840152602081019050611eed565b83811115611f17576000848401525b50505050565b611f268261201e565b810181811067ffffffffffffffff82111715611f4557611f44611fdb565b5b80604052505050565b7f4e487b7100000000000000000000000000000000000000000000000000000000600052601160045260246000fd5b7f4e487b7100000000000000000000000000000000000000000000000000000000600052601260045260246000fd5b7f4e487b7100000000000000000000000000000000000000000000000000000000600052602160045260246000fd5b7f4e487b7100000000000000000000000000000000000000000000000000000000600052604160045260246000fd5b600080fd5b600080fd5b600080fd5b600080fd5b6000601f19601f8301169050919050565b7f4f776e61626c653a206e6577206f776e657220697320746865207a65726f206160008201527f6464726573730000000000000000000000000000000000000000000000000000602082015250565b7f455243313136373a20637265617465206661696c656400000000000000000000600082015250565b7f4f776e61626c653a2063616c6c6572206973206e6f7420746865206f776e6572600082015250565b50565b7f5265656e7472616e637947756172643a207265656e7472616e742063616c6c00600082015250565b6002811061210d5761210c611fac565b5b50565b6003811061212157612120611fac565b5b50565b61212d81611de7565b811461213857600080fd5b50565b6002811061214857600080fd5b50565b6003811061215857600080fd5b50565b61216481611e1f565b811461216f57600080fd5b50565b61217b81611e49565b811461218657600080fd5b50565b61219281611e53565b811461219d57600080fd5b50565b6121a981611e69565b81146121b457600080fd5b5056fea2646970667358221220b329d0f6ba61a9dfb97f47de343595508fe32baeb51395125b7399101ab0ce9b64736f6c63430008070033",
  "devdoc": {
    "events": {
      "ContractCreated(address,string,string,uint8,uint8,address)": {
        "params": {
          "contractAddress": "Address of deployed Contract",
          "name": "Contract name",
          "owner": "Contract owner",
          "standard": "Contract standard",
          "symbol": "Contract symbol",
          "tier": "Contract standard tier"
        }
      }
    },
    "kind": "dev",
    "methods": {
      "constructor": {
        "params": {
          "_advancedTierCost": "Advanced tier cost",
          "_basicTierCost": "Basic tier cost",
          "_premiumTierCost": "Premium tier cost",
          "_priceFeed": "AggregatorV3Interface priceFeed address"
        }
      },
      "createERC1155Contract(string,string,uint256,uint256,string,address,uint96,uint8)": {
        "params": {
          "_amount": "Token supply",
          "_feePercent": "Royalty fee numerator; denominator is 10,000. So 500 represents 5%",
          "_id": "Token id",
          "_name": "Contract name",
          "_royaltyReceiver": "Royalty fee collector",
          "_symbol": "Contract symbol",
          "_tier": "Contract standard tier",
          "_uri": "Token uri"
        }
      },
      "createERC721AContract(string,string,uint256,uint256,uint256,string,string,address,uint96,uint8)": {
        "params": {
          "_cost": "Mint cost",
          "_feePercent": "Royalty fee numerator; denominator is 10,000. So 500 represents 5%",
          "_hiddenMetadataUri": "Hidden metadata uri",
          "_maxMintAmountPerTx": "Max mint amount per transaction",
          "_maxSupply": "Contract maxSupply",
          "_name": "Contract name",
          "_royaltyReceiver": "Royalty fee collector",
          "_symbol": "Contract symbol",
          "_tier": "Contract standard tier",
          "_uriPrefix": "Metadata uri prefix"
        }
      },
      "getCost(uint8)": {
        "returns": {
          "_0": "uint256 Cost price for contract deployment"
        }
      },
      "getLatestPrice()": {
        "returns": {
          "_0": "int256 Equation of price * 1e10"
        }
      },
      "owner()": {
        "details": "Returns the address of the current owner."
      },
      "renounceOwnership()": {
        "details": "Leaves the contract without owner. It will not be possible to call `onlyOwner` functions anymore. Can only be called by the current owner. NOTE: Renouncing ownership will leave the contract without an owner, thereby removing any functionality that is only available to the owner."
      },
      "setContractImplementation(uint8,uint8,address)": {
        "params": {
          "_contractImplementation": "New contractImplementation"
        }
      },
      "setCost(uint8,int256)": {
        "params": {
          "_cost": "Cost in wei (18 dec) as usd"
        }
      },
      "setPriceFeed(address)": {
        "params": {
          "_priceFeedAddress": "PriceFeed address"
        }
      },
      "setStorageImplementation(address)": {
        "params": {
          "_storageImplementation": "New storageImplementation"
        }
      },
      "transferOwnership(address)": {
        "details": "Transfers ownership of the contract to a new account (`newOwner`). Can only be called by the current owner."
      }
    },
    "title": "Wizard Factory",
    "version": 1
  },
  "userdoc": {
    "errors": {
      "InsufficientFunds()": [
        {
          "notice": "Insufficient funds!"
        }
      ],
      "InvalidContractImplementation(uint8,uint8)": [
        {
          "notice": "Invalid ERC Implementation!"
        }
      ],
      "InvalidStorageImplementation()": [
        {
          "notice": "Invalid Storage Implementation!"
        }
      ]
    },
    "events": {
      "ContractCreated(address,string,string,uint8,uint8,address)": {
        "notice": "Emitted on ERC Contracts create"
      }
    },
    "kind": "user",
    "methods": {
      "constructor": {
        "notice": "Constructor"
      },
      "contractImplementation(uint8,uint8)": {
        "notice": "standard: ERC721A => tier: Basic => implementation address"
      },
      "cost(uint8)": {
        "notice": "tier => cost in wei as usd"
      },
      "createERC1155Contract(string,string,uint256,uint256,string,address,uint96,uint8)": {
        "notice": "Function for creating ERC1155 contracts"
      },
      "createERC721AContract(string,string,uint256,uint256,uint256,string,string,address,uint96,uint8)": {
        "notice": "Function for creating ERC721A contracts"
      },
      "getCost(uint8)": {
        "notice": "Function to get contract deployment cost"
      },
      "getLatestPrice()": {
        "notice": "Function to get latest network native token price"
      },
      "priceFeed()": {
        "notice": "AggregatorV3Interface priceFeed address"
      },
      "setContractImplementation(uint8,uint8,address)": {
        "notice": "Set address for WizardStorageImplementation"
      },
      "setCost(uint8,int256)": {
        "notice": "Set contract basic deployment cost"
      },
      "setPriceFeed(address)": {
        "notice": "Set address for AggregatorV3Interface"
      },
      "setStorageImplementation(address)": {
        "notice": "Set address for storageImplementation"
      },
      "storageImplementation()": {
        "notice": "Storage Implementation"
      },
      "withdraw()": {
        "notice": "Function to withdraw contract funds"
      }
    },
    "notice": "Factory that creates contracts",
    "version": 1
  },
  "storageLayout": {
    "storage": [
      {
        "astId": 4172,
        "contract": "contracts/WizardFactory.sol:WizardFactory",
        "label": "_owner",
        "offset": 0,
        "slot": "0",
        "type": "t_address"
      },
      {
        "astId": 4368,
        "contract": "contracts/WizardFactory.sol:WizardFactory",
        "label": "_status",
        "offset": 0,
        "slot": "1",
        "type": "t_uint256"
      },
      {
        "astId": 5504,
        "contract": "contracts/WizardFactory.sol:WizardFactory",
        "label": "priceFeed",
        "offset": 0,
        "slot": "2",
        "type": "t_contract(AggregatorV3Interface)45"
      },
      {
        "astId": 5507,
        "contract": "contracts/WizardFactory.sol:WizardFactory",
        "label": "storageImplementation",
        "offset": 0,
        "slot": "3",
        "type": "t_address"
      },
      {
        "astId": 5516,
        "contract": "contracts/WizardFactory.sol:WizardFactory",
        "label": "contractImplementation",
        "offset": 0,
        "slot": "4",
        "type": "t_mapping(t_enum(Standard)6126,t_mapping(t_enum(Tier)6130,t_address))"
      },
      {
        "astId": 5522,
        "contract": "contracts/WizardFactory.sol:WizardFactory",
        "label": "cost",
        "offset": 0,
        "slot": "5",
        "type": "t_mapping(t_enum(Tier)6130,t_int256)"
      }
    ],
    "types": {
      "t_address": {
        "encoding": "inplace",
        "label": "address",
        "numberOfBytes": "20"
      },
      "t_contract(AggregatorV3Interface)45": {
        "encoding": "inplace",
        "label": "contract AggregatorV3Interface",
        "numberOfBytes": "20"
      },
      "t_enum(Standard)6126": {
        "encoding": "inplace",
        "label": "enum Enums.Standard",
        "numberOfBytes": "1"
      },
      "t_enum(Tier)6130": {
        "encoding": "inplace",
        "label": "enum Enums.Tier",
        "numberOfBytes": "1"
      },
      "t_int256": {
        "encoding": "inplace",
        "label": "int256",
        "numberOfBytes": "32"
      },
      "t_mapping(t_enum(Standard)6126,t_mapping(t_enum(Tier)6130,t_address))": {
        "encoding": "mapping",
        "key": "t_enum(Standard)6126",
        "label": "mapping(enum Enums.Standard => mapping(enum Enums.Tier => address))",
        "numberOfBytes": "32",
        "value": "t_mapping(t_enum(Tier)6130,t_address)"
      },
      "t_mapping(t_enum(Tier)6130,t_address)": {
        "encoding": "mapping",
        "key": "t_enum(Tier)6130",
        "label": "mapping(enum Enums.Tier => address)",
        "numberOfBytes": "32",
        "value": "t_address"
      },
      "t_mapping(t_enum(Tier)6130,t_int256)": {
        "encoding": "mapping",
        "key": "t_enum(Tier)6130",
        "label": "mapping(enum Enums.Tier => int256)",
        "numberOfBytes": "32",
        "value": "t_int256"
      },
      "t_uint256": {
        "encoding": "inplace",
        "label": "uint256",
        "numberOfBytes": "32"
      }
    }
  }
}