{
  "address": "0x6822E954f5328e31Ac74E3B5295658CB3D8CC0aa",
  "abi": [
    {
      "inputs": [
        {
          "internalType": "address",
          "name": "_factory",
          "type": "address"
        }
      ],
      "stateMutability": "nonpayable",
      "type": "constructor"
    },
    {
      "inputs": [],
      "name": "CallerIsNotTheFactory",
      "type": "error"
    },
    {
      "anonymous": false,
      "inputs": [
        {
          "indexed": true,
          "internalType": "address",
          "name": "previousOwner",
          "type": "address"
        },
        {
          "indexed": true,
          "internalType": "address",
          "name": "newOwner",
          "type": "address"
        }
      ],
      "name": "OwnershipTransferred",
      "type": "event"
    },
    {
      "inputs": [
        {
          "internalType": "address",
          "name": "_deployer",
          "type": "address"
        },
        {
          "internalType": "uint8",
          "name": "_ERCType",
          "type": "uint8"
        },
        {
          "internalType": "address",
          "name": "_addr",
          "type": "address"
        }
      ],
      "name": "addCreatedContract",
      "outputs": [],
      "stateMutability": "nonpayable",
      "type": "function"
    },
    {
      "inputs": [
        {
          "internalType": "address",
          "name": "",
          "type": "address"
        },
        {
          "internalType": "uint256",
          "name": "",
          "type": "uint256"
        }
      ],
      "name": "createdContracts",
      "outputs": [
        {
          "internalType": "uint8",
          "name": "_type",
          "type": "uint8"
        },
        {
          "internalType": "address",
          "name": "_address",
          "type": "address"
        }
      ],
      "stateMutability": "view",
      "type": "function"
    },
    {
      "inputs": [],
      "name": "factory",
      "outputs": [
        {
          "internalType": "address",
          "name": "",
          "type": "address"
        }
      ],
      "stateMutability": "view",
      "type": "function"
    },
    {
      "inputs": [
        {
          "internalType": "address",
          "name": "_address",
          "type": "address"
        }
      ],
      "name": "getCreatedContracts",
      "outputs": [
        {
          "components": [
            {
              "internalType": "uint8",
              "name": "_type",
              "type": "uint8"
            },
            {
              "internalType": "address",
              "name": "_address",
              "type": "address"
            }
          ],
          "internalType": "struct WizardStorage.CreatedContract[]",
          "name": "",
          "type": "tuple[]"
        }
      ],
      "stateMutability": "view",
      "type": "function"
    },
    {
      "inputs": [],
      "name": "owner",
      "outputs": [
        {
          "internalType": "address",
          "name": "",
          "type": "address"
        }
      ],
      "stateMutability": "view",
      "type": "function"
    },
    {
      "inputs": [],
      "name": "renounceOwnership",
      "outputs": [],
      "stateMutability": "nonpayable",
      "type": "function"
    },
    {
      "inputs": [
        {
          "internalType": "address",
          "name": "_factory",
          "type": "address"
        }
      ],
      "name": "setFactoryAddress",
      "outputs": [],
      "stateMutability": "nonpayable",
      "type": "function"
    },
    {
      "inputs": [
        {
          "internalType": "address",
          "name": "newOwner",
          "type": "address"
        }
      ],
      "name": "transferOwnership",
      "outputs": [],
      "stateMutability": "nonpayable",
      "type": "function"
    }
  ],
  "transactionHash": "0x68a9a1915eec026c944af4ef33a32731d6e03ca842220894cfdaa1eaf65109e3",
  "args": [
    "0x64Acd9a84C49ef27Ece2b7346e64605A0d9fF0B3"
  ],
  "numDeployments": 1,
  "solcInputHash": "5381fbf383fb3d8c7645ec929c88d5f1",
  "bytecode": "0x608060405234801561001057600080fd5b50604051610d5b380380610d5b83398181016040528101906100329190610176565b61004e61004361009560201b60201c565b61009d60201b60201c565b80600160006101000a81548173ffffffffffffffffffffffffffffffffffffffff021916908373ffffffffffffffffffffffffffffffffffffffff160217905550506101f1565b600033905090565b60008060009054906101000a900473ffffffffffffffffffffffffffffffffffffffff169050816000806101000a81548173ffffffffffffffffffffffffffffffffffffffff021916908373ffffffffffffffffffffffffffffffffffffffff1602179055508173ffffffffffffffffffffffffffffffffffffffff168173ffffffffffffffffffffffffffffffffffffffff167f8be0079c531659141344cd1fd0a4f28419497f9722a3daafe3b4186f6b6457e060405160405180910390a35050565b600081519050610170816101da565b92915050565b60006020828403121561018c5761018b6101d5565b5b600061019a84828501610161565b91505092915050565b60006101ae826101b5565b9050919050565b600073ffffffffffffffffffffffffffffffffffffffff82169050919050565b600080fd5b6101e3816101a3565b81146101ee57600080fd5b50565b610b5b806102006000396000f3fe608060405234801561001057600080fd5b50600436106100885760003560e01c806383c17c551161005b57806383c17c55146101145780638da5cb5b14610130578063c45a01551461014e578063f2fde38b1461016c57610088565b80631a75a1061461008d578063617b53be146100be578063715018a6146100da5780637fab834f146100e4575b600080fd5b6100a760048036038101906100a29190610770565b610188565b6040516100b59291906109a7565b60405180910390f35b6100d860048036038101906100d391906107b0565b6101f2565b005b6100e261037a565b005b6100fe60048036038101906100f99190610743565b61038e565b60405161010b9190610945565b60405180910390f35b61012e60048036038101906101299190610743565b61049b565b005b6101386104e7565b604051610145919061092a565b60405180910390f35b610156610510565b604051610163919061092a565b60405180910390f35b61018660048036038101906101819190610743565b610536565b005b600260205281600052604060002081815481106101a457600080fd5b90600052602060002001600091509150508060000160009054906101000a900460ff16908060000160019054906101000a900473ffffffffffffffffffffffffffffffffffffffff16905082565b3373ffffffffffffffffffffffffffffffffffffffff16600160009054906101000a900473ffffffffffffffffffffffffffffffffffffffff1673ffffffffffffffffffffffffffffffffffffffff1614610279576040517f7fa8f6c800000000000000000000000000000000000000000000000000000000815260040160405180910390fd5b600260008473ffffffffffffffffffffffffffffffffffffffff1673ffffffffffffffffffffffffffffffffffffffff16815260200190815260200160002060405180604001604052808460ff1681526020018373ffffffffffffffffffffffffffffffffffffffff168152509080600181540180825580915050600190039060005260206000200160009091909190915060008201518160000160006101000a81548160ff021916908360ff16021790555060208201518160000160016101000a81548173ffffffffffffffffffffffffffffffffffffffff021916908373ffffffffffffffffffffffffffffffffffffffff1602179055505050505050565b6103826105ba565b61038c6000610638565b565b6060600260008373ffffffffffffffffffffffffffffffffffffffff1673ffffffffffffffffffffffffffffffffffffffff168152602001908152602001600020805480602002602001604051908101604052809291908181526020016000905b82821015610490578382906000526020600020016040518060400160405290816000820160009054906101000a900460ff1660ff1660ff1681526020016000820160019054906101000a900473ffffffffffffffffffffffffffffffffffffffff1673ffffffffffffffffffffffffffffffffffffffff1673ffffffffffffffffffffffffffffffffffffffff1681525050815260200190600101906103ef565b505050509050919050565b6104a36105ba565b80600160006101000a81548173ffffffffffffffffffffffffffffffffffffffff021916908373ffffffffffffffffffffffffffffffffffffffff16021790555050565b60008060009054906101000a900473ffffffffffffffffffffffffffffffffffffffff16905090565b600160009054906101000a900473ffffffffffffffffffffffffffffffffffffffff1681565b61053e6105ba565b600073ffffffffffffffffffffffffffffffffffffffff168173ffffffffffffffffffffffffffffffffffffffff1614156105ae576040517f08c379a00000000000000000000000000000000000000000000000000000000081526004016105a590610967565b60405180910390fd5b6105b781610638565b50565b6105c26106fc565b73ffffffffffffffffffffffffffffffffffffffff166105e06104e7565b73ffffffffffffffffffffffffffffffffffffffff1614610636576040517f08c379a000000000000000000000000000000000000000000000000000000000815260040161062d90610987565b60405180910390fd5b565b60008060009054906101000a900473ffffffffffffffffffffffffffffffffffffffff169050816000806101000a81548173ffffffffffffffffffffffffffffffffffffffff021916908373ffffffffffffffffffffffffffffffffffffffff1602179055508173ffffffffffffffffffffffffffffffffffffffff168173ffffffffffffffffffffffffffffffffffffffff167f8be0079c531659141344cd1fd0a4f28419497f9722a3daafe3b4186f6b6457e060405160405180910390a35050565b600033905090565b60008135905061071381610ae0565b92915050565b60008135905061072881610af7565b92915050565b60008135905061073d81610b0e565b92915050565b60006020828403121561075957610758610a63565b5b600061076784828501610704565b91505092915050565b6000806040838503121561078757610786610a63565b5b600061079585828601610704565b92505060206107a685828601610719565b9150509250929050565b6000806000606084860312156107c9576107c8610a63565b5b60006107d786828701610704565b93505060206107e88682870161072e565b92505060406107f986828701610704565b9150509250925092565b600061080f83836108dd565b60408301905092915050565b61082481610a1a565b82525050565b61083381610a1a565b82525050565b6000610844826109e0565b61084e81856109f8565b9350610859836109d0565b8060005b8381101561088a5781516108718882610803565b975061087c836109eb565b92505060018101905061085d565b5085935050505092915050565b60006108a4602683610a09565b91506108af82610a68565b604082019050919050565b60006108c7602083610a09565b91506108d282610ab7565b602082019050919050565b6040820160008201516108f3600085018261090c565b506020820151610906602085018261081b565b50505050565b61091581610a56565b82525050565b61092481610a56565b82525050565b600060208201905061093f600083018461082a565b92915050565b6000602082019050818103600083015261095f8184610839565b905092915050565b6000602082019050818103600083015261098081610897565b9050919050565b600060208201905081810360008301526109a0816108ba565b9050919050565b60006040820190506109bc600083018561091b565b6109c9602083018461082a565b9392505050565b6000819050602082019050919050565b600081519050919050565b6000602082019050919050565b600082825260208201905092915050565b600082825260208201905092915050565b6000610a2582610a2c565b9050919050565b600073ffffffffffffffffffffffffffffffffffffffff82169050919050565b6000819050919050565b600060ff82169050919050565b600080fd5b7f4f776e61626c653a206e6577206f776e657220697320746865207a65726f206160008201527f6464726573730000000000000000000000000000000000000000000000000000602082015250565b7f4f776e61626c653a2063616c6c6572206973206e6f7420746865206f776e6572600082015250565b610ae981610a1a565b8114610af457600080fd5b50565b610b0081610a4c565b8114610b0b57600080fd5b50565b610b1781610a56565b8114610b2257600080fd5b5056fea2646970667358221220415d88dad79d028fdf9bd41662a8e4c7481e6061b1a102123a851b5da9ca95aa64736f6c63430008070033",
  "devdoc": {
    "kind": "dev",
    "methods": {
      "constructor": {
        "params": {
          "_factory": "factory address"
        }
      },
      "getCreatedContracts(address)": {
        "params": {
          "_address": "Address of contract deployer"
        }
      },
      "owner()": {
        "details": "Returns the address of the current owner."
      },
      "renounceOwnership()": {
        "details": "Leaves the contract without owner. It will not be possible to call `onlyOwner` functions anymore. Can only be called by the current owner. NOTE: Renouncing ownership will leave the contract without an owner, thereby removing any functionality that is only available to the owner."
      },
      "transferOwnership(address)": {
        "details": "Transfers ownership of the contract to a new account (`newOwner`). Can only be called by the current owner."
      }
    },
    "title": "Wizard Storage",
    "version": 1
  },
  "userdoc": {
    "errors": {
      "CallerIsNotTheFactory()": [
        {
          "notice": "Caller is not the factory!"
        }
      ]
    },
    "kind": "user",
    "methods": {
      "constructor": {
        "notice": "Constructor"
      },
      "createdContracts(address,uint256)": {
        "notice": "Mapping of address (deployer) to created contracts"
      },
      "getCreatedContracts(address)": {
        "notice": "Function to get all deployed contracts by an address"
      }
    },
    "notice": "Storage that store ERC contracts",
    "version": 1
  },
  "storageLayout": {
    "storage": [
      {
        "astId": 3670,
        "contract": "contracts/WizardStorage.sol:WizardStorage",
        "label": "_owner",
        "offset": 0,
        "slot": "0",
        "type": "t_address"
      },
      {
        "astId": 6175,
        "contract": "contracts/WizardStorage.sol:WizardStorage",
        "label": "factory",
        "offset": 0,
        "slot": "1",
        "type": "t_address"
      },
      {
        "astId": 6187,
        "contract": "contracts/WizardStorage.sol:WizardStorage",
        "label": "createdContracts",
        "offset": 0,
        "slot": "2",
        "type": "t_mapping(t_address,t_array(t_struct(CreatedContract)6180_storage)dyn_storage)"
      }
    ],
    "types": {
      "t_address": {
        "encoding": "inplace",
        "label": "address",
        "numberOfBytes": "20"
      },
      "t_array(t_struct(CreatedContract)6180_storage)dyn_storage": {
        "base": "t_struct(CreatedContract)6180_storage",
        "encoding": "dynamic_array",
        "label": "struct WizardStorage.CreatedContract[]",
        "numberOfBytes": "32"
      },
      "t_mapping(t_address,t_array(t_struct(CreatedContract)6180_storage)dyn_storage)": {
        "encoding": "mapping",
        "key": "t_address",
        "label": "mapping(address => struct WizardStorage.CreatedContract[])",
        "numberOfBytes": "32",
        "value": "t_array(t_struct(CreatedContract)6180_storage)dyn_storage"
      },
      "t_struct(CreatedContract)6180_storage": {
        "encoding": "inplace",
        "label": "struct WizardStorage.CreatedContract",
        "members": [
          {
            "astId": 6177,
            "contract": "contracts/WizardStorage.sol:WizardStorage",
            "label": "_type",
            "offset": 0,
            "slot": "0",
            "type": "t_uint8"
          },
          {
            "astId": 6179,
            "contract": "contracts/WizardStorage.sol:WizardStorage",
            "label": "_address",
            "offset": 1,
            "slot": "0",
            "type": "t_address"
          }
        ],
        "numberOfBytes": "32"
      },
      "t_uint8": {
        "encoding": "inplace",
        "label": "uint8",
        "numberOfBytes": "1"
      }
    }
  }
}