{
  "address": "0x9fE46736679d2D9a65F0992F2272dE9f3c7fa6e0",
  "abi": [
    {
      "inputs": [],
      "name": "ApprovalCallerNotOwnerNorApproved",
      "type": "error"
    },
    {
      "inputs": [],
      "name": "ApprovalQueryForNonexistentToken",
      "type": "error"
    },
    {
      "inputs": [],
      "name": "ApprovalToCurrentOwner",
      "type": "error"
    },
    {
      "inputs": [],
      "name": "ApproveToCaller",
      "type": "error"
    },
    {
      "inputs": [],
      "name": "BalanceQueryForZeroAddress",
      "type": "error"
    },
    {
      "inputs": [],
      "name": "ERC721__AddressAlreadyClaimed",
      "type": "error"
    },
    {
      "inputs": [],
      "name": "ERC721__InsufficientFunds",
      "type": "error"
    },
    {
      "inputs": [],
      "name": "ERC721__InvalidMintAmount",
      "type": "error"
    },
    {
      "inputs": [],
      "name": "ERC721__InvalidProof",
      "type": "error"
    },
    {
      "inputs": [],
      "name": "ERC721__MaxSupplyExceeded",
      "type": "error"
    },
    {
      "inputs": [],
      "name": "ERC721__TheContractIsPaused",
      "type": "error"
    },
    {
      "inputs": [],
      "name": "ERC721__TheWhitelistSaleIsNotEnabled",
      "type": "error"
    },
    {
      "inputs": [],
      "name": "ERC721__URIQueryForNonexistentToken",
      "type": "error"
    },
    {
      "inputs": [],
      "name": "MintToZeroAddress",
      "type": "error"
    },
    {
      "inputs": [],
      "name": "MintZeroQuantity",
      "type": "error"
    },
    {
      "inputs": [],
      "name": "OwnerQueryForNonexistentToken",
      "type": "error"
    },
    {
      "inputs": [],
      "name": "TransferCallerNotOwnerNorApproved",
      "type": "error"
    },
    {
      "inputs": [],
      "name": "TransferFromIncorrectOwner",
      "type": "error"
    },
    {
      "inputs": [],
      "name": "TransferToNonERC721ReceiverImplementer",
      "type": "error"
    },
    {
      "inputs": [],
      "name": "TransferToZeroAddress",
      "type": "error"
    },
    {
      "inputs": [],
      "name": "URIQueryForNonexistentToken",
      "type": "error"
    },
    {
      "anonymous": false,
      "inputs": [
        {
          "indexed": true,
          "internalType": "address",
          "name": "owner",
          "type": "address"
        },
        {
          "indexed": true,
          "internalType": "address",
          "name": "approved",
          "type": "address"
        },
        {
          "indexed": true,
          "internalType": "uint256",
          "name": "tokenId",
          "type": "uint256"
        }
      ],
      "name": "Approval",
      "type": "event"
    },
    {
      "anonymous": false,
      "inputs": [
        {
          "indexed": true,
          "internalType": "address",
          "name": "owner",
          "type": "address"
        },
        {
          "indexed": true,
          "internalType": "address",
          "name": "operator",
          "type": "address"
        },
        {
          "indexed": false,
          "internalType": "bool",
          "name": "approved",
          "type": "bool"
        }
      ],
      "name": "ApprovalForAll",
      "type": "event"
    },
    {
      "anonymous": false,
      "inputs": [
        {
          "indexed": false,
          "internalType": "uint8",
          "name": "version",
          "type": "uint8"
        }
      ],
      "name": "Initialized",
      "type": "event"
    },
    {
      "anonymous": false,
      "inputs": [
        {
          "indexed": true,
          "internalType": "string",
          "name": "_tokenName",
          "type": "string"
        },
        {
          "indexed": true,
          "internalType": "string",
          "name": "_tokenSymbol",
          "type": "string"
        },
        {
          "indexed": false,
          "internalType": "uint256",
          "name": "_cost",
          "type": "uint256"
        },
        {
          "indexed": false,
          "internalType": "uint256",
          "name": "_maxSupply",
          "type": "uint256"
        },
        {
          "indexed": false,
          "internalType": "uint256",
          "name": "_maxMintAmountPerTx",
          "type": "uint256"
        },
        {
          "indexed": false,
          "internalType": "string",
          "name": "_hiddenMetadataUri",
          "type": "string"
        },
        {
          "indexed": false,
          "internalType": "string",
          "name": "_uriPrefix",
          "type": "string"
        },
        {
          "indexed": false,
          "internalType": "address",
          "name": "_royaltyReceiver",
          "type": "address"
        },
        {
          "indexed": false,
          "internalType": "uint96",
          "name": "_feePercent",
          "type": "uint96"
        },
        {
          "indexed": true,
          "internalType": "address",
          "name": "_contractOwner",
          "type": "address"
        }
      ],
      "name": "InitializedContract",
      "type": "event"
    },
    {
      "anonymous": false,
      "inputs": [
        {
          "indexed": true,
          "internalType": "address",
          "name": "previousOwner",
          "type": "address"
        },
        {
          "indexed": true,
          "internalType": "address",
          "name": "newOwner",
          "type": "address"
        }
      ],
      "name": "OwnershipTransferred",
      "type": "event"
    },
    {
      "anonymous": false,
      "inputs": [
        {
          "indexed": true,
          "internalType": "address",
          "name": "royaltyReceiver",
          "type": "address"
        },
        {
          "indexed": false,
          "internalType": "uint96",
          "name": "feePercent",
          "type": "uint96"
        }
      ],
      "name": "RoyaltyInfoChanged",
      "type": "event"
    },
    {
      "anonymous": false,
      "inputs": [
        {
          "indexed": false,
          "internalType": "uint256",
          "name": "tokenId",
          "type": "uint256"
        },
        {
          "indexed": true,
          "internalType": "address",
          "name": "royaltyReceiver",
          "type": "address"
        },
        {
          "indexed": false,
          "internalType": "uint96",
          "name": "feePercent",
          "type": "uint96"
        }
      ],
      "name": "TokenRoyaltyInfoChanged",
      "type": "event"
    },
    {
      "anonymous": false,
      "inputs": [
        {
          "indexed": true,
          "internalType": "address",
          "name": "from",
          "type": "address"
        },
        {
          "indexed": true,
          "internalType": "address",
          "name": "to",
          "type": "address"
        },
        {
          "indexed": true,
          "internalType": "uint256",
          "name": "tokenId",
          "type": "uint256"
        }
      ],
      "name": "Transfer",
      "type": "event"
    },
    {
      "inputs": [
        {
          "internalType": "address",
          "name": "to",
          "type": "address"
        },
        {
          "internalType": "uint256",
          "name": "tokenId",
          "type": "uint256"
        }
      ],
      "name": "approve",
      "outputs": [],
      "stateMutability": "nonpayable",
      "type": "function"
    },
    {
      "inputs": [
        {
          "internalType": "address",
          "name": "owner",
          "type": "address"
        }
      ],
      "name": "balanceOf",
      "outputs": [
        {
          "internalType": "uint256",
          "name": "",
          "type": "uint256"
        }
      ],
      "stateMutability": "view",
      "type": "function"
    },
    {
      "inputs": [],
      "name": "cost",
      "outputs": [
        {
          "internalType": "uint256",
          "name": "",
          "type": "uint256"
        }
      ],
      "stateMutability": "view",
      "type": "function"
    },
    {
      "inputs": [
        {
          "internalType": "uint256",
          "name": "tokenId",
          "type": "uint256"
        }
      ],
      "name": "getApproved",
      "outputs": [
        {
          "internalType": "address",
          "name": "",
          "type": "address"
        }
      ],
      "stateMutability": "view",
      "type": "function"
    },
    {
      "inputs": [],
      "name": "hiddenMetadataUri",
      "outputs": [
        {
          "internalType": "string",
          "name": "",
          "type": "string"
        }
      ],
      "stateMutability": "view",
      "type": "function"
    },
    {
      "inputs": [
        {
          "internalType": "string",
          "name": "_tokenName",
          "type": "string"
        },
        {
          "internalType": "string",
          "name": "_tokenSymbol",
          "type": "string"
        },
        {
          "internalType": "uint256",
          "name": "_cost",
          "type": "uint256"
        },
        {
          "internalType": "uint256",
          "name": "_maxSupply",
          "type": "uint256"
        },
        {
          "internalType": "uint256",
          "name": "_maxMintAmountPerTx",
          "type": "uint256"
        },
        {
          "internalType": "string",
          "name": "_hiddenMetadataUri",
          "type": "string"
        },
        {
          "internalType": "string",
          "name": "_uriPrefix",
          "type": "string"
        },
        {
          "internalType": "address",
          "name": "_royaltyReceiver",
          "type": "address"
        },
        {
          "internalType": "uint96",
          "name": "_feePercent",
          "type": "uint96"
        },
        {
          "internalType": "address",
          "name": "_contractOwner",
          "type": "address"
        }
      ],
      "name": "initialize",
      "outputs": [],
      "stateMutability": "nonpayable",
      "type": "function"
    },
    {
      "inputs": [
        {
          "internalType": "address",
          "name": "owner",
          "type": "address"
        },
        {
          "internalType": "address",
          "name": "operator",
          "type": "address"
        }
      ],
      "name": "isApprovedForAll",
      "outputs": [
        {
          "internalType": "bool",
          "name": "",
          "type": "bool"
        }
      ],
      "stateMutability": "view",
      "type": "function"
    },
    {
      "inputs": [],
      "name": "maxMintAmountPerTx",
      "outputs": [
        {
          "internalType": "uint256",
          "name": "",
          "type": "uint256"
        }
      ],
      "stateMutability": "view",
      "type": "function"
    },
    {
      "inputs": [],
      "name": "maxSupply",
      "outputs": [
        {
          "internalType": "uint256",
          "name": "",
          "type": "uint256"
        }
      ],
      "stateMutability": "view",
      "type": "function"
    },
    {
      "inputs": [],
      "name": "merkleRoot",
      "outputs": [
        {
          "internalType": "bytes32",
          "name": "",
          "type": "bytes32"
        }
      ],
      "stateMutability": "view",
      "type": "function"
    },
    {
      "inputs": [
        {
          "internalType": "uint256",
          "name": "_mintAmount",
          "type": "uint256"
        }
      ],
      "name": "mint",
      "outputs": [],
      "stateMutability": "payable",
      "type": "function"
    },
    {
      "inputs": [
        {
          "internalType": "uint256",
          "name": "_mintAmount",
          "type": "uint256"
        },
        {
          "internalType": "address",
          "name": "_receiver",
          "type": "address"
        }
      ],
      "name": "mintForAddress",
      "outputs": [],
      "stateMutability": "nonpayable",
      "type": "function"
    },
    {
      "inputs": [],
      "name": "name",
      "outputs": [
        {
          "internalType": "string",
          "name": "",
          "type": "string"
        }
      ],
      "stateMutability": "view",
      "type": "function"
    },
    {
      "inputs": [],
      "name": "owner",
      "outputs": [
        {
          "internalType": "address",
          "name": "",
          "type": "address"
        }
      ],
      "stateMutability": "view",
      "type": "function"
    },
    {
      "inputs": [
        {
          "internalType": "uint256",
          "name": "tokenId",
          "type": "uint256"
        }
      ],
      "name": "ownerOf",
      "outputs": [
        {
          "internalType": "address",
          "name": "",
          "type": "address"
        }
      ],
      "stateMutability": "view",
      "type": "function"
    },
    {
      "inputs": [],
      "name": "paused",
      "outputs": [
        {
          "internalType": "bool",
          "name": "",
          "type": "bool"
        }
      ],
      "stateMutability": "view",
      "type": "function"
    },
    {
      "inputs": [],
      "name": "renounceOwnership",
      "outputs": [],
      "stateMutability": "nonpayable",
      "type": "function"
    },
    {
      "inputs": [],
      "name": "revealed",
      "outputs": [
        {
          "internalType": "bool",
          "name": "",
          "type": "bool"
        }
      ],
      "stateMutability": "view",
      "type": "function"
    },
    {
      "inputs": [
        {
          "internalType": "uint256",
          "name": "_tokenId",
          "type": "uint256"
        },
        {
          "internalType": "uint256",
          "name": "_salePrice",
          "type": "uint256"
        }
      ],
      "name": "royaltyInfo",
      "outputs": [
        {
          "internalType": "address",
          "name": "",
          "type": "address"
        },
        {
          "internalType": "uint256",
          "name": "",
          "type": "uint256"
        }
      ],
      "stateMutability": "view",
      "type": "function"
    },
    {
      "inputs": [
        {
          "internalType": "address",
          "name": "from",
          "type": "address"
        },
        {
          "internalType": "address",
          "name": "to",
          "type": "address"
        },
        {
          "internalType": "uint256",
          "name": "tokenId",
          "type": "uint256"
        }
      ],
      "name": "safeTransferFrom",
      "outputs": [],
      "stateMutability": "nonpayable",
      "type": "function"
    },
    {
      "inputs": [
        {
          "internalType": "address",
          "name": "from",
          "type": "address"
        },
        {
          "internalType": "address",
          "name": "to",
          "type": "address"
        },
        {
          "internalType": "uint256",
          "name": "tokenId",
          "type": "uint256"
        },
        {
          "internalType": "bytes",
          "name": "_data",
          "type": "bytes"
        }
      ],
      "name": "safeTransferFrom",
      "outputs": [],
      "stateMutability": "nonpayable",
      "type": "function"
    },
    {
      "inputs": [
        {
          "internalType": "address",
          "name": "operator",
          "type": "address"
        },
        {
          "internalType": "bool",
          "name": "approved",
          "type": "bool"
        }
      ],
      "name": "setApprovalForAll",
      "outputs": [],
      "stateMutability": "nonpayable",
      "type": "function"
    },
    {
      "inputs": [
        {
          "internalType": "uint256",
          "name": "_cost",
          "type": "uint256"
        }
      ],
      "name": "setCost",
      "outputs": [],
      "stateMutability": "nonpayable",
      "type": "function"
    },
    {
      "inputs": [
        {
          "internalType": "string",
          "name": "_hiddenMetadataUri",
          "type": "string"
        }
      ],
      "name": "setHiddenMetadataUri",
      "outputs": [],
      "stateMutability": "nonpayable",
      "type": "function"
    },
    {
      "inputs": [
        {
          "internalType": "uint256",
          "name": "_maxMintAmountPerTx",
          "type": "uint256"
        }
      ],
      "name": "setMaxMintAmountPerTx",
      "outputs": [],
      "stateMutability": "nonpayable",
      "type": "function"
    },
    {
      "inputs": [
        {
          "internalType": "bytes32",
          "name": "_merkleRoot",
          "type": "bytes32"
        }
      ],
      "name": "setMerkleRoot",
      "outputs": [],
      "stateMutability": "nonpayable",
      "type": "function"
    },
    {
      "inputs": [
        {
          "internalType": "bool",
          "name": "_state",
          "type": "bool"
        }
      ],
      "name": "setPaused",
      "outputs": [],
      "stateMutability": "nonpayable",
      "type": "function"
    },
    {
      "inputs": [
        {
          "internalType": "bool",
          "name": "_state",
          "type": "bool"
        }
      ],
      "name": "setRevealed",
      "outputs": [],
      "stateMutability": "nonpayable",
      "type": "function"
    },
    {
      "inputs": [
        {
          "internalType": "address",
          "name": "_royaltyReceiver",
          "type": "address"
        },
        {
          "internalType": "uint96",
          "name": "_feePercent",
          "type": "uint96"
        }
      ],
      "name": "setRoyaltyInfo",
      "outputs": [],
      "stateMutability": "nonpayable",
      "type": "function"
    },
    {
      "inputs": [
        {
          "internalType": "uint256",
          "name": "_tokenId",
          "type": "uint256"
        },
        {
          "internalType": "address",
          "name": "_royaltyReceiver",
          "type": "address"
        },
        {
          "internalType": "uint96",
          "name": "_feePercent",
          "type": "uint96"
        }
      ],
      "name": "setTokenRoyaltyInfo",
      "outputs": [],
      "stateMutability": "nonpayable",
      "type": "function"
    },
    {
      "inputs": [
        {
          "internalType": "string",
          "name": "_uriPrefix",
          "type": "string"
        }
      ],
      "name": "setUriPrefix",
      "outputs": [],
      "stateMutability": "nonpayable",
      "type": "function"
    },
    {
      "inputs": [
        {
          "internalType": "string",
          "name": "_uriSuffix",
          "type": "string"
        }
      ],
      "name": "setUriSuffix",
      "outputs": [],
      "stateMutability": "nonpayable",
      "type": "function"
    },
    {
      "inputs": [
        {
          "internalType": "bool",
          "name": "_state",
          "type": "bool"
        }
      ],
      "name": "setWhitelistMintEnabled",
      "outputs": [],
      "stateMutability": "nonpayable",
      "type": "function"
    },
    {
      "inputs": [
        {
          "internalType": "bytes4",
          "name": "_interfaceId",
          "type": "bytes4"
        }
      ],
      "name": "supportsInterface",
      "outputs": [
        {
          "internalType": "bool",
          "name": "",
          "type": "bool"
        }
      ],
      "stateMutability": "view",
      "type": "function"
    },
    {
      "inputs": [],
      "name": "symbol",
      "outputs": [
        {
          "internalType": "string",
          "name": "",
          "type": "string"
        }
      ],
      "stateMutability": "view",
      "type": "function"
    },
    {
      "inputs": [
        {
          "internalType": "uint256",
          "name": "_tokenId",
          "type": "uint256"
        }
      ],
      "name": "tokenURI",
      "outputs": [
        {
          "internalType": "string",
          "name": "",
          "type": "string"
        }
      ],
      "stateMutability": "view",
      "type": "function"
    },
    {
      "inputs": [],
      "name": "totalSupply",
      "outputs": [
        {
          "internalType": "uint256",
          "name": "",
          "type": "uint256"
        }
      ],
      "stateMutability": "view",
      "type": "function"
    },
    {
      "inputs": [
        {
          "internalType": "address",
          "name": "from",
          "type": "address"
        },
        {
          "internalType": "address",
          "name": "to",
          "type": "address"
        },
        {
          "internalType": "uint256",
          "name": "tokenId",
          "type": "uint256"
        }
      ],
      "name": "transferFrom",
      "outputs": [],
      "stateMutability": "nonpayable",
      "type": "function"
    },
    {
      "inputs": [
        {
          "internalType": "address",
          "name": "newOwner",
          "type": "address"
        }
      ],
      "name": "transferOwnership",
      "outputs": [],
      "stateMutability": "nonpayable",
      "type": "function"
    },
    {
      "inputs": [],
      "name": "uriPrefix",
      "outputs": [
        {
          "internalType": "string",
          "name": "",
          "type": "string"
        }
      ],
      "stateMutability": "view",
      "type": "function"
    },
    {
      "inputs": [],
      "name": "uriSuffix",
      "outputs": [
        {
          "internalType": "string",
          "name": "",
          "type": "string"
        }
      ],
      "stateMutability": "view",
      "type": "function"
    },
    {
      "inputs": [
        {
          "internalType": "address",
          "name": "_owner",
          "type": "address"
        }
      ],
      "name": "walletOfOwner",
      "outputs": [
        {
          "internalType": "uint256[]",
          "name": "",
          "type": "uint256[]"
        }
      ],
      "stateMutability": "view",
      "type": "function"
    },
    {
      "inputs": [
        {
          "internalType": "address",
          "name": "",
          "type": "address"
        }
      ],
      "name": "whitelistClaimed",
      "outputs": [
        {
          "internalType": "bool",
          "name": "",
          "type": "bool"
        }
      ],
      "stateMutability": "view",
      "type": "function"
    },
    {
      "inputs": [
        {
          "internalType": "uint256",
          "name": "_mintAmount",
          "type": "uint256"
        },
        {
          "internalType": "bytes32[]",
          "name": "_merkleProof",
          "type": "bytes32[]"
        }
      ],
      "name": "whitelistMint",
      "outputs": [],
      "stateMutability": "payable",
      "type": "function"
    },
    {
      "inputs": [],
      "name": "whitelistMintEnabled",
      "outputs": [
        {
          "internalType": "bool",
          "name": "",
          "type": "bool"
        }
      ],
      "stateMutability": "view",
      "type": "function"
    },
    {
      "inputs": [],
      "name": "withdraw",
      "outputs": [],
      "stateMutability": "nonpayable",
      "type": "function"
    }
  ],
  "transactionHash": "0x27bf8ba9ae0b3cb68be6f28af7ef9edec00f8b68bc7a0e2058047bf8b582e0f7",
  "args": [],
  "numDeployments": 1,
  "solcInputHash": "63d2a6cbc17ec01a674b805f81359f01",
  "bytecode": "0x608060405234801561001057600080fd5b50615439806100206000396000f3fe60806040526004361061027d5760003560e01c80636caede3d1161014f578063b071401b116100c1578063d5abeb011161007a578063d5abeb0114610953578063db4bec441461097e578063e0a80853146109bb578063e985e9c5146109e4578063efbd73f414610a21578063f2fde38b14610a4a5761027d565b8063b071401b14610856578063b767a0981461087f578063b88d4fde146108a8578063b8f73003146108d1578063c87b56dd146108fa578063d2cab056146109375761027d565b80638da5cb5b116101135780638da5cb5b1461076557806394354fd01461079057806395d89b41146107bb578063a0712d68146107e6578063a22cb46514610802578063a45ba8e71461082b5761027d565b80636caede3d1461069457806370a08231146106bf578063715018a6146106fc5780637cb64759146107135780637ec4a6591461073c5761027d565b80632a55205a116101f35780634fdd43cb116101ac5780634fdd43cb1461058257806351830227146105ab5780635503a0e8146105d65780635c975abb1461060157806362b99ad41461062c5780636352211e146106575761027d565b80632a55205a146104735780632eb4a7ab146104b15780633ccfd60b146104dc57806342842e0e146104f3578063438b63001461051c57806344a0d68a146105595761027d565b806313cfbe501161024557806313cfbe501461037957806313faede6146103a257806316ba10e0146103cd57806316c38b3c146103f657806318160ddd1461041f57806323b872dd1461044a5761027d565b806301ffc9a71461028257806302fa7c47146102bf57806306fdde03146102e8578063081812fc14610313578063095ea7b314610350575b600080fd5b34801561028e57600080fd5b506102a960048036038101906102a491906141ca565b610a73565b6040516102b691906149c7565b60405180910390f35b3480156102cb57600080fd5b506102e660048036038101906102e19190614130565b610aa5565b005b3480156102f457600080fd5b506102fd610b09565b60405161030a9190614a18565b60405180910390f35b34801561031f57600080fd5b5061033a600480360381019061033591906143bc565b610b9b565b6040516103479190614915565b60405180910390f35b34801561035c57600080fd5b50610377600480360381019061037291906140f0565b610c17565b005b34801561038557600080fd5b506103a0600480360381019061039b919061426d565b610d1c565b005b3480156103ae57600080fd5b506103b7610fab565b6040516103c49190614b3a565b60405180910390f35b3480156103d957600080fd5b506103f460048036038101906103ef9190614224565b610fb2565b005b34801561040257600080fd5b5061041d60048036038101906104189190614170565b610fd5565b005b34801561042b57600080fd5b50610434610ffb565b6040516104419190614b3a565b60405180910390f35b34801561045657600080fd5b50610471600480360381019061046c9190613fda565b611012565b005b34801561047f57600080fd5b5061049a600480360381019061049591906144dc565b611022565b6040516104a892919061497c565b60405180910390f35b3480156104bd57600080fd5b506104c661120d565b6040516104d391906149e2565b60405180910390f35b3480156104e857600080fd5b506104f1611214565b005b3480156104ff57600080fd5b5061051a60048036038101906105159190613fda565b6112f2565b005b34801561052857600080fd5b50610543600480360381019061053e9190613f6d565b611312565b60405161055091906149a5565b60405180910390f35b34801561056557600080fd5b50610580600480360381019061057b91906143bc565b61152e565b005b34801561058e57600080fd5b506105a960048036038101906105a49190614224565b611541565b005b3480156105b757600080fd5b506105c0611564565b6040516105cd91906149c7565b60405180910390f35b3480156105e257600080fd5b506105eb611578565b6040516105f89190614a18565b60405180910390f35b34801561060d57600080fd5b50610616611607565b60405161062391906149c7565b60405180910390f35b34801561063857600080fd5b5061064161161b565b60405161064e9190614a18565b60405180910390f35b34801561066357600080fd5b5061067e600480360381019061067991906143bc565b6116aa565b60405161068b9190614915565b60405180910390f35b3480156106a057600080fd5b506106a96116c0565b6040516106b691906149c7565b60405180910390f35b3480156106cb57600080fd5b506106e660048036038101906106e19190613f6d565b6116d4565b6040516106f39190614b3a565b60405180910390f35b34801561070857600080fd5b506107116117a4565b005b34801561071f57600080fd5b5061073a6004803603810190610735919061419d565b6117b8565b005b34801561074857600080fd5b50610763600480360381019061075e9190614224565b6117cb565b005b34801561077157600080fd5b5061077a6117ee565b6040516107879190614915565b60405180910390f35b34801561079c57600080fd5b506107a5611818565b6040516107b29190614b3a565b60405180910390f35b3480156107c757600080fd5b506107d061181f565b6040516107dd9190614a18565b60405180910390f35b61080060048036038101906107fb91906143bc565b6118b1565b005b34801561080e57600080fd5b50610829600480360381019061082491906140b0565b6119f1565b005b34801561083757600080fd5b50610840611b69565b60405161084d9190614a18565b60405180910390f35b34801561086257600080fd5b5061087d600480360381019061087891906143bc565b611bf8565b005b34801561088b57600080fd5b506108a660048036038101906108a19190614170565b611c0b565b005b3480156108b457600080fd5b506108cf60048036038101906108ca919061402d565b611c31565b005b3480156108dd57600080fd5b506108f860048036038101906108f39190614429565b611ca9565b005b34801561090657600080fd5b50610921600480360381019061091c91906143bc565b611d11565b60405161092e9190614a18565b60405180910390f35b610951600480360381019061094c919061447c565b611e64565b005b34801561095f57600080fd5b50610968612148565b6040516109759190614b3a565b60405180910390f35b34801561098a57600080fd5b506109a560048036038101906109a09190613f6d565b61214f565b6040516109b291906149c7565b60405180910390f35b3480156109c757600080fd5b506109e260048036038101906109dd9190614170565b612170565b005b3480156109f057600080fd5b50610a0b6004803603810190610a069190613f9a565b612196565b604051610a1891906149c7565b60405180910390f35b348015610a2d57600080fd5b50610a486004803603810190610a4391906143e9565b61222a565b005b348015610a5657600080fd5b50610a716004803603810190610a6c9190613f6d565b6122da565b005b6000610a7e8261235e565b80610a8e5750610a8d82612440565b5b80610a9e5750610a9d82612440565b5b9050919050565b610aad6124ba565b610ab78282612538565b8173ffffffffffffffffffffffffffffffffffffffff167f649787d44a877bdd8d255fbfdaba9927f56be0ec7aae8fb86cd16841966479d282604051610afd9190614bfb565b60405180910390a25050565b606060678054610b1890614f45565b80601f0160208091040260200160405190810160405280929190818152602001828054610b4490614f45565b8015610b915780601f10610b6657610100808354040283529160200191610b91565b820191906000526020600020905b815481529060010190602001808311610b7457829003601f168201915b5050505050905090565b6000610ba6826126ce565b610bdc576040517fcf4700e400000000000000000000000000000000000000000000000000000000815260040160405180910390fd5b606b600083815260200190815260200160002060009054906101000a900473ffffffffffffffffffffffffffffffffffffffff169050919050565b6000610c22826116aa565b90508073ffffffffffffffffffffffffffffffffffffffff168373ffffffffffffffffffffffffffffffffffffffff161415610c8a576040517f943f7b8c00000000000000000000000000000000000000000000000000000000815260040160405180910390fd5b8073ffffffffffffffffffffffffffffffffffffffff16610ca961271c565b73ffffffffffffffffffffffffffffffffffffffff1614610d0c57610cd581610cd061271c565b612196565b610d0b576040517fcfb3b94200000000000000000000000000000000000000000000000000000000815260040160405180910390fd5b5b610d17838383612724565b505050565b60008060019054906101000a900460ff16159050808015610d4d5750600160008054906101000a900460ff1660ff16105b80610d7a5750610d5c306127d6565b158015610d795750600160008054906101000a900460ff1660ff16145b5b610db9576040517f08c379a0000000000000000000000000000000000000000000000000000000008152600401610db090614a5a565b60405180910390fd5b60016000806101000a81548160ff021916908360ff1602179055508015610df6576001600060016101000a81548160ff0219169083151502179055505b610dfe6127f9565b610e06612852565b610e0e6128a3565b610e188b8b6128fc565b88610132819055508761013381905550610e3187611bf8565b610e3a86611541565b610e43856117cb565b610e4d8484610aa5565b610e56826122da565b6040518060400160405280600581526020017f2e6a736f6e0000000000000000000000000000000000000000000000000000008152506101309080519060200190610ea2929190613cbe565b50600161013560006101000a81548160ff0219169083151502179055508173ffffffffffffffffffffffffffffffffffffffff168a604051610ee491906148ad565b60405180910390208c604051610efa91906148ad565b60405180910390207fdd039a3c64a5c33c935eeb19e610d124078b36b851a41f630aaede0f7d5b67dd8c8c8c8c8c8c8c604051610f3d9796959493929190614b55565b60405180910390a48015610f9e5760008060016101000a81548160ff0219169083151502179055507f7f26b83ff96e1f2b6a682f133852f6798a09c465da95921460cefb38474024986001604051610f9591906149fd565b60405180910390a15b5050505050505050505050565b6101325481565b610fba6124ba565b806101309080519060200190610fd1929190613cbe565b5050565b610fdd6124ba565b8061013560006101000a81548160ff02191690831515021790555050565b6000611005612959565b6066546065540303905090565b61101d838383612962565b505050565b600080600060ca60008681526020019081526020016000206040518060400160405290816000820160009054906101000a900473ffffffffffffffffffffffffffffffffffffffff1673ffffffffffffffffffffffffffffffffffffffff1673ffffffffffffffffffffffffffffffffffffffff1681526020016000820160149054906101000a90046bffffffffffffffffffffffff166bffffffffffffffffffffffff166bffffffffffffffffffffffff16815250509050600073ffffffffffffffffffffffffffffffffffffffff16816000015173ffffffffffffffffffffffffffffffffffffffff1614156111b85760c96040518060400160405290816000820160009054906101000a900473ffffffffffffffffffffffffffffffffffffffff1673ffffffffffffffffffffffffffffffffffffffff1673ffffffffffffffffffffffffffffffffffffffff1681526020016000820160149054906101000a90046bffffffffffffffffffffffff166bffffffffffffffffffffffff166bffffffffffffffffffffffff168152505090505b60006111c2612e18565b6bffffffffffffffffffffffff1682602001516bffffffffffffffffffffffff16866111ee9190614dc0565b6111f89190614d8f565b90508160000151819350935050509250929050565b61012d5481565b61121c6124ba565b600260fb541415611262576040517f08c379a000000000000000000000000000000000000000000000000000000000815260040161125990614afa565b60405180910390fd5b600260fb8190555060006112746117ee565b73ffffffffffffffffffffffffffffffffffffffff164760405161129790614900565b60006040518083038185875af1925050503d80600081146112d4576040519150601f19603f3d011682016040523d82523d6000602084013e6112d9565b606091505b50509050806112e757600080fd5b50600160fb81905550565b61130d83838360405180602001604052806000815250611c31565b505050565b6060600061131f836116d4565b905060008167ffffffffffffffff81111561133d5761133c615102565b5b60405190808252806020026020018201604052801561136b5781602001602082028036833780820191505090505b5090506000611378612959565b90506000805b84821080156113905750610133548311155b15611521576000606960008581526020019081526020016000206040518060600160405290816000820160009054906101000a900473ffffffffffffffffffffffffffffffffffffffff1673ffffffffffffffffffffffffffffffffffffffff1673ffffffffffffffffffffffffffffffffffffffff1681526020016000820160149054906101000a900467ffffffffffffffff1667ffffffffffffffff1667ffffffffffffffff16815260200160008201601c9054906101000a900460ff1615151515815250509050806040015115801561149d5750600073ffffffffffffffffffffffffffffffffffffffff16816000015173ffffffffffffffffffffffffffffffffffffffff1614155b156114aa57806000015191505b8773ffffffffffffffffffffffffffffffffffffffff168273ffffffffffffffffffffffffffffffffffffffff16141561150d57838584815181106114f2576114f16150d3565b5b602002602001018181525050828061150990614fa8565b9350505b838061151890614fa8565b9450505061137e565b8395505050505050919050565b6115366124ba565b806101328190555050565b6115496124ba565b806101319080519060200190611560929190613cbe565b5050565b61013560029054906101000a900460ff1681565b610130805461158690614f45565b80601f01602080910402602001604051908101604052809291908181526020018280546115b290614f45565b80156115ff5780601f106115d4576101008083540402835291602001916115ff565b820191906000526020600020905b8154815290600101906020018083116115e257829003601f168201915b505050505081565b61013560009054906101000a900460ff1681565b61012f805461162990614f45565b80601f016020809104026020016040519081016040528092919081815260200182805461165590614f45565b80156116a25780601f10611677576101008083540402835291602001916116a2565b820191906000526020600020905b81548152906001019060200180831161168557829003601f168201915b505050505081565b60006116b582612e22565b600001519050919050565b61013560019054906101000a900460ff1681565b60008073ffffffffffffffffffffffffffffffffffffffff168273ffffffffffffffffffffffffffffffffffffffff16141561173c576040517f8f4eb60400000000000000000000000000000000000000000000000000000000815260040160405180910390fd5b606a60008373ffffffffffffffffffffffffffffffffffffffff1673ffffffffffffffffffffffffffffffffffffffff16815260200190815260200160002060000160009054906101000a900467ffffffffffffffff1667ffffffffffffffff169050919050565b6117ac6124ba565b6117b660006130ad565b565b6117c06124ba565b8061012d8190555050565b6117d36124ba565b8061012f90805190602001906117ea929190613cbe565b5050565b6000609760009054906101000a900473ffffffffffffffffffffffffffffffffffffffff16905090565b6101345481565b60606068805461182e90614f45565b80601f016020809104026020016040519081016040528092919081815260200182805461185a90614f45565b80156118a75780601f1061187c576101008083540402835291602001916118a7565b820191906000526020600020905b81548152906001019060200180831161188a57829003601f168201915b5050505050905090565b806000811115806118c457506101345481115b156118fb576040517f50117b4b00000000000000000000000000000000000000000000000000000000815260040160405180910390fd5b6101335481611908610ffb565b6119129190614d39565b111561194a576040517fc8f34c8500000000000000000000000000000000000000000000000000000000815260040160405180910390fd5b81806101325461195a9190614dc0565b341015611993576040517f483ab64300000000000000000000000000000000000000000000000000000000815260040160405180910390fd5b61013560009054906101000a900460ff16156119db576040517f6cb124e300000000000000000000000000000000000000000000000000000000815260040160405180910390fd5b6119ec6119e661271c565b84613173565b505050565b6119f961271c565b73ffffffffffffffffffffffffffffffffffffffff168273ffffffffffffffffffffffffffffffffffffffff161415611a5e576040517fb06307db00000000000000000000000000000000000000000000000000000000815260040160405180910390fd5b80606c6000611a6b61271c565b73ffffffffffffffffffffffffffffffffffffffff1673ffffffffffffffffffffffffffffffffffffffff16815260200190815260200160002060008473ffffffffffffffffffffffffffffffffffffffff1673ffffffffffffffffffffffffffffffffffffffff16815260200190815260200160002060006101000a81548160ff0219169083151502179055508173ffffffffffffffffffffffffffffffffffffffff16611b1861271c565b73ffffffffffffffffffffffffffffffffffffffff167f17307eab39ab6107e8899845ad3d59bd9653f200f220920489ca2b5937696c3183604051611b5d91906149c7565b60405180910390a35050565b6101318054611b7790614f45565b80601f0160208091040260200160405190810160405280929190818152602001828054611ba390614f45565b8015611bf05780601f10611bc557610100808354040283529160200191611bf0565b820191906000526020600020905b815481529060010190602001808311611bd357829003601f168201915b505050505081565b611c006124ba565b806101348190555050565b611c136124ba565b8061013560016101000a81548160ff02191690831515021790555050565b611c3c848484612962565b611c5b8373ffffffffffffffffffffffffffffffffffffffff166127d6565b15611ca357611c6c84848484613191565b611ca2576040517fd1a57ed600000000000000000000000000000000000000000000000000000000815260040160405180910390fd5b5b50505050565b611cb16124ba565b611cbc8383836132f1565b8173ffffffffffffffffffffffffffffffffffffffff167f6b487ddd0efdbfd7606e8030e43550f55602ad00f641f939c333b8731daca8a28483604051611d04929190614bd2565b60405180910390a2505050565b6060611d1c826126ce565b611d52576040517fecf0f7a000000000000000000000000000000000000000000000000000000000815260040160405180910390fd5b6000151561013560029054906101000a900460ff1615151415611e02576101318054611d7d90614f45565b80601f0160208091040260200160405190810160405280929190818152602001828054611da990614f45565b8015611df65780601f10611dcb57610100808354040283529160200191611df6565b820191906000526020600020905b815481529060010190602001808311611dd957829003601f168201915b50505050509050611e5f565b6000611e0c613499565b90506000815111611e2c5760405180602001604052806000815250611e5b565b80611e368461352c565b610130604051602001611e4b939291906148c4565b6040516020818303038152906040525b9150505b919050565b82600081111580611e7757506101345481115b15611eae576040517f50117b4b00000000000000000000000000000000000000000000000000000000815260040160405180910390fd5b6101335481611ebb610ffb565b611ec59190614d39565b1115611efd576040517fc8f34c8500000000000000000000000000000000000000000000000000000000815260040160405180910390fd5b838061013254611f0d9190614dc0565b341015611f46576040517f483ab64300000000000000000000000000000000000000000000000000000000815260040160405180910390fd5b61013560019054906101000a900460ff16611f8c576040517ee4ef4500000000000000000000000000000000000000000000000000000000815260040160405180910390fd5b61012e6000611f9961271c565b73ffffffffffffffffffffffffffffffffffffffff1673ffffffffffffffffffffffffffffffffffffffff16815260200190815260200160002060009054906101000a900460ff1615612018576040517ff0c21fb200000000000000000000000000000000000000000000000000000000815260040160405180910390fd5b600061202261271c565b6040516020016120329190614892565b604051602081830303815290604052805190602001209050612099858580806020026020016040519081016040528093929190818152602001838360200280828437600081840152601f19601f8201169050808301925050505050505061012d548361368d565b6120cf576040517f2a61275a00000000000000000000000000000000000000000000000000000000815260040160405180910390fd5b600161012e60006120de61271c565b73ffffffffffffffffffffffffffffffffffffffff1673ffffffffffffffffffffffffffffffffffffffff16815260200190815260200160002060006101000a81548160ff02191690831515021790555061214061213a61271c565b87613173565b505050505050565b6101335481565b61012e6020528060005260406000206000915054906101000a900460ff1681565b6121786124ba565b8061013560026101000a81548160ff02191690831515021790555050565b6000606c60008473ffffffffffffffffffffffffffffffffffffffff1673ffffffffffffffffffffffffffffffffffffffff16815260200190815260200160002060008373ffffffffffffffffffffffffffffffffffffffff1673ffffffffffffffffffffffffffffffffffffffff16815260200190815260200160002060009054906101000a900460ff16905092915050565b8160008111158061223d57506101345481115b15612274576040517f50117b4b00000000000000000000000000000000000000000000000000000000815260040160405180910390fd5b6101335481612281610ffb565b61228b9190614d39565b11156122c3576040517fc8f34c8500000000000000000000000000000000000000000000000000000000815260040160405180910390fd5b6122cb6124ba565b6122d58284613173565b505050565b6122e26124ba565b600073ffffffffffffffffffffffffffffffffffffffff168173ffffffffffffffffffffffffffffffffffffffff161415612352576040517f08c379a000000000000000000000000000000000000000000000000000000000815260040161234990614a3a565b60405180910390fd5b61235b816130ad565b50565b60007f80ac58cd000000000000000000000000000000000000000000000000000000007bffffffffffffffffffffffffffffffffffffffffffffffffffffffff1916827bffffffffffffffffffffffffffffffffffffffffffffffffffffffff1916148061242957507f5b5e139f000000000000000000000000000000000000000000000000000000007bffffffffffffffffffffffffffffffffffffffffffffffffffffffff1916827bffffffffffffffffffffffffffffffffffffffffffffffffffffffff1916145b806124395750612438826136a4565b5b9050919050565b60007f2a55205a000000000000000000000000000000000000000000000000000000007bffffffffffffffffffffffffffffffffffffffffffffffffffffffff1916827bffffffffffffffffffffffffffffffffffffffffffffffffffffffff191614806124b357506124b28261235e565b5b9050919050565b6124c261271c565b73ffffffffffffffffffffffffffffffffffffffff166124e06117ee565b73ffffffffffffffffffffffffffffffffffffffff1614612536576040517f08c379a000000000000000000000000000000000000000000000000000000000815260040161252d90614a7a565b60405180910390fd5b565b612540612e18565b6bffffffffffffffffffffffff16816bffffffffffffffffffffffff16111561259e576040517f08c379a000000000000000000000000000000000000000000000000000000000815260040161259590614ada565b60405180910390fd5b600073ffffffffffffffffffffffffffffffffffffffff168273ffffffffffffffffffffffffffffffffffffffff16141561260e576040517f08c379a000000000000000000000000000000000000000000000000000000000815260040161260590614b1a565b60405180910390fd5b60405180604001604052808373ffffffffffffffffffffffffffffffffffffffff168152602001826bffffffffffffffffffffffff1681525060c960008201518160000160006101000a81548173ffffffffffffffffffffffffffffffffffffffff021916908373ffffffffffffffffffffffffffffffffffffffff16021790555060208201518160000160146101000a8154816bffffffffffffffffffffffff02191690836bffffffffffffffffffffffff1602179055509050505050565b6000816126d9612959565b111580156126e8575060655482105b8015612715575060696000838152602001908152602001600020600001601c9054906101000a900460ff16155b9050919050565b600033905090565b82606b600084815260200190815260200160002060006101000a81548173ffffffffffffffffffffffffffffffffffffffff021916908373ffffffffffffffffffffffffffffffffffffffff160217905550818373ffffffffffffffffffffffffffffffffffffffff168273ffffffffffffffffffffffffffffffffffffffff167f8c5be1e5ebec7d5bd14f71427d1e84f3dd0314c0f7b2291e5b200ac8c7c3b92560405160405180910390a4505050565b6000808273ffffffffffffffffffffffffffffffffffffffff163b119050919050565b600060019054906101000a900460ff16612848576040517f08c379a000000000000000000000000000000000000000000000000000000000815260040161283f90614aba565b60405180910390fd5b61285061370e565b565b600060019054906101000a900460ff166128a1576040517f08c379a000000000000000000000000000000000000000000000000000000000815260040161289890614aba565b60405180910390fd5b565b600060019054906101000a900460ff166128f2576040517f08c379a00000000000000000000000000000000000000000000000000000000081526004016128e990614aba565b60405180910390fd5b6128fa61376f565b565b600060019054906101000a900460ff1661294b576040517f08c379a000000000000000000000000000000000000000000000000000000000815260040161294290614aba565b60405180910390fd5b61295582826137c8565b5050565b60006001905090565b600061296d82612e22565b90508373ffffffffffffffffffffffffffffffffffffffff16816000015173ffffffffffffffffffffffffffffffffffffffff16146129d8576040517fa114810000000000000000000000000000000000000000000000000000000000815260040160405180910390fd5b60008473ffffffffffffffffffffffffffffffffffffffff166129f961271c565b73ffffffffffffffffffffffffffffffffffffffff161480612a285750612a2785612a2261271c565b612196565b5b80612a6d5750612a3661271c565b73ffffffffffffffffffffffffffffffffffffffff16612a5584610b9b565b73ffffffffffffffffffffffffffffffffffffffff16145b905080612aa6576040517f59c896be00000000000000000000000000000000000000000000000000000000815260040160405180910390fd5b600073ffffffffffffffffffffffffffffffffffffffff168473ffffffffffffffffffffffffffffffffffffffff161415612b0d576040517fea553b3400000000000000000000000000000000000000000000000000000000815260040160405180910390fd5b612b1a8585856001613857565b612b2660008487612724565b6001606a60008773ffffffffffffffffffffffffffffffffffffffff1673ffffffffffffffffffffffffffffffffffffffff16815260200190815260200160002060000160008282829054906101000a900467ffffffffffffffff160392506101000a81548167ffffffffffffffff021916908367ffffffffffffffff1602179055506001606a60008673ffffffffffffffffffffffffffffffffffffffff1673ffffffffffffffffffffffffffffffffffffffff16815260200190815260200160002060000160008282829054906101000a900467ffffffffffffffff160192506101000a81548167ffffffffffffffff021916908367ffffffffffffffff1602179055506000606960008581526020019081526020016000209050848160000160006101000a81548173ffffffffffffffffffffffffffffffffffffffff021916908373ffffffffffffffffffffffffffffffffffffffff160217905550428160000160146101000a81548167ffffffffffffffff021916908367ffffffffffffffff16021790555060006001850190506000606960008381526020019081526020016000209050600073ffffffffffffffffffffffffffffffffffffffff168160000160009054906101000a900473ffffffffffffffffffffffffffffffffffffffff1673ffffffffffffffffffffffffffffffffffffffff161415612da6576065548214612da557878160000160006101000a81548173ffffffffffffffffffffffffffffffffffffffff021916908373ffffffffffffffffffffffffffffffffffffffff16021790555084602001518160000160146101000a81548167ffffffffffffffff021916908367ffffffffffffffff1602179055505b5b505050828473ffffffffffffffffffffffffffffffffffffffff168673ffffffffffffffffffffffffffffffffffffffff167fddf252ad1be2c89b69c2b068fc378daa952ba7f163c4a11628f55a4df523b3ef60405160405180910390a4612e11858585600161385d565b5050505050565b6000612710905090565b612e2a613d44565b600082905080612e38612959565b1161307657606554811015613075576000606960008381526020019081526020016000206040518060600160405290816000820160009054906101000a900473ffffffffffffffffffffffffffffffffffffffff1673ffffffffffffffffffffffffffffffffffffffff1673ffffffffffffffffffffffffffffffffffffffff1681526020016000820160149054906101000a900467ffffffffffffffff1667ffffffffffffffff1667ffffffffffffffff16815260200160008201601c9054906101000a900460ff1615151515815250509050806040015161307357600073ffffffffffffffffffffffffffffffffffffffff16816000015173ffffffffffffffffffffffffffffffffffffffff1614612f575780925050506130a8565b5b60011561307257818060019003925050606960008381526020019081526020016000206040518060600160405290816000820160009054906101000a900473ffffffffffffffffffffffffffffffffffffffff1673ffffffffffffffffffffffffffffffffffffffff1673ffffffffffffffffffffffffffffffffffffffff1681526020016000820160149054906101000a900467ffffffffffffffff1667ffffffffffffffff1667ffffffffffffffff16815260200160008201601c9054906101000a900460ff1615151515815250509050600073ffffffffffffffffffffffffffffffffffffffff16816000015173ffffffffffffffffffffffffffffffffffffffff161461306d5780925050506130a8565b612f58565b5b505b5b6040517fdf2d9b4200000000000000000000000000000000000000000000000000000000815260040160405180910390fd5b919050565b6000609760009054906101000a900473ffffffffffffffffffffffffffffffffffffffff16905081609760006101000a81548173ffffffffffffffffffffffffffffffffffffffff021916908373ffffffffffffffffffffffffffffffffffffffff1602179055508173ffffffffffffffffffffffffffffffffffffffff168173ffffffffffffffffffffffffffffffffffffffff167f8be0079c531659141344cd1fd0a4f28419497f9722a3daafe3b4186f6b6457e060405160405180910390a35050565b61318d828260405180602001604052806000815250613863565b5050565b60008373ffffffffffffffffffffffffffffffffffffffff1663150b7a026131b761271c565b8786866040518563ffffffff1660e01b81526004016131d99493929190614930565b602060405180830381600087803b1580156131f357600080fd5b505af192505050801561322457506040513d601f19601f8201168201806040525081019061322191906141f7565b60015b61329e573d8060008114613254576040519150601f19603f3d011682016040523d82523d6000602084013e613259565b606091505b50600081511415613296576040517fd1a57ed600000000000000000000000000000000000000000000000000000000815260040160405180910390fd5b805181602001fd5b63150b7a0260e01b7bffffffffffffffffffffffffffffffffffffffffffffffffffffffff1916817bffffffffffffffffffffffffffffffffffffffffffffffffffffffff191614915050949350505050565b6132f9612e18565b6bffffffffffffffffffffffff16816bffffffffffffffffffffffff161115613357576040517f08c379a000000000000000000000000000000000000000000000000000000000815260040161334e90614ada565b60405180910390fd5b600073ffffffffffffffffffffffffffffffffffffffff168273ffffffffffffffffffffffffffffffffffffffff1614156133c7576040517f08c379a00000000000000000000000000000000000000000000000000000000081526004016133be90614a9a565b60405180910390fd5b60405180604001604052808373ffffffffffffffffffffffffffffffffffffffff168152602001826bffffffffffffffffffffffff1681525060ca600085815260200190815260200160002060008201518160000160006101000a81548173ffffffffffffffffffffffffffffffffffffffff021916908373ffffffffffffffffffffffffffffffffffffffff16021790555060208201518160000160146101000a8154816bffffffffffffffffffffffff02191690836bffffffffffffffffffffffff160217905550905050505050565b606061012f80546134a990614f45565b80601f01602080910402602001604051908101604052809291908181526020018280546134d590614f45565b80156135225780601f106134f757610100808354040283529160200191613522565b820191906000526020600020905b81548152906001019060200180831161350557829003601f168201915b5050505050905090565b60606000821415613574576040518060400160405280600181526020017f30000000000000000000000000000000000000000000000000000000000000008152509050613688565b600082905060005b600082146135a657808061358f90614fa8565b915050600a8261359f9190614d8f565b915061357c565b60008167ffffffffffffffff8111156135c2576135c1615102565b5b6040519080825280601f01601f1916602001820160405280156135f45781602001600182028036833780820191505090505b5090505b600085146136815760018261360d9190614e1a565b9150600a8561361c9190615015565b60306136289190614d39565b60f81b81838151811061363e5761363d6150d3565b5b60200101907effffffffffffffffffffffffffffffffffffffffffffffffffffffffffffff1916908160001a905350600a8561367a9190614d8f565b94506135f8565b8093505050505b919050565b60008261369a8584613c26565b1490509392505050565b60007f01ffc9a7000000000000000000000000000000000000000000000000000000007bffffffffffffffffffffffffffffffffffffffffffffffffffffffff1916827bffffffffffffffffffffffffffffffffffffffffffffffffffffffff1916149050919050565b600060019054906101000a900460ff1661375d576040517f08c379a000000000000000000000000000000000000000000000000000000000815260040161375490614aba565b60405180910390fd5b61376d61376861271c565b6130ad565b565b600060019054906101000a900460ff166137be576040517f08c379a00000000000000000000000000000000000000000000000000000000081526004016137b590614aba565b60405180910390fd5b600160fb81905550565b600060019054906101000a900460ff16613817576040517f08c379a000000000000000000000000000000000000000000000000000000000815260040161380e90614aba565b60405180910390fd5b816067908051906020019061382d929190613cbe565b508060689080519060200190613844929190613cbe565b5061384d612959565b6065819055505050565b50505050565b50505050565b60006065549050600073ffffffffffffffffffffffffffffffffffffffff168473ffffffffffffffffffffffffffffffffffffffff1614156138d1576040517f2e07630000000000000000000000000000000000000000000000000000000000815260040160405180910390fd5b600083141561390c576040517fb562e8dd00000000000000000000000000000000000000000000000000000000815260040160405180910390fd5b6139196000858386613857565b82606a60008673ffffffffffffffffffffffffffffffffffffffff1673ffffffffffffffffffffffffffffffffffffffff16815260200190815260200160002060000160008282829054906101000a900467ffffffffffffffff160192506101000a81548167ffffffffffffffff021916908367ffffffffffffffff16021790555082606a60008673ffffffffffffffffffffffffffffffffffffffff1673ffffffffffffffffffffffffffffffffffffffff16815260200190815260200160002060000160088282829054906101000a900467ffffffffffffffff160192506101000a81548167ffffffffffffffff021916908367ffffffffffffffff160217905550836069600083815260200190815260200160002060000160006101000a81548173ffffffffffffffffffffffffffffffffffffffff021916908373ffffffffffffffffffffffffffffffffffffffff160217905550426069600083815260200190815260200160002060000160146101000a81548167ffffffffffffffff021916908367ffffffffffffffff160217905550600081905060008482019050613ada8673ffffffffffffffffffffffffffffffffffffffff166127d6565b15613b9f575b818673ffffffffffffffffffffffffffffffffffffffff16600073ffffffffffffffffffffffffffffffffffffffff167fddf252ad1be2c89b69c2b068fc378daa952ba7f163c4a11628f55a4df523b3ef60405160405180910390a4613b4f6000878480600101955087613191565b613b85576040517fd1a57ed600000000000000000000000000000000000000000000000000000000815260040160405180910390fd5b808210613ae0578260655414613b9a57600080fd5b613c0a565b5b818060010192508673ffffffffffffffffffffffffffffffffffffffff16600073ffffffffffffffffffffffffffffffffffffffff167fddf252ad1be2c89b69c2b068fc378daa952ba7f163c4a11628f55a4df523b3ef60405160405180910390a4808210613ba0575b816065819055505050613c20600085838661385d565b50505050565b60008082905060005b8451811015613c7157613c5c82868381518110613c4f57613c4e6150d3565b5b6020026020010151613c7c565b91508080613c6990614fa8565b915050613c2f565b508091505092915050565b6000818310613c9457613c8f8284613ca7565b613c9f565b613c9e8383613ca7565b5b905092915050565b600082600052816020526040600020905092915050565b828054613cca90614f45565b90600052602060002090601f016020900481019282613cec5760008555613d33565b82601f10613d0557805160ff1916838001178555613d33565b82800160010185558215613d33579182015b82811115613d32578251825591602001919060010190613d17565b5b509050613d409190613d87565b5090565b6040518060600160405280600073ffffffffffffffffffffffffffffffffffffffff168152602001600067ffffffffffffffff1681526020016000151581525090565b5b80821115613da0576000816000905550600101613d88565b5090565b6000613db7613db284614c3b565b614c16565b905082815260208101848484011115613dd357613dd2615140565b5b613dde848285614f03565b509392505050565b6000613df9613df484614c6c565b614c16565b905082815260208101848484011115613e1557613e14615140565b5b613e20848285614f03565b509392505050565b600081359050613e3781615379565b92915050565b60008083601f840112613e5357613e52615136565b5b8235905067ffffffffffffffff811115613e7057613e6f615131565b5b602083019150836020820283011115613e8c57613e8b61513b565b5b9250929050565b600081359050613ea281615390565b92915050565b600081359050613eb7816153a7565b92915050565b600081359050613ecc816153be565b92915050565b600081519050613ee1816153be565b92915050565b600082601f830112613efc57613efb615136565b5b8135613f0c848260208601613da4565b91505092915050565b600082601f830112613f2a57613f29615136565b5b8135613f3a848260208601613de6565b91505092915050565b600081359050613f52816153d5565b92915050565b600081359050613f67816153ec565b92915050565b600060208284031215613f8357613f8261514a565b5b6000613f9184828501613e28565b91505092915050565b60008060408385031215613fb157613fb061514a565b5b6000613fbf85828601613e28565b9250506020613fd085828601613e28565b9150509250929050565b600080600060608486031215613ff357613ff261514a565b5b600061400186828701613e28565b935050602061401286828701613e28565b925050604061402386828701613f43565b9150509250925092565b600080600080608085870312156140475761404661514a565b5b600061405587828801613e28565b945050602061406687828801613e28565b935050604061407787828801613f43565b925050606085013567ffffffffffffffff81111561409857614097615145565b5b6140a487828801613ee7565b91505092959194509250565b600080604083850312156140c7576140c661514a565b5b60006140d585828601613e28565b92505060206140e685828601613e93565b9150509250929050565b600080604083850312156141075761410661514a565b5b600061411585828601613e28565b925050602061412685828601613f43565b9150509250929050565b600080604083850312156141475761414661514a565b5b600061415585828601613e28565b925050602061416685828601613f58565b9150509250929050565b6000602082840312156141865761418561514a565b5b600061419484828501613e93565b91505092915050565b6000602082840312156141b3576141b261514a565b5b60006141c184828501613ea8565b91505092915050565b6000602082840312156141e0576141df61514a565b5b60006141ee84828501613ebd565b91505092915050565b60006020828403121561420d5761420c61514a565b5b600061421b84828501613ed2565b91505092915050565b60006020828403121561423a5761423961514a565b5b600082013567ffffffffffffffff81111561425857614257615145565b5b61426484828501613f15565b91505092915050565b6000806000806000806000806000806101408b8d0312156142915761429061514a565b5b60008b013567ffffffffffffffff8111156142af576142ae615145565b5b6142bb8d828e01613f15565b9a505060208b013567ffffffffffffffff8111156142dc576142db615145565b5b6142e88d828e01613f15565b99505060406142f98d828e01613f43565b985050606061430a8d828e01613f43565b975050608061431b8d828e01613f43565b96505060a08b013567ffffffffffffffff81111561433c5761433b615145565b5b6143488d828e01613f15565b95505060c08b013567ffffffffffffffff81111561436957614368615145565b5b6143758d828e01613f15565b94505060e06143868d828e01613e28565b9350506101006143988d828e01613f58565b9250506101206143aa8d828e01613e28565b9150509295989b9194979a5092959850565b6000602082840312156143d2576143d161514a565b5b60006143e084828501613f43565b91505092915050565b60008060408385031215614400576143ff61514a565b5b600061440e85828601613f43565b925050602061441f85828601613e28565b9150509250929050565b6000806000606084860312156144425761444161514a565b5b600061445086828701613f43565b935050602061446186828701613e28565b925050604061447286828701613f58565b9150509250925092565b6000806000604084860312156144955761449461514a565b5b60006144a386828701613f43565b935050602084013567ffffffffffffffff8111156144c4576144c3615145565b5b6144d086828701613e3d565b92509250509250925092565b600080604083850312156144f3576144f261514a565b5b600061450185828601613f43565b925050602061451285828601613f43565b9150509250929050565b60006145288383614865565b60208301905092915050565b61453d81614e4e565b82525050565b61455461454f82614e4e565b614ff1565b82525050565b600061456582614cc2565b61456f8185614cf0565b935061457a83614c9d565b8060005b838110156145ab578151614592888261451c565b975061459d83614ce3565b92505060018101905061457e565b5085935050505092915050565b6145c181614e60565b82525050565b6145d081614e6c565b82525050565b60006145e182614ccd565b6145eb8185614d01565b93506145fb818560208601614f12565b6146048161514f565b840191505092915050565b61461881614ef1565b82525050565b600061462982614cd8565b6146338185614d1d565b9350614643818560208601614f12565b61464c8161514f565b840191505092915050565b600061466282614cd8565b61466c8185614d2e565b935061467c818560208601614f12565b80840191505092915050565b6000815461469581614f45565b61469f8186614d2e565b945060018216600081146146ba57600181146146cb576146fe565b60ff198316865281860193506146fe565b6146d485614cad565b60005b838110156146f6578154818901526001820191506020810190506146d7565b838801955050505b50505092915050565b6000614714602683614d1d565b915061471f8261516d565b604082019050919050565b6000614737602e83614d1d565b9150614742826151bc565b604082019050919050565b600061475a602083614d1d565b91506147658261520b565b602082019050919050565b600061477d600083614d12565b915061478882615234565b600082019050919050565b60006147a0601b83614d1d565b91506147ab82615237565b602082019050919050565b60006147c3602b83614d1d565b91506147ce82615260565b604082019050919050565b60006147e6602a83614d1d565b91506147f1826152af565b604082019050919050565b6000614809601f83614d1d565b9150614814826152fe565b602082019050919050565b600061482c601983614d1d565b915061483782615327565b602082019050919050565b600061484f600183614d2e565b915061485a82615350565b600182019050919050565b61486e81614ec2565b82525050565b61487d81614ec2565b82525050565b61488c81614ed9565b82525050565b600061489e8284614543565b60148201915081905092915050565b60006148b98284614657565b915081905092915050565b60006148d08286614657565b91506148db82614842565b91506148e78285614657565b91506148f38284614688565b9150819050949350505050565b600061490b82614770565b9150819050919050565b600060208201905061492a6000830184614534565b92915050565b60006080820190506149456000830187614534565b6149526020830186614534565b61495f6040830185614874565b818103606083015261497181846145d6565b905095945050505050565b60006040820190506149916000830185614534565b61499e6020830184614874565b9392505050565b600060208201905081810360008301526149bf818461455a565b905092915050565b60006020820190506149dc60008301846145b8565b92915050565b60006020820190506149f760008301846145c7565b92915050565b6000602082019050614a12600083018461460f565b92915050565b60006020820190508181036000830152614a32818461461e565b905092915050565b60006020820190508181036000830152614a5381614707565b9050919050565b60006020820190508181036000830152614a738161472a565b9050919050565b60006020820190508181036000830152614a938161474d565b9050919050565b60006020820190508181036000830152614ab381614793565b9050919050565b60006020820190508181036000830152614ad3816147b6565b9050919050565b60006020820190508181036000830152614af3816147d9565b9050919050565b60006020820190508181036000830152614b13816147fc565b9050919050565b60006020820190508181036000830152614b338161481f565b9050919050565b6000602082019050614b4f6000830184614874565b92915050565b600060e082019050614b6a600083018a614874565b614b776020830189614874565b614b846040830188614874565b8181036060830152614b96818761461e565b90508181036080830152614baa818661461e565b9050614bb960a0830185614534565b614bc660c0830184614883565b98975050505050505050565b6000604082019050614be76000830185614874565b614bf46020830184614883565b9392505050565b6000602082019050614c106000830184614883565b92915050565b6000614c20614c31565b9050614c2c8282614f77565b919050565b6000604051905090565b600067ffffffffffffffff821115614c5657614c55615102565b5b614c5f8261514f565b9050602081019050919050565b600067ffffffffffffffff821115614c8757614c86615102565b5b614c908261514f565b9050602081019050919050565b6000819050602082019050919050565b60008190508160005260206000209050919050565b600081519050919050565b600081519050919050565b600081519050919050565b6000602082019050919050565b600082825260208201905092915050565b600082825260208201905092915050565b600081905092915050565b600082825260208201905092915050565b600081905092915050565b6000614d4482614ec2565b9150614d4f83614ec2565b9250827fffffffffffffffffffffffffffffffffffffffffffffffffffffffffffffffff03821115614d8457614d83615046565b5b828201905092915050565b6000614d9a82614ec2565b9150614da583614ec2565b925082614db557614db4615075565b5b828204905092915050565b6000614dcb82614ec2565b9150614dd683614ec2565b9250817fffffffffffffffffffffffffffffffffffffffffffffffffffffffffffffffff0483118215151615614e0f57614e0e615046565b5b828202905092915050565b6000614e2582614ec2565b9150614e3083614ec2565b925082821015614e4357614e42615046565b5b828203905092915050565b6000614e5982614ea2565b9050919050565b60008115159050919050565b6000819050919050565b60007fffffffff0000000000000000000000000000000000000000000000000000000082169050919050565b600073ffffffffffffffffffffffffffffffffffffffff82169050919050565b6000819050919050565b600060ff82169050919050565b60006bffffffffffffffffffffffff82169050919050565b6000614efc82614ecc565b9050919050565b82818337600083830152505050565b60005b83811015614f30578082015181840152602081019050614f15565b83811115614f3f576000848401525b50505050565b60006002820490506001821680614f5d57607f821691505b60208210811415614f7157614f706150a4565b5b50919050565b614f808261514f565b810181811067ffffffffffffffff82111715614f9f57614f9e615102565b5b80604052505050565b6000614fb382614ec2565b91507fffffffffffffffffffffffffffffffffffffffffffffffffffffffffffffffff821415614fe657614fe5615046565b5b600182019050919050565b6000614ffc82615003565b9050919050565b600061500e82615160565b9050919050565b600061502082614ec2565b915061502b83614ec2565b92508261503b5761503a615075565b5b828206905092915050565b7f4e487b7100000000000000000000000000000000000000000000000000000000600052601160045260246000fd5b7f4e487b7100000000000000000000000000000000000000000000000000000000600052601260045260246000fd5b7f4e487b7100000000000000000000000000000000000000000000000000000000600052602260045260246000fd5b7f4e487b7100000000000000000000000000000000000000000000000000000000600052603260045260246000fd5b7f4e487b7100000000000000000000000000000000000000000000000000000000600052604160045260246000fd5b600080fd5b600080fd5b600080fd5b600080fd5b600080fd5b600080fd5b6000601f19601f8301169050919050565b60008160601b9050919050565b7f4f776e61626c653a206e6577206f776e657220697320746865207a65726f206160008201527f6464726573730000000000000000000000000000000000000000000000000000602082015250565b7f496e697469616c697a61626c653a20636f6e747261637420697320616c72656160008201527f647920696e697469616c697a6564000000000000000000000000000000000000602082015250565b7f4f776e61626c653a2063616c6c6572206973206e6f7420746865206f776e6572600082015250565b50565b7f455243323938313a20496e76616c696420706172616d65746572730000000000600082015250565b7f496e697469616c697a61626c653a20636f6e7472616374206973206e6f74206960008201527f6e697469616c697a696e67000000000000000000000000000000000000000000602082015250565b7f455243323938313a20726f79616c7479206665652077696c6c2065786365656460008201527f2073616c65507269636500000000000000000000000000000000000000000000602082015250565b7f5265656e7472616e637947756172643a207265656e7472616e742063616c6c00600082015250565b7f455243323938313a20696e76616c696420726563656976657200000000000000600082015250565b7f2f00000000000000000000000000000000000000000000000000000000000000600082015250565b61538281614e4e565b811461538d57600080fd5b50565b61539981614e60565b81146153a457600080fd5b50565b6153b081614e6c565b81146153bb57600080fd5b50565b6153c781614e76565b81146153d257600080fd5b50565b6153de81614ec2565b81146153e957600080fd5b50565b6153f581614ed9565b811461540057600080fd5b5056fea2646970667358221220d78081c970177da7ee36a7ada1e8f4336f7a559b5ee57a34aa28e378d90808c064736f6c63430008070033",
  "devdoc": {
    "author": "a6Ce6Bs",
    "events": {
      "InitializedContract(string,string,uint256,uint256,uint256,string,string,address,uint96,address)": {
        "params": {
          "_contractOwner": "Contract owner",
          "_cost": "Contract mint cost",
          "_feePercent": "Royalty fee numerator; denominator is 10,000. So 500 represents 5%",
          "_hiddenMetadataUri": "Hidden metadata uri",
          "_maxMintAmountPerTx": "Max mint amount per transaction",
          "_maxSupply": "Contract maxSupply",
          "_royaltyReceiver": "Royalty fee collector",
          "_tokenName": "Contract name",
          "_tokenSymbol": "Contract symbol",
          "_uriPrefix": "Metadata uri prefix"
        }
      },
      "RoyaltyInfoChanged(address,uint96)": {
        "params": {
          "feePercent": "Royalty fee numerator; denominator is 10,000. So 500 represents 5%",
          "royaltyReceiver": "Royalty fee collector"
        }
      },
      "TokenRoyaltyInfoChanged(uint256,address,uint96)": {
        "params": {
          "feePercent": "Royalty fee numerator; denominator is 10,000. So 500 represents 5%",
          "royaltyReceiver": "Royalty fee collector",
          "tokenId": "Token ID royalty to be set"
        }
      }
    },
    "kind": "dev",
    "methods": {
      "approve(address,uint256)": {
        "details": "See {IERC721-approve}."
      },
      "balanceOf(address)": {
        "details": "See {IERC721-balanceOf}."
      },
      "getApproved(uint256)": {
        "details": "See {IERC721-getApproved}."
      },
      "initialize(string,string,uint256,uint256,uint256,string,string,address,uint96,address)": {
        "params": {
          "_contractOwner": "Contract owner",
          "_cost": "Contract mint cost",
          "_feePercent": "Royalty fee numerator; denominator is 10,000. So 500 represents 5%",
          "_hiddenMetadataUri": "Hidden metadata uri",
          "_maxMintAmountPerTx": "Max mint amount per transaction",
          "_maxSupply": "Contract maxSupply",
          "_royaltyReceiver": "Royalty fee collector",
          "_tokenName": "Contract name",
          "_tokenSymbol": "Contract symbol",
          "_uriPrefix": "Metadata uri prefix"
        }
      },
      "isApprovedForAll(address,address)": {
        "details": "See {IERC721-isApprovedForAll}."
      },
      "mint(uint256)": {
        "params": {
          "_mintAmount": "Amount of tokens to be minted"
        }
      },
      "mintForAddress(uint256,address)": {
        "params": {
          "_mintAmount": "Amount of tokens to be minted",
          "_receiver": "Receiver address"
        }
      },
      "name()": {
        "details": "See {IERC721Metadata-name}."
      },
      "owner()": {
        "details": "Returns the address of the current owner."
      },
      "ownerOf(uint256)": {
        "details": "See {IERC721-ownerOf}."
      },
      "renounceOwnership()": {
        "details": "Leaves the contract without owner. It will not be possible to call `onlyOwner` functions anymore. Can only be called by the current owner. NOTE: Renouncing ownership will leave the contract without an owner, thereby removing any functionality that is only available to the owner."
      },
      "royaltyInfo(uint256,uint256)": {
        "details": "Returns how much royalty is owed and to whom, based on a sale price that may be denominated in any unit of exchange. The royalty amount is denominated and should be paid in that same unit of exchange."
      },
      "safeTransferFrom(address,address,uint256)": {
        "details": "See {IERC721-safeTransferFrom}."
      },
      "safeTransferFrom(address,address,uint256,bytes)": {
        "details": "See {IERC721-safeTransferFrom}."
      },
      "setApprovalForAll(address,bool)": {
        "details": "See {IERC721-setApprovalForAll}."
      },
      "setCost(uint256)": {
        "details": "Can only be called by project owner",
        "params": {
          "_cost": "Cost price to be set"
        }
      },
      "setHiddenMetadataUri(string)": {
        "details": "Can only be called by project owner",
        "params": {
          "_hiddenMetadataUri": "Hidden metadata uri to be set"
        }
      },
      "setMaxMintAmountPerTx(uint256)": {
        "details": "Can only be called by project owner",
        "params": {
          "_maxMintAmountPerTx": "Max mint amount per tx to be set"
        }
      },
      "setMerkleRoot(bytes32)": {
        "details": "Can only be called by project owner",
        "params": {
          "_merkleRoot": "Merkle root to be set"
        }
      },
      "setPaused(bool)": {
        "details": "Can only be called by project owner",
        "params": {
          "_state": "Paused state to be set"
        }
      },
      "setRevealed(bool)": {
        "details": "Can only be called by project owner",
        "params": {
          "_state": "Revealed state to be set"
        }
      },
      "setRoyaltyInfo(address,uint96)": {
        "details": "Can only be called by project ownerOwner can prevent any sale by setting the address to any address that can't receive native network token",
        "params": {
          "_feePercent": "Royalty fee numerator; denominator is 10,000. So 500 represents 5%",
          "_royaltyReceiver": "Royalty fee collector"
        }
      },
      "setTokenRoyaltyInfo(uint256,address,uint96)": {
        "details": "Can only be called by project ownerOwner can prevent any sale by setting the address to any address that can't receive native network token",
        "params": {
          "_feePercent": "Royalty fee numerator; denominator is 10,000. So 500 represents 5%",
          "_royaltyReceiver": "Royalty fee collector",
          "_tokenId": "Token ID royalty to be set"
        }
      },
      "setUriPrefix(string)": {
        "details": "Can only be called by project owner",
        "params": {
          "_uriPrefix": "Uri prefix to be set"
        }
      },
      "setUriSuffix(string)": {
        "details": "Can only be called by project owner",
        "params": {
          "_uriSuffix": "Uri suffix to be set"
        }
      },
      "setWhitelistMintEnabled(bool)": {
        "details": "Can only be called by project owner",
        "params": {
          "_state": "Whitelist state to be set"
        }
      },
      "supportsInterface(bytes4)": {
        "details": "Needs to be overridden cause two base contracts implement it",
        "params": {
          "_interfaceId": "InterfaceId to consider. Comes from type(InterfaceContract).interfaceId"
        },
        "returns": {
          "_0": "bool True if the considered interface is supported"
        }
      },
      "symbol()": {
        "details": "See {IERC721Metadata-symbol}."
      },
      "tokenURI(uint256)": {
        "params": {
          "_tokenId": "Token id"
        },
        "returns": {
          "_0": "string Token uri"
        }
      },
      "totalSupply()": {
        "details": "Burned tokens are calculated here, use _totalMinted() if you want to count just minted tokens."
      },
      "transferFrom(address,address,uint256)": {
        "details": "See {IERC721-transferFrom}."
      },
      "transferOwnership(address)": {
        "details": "Transfers ownership of the contract to a new account (`newOwner`). Can only be called by the current owner."
      },
      "walletOfOwner(address)": {
        "params": {
          "_owner": "Address of wallet owner"
        },
        "returns": {
          "_0": "uint256 Owned token ids"
        }
      },
      "whitelistMint(uint256,bytes32[])": {
        "params": {
          "_merkleProof": "Merkle proof to verify whitelisted address",
          "_mintAmount": "Amount of tokens to be minted"
        }
      },
      "withdraw()": {
        "details": "Can only be called by project owner"
      }
    },
    "title": "Wizard ERC721 Contract",
    "version": 1
  },
  "userdoc": {
    "errors": {
      "ApprovalCallerNotOwnerNorApproved()": [
        {
          "notice": "The caller must own the token or be an approved operator."
        }
      ],
      "ApprovalQueryForNonexistentToken()": [
        {
          "notice": "The token does not exist."
        }
      ],
      "ApprovalToCurrentOwner()": [
        {
          "notice": "The caller cannot approve to the current owner."
        }
      ],
      "ApproveToCaller()": [
        {
          "notice": "The caller cannot approve to their own address."
        }
      ],
      "BalanceQueryForZeroAddress()": [
        {
          "notice": "Cannot query the balance for the zero address."
        }
      ],
      "ERC721__AddressAlreadyClaimed()": [
        {
          "notice": "Address already claimed!"
        }
      ],
      "ERC721__InsufficientFunds()": [
        {
          "notice": "Insufficient funds!"
        }
      ],
      "ERC721__InvalidMintAmount()": [
        {
          "notice": "Invalid mint amount!"
        }
      ],
      "ERC721__InvalidProof()": [
        {
          "notice": "Invalid proof!"
        }
      ],
      "ERC721__MaxSupplyExceeded()": [
        {
          "notice": "Max supply exceeded!"
        }
      ],
      "ERC721__TheContractIsPaused()": [
        {
          "notice": "The contract is paused!"
        }
      ],
      "ERC721__TheWhitelistSaleIsNotEnabled()": [
        {
          "notice": "The whitelist sale is not enabled!"
        }
      ],
      "ERC721__URIQueryForNonexistentToken()": [
        {
          "notice": "URI query for nonexistent token!"
        }
      ],
      "MintToZeroAddress()": [
        {
          "notice": "Cannot mint to the zero address."
        }
      ],
      "MintZeroQuantity()": [
        {
          "notice": "The quantity of tokens minted must be more than zero."
        }
      ],
      "OwnerQueryForNonexistentToken()": [
        {
          "notice": "The token does not exist."
        }
      ],
      "TransferCallerNotOwnerNorApproved()": [
        {
          "notice": "The caller must own the token or be an approved operator."
        }
      ],
      "TransferFromIncorrectOwner()": [
        {
          "notice": "The token must be owned by `from`."
        }
      ],
      "TransferToNonERC721ReceiverImplementer()": [
        {
          "notice": "Cannot safely transfer to a contract that does not implement the ERC721Receiver interface."
        }
      ],
      "TransferToZeroAddress()": [
        {
          "notice": "Cannot transfer to the zero address."
        }
      ],
      "URIQueryForNonexistentToken()": [
        {
          "notice": "The token does not exist."
        }
      ]
    },
    "events": {
      "InitializedContract(string,string,uint256,uint256,uint256,string,string,address,uint96,address)": {
        "notice": "Emmited on initialize()"
      },
      "RoyaltyInfoChanged(address,uint96)": {
        "notice": "Emmited on setRoyaltyInfo()"
      },
      "TokenRoyaltyInfoChanged(uint256,address,uint96)": {
        "notice": "Emmited on setTokenRoyaltyInfo()"
      }
    },
    "kind": "user",
    "methods": {
      "cost()": {
        "notice": "Mint cost"
      },
      "hiddenMetadataUri()": {
        "notice": "Contract hidden metadata uri"
      },
      "initialize(string,string,uint256,uint256,uint256,string,string,address,uint96,address)": {
        "notice": "Contract initialization"
      },
      "maxMintAmountPerTx()": {
        "notice": "Max mint amount per transaction"
      },
      "maxSupply()": {
        "notice": "Contract maxSupply"
      },
      "merkleRoot()": {
        "notice": "Contract merkle root"
      },
      "mint(uint256)": {
        "notice": "Function to mint new tokens"
      },
      "mintForAddress(uint256,address)": {
        "notice": "Function to mint new tokens for address"
      },
      "paused()": {
        "notice": "Contract status state"
      },
      "revealed()": {
        "notice": "Contract revealed state"
      },
      "setCost(uint256)": {
        "notice": "Function for changing cost price"
      },
      "setHiddenMetadataUri(string)": {
        "notice": "Function for changing hidden metadata uri"
      },
      "setMaxMintAmountPerTx(uint256)": {
        "notice": "Function for changing max mint amount per tx"
      },
      "setMerkleRoot(bytes32)": {
        "notice": "Function for changing merkle root"
      },
      "setPaused(bool)": {
        "notice": "Function for changing paused state"
      },
      "setRevealed(bool)": {
        "notice": "Function for changing revealed state"
      },
      "setRoyaltyInfo(address,uint96)": {
        "notice": "Function for changing royalty information"
      },
      "setTokenRoyaltyInfo(uint256,address,uint96)": {
        "notice": "Function for changing token royalty information"
      },
      "setUriPrefix(string)": {
        "notice": "Function for changing uri prefix"
      },
      "setUriSuffix(string)": {
        "notice": "Function for changing uri suffix"
      },
      "setWhitelistMintEnabled(bool)": {
        "notice": "Function for changing whitelist state"
      },
      "supportsInterface(bytes4)": {
        "notice": "Returns true if this contract implements the interface defined by `interfaceId`"
      },
      "tokenURI(uint256)": {
        "notice": "Function to get token uri"
      },
      "uriPrefix()": {
        "notice": "Contract uri prefix"
      },
      "uriSuffix()": {
        "notice": "Contract uri suffix"
      },
      "walletOfOwner(address)": {
        "notice": "Function for getting list of owned token ids"
      },
      "whitelistClaimed(address)": {
        "notice": "Mapping of address to whitelist claimed bool"
      },
      "whitelistMint(uint256,bytes32[])": {
        "notice": "Function to whitelist mint new tokens"
      },
      "whitelistMintEnabled()": {
        "notice": "Contract whitelist mint state"
      },
      "withdraw()": {
        "notice": "Function for withdrawing contact funds"
      }
    },
    "notice": "ERC721A contract",
    "version": 1
  },
  "storageLayout": {
    "storage": [
      {
        "astId": 203,
        "contract": "contracts/WizardERC721.sol:ERC721",
        "label": "_initialized",
        "offset": 0,
        "slot": "0",
        "type": "t_uint8"
      },
      {
        "astId": 206,
        "contract": "contracts/WizardERC721.sol:ERC721",
        "label": "_initializing",
        "offset": 1,
        "slot": "0",
        "type": "t_bool"
      },
      {
        "astId": 2492,
        "contract": "contracts/WizardERC721.sol:ERC721",
        "label": "__gap",
        "offset": 0,
        "slot": "1",
        "type": "t_array(t_uint256)50_storage"
      },
      {
        "astId": 2762,
        "contract": "contracts/WizardERC721.sol:ERC721",
        "label": "__gap",
        "offset": 0,
        "slot": "51",
        "type": "t_array(t_uint256)50_storage"
      },
      {
        "astId": 5435,
        "contract": "contracts/WizardERC721.sol:ERC721",
        "label": "_currentIndex",
        "offset": 0,
        "slot": "101",
        "type": "t_uint256"
      },
      {
        "astId": 5437,
        "contract": "contracts/WizardERC721.sol:ERC721",
        "label": "_burnCounter",
        "offset": 0,
        "slot": "102",
        "type": "t_uint256"
      },
      {
        "astId": 5439,
        "contract": "contracts/WizardERC721.sol:ERC721",
        "label": "_name",
        "offset": 0,
        "slot": "103",
        "type": "t_string_storage"
      },
      {
        "astId": 5441,
        "contract": "contracts/WizardERC721.sol:ERC721",
        "label": "_symbol",
        "offset": 0,
        "slot": "104",
        "type": "t_string_storage"
      },
      {
        "astId": 5446,
        "contract": "contracts/WizardERC721.sol:ERC721",
        "label": "_ownerships",
        "offset": 0,
        "slot": "105",
        "type": "t_mapping(t_uint256,t_struct(TokenOwnership)6863_storage)"
      },
      {
        "astId": 5451,
        "contract": "contracts/WizardERC721.sol:ERC721",
        "label": "_addressData",
        "offset": 0,
        "slot": "106",
        "type": "t_mapping(t_address,t_struct(AddressData)6872_storage)"
      },
      {
        "astId": 5455,
        "contract": "contracts/WizardERC721.sol:ERC721",
        "label": "_tokenApprovals",
        "offset": 0,
        "slot": "107",
        "type": "t_mapping(t_uint256,t_address)"
      },
      {
        "astId": 5461,
        "contract": "contracts/WizardERC721.sol:ERC721",
        "label": "_operatorApprovals",
        "offset": 0,
        "slot": "108",
        "type": "t_mapping(t_address,t_mapping(t_address,t_bool))"
      },
      {
        "astId": 6807,
        "contract": "contracts/WizardERC721.sol:ERC721",
        "label": "__gap",
        "offset": 0,
        "slot": "109",
        "type": "t_array(t_uint256)42_storage"
      },
      {
        "astId": 56,
        "contract": "contracts/WizardERC721.sol:ERC721",
        "label": "_owner",
        "offset": 0,
        "slot": "151",
        "type": "t_address"
      },
      {
        "astId": 176,
        "contract": "contracts/WizardERC721.sol:ERC721",
        "label": "__gap",
        "offset": 0,
        "slot": "152",
        "type": "t_array(t_uint256)49_storage"
      },
      {
        "astId": 2022,
        "contract": "contracts/WizardERC721.sol:ERC721",
        "label": "_defaultRoyaltyInfo",
        "offset": 0,
        "slot": "201",
        "type": "t_struct(RoyaltyInfo)2019_storage"
      },
      {
        "astId": 2027,
        "contract": "contracts/WizardERC721.sol:ERC721",
        "label": "_tokenRoyaltyInfo",
        "offset": 0,
        "slot": "202",
        "type": "t_mapping(t_uint256,t_struct(RoyaltyInfo)2019_storage)"
      },
      {
        "astId": 2207,
        "contract": "contracts/WizardERC721.sol:ERC721",
        "label": "__gap",
        "offset": 0,
        "slot": "203",
        "type": "t_array(t_uint256)48_storage"
      },
      {
        "astId": 361,
        "contract": "contracts/WizardERC721.sol:ERC721",
        "label": "_status",
        "offset": 0,
        "slot": "251",
        "type": "t_uint256"
      },
      {
        "astId": 405,
        "contract": "contracts/WizardERC721.sol:ERC721",
        "label": "__gap",
        "offset": 0,
        "slot": "252",
        "type": "t_array(t_uint256)49_storage"
      },
      {
        "astId": 4128,
        "contract": "contracts/WizardERC721.sol:ERC721",
        "label": "merkleRoot",
        "offset": 0,
        "slot": "301",
        "type": "t_bytes32"
      },
      {
        "astId": 4133,
        "contract": "contracts/WizardERC721.sol:ERC721",
        "label": "whitelistClaimed",
        "offset": 0,
        "slot": "302",
        "type": "t_mapping(t_address,t_bool)"
      },
      {
        "astId": 4136,
        "contract": "contracts/WizardERC721.sol:ERC721",
        "label": "uriPrefix",
        "offset": 0,
        "slot": "303",
        "type": "t_string_storage"
      },
      {
        "astId": 4139,
        "contract": "contracts/WizardERC721.sol:ERC721",
        "label": "uriSuffix",
        "offset": 0,
        "slot": "304",
        "type": "t_string_storage"
      },
      {
        "astId": 4142,
        "contract": "contracts/WizardERC721.sol:ERC721",
        "label": "hiddenMetadataUri",
        "offset": 0,
        "slot": "305",
        "type": "t_string_storage"
      },
      {
        "astId": 4145,
        "contract": "contracts/WizardERC721.sol:ERC721",
        "label": "cost",
        "offset": 0,
        "slot": "306",
        "type": "t_uint256"
      },
      {
        "astId": 4148,
        "contract": "contracts/WizardERC721.sol:ERC721",
        "label": "maxSupply",
        "offset": 0,
        "slot": "307",
        "type": "t_uint256"
      },
      {
        "astId": 4151,
        "contract": "contracts/WizardERC721.sol:ERC721",
        "label": "maxMintAmountPerTx",
        "offset": 0,
        "slot": "308",
        "type": "t_uint256"
      },
      {
        "astId": 4154,
        "contract": "contracts/WizardERC721.sol:ERC721",
        "label": "paused",
        "offset": 0,
        "slot": "309",
        "type": "t_bool"
      },
      {
        "astId": 4157,
        "contract": "contracts/WizardERC721.sol:ERC721",
        "label": "whitelistMintEnabled",
        "offset": 1,
        "slot": "309",
        "type": "t_bool"
      },
      {
        "astId": 4160,
        "contract": "contracts/WizardERC721.sol:ERC721",
        "label": "revealed",
        "offset": 2,
        "slot": "309",
        "type": "t_bool"
      }
    ],
    "types": {
      "t_address": {
        "encoding": "inplace",
        "label": "address",
        "numberOfBytes": "20"
      },
      "t_array(t_uint256)42_storage": {
        "base": "t_uint256",
        "encoding": "inplace",
        "label": "uint256[42]",
        "numberOfBytes": "1344"
      },
      "t_array(t_uint256)48_storage": {
        "base": "t_uint256",
        "encoding": "inplace",
        "label": "uint256[48]",
        "numberOfBytes": "1536"
      },
      "t_array(t_uint256)49_storage": {
        "base": "t_uint256",
        "encoding": "inplace",
        "label": "uint256[49]",
        "numberOfBytes": "1568"
      },
      "t_array(t_uint256)50_storage": {
        "base": "t_uint256",
        "encoding": "inplace",
        "label": "uint256[50]",
        "numberOfBytes": "1600"
      },
      "t_bool": {
        "encoding": "inplace",
        "label": "bool",
        "numberOfBytes": "1"
      },
      "t_bytes32": {
        "encoding": "inplace",
        "label": "bytes32",
        "numberOfBytes": "32"
      },
      "t_mapping(t_address,t_bool)": {
        "encoding": "mapping",
        "key": "t_address",
        "label": "mapping(address => bool)",
        "numberOfBytes": "32",
        "value": "t_bool"
      },
      "t_mapping(t_address,t_mapping(t_address,t_bool))": {
        "encoding": "mapping",
        "key": "t_address",
        "label": "mapping(address => mapping(address => bool))",
        "numberOfBytes": "32",
        "value": "t_mapping(t_address,t_bool)"
      },
      "t_mapping(t_address,t_struct(AddressData)6872_storage)": {
        "encoding": "mapping",
        "key": "t_address",
        "label": "mapping(address => struct IERC721AUpgradeable.AddressData)",
        "numberOfBytes": "32",
        "value": "t_struct(AddressData)6872_storage"
      },
      "t_mapping(t_uint256,t_address)": {
        "encoding": "mapping",
        "key": "t_uint256",
        "label": "mapping(uint256 => address)",
        "numberOfBytes": "32",
        "value": "t_address"
      },
      "t_mapping(t_uint256,t_struct(RoyaltyInfo)2019_storage)": {
        "encoding": "mapping",
        "key": "t_uint256",
        "label": "mapping(uint256 => struct ERC2981Upgradeable.RoyaltyInfo)",
        "numberOfBytes": "32",
        "value": "t_struct(RoyaltyInfo)2019_storage"
      },
      "t_mapping(t_uint256,t_struct(TokenOwnership)6863_storage)": {
        "encoding": "mapping",
        "key": "t_uint256",
        "label": "mapping(uint256 => struct IERC721AUpgradeable.TokenOwnership)",
        "numberOfBytes": "32",
        "value": "t_struct(TokenOwnership)6863_storage"
      },
      "t_string_storage": {
        "encoding": "bytes",
        "label": "string",
        "numberOfBytes": "32"
      },
      "t_struct(AddressData)6872_storage": {
        "encoding": "inplace",
        "label": "struct IERC721AUpgradeable.AddressData",
        "members": [
          {
            "astId": 6865,
            "contract": "contracts/WizardERC721.sol:ERC721",
            "label": "balance",
            "offset": 0,
            "slot": "0",
            "type": "t_uint64"
          },
          {
            "astId": 6867,
            "contract": "contracts/WizardERC721.sol:ERC721",
            "label": "numberMinted",
            "offset": 8,
            "slot": "0",
            "type": "t_uint64"
          },
          {
            "astId": 6869,
            "contract": "contracts/WizardERC721.sol:ERC721",
            "label": "numberBurned",
            "offset": 16,
            "slot": "0",
            "type": "t_uint64"
          },
          {
            "astId": 6871,
            "contract": "contracts/WizardERC721.sol:ERC721",
            "label": "aux",
            "offset": 24,
            "slot": "0",
            "type": "t_uint64"
          }
        ],
        "numberOfBytes": "32"
      },
      "t_struct(RoyaltyInfo)2019_storage": {
        "encoding": "inplace",
        "label": "struct ERC2981Upgradeable.RoyaltyInfo",
        "members": [
          {
            "astId": 2016,
            "contract": "contracts/WizardERC721.sol:ERC721",
            "label": "receiver",
            "offset": 0,
            "slot": "0",
            "type": "t_address"
          },
          {
            "astId": 2018,
            "contract": "contracts/WizardERC721.sol:ERC721",
            "label": "royaltyFraction",
            "offset": 20,
            "slot": "0",
            "type": "t_uint96"
          }
        ],
        "numberOfBytes": "32"
      },
      "t_struct(TokenOwnership)6863_storage": {
        "encoding": "inplace",
        "label": "struct IERC721AUpgradeable.TokenOwnership",
        "members": [
          {
            "astId": 6858,
            "contract": "contracts/WizardERC721.sol:ERC721",
            "label": "addr",
            "offset": 0,
            "slot": "0",
            "type": "t_address"
          },
          {
            "astId": 6860,
            "contract": "contracts/WizardERC721.sol:ERC721",
            "label": "startTimestamp",
            "offset": 20,
            "slot": "0",
            "type": "t_uint64"
          },
          {
            "astId": 6862,
            "contract": "contracts/WizardERC721.sol:ERC721",
            "label": "burned",
            "offset": 28,
            "slot": "0",
            "type": "t_bool"
          }
        ],
        "numberOfBytes": "32"
      },
      "t_uint256": {
        "encoding": "inplace",
        "label": "uint256",
        "numberOfBytes": "32"
      },
      "t_uint64": {
        "encoding": "inplace",
        "label": "uint64",
        "numberOfBytes": "8"
      },
      "t_uint8": {
        "encoding": "inplace",
        "label": "uint8",
        "numberOfBytes": "1"
      },
      "t_uint96": {
        "encoding": "inplace",
        "label": "uint96",
        "numberOfBytes": "12"
      }
    }
  }
}