{
  "address": "0xCf7Ed3AccA5a467e9e704C703E8D87F634fB0Fc9",
  "abi": [
    {
      "inputs": [
        {
          "internalType": "int256",
          "name": "_cost",
          "type": "int256"
        },
        {
          "internalType": "address",
          "name": "priceFeedAddress",
          "type": "address"
        }
      ],
      "stateMutability": "nonpayable",
      "type": "constructor"
    },
    {
      "inputs": [],
      "name": "WizardFactory__InsufficientFunds",
      "type": "error"
    },
    {
      "inputs": [],
      "name": "WizardFactory__InvalidERC1155Implementation",
      "type": "error"
    },
    {
      "inputs": [],
      "name": "WizardFactory__InvalidERC721Implementation",
      "type": "error"
    },
    {
      "anonymous": false,
      "inputs": [
        {
          "indexed": true,
          "internalType": "address",
          "name": "createdContract",
          "type": "address"
        },
        {
          "indexed": false,
          "internalType": "string",
          "name": "name",
          "type": "string"
        },
        {
          "indexed": false,
          "internalType": "string",
          "name": "symbol",
          "type": "string"
        },
        {
          "indexed": false,
          "internalType": "uint256",
          "name": "id",
          "type": "uint256"
        },
        {
          "indexed": false,
          "internalType": "uint256",
          "name": "amount",
          "type": "uint256"
        },
        {
          "indexed": false,
          "internalType": "string",
          "name": "uri",
          "type": "string"
        },
        {
          "indexed": true,
          "internalType": "address",
          "name": "royaltyReceiver",
          "type": "address"
        },
        {
          "indexed": false,
          "internalType": "uint96",
          "name": "royaltyFee",
          "type": "uint96"
        },
        {
          "indexed": true,
          "internalType": "address",
          "name": "contractOwner",
          "type": "address"
        }
      ],
      "name": "ERC1155ContractCreated",
      "type": "event"
    },
    {
      "anonymous": false,
      "inputs": [
        {
          "indexed": true,
          "internalType": "address",
          "name": "createdContract",
          "type": "address"
        },
        {
          "indexed": false,
          "internalType": "string",
          "name": "name",
          "type": "string"
        },
        {
          "indexed": false,
          "internalType": "string",
          "name": "symbol",
          "type": "string"
        },
        {
          "indexed": false,
          "internalType": "uint256",
          "name": "cost",
          "type": "uint256"
        },
        {
          "indexed": false,
          "internalType": "uint256",
          "name": "maxSupply",
          "type": "uint256"
        },
        {
          "indexed": false,
          "internalType": "uint256",
          "name": "maxMintAmountPerTx",
          "type": "uint256"
        },
        {
          "indexed": false,
          "internalType": "string",
          "name": "hiddenMetadataUri",
          "type": "string"
        },
        {
          "indexed": false,
          "internalType": "string",
          "name": "uriPrefix",
          "type": "string"
        },
        {
          "indexed": true,
          "internalType": "address",
          "name": "royaltyReceiver",
          "type": "address"
        },
        {
          "indexed": false,
          "internalType": "uint96",
          "name": "royaltyFee",
          "type": "uint96"
        },
        {
          "indexed": true,
          "internalType": "address",
          "name": "contractOwner",
          "type": "address"
        }
      ],
      "name": "ERC721ContractCreated",
      "type": "event"
    },
    {
      "anonymous": false,
      "inputs": [
        {
          "indexed": true,
          "internalType": "address",
          "name": "previousOwner",
          "type": "address"
        },
        {
          "indexed": true,
          "internalType": "address",
          "name": "newOwner",
          "type": "address"
        }
      ],
      "name": "OwnershipTransferred",
      "type": "event"
    },
    {
      "anonymous": false,
      "inputs": [
        {
          "indexed": true,
          "internalType": "address",
          "name": "ercImplementation",
          "type": "address"
        }
      ],
      "name": "SetERCImplementation",
      "type": "event"
    },
    {
      "inputs": [],
      "name": "ERC1155Implementation",
      "outputs": [
        {
          "internalType": "address",
          "name": "",
          "type": "address"
        }
      ],
      "stateMutability": "view",
      "type": "function"
    },
    {
      "inputs": [],
      "name": "ERC721Implementation",
      "outputs": [
        {
          "internalType": "address",
          "name": "",
          "type": "address"
        }
      ],
      "stateMutability": "view",
      "type": "function"
    },
    {
      "inputs": [
        {
          "internalType": "uint256",
          "name": "",
          "type": "uint256"
        }
      ],
      "name": "allCreatedContracts",
      "outputs": [
        {
          "internalType": "address",
          "name": "",
          "type": "address"
        }
      ],
      "stateMutability": "view",
      "type": "function"
    },
    {
      "inputs": [],
      "name": "cost",
      "outputs": [
        {
          "internalType": "int256",
          "name": "",
          "type": "int256"
        }
      ],
      "stateMutability": "view",
      "type": "function"
    },
    {
      "inputs": [
        {
          "internalType": "string",
          "name": "_name",
          "type": "string"
        },
        {
          "internalType": "string",
          "name": "_symbol",
          "type": "string"
        },
        {
          "internalType": "uint256",
          "name": "_id",
          "type": "uint256"
        },
        {
          "internalType": "uint256",
          "name": "_amount",
          "type": "uint256"
        },
        {
          "internalType": "string",
          "name": "_uri",
          "type": "string"
        },
        {
          "internalType": "address",
          "name": "_royaltyReceiver",
          "type": "address"
        },
        {
          "internalType": "uint96",
          "name": "_feePercent",
          "type": "uint96"
        }
      ],
      "name": "createERC1155Contract",
      "outputs": [],
      "stateMutability": "payable",
      "type": "function"
    },
    {
      "inputs": [
        {
          "internalType": "string",
          "name": "_name",
          "type": "string"
        },
        {
          "internalType": "string",
          "name": "_symbol",
          "type": "string"
        },
        {
          "internalType": "uint256",
          "name": "_cost",
          "type": "uint256"
        },
        {
          "internalType": "uint256",
          "name": "_maxSupply",
          "type": "uint256"
        },
        {
          "internalType": "uint256",
          "name": "_maxMintAmountPerTx",
          "type": "uint256"
        },
        {
          "internalType": "string",
          "name": "_hiddenMetadataUri",
          "type": "string"
        },
        {
          "internalType": "string",
          "name": "_uriPrefix",
          "type": "string"
        },
        {
          "internalType": "address",
          "name": "_royaltyReceiver",
          "type": "address"
        },
        {
          "internalType": "uint96",
          "name": "_feePercent",
          "type": "uint96"
        }
      ],
      "name": "createERC721Contract",
      "outputs": [],
      "stateMutability": "payable",
      "type": "function"
    },
    {
      "inputs": [
        {
          "internalType": "address",
          "name": "",
          "type": "address"
        },
        {
          "internalType": "uint256",
          "name": "",
          "type": "uint256"
        }
      ],
      "name": "createdContracts",
      "outputs": [
        {
          "internalType": "enum WizardFactory.ERCType",
          "name": "_type",
          "type": "uint8"
        },
        {
          "internalType": "address",
          "name": "_address",
          "type": "address"
        }
      ],
      "stateMutability": "view",
      "type": "function"
    },
    {
      "inputs": [],
      "name": "getCost",
      "outputs": [
        {
          "internalType": "uint256",
          "name": "",
          "type": "uint256"
        }
      ],
      "stateMutability": "view",
      "type": "function"
    },
    {
      "inputs": [
        {
          "internalType": "address",
          "name": "_address",
          "type": "address"
        }
      ],
      "name": "getCreatedContracts",
      "outputs": [
        {
          "components": [
            {
              "internalType": "enum WizardFactory.ERCType",
              "name": "_type",
              "type": "uint8"
            },
            {
              "internalType": "address",
              "name": "_address",
              "type": "address"
            }
          ],
          "internalType": "struct WizardFactory.CreatedContract[]",
          "name": "",
          "type": "tuple[]"
        }
      ],
      "stateMutability": "view",
      "type": "function"
    },
    {
      "inputs": [],
      "name": "getLatestPrice",
      "outputs": [
        {
          "internalType": "int256",
          "name": "",
          "type": "int256"
        }
      ],
      "stateMutability": "view",
      "type": "function"
    },
    {
      "inputs": [],
      "name": "getTotalCreatedContracts",
      "outputs": [
        {
          "internalType": "uint256",
          "name": "",
          "type": "uint256"
        }
      ],
      "stateMutability": "view",
      "type": "function"
    },
    {
      "inputs": [],
      "name": "owner",
      "outputs": [
        {
          "internalType": "address",
          "name": "",
          "type": "address"
        }
      ],
      "stateMutability": "view",
      "type": "function"
    },
    {
      "inputs": [],
      "name": "priceFeed",
      "outputs": [
        {
          "internalType": "contract AggregatorV3Interface",
          "name": "",
          "type": "address"
        }
      ],
      "stateMutability": "view",
      "type": "function"
    },
    {
      "inputs": [],
      "name": "renounceOwnership",
      "outputs": [],
      "stateMutability": "nonpayable",
      "type": "function"
    },
    {
      "inputs": [
        {
          "internalType": "int256",
          "name": "_cost",
          "type": "int256"
        }
      ],
      "name": "setCost",
      "outputs": [],
      "stateMutability": "nonpayable",
      "type": "function"
    },
    {
      "inputs": [
        {
          "internalType": "address",
          "name": "_ercImplementation",
          "type": "address"
        }
      ],
      "name": "setERC1155Implementation",
      "outputs": [],
      "stateMutability": "nonpayable",
      "type": "function"
    },
    {
      "inputs": [
        {
          "internalType": "address",
          "name": "_ercImplementation",
          "type": "address"
        }
      ],
      "name": "setERC721Implementation",
      "outputs": [],
      "stateMutability": "nonpayable",
      "type": "function"
    },
    {
      "inputs": [
        {
          "internalType": "address",
          "name": "_priceFeedAddress",
          "type": "address"
        }
      ],
      "name": "setPriceFeed",
      "outputs": [],
      "stateMutability": "nonpayable",
      "type": "function"
    },
    {
      "inputs": [
        {
          "internalType": "address",
          "name": "newOwner",
          "type": "address"
        }
      ],
      "name": "transferOwnership",
      "outputs": [],
      "stateMutability": "nonpayable",
      "type": "function"
    },
    {
      "inputs": [],
      "name": "withdraw",
      "outputs": [],
      "stateMutability": "nonpayable",
      "type": "function"
    }
  ],
  "transactionHash": "0x3ee8b530c771e384ccdfb6adff530624dd6e12994e885a252ef01f4067b9c299",
  "args": [
    "10000000000000000000",
    "0x5FbDB2315678afecb367f032d93F642f64180aa3"
  ],
  "numDeployments": 1,
  "solcInputHash": "63d2a6cbc17ec01a674b805f81359f01",
  "bytecode": "0x60806040523480156200001157600080fd5b506040516200273f3803806200273f8339818101604052810190620000379190620001a8565b620000576200004b620000ae60201b60201c565b620000b660201b60201c565b600180819055508160028190555080600360006101000a81548173ffffffffffffffffffffffffffffffffffffffff021916908373ffffffffffffffffffffffffffffffffffffffff160217905550505062000266565b600033905090565b60008060009054906101000a900473ffffffffffffffffffffffffffffffffffffffff169050816000806101000a81548173ffffffffffffffffffffffffffffffffffffffff021916908373ffffffffffffffffffffffffffffffffffffffff1602179055508173ffffffffffffffffffffffffffffffffffffffff168173ffffffffffffffffffffffffffffffffffffffff167f8be0079c531659141344cd1fd0a4f28419497f9722a3daafe3b4186f6b6457e060405160405180910390a35050565b6000815190506200018b8162000232565b92915050565b600081519050620001a2816200024c565b92915050565b60008060408385031215620001c257620001c16200022d565b5b6000620001d28582860162000191565b9250506020620001e5858286016200017a565b9150509250929050565b6000620001fc826200020d565b9050919050565b6000819050919050565b600073ffffffffffffffffffffffffffffffffffffffff82169050919050565b600080fd5b6200023d81620001ef565b81146200024957600080fd5b50565b620002578162000203565b81146200026357600080fd5b50565b6124c980620002766000396000f3fe60806040526004361061011f5760003560e01c8063741bef1a116100a05780638e15f473116100645780638e15f473146103a15780639646ba64146103cc578063bd3e19d4146103f7578063c9d6348d14610422578063f2fde38b1461043e5761011f565b8063741bef1a146102c95780637ac9041c146102f45780637d2405bb146103105780637fab834f146103395780638da5cb5b146103765761011f565b80633ccfd60b116100e75780633ccfd60b1461020c57806352486c4014610223578063641254bd14610260578063715018a614610289578063724e78da146102a05761011f565b806313faede6146101245780631a75a1061461014f5780632799459d1461018d5780632efb88e7146101b657806334820242146101e1575b600080fd5b34801561013057600080fd5b50610139610467565b6040516101469190611bd4565b60405180910390f35b34801561015b57600080fd5b50610176600480360381019061017191906115f4565b61046d565b604051610184929190611bab565b60405180910390f35b34801561019957600080fd5b506101b460048036038101906101af9190611634565b6104d7565b005b3480156101c257600080fd5b506101cb6104e9565b6040516101d89190611b53565b60405180910390f35b3480156101ed57600080fd5b506101f661050f565b6040516102039190611b53565b60405180910390f35b34801561021857600080fd5b50610221610535565b005b34801561022f57600080fd5b5061024a60048036038101906102459190611891565b610612565b6040516102579190611b53565b60405180910390f35b34801561026c57600080fd5b50610287600480360381019061028291906115c7565b610651565b005b34801561029557600080fd5b5061029e610747565b005b3480156102ac57600080fd5b506102c760048036038101906102c291906115c7565b61075b565b005b3480156102d557600080fd5b506102de6107a7565b6040516102eb9190611b90565b60405180910390f35b61030e60048036038101906103099190611757565b6107cd565b005b34801561031c57600080fd5b50610337600480360381019061033291906115c7565b610b57565b005b34801561034557600080fd5b50610360600480360381019061035b91906115c7565b610c4d565b60405161036d9190611b6e565b60405180910390f35b34801561038257600080fd5b5061038b610d78565b6040516103989190611b53565b60405180910390f35b3480156103ad57600080fd5b506103b6610da1565b6040516103c39190611bd4565b60405180910390f35b3480156103d857600080fd5b506103e1610e61565b6040516103ee9190611eca565b60405180910390f35b34801561040357600080fd5b5061040c610e6e565b6040516104199190611eca565b60405180910390f35b61043c60048036038101906104379190611661565b610ea2565b005b34801561044a57600080fd5b50610465600480360381019061046091906115c7565b611221565b005b60025481565b6005602052816000526040600020818154811061048957600080fd5b90600052602060002001600091509150508060000160009054906101000a900460ff16908060000160019054906101000a900473ffffffffffffffffffffffffffffffffffffffff16905082565b6104df6112a5565b8060028190555050565b600760009054906101000a900473ffffffffffffffffffffffffffffffffffffffff1681565b600660009054906101000a900473ffffffffffffffffffffffffffffffffffffffff1681565b61053d6112a5565b60026001541415610583576040517f08c379a000000000000000000000000000000000000000000000000000000000815260040161057a90611eaa565b60405180910390fd5b60026001819055506000610595610d78565b73ffffffffffffffffffffffffffffffffffffffff16476040516105b890611b3e565b60006040518083038185875af1925050503d80600081146105f5576040519150601f19603f3d011682016040523d82523d6000602084013e6105fa565b606091505b505090508061060857600080fd5b5060018081905550565b6004818154811061062257600080fd5b906000526020600020016000915054906101000a900473ffffffffffffffffffffffffffffffffffffffff1681565b6106596112a5565b600073ffffffffffffffffffffffffffffffffffffffff168173ffffffffffffffffffffffffffffffffffffffff1614156106c0576040517f15e93c9600000000000000000000000000000000000000000000000000000000815260040160405180910390fd5b80600660006101000a81548173ffffffffffffffffffffffffffffffffffffffff021916908373ffffffffffffffffffffffffffffffffffffffff1602179055508073ffffffffffffffffffffffffffffffffffffffff167fed037ad9142f2f0bdc568a61ae7667137030ec85269e69f1601739b283ffb8e160405160405180910390a250565b61074f6112a5565b6107596000611323565b565b6107636112a5565b80600360006101000a81548173ffffffffffffffffffffffffffffffffffffffff021916908373ffffffffffffffffffffffffffffffffffffffff16021790555050565b600360009054906101000a900473ffffffffffffffffffffffffffffffffffffffff1681565b6107d5610e6e565b34101561080e576040517f0f5fa7fd00000000000000000000000000000000000000000000000000000000815260040160405180910390fd5b600073ffffffffffffffffffffffffffffffffffffffff16600660009054906101000a900473ffffffffffffffffffffffffffffffffffffffff1673ffffffffffffffffffffffffffffffffffffffff161415610897576040517f15e93c9600000000000000000000000000000000000000000000000000000000815260040160405180910390fd5b60006108c4600660009054906101000a900473ffffffffffffffffffffffffffffffffffffffff166113e7565b90508073ffffffffffffffffffffffffffffffffffffffff166313cfbe508b8b8b8b8b8b8b8b8b336040518b63ffffffff1660e01b81526004016109119a99989796959493929190611cf8565b600060405180830381600087803b15801561092b57600080fd5b505af115801561093f573d6000803e3d6000fd5b505050506004819080600181540180825580915050600190039060005260206000200160009091909190916101000a81548173ffffffffffffffffffffffffffffffffffffffff021916908373ffffffffffffffffffffffffffffffffffffffff160217905550600560003373ffffffffffffffffffffffffffffffffffffffff1673ffffffffffffffffffffffffffffffffffffffff168152602001908152602001600020604051806040016040528060006001811115610a0457610a036122bc565b5b81526020018373ffffffffffffffffffffffffffffffffffffffff168152509080600181540180825580915050600190039060005260206000200160009091909190915060008201518160000160006101000a81548160ff02191690836001811115610a7357610a726122bc565b5b021790555060208201518160000160016101000a81548173ffffffffffffffffffffffffffffffffffffffff021916908373ffffffffffffffffffffffffffffffffffffffff16021790555050503373ffffffffffffffffffffffffffffffffffffffff168373ffffffffffffffffffffffffffffffffffffffff168273ffffffffffffffffffffffffffffffffffffffff167f4a6ef3ed44342a77b40d256c05a0220c3269dd8bc97d0136ce2d632d58cc009e8d8d8d8d8d8d8d8c604051610b43989796959493929190611db0565b60405180910390a450505050505050505050565b610b5f6112a5565b600073ffffffffffffffffffffffffffffffffffffffff168173ffffffffffffffffffffffffffffffffffffffff161415610bc6576040517f08cb490a00000000000000000000000000000000000000000000000000000000815260040160405180910390fd5b80600760006101000a81548173ffffffffffffffffffffffffffffffffffffffff021916908373ffffffffffffffffffffffffffffffffffffffff1602179055508073ffffffffffffffffffffffffffffffffffffffff167fed037ad9142f2f0bdc568a61ae7667137030ec85269e69f1601739b283ffb8e160405160405180910390a250565b6060600560008373ffffffffffffffffffffffffffffffffffffffff1673ffffffffffffffffffffffffffffffffffffffff168152602001908152602001600020805480602002602001604051908101604052809291908181526020016000905b82821015610d6d578382906000526020600020016040518060400160405290816000820160009054906101000a900460ff166001811115610cf257610cf16122bc565b5b6001811115610d0457610d036122bc565b5b81526020016000820160019054906101000a900473ffffffffffffffffffffffffffffffffffffffff1673ffffffffffffffffffffffffffffffffffffffff1673ffffffffffffffffffffffffffffffffffffffff168152505081526020019060010190610cae565b505050509050919050565b60008060009054906101000a900473ffffffffffffffffffffffffffffffffffffffff16905090565b600080600360009054906101000a900473ffffffffffffffffffffffffffffffffffffffff1673ffffffffffffffffffffffffffffffffffffffff1663feaf968c6040518163ffffffff1660e01b815260040160a06040518083038186803b158015610e0c57600080fd5b505afa158015610e20573d6000803e3d6000fd5b505050506040513d601f19601f82011682018060405250810190610e4491906118be565b5050509150506402540be40081610e5b9190612005565b91505090565b6000600480549050905090565b600080610e79610da1565b670de0b6b3a7640000600254610e8f9190612005565b610e999190611f9b565b90508091505090565b610eaa610e6e565b341015610ee3576040517f0f5fa7fd00000000000000000000000000000000000000000000000000000000815260040160405180910390fd5b600073ffffffffffffffffffffffffffffffffffffffff16600760009054906101000a900473ffffffffffffffffffffffffffffffffffffffff1673ffffffffffffffffffffffffffffffffffffffff161415610f6c576040517f08cb490a00000000000000000000000000000000000000000000000000000000815260040160405180910390fd5b6000610f99600760009054906101000a900473ffffffffffffffffffffffffffffffffffffffff166113e7565b90508073ffffffffffffffffffffffffffffffffffffffff1663f98d53a789898989898989336040518963ffffffff1660e01b8152600401610fe2989796959493929190611bef565b600060405180830381600087803b158015610ffc57600080fd5b505af1158015611010573d6000803e3d6000fd5b505050506004819080600181540180825580915050600190039060005260206000200160009091909190916101000a81548173ffffffffffffffffffffffffffffffffffffffff021916908373ffffffffffffffffffffffffffffffffffffffff160217905550600560003373ffffffffffffffffffffffffffffffffffffffff1673ffffffffffffffffffffffffffffffffffffffff16815260200190815260200160002060405180604001604052806001808111156110d4576110d36122bc565b5b81526020018373ffffffffffffffffffffffffffffffffffffffff168152509080600181540180825580915050600190039060005260206000200160009091909190915060008201518160000160006101000a81548160ff02191690836001811115611143576111426122bc565b5b021790555060208201518160000160016101000a81548173ffffffffffffffffffffffffffffffffffffffff021916908373ffffffffffffffffffffffffffffffffffffffff16021790555050503373ffffffffffffffffffffffffffffffffffffffff168373ffffffffffffffffffffffffffffffffffffffff168273ffffffffffffffffffffffffffffffffffffffff167f6611007f9f1df5e11b05b3e9371e2ab0988459dfd9a4097637272994078a935a8b8b8b8b8b8a60405161120f96959493929190611c82565b60405180910390a45050505050505050565b6112296112a5565b600073ffffffffffffffffffffffffffffffffffffffff168173ffffffffffffffffffffffffffffffffffffffff161415611299576040517f08c379a000000000000000000000000000000000000000000000000000000000815260040161129090611e4a565b60405180910390fd5b6112a281611323565b50565b6112ad6114bc565b73ffffffffffffffffffffffffffffffffffffffff166112cb610d78565b73ffffffffffffffffffffffffffffffffffffffff1614611321576040517f08c379a000000000000000000000000000000000000000000000000000000000815260040161131890611e8a565b60405180910390fd5b565b60008060009054906101000a900473ffffffffffffffffffffffffffffffffffffffff169050816000806101000a81548173ffffffffffffffffffffffffffffffffffffffff021916908373ffffffffffffffffffffffffffffffffffffffff1602179055508173ffffffffffffffffffffffffffffffffffffffff168173ffffffffffffffffffffffffffffffffffffffff167f8be0079c531659141344cd1fd0a4f28419497f9722a3daafe3b4186f6b6457e060405160405180910390a35050565b60006040517f3d602d80600a3d3981f3363d3d373d3d3d363d7300000000000000000000000081528260601b60148201527f5af43d82803e903d91602b57fd5bf3000000000000000000000000000000000060288201526037816000f0915050600073ffffffffffffffffffffffffffffffffffffffff168173ffffffffffffffffffffffffffffffffffffffff1614156114b7576040517f08c379a00000000000000000000000000000000000000000000000000000000081526004016114ae90611e6a565b60405180910390fd5b919050565b600033905090565b60006114d76114d284611f0a565b611ee5565b9050828152602081018484840111156114f3576114f261231f565b5b6114fe8482856121eb565b509392505050565b60008135905061151581612420565b92915050565b60008135905061152a81612437565b92915050565b60008151905061153f81612437565b92915050565b600082601f83011261155a5761155961231a565b5b813561156a8482602086016114c4565b91505092915050565b6000813590506115828161244e565b92915050565b6000815190506115978161244e565b92915050565b6000815190506115ac81612465565b92915050565b6000813590506115c18161247c565b92915050565b6000602082840312156115dd576115dc612329565b5b60006115eb84828501611506565b91505092915050565b6000806040838503121561160b5761160a612329565b5b600061161985828601611506565b925050602061162a85828601611573565b9150509250929050565b60006020828403121561164a57611649612329565b5b60006116588482850161151b565b91505092915050565b600080600080600080600060e0888a0312156116805761167f612329565b5b600088013567ffffffffffffffff81111561169e5761169d612324565b5b6116aa8a828b01611545565b975050602088013567ffffffffffffffff8111156116cb576116ca612324565b5b6116d78a828b01611545565b96505060406116e88a828b01611573565b95505060606116f98a828b01611573565b945050608088013567ffffffffffffffff81111561171a57611719612324565b5b6117268a828b01611545565b93505060a06117378a828b01611506565b92505060c06117488a828b016115b2565b91505092959891949750929550565b60008060008060008060008060006101208a8c03121561177a57611779612329565b5b60008a013567ffffffffffffffff81111561179857611797612324565b5b6117a48c828d01611545565b99505060208a013567ffffffffffffffff8111156117c5576117c4612324565b5b6117d18c828d01611545565b98505060406117e28c828d01611573565b97505060606117f38c828d01611573565b96505060806118048c828d01611573565b95505060a08a013567ffffffffffffffff81111561182557611824612324565b5b6118318c828d01611545565b94505060c08a013567ffffffffffffffff81111561185257611851612324565b5b61185e8c828d01611545565b93505060e061186f8c828d01611506565b9250506101006118818c828d016115b2565b9150509295985092959850929598565b6000602082840312156118a7576118a6612329565b5b60006118b584828501611573565b91505092915050565b600080600080600060a086880312156118da576118d9612329565b5b60006118e88882890161159d565b95505060206118f988828901611530565b945050604061190a88828901611588565b935050606061191b88828901611588565b925050608061192c8882890161159d565b9150509295509295909350565b60006119458383611af1565b60408301905092915050565b61195a8161211c565b82525050565b6119698161211c565b82525050565b600061197a82611f4b565b6119848185611f6e565b935061198f83611f3b565b8060005b838110156119c05781516119a78882611939565b97506119b283611f61565b925050600181019050611993565b5085935050505092915050565b6119d6816121a3565b82525050565b6119e5816121b5565b82525050565b6119f4816121b5565b82525050565b611a0381612141565b82525050565b6000611a1482611f56565b611a1e8185611f8a565b9350611a2e8185602086016121fa565b611a378161232e565b840191505092915050565b6000611a4f602683611f8a565b9150611a5a8261233f565b604082019050919050565b6000611a72601683611f8a565b9150611a7d8261238e565b602082019050919050565b6000611a95602083611f8a565b9150611aa0826123b7565b602082019050919050565b6000611ab8600083611f7f565b9150611ac3826123e0565b600082019050919050565b6000611adb601f83611f8a565b9150611ae6826123e3565b602082019050919050565b604082016000820151611b0760008501826119dc565b506020820151611b1a6020850182611951565b50505050565b611b298161216b565b82525050565b611b388161218b565b82525050565b6000611b4982611aab565b9150819050919050565b6000602082019050611b686000830184611960565b92915050565b60006020820190508181036000830152611b88818461196f565b905092915050565b6000602082019050611ba560008301846119cd565b92915050565b6000604082019050611bc060008301856119eb565b611bcd6020830184611960565b9392505050565b6000602082019050611be960008301846119fa565b92915050565b6000610100820190508181036000830152611c0a818b611a09565b90508181036020830152611c1e818a611a09565b9050611c2d6040830189611b20565b611c3a6060830188611b20565b8181036080830152611c4c8187611a09565b9050611c5b60a0830186611960565b611c6860c0830185611b2f565b611c7560e0830184611960565b9998505050505050505050565b600060c0820190508181036000830152611c9c8189611a09565b90508181036020830152611cb08188611a09565b9050611cbf6040830187611b20565b611ccc6060830186611b20565b8181036080830152611cde8185611a09565b9050611ced60a0830184611b2f565b979650505050505050565b6000610140820190508181036000830152611d13818d611a09565b90508181036020830152611d27818c611a09565b9050611d36604083018b611b20565b611d43606083018a611b20565b611d506080830189611b20565b81810360a0830152611d628188611a09565b905081810360c0830152611d768187611a09565b9050611d8560e0830186611960565b611d93610100830185611b2f565b611da1610120830184611960565b9b9a5050505050505050505050565b6000610100820190508181036000830152611dcb818b611a09565b90508181036020830152611ddf818a611a09565b9050611dee6040830189611b20565b611dfb6060830188611b20565b611e086080830187611b20565b81810360a0830152611e1a8186611a09565b905081810360c0830152611e2e8185611a09565b9050611e3d60e0830184611b2f565b9998505050505050505050565b60006020820190508181036000830152611e6381611a42565b9050919050565b60006020820190508181036000830152611e8381611a65565b9050919050565b60006020820190508181036000830152611ea381611a88565b9050919050565b60006020820190508181036000830152611ec381611ace565b9050919050565b6000602082019050611edf6000830184611b20565b92915050565b6000611eef611f00565b9050611efb828261222d565b919050565b6000604051905090565b600067ffffffffffffffff821115611f2557611f246122eb565b5b611f2e8261232e565b9050602081019050919050565b6000819050602082019050919050565b600081519050919050565b600081519050919050565b6000602082019050919050565b600082825260208201905092915050565b600081905092915050565b600082825260208201905092915050565b6000611fa682612141565b9150611fb183612141565b925082611fc157611fc061228d565b5b600160000383147f800000000000000000000000000000000000000000000000000000000000000083141615611ffa57611ff961225e565b5b828205905092915050565b600061201082612141565b915061201b83612141565b9250827f7fffffffffffffffffffffffffffffffffffffffffffffffffffffffffffffff048211600084136000841316161561205a5761205961225e565b5b817f800000000000000000000000000000000000000000000000000000000000000005831260008412600084131616156120975761209661225e565b5b827f800000000000000000000000000000000000000000000000000000000000000005821260008413600084121616156120d4576120d361225e565b5b827f7fffffffffffffffffffffffffffffffffffffffffffffffffffffffffffffff05821260008412600084121616156121115761211061225e565b5b828202905092915050565b60006121278261214b565b9050919050565b600081905061213c8261240c565b919050565b6000819050919050565b600073ffffffffffffffffffffffffffffffffffffffff82169050919050565b6000819050919050565b600069ffffffffffffffffffff82169050919050565b60006bffffffffffffffffffffffff82169050919050565b60006121ae826121c7565b9050919050565b60006121c08261212e565b9050919050565b60006121d2826121d9565b9050919050565b60006121e48261214b565b9050919050565b82818337600083830152505050565b60005b838110156122185780820151818401526020810190506121fd565b83811115612227576000848401525b50505050565b6122368261232e565b810181811067ffffffffffffffff82111715612255576122546122eb565b5b80604052505050565b7f4e487b7100000000000000000000000000000000000000000000000000000000600052601160045260246000fd5b7f4e487b7100000000000000000000000000000000000000000000000000000000600052601260045260246000fd5b7f4e487b7100000000000000000000000000000000000000000000000000000000600052602160045260246000fd5b7f4e487b7100000000000000000000000000000000000000000000000000000000600052604160045260246000fd5b600080fd5b600080fd5b600080fd5b600080fd5b6000601f19601f8301169050919050565b7f4f776e61626c653a206e6577206f776e657220697320746865207a65726f206160008201527f6464726573730000000000000000000000000000000000000000000000000000602082015250565b7f455243313136373a20637265617465206661696c656400000000000000000000600082015250565b7f4f776e61626c653a2063616c6c6572206973206e6f7420746865206f776e6572600082015250565b50565b7f5265656e7472616e637947756172643a207265656e7472616e742063616c6c00600082015250565b6002811061241d5761241c6122bc565b5b50565b6124298161211c565b811461243457600080fd5b50565b61244081612141565b811461244b57600080fd5b50565b6124578161216b565b811461246257600080fd5b50565b61246e81612175565b811461247957600080fd5b50565b6124858161218b565b811461249057600080fd5b5056fea264697066735822122088b31bded881f99fe65c5e7103fc4cb4e9b93a3d95b5f4a8284405edacef295364736f6c63430008070033",
  "devdoc": {
    "author": "a6Ce6Bs",
    "events": {
      "ERC1155ContractCreated(address,string,string,uint256,uint256,string,address,uint96,address)": {
        "params": {
          "amount": "Token supply",
          "contractOwner": "Contract owner",
          "createdContract": "Address of deployed Contract",
          "id": "Token id",
          "name": "Contract (ERC1155) name",
          "royaltyFee": "Royalty fee numerator",
          "royaltyReceiver": "Royalty fee collector",
          "symbol": "Contract (ERC1155) symbol",
          "uri": "Token uri"
        }
      },
      "ERC721ContractCreated(address,string,string,uint256,uint256,uint256,string,string,address,uint96,address)": {
        "params": {
          "contractOwner": "Contract owner",
          "cost": "Mint cost",
          "createdContract": "Address of deployed Contract",
          "hiddenMetadataUri": "Hidden metadata uri",
          "maxMintAmountPerTx": "Max mint amount per transaction",
          "maxSupply": "Contract (ERC721) maxSupply",
          "name": "Contract (ERC721) name",
          "royaltyFee": "Royalty fee numerator",
          "royaltyReceiver": "Royalty fee collector",
          "symbol": "Contract (ERC721) symbol",
          "uriPrefix": "Metadata uri prefix"
        }
      },
      "SetERCImplementation(address)": {
        "params": {
          "ercImplementation": "implementation of contract"
        }
      }
    },
    "kind": "dev",
    "methods": {
      "constructor": {
        "params": {
          "_cost": "Contract deployment cost",
          "priceFeedAddress": "AggregatorV3Interface priceFeed address"
        }
      },
      "createERC1155Contract(string,string,uint256,uint256,string,address,uint96)": {
        "params": {
          "_amount": "Token supply",
          "_feePercent": "Royalty fee numerator; denominator is 10,000. So 500 represents 5%",
          "_id": "Token id",
          "_name": "Contract (ERC1155) name",
          "_royaltyReceiver": "Royalty fee collector",
          "_symbol": "Contract (ERC1155) symbol",
          "_uri": "Token uri"
        }
      },
      "createERC721Contract(string,string,uint256,uint256,uint256,string,string,address,uint96)": {
        "params": {
          "_cost": "Mint cost",
          "_feePercent": "Royalty fee numerator; denominator is 10,000. So 500 represents 5%",
          "_hiddenMetadataUri": "Hidden metadata uri",
          "_maxMintAmountPerTx": "Max mint amount per transaction",
          "_maxSupply": "Contract (ERC721) maxSupply",
          "_name": "Contract (ERC721) name",
          "_royaltyReceiver": "Royalty fee collector",
          "_symbol": "Contract (ERC721) symbol",
          "_uriPrefix": "Metadata uri prefix"
        }
      },
      "getCost()": {
        "returns": {
          "_0": "uint256 Cost price for contract deployment"
        }
      },
      "getCreatedContracts(address)": {
        "params": {
          "_address": "Address of contract deployer"
        }
      },
      "getLatestPrice()": {
        "returns": {
          "_0": "int256 Equation of price * 1e10"
        }
      },
      "getTotalCreatedContracts()": {
        "returns": {
          "_0": "uint256 number of all deployed contracts"
        }
      },
      "owner()": {
        "details": "Returns the address of the current owner."
      },
      "renounceOwnership()": {
        "details": "Leaves the contract without owner. It will not be possible to call `onlyOwner` functions anymore. Can only be called by the current owner. NOTE: Renouncing ownership will leave the contract without an owner, thereby removing any functionality that is only available to the owner."
      },
      "setCost(int256)": {
        "params": {
          "_cost": "Cost in wei 18 dec"
        }
      },
      "setERC1155Implementation(address)": {
        "params": {
          "_ercImplementation": "New ERC1155Implementation"
        }
      },
      "setERC721Implementation(address)": {
        "params": {
          "_ercImplementation": "New ERC721Implementation"
        }
      },
      "setPriceFeed(address)": {
        "params": {
          "_priceFeedAddress": "PriceFeed address"
        }
      },
      "transferOwnership(address)": {
        "details": "Transfers ownership of the contract to a new account (`newOwner`). Can only be called by the current owner."
      }
    },
    "title": "Wizard Factory",
    "version": 1
  },
  "userdoc": {
    "errors": {
      "WizardFactory__InsufficientFunds()": [
        {
          "notice": "Insufficient funds!"
        }
      ],
      "WizardFactory__InvalidERC1155Implementation()": [
        {
          "notice": "Invalid ERC1155 Implementation!"
        }
      ],
      "WizardFactory__InvalidERC721Implementation()": [
        {
          "notice": "Invalid ERC721 Implementation!"
        }
      ]
    },
    "events": {
      "ERC1155ContractCreated(address,string,string,uint256,uint256,string,address,uint96,address)": {
        "notice": "Emitted on createERC1155Contract()"
      },
      "ERC721ContractCreated(address,string,string,uint256,uint256,uint256,string,string,address,uint96,address)": {
        "notice": "Emitted on createERC721Contract()"
      },
      "SetERCImplementation(address)": {
        "notice": "Emmited on one of setERCImplementation()"
      }
    },
    "kind": "user",
    "methods": {
      "ERC1155Implementation()": {
        "notice": "ERC1155 contract to be cloned"
      },
      "ERC721Implementation()": {
        "notice": "ERC721 contract to be cloned"
      },
      "allCreatedContracts(uint256)": {
        "notice": "Array of all deployed contract addresses"
      },
      "constructor": {
        "notice": "Constructor"
      },
      "cost()": {
        "notice": "Contract deployment cost in USD as wei"
      },
      "createERC1155Contract(string,string,uint256,uint256,string,address,uint96)": {
        "notice": "Function for creating ERC1155 contracts"
      },
      "createERC721Contract(string,string,uint256,uint256,uint256,string,string,address,uint96)": {
        "notice": "Function for creating ERC721 contracts"
      },
      "createdContracts(address,uint256)": {
        "notice": "Mapping of address (deployer) to created contracts"
      },
      "getCost()": {
        "notice": "Function to get contract deployment cost"
      },
      "getCreatedContracts(address)": {
        "notice": "Function to get all deployed contracts by an address"
      },
      "getLatestPrice()": {
        "notice": "Function to get latest network native token price"
      },
      "getTotalCreatedContracts()": {
        "notice": "Function to get number of deployed contracts"
      },
      "priceFeed()": {
        "notice": "AggregatorV3Interface priceFeed address"
      },
      "setCost(int256)": {
        "notice": "Set contract deployment cost"
      },
      "setERC1155Implementation(address)": {
        "notice": "Set address for ERC1155Implementation"
      },
      "setERC721Implementation(address)": {
        "notice": "Set address for ERC721Implementation"
      },
      "setPriceFeed(address)": {
        "notice": "Set address for AggregatorV3Interface"
      },
      "withdraw()": {
        "notice": "Function to withdraw contract funds"
      }
    },
    "notice": "Factory that creates ERC contracts",
    "version": 1
  },
  "storageLayout": {
    "storage": [
      {
        "astId": 2783,
        "contract": "contracts/WizardFactory.sol:WizardFactory",
        "label": "_owner",
        "offset": 0,
        "slot": "0",
        "type": "t_address"
      },
      {
        "astId": 2979,
        "contract": "contracts/WizardFactory.sol:WizardFactory",
        "label": "_status",
        "offset": 0,
        "slot": "1",
        "type": "t_uint256"
      },
      {
        "astId": 4941,
        "contract": "contracts/WizardFactory.sol:WizardFactory",
        "label": "cost",
        "offset": 0,
        "slot": "2",
        "type": "t_int256"
      },
      {
        "astId": 4945,
        "contract": "contracts/WizardFactory.sol:WizardFactory",
        "label": "priceFeed",
        "offset": 0,
        "slot": "3",
        "type": "t_contract(AggregatorV3Interface)45"
      },
      {
        "astId": 4949,
        "contract": "contracts/WizardFactory.sol:WizardFactory",
        "label": "allCreatedContracts",
        "offset": 0,
        "slot": "4",
        "type": "t_array(t_address)dyn_storage"
      },
      {
        "astId": 4956,
        "contract": "contracts/WizardFactory.sol:WizardFactory",
        "label": "createdContracts",
        "offset": 0,
        "slot": "5",
        "type": "t_mapping(t_address,t_array(t_struct(CreatedContract)4938_storage)dyn_storage)"
      },
      {
        "astId": 4959,
        "contract": "contracts/WizardFactory.sol:WizardFactory",
        "label": "ERC721Implementation",
        "offset": 0,
        "slot": "6",
        "type": "t_address"
      },
      {
        "astId": 4962,
        "contract": "contracts/WizardFactory.sol:WizardFactory",
        "label": "ERC1155Implementation",
        "offset": 0,
        "slot": "7",
        "type": "t_address"
      }
    ],
    "types": {
      "t_address": {
        "encoding": "inplace",
        "label": "address",
        "numberOfBytes": "20"
      },
      "t_array(t_address)dyn_storage": {
        "base": "t_address",
        "encoding": "dynamic_array",
        "label": "address[]",
        "numberOfBytes": "32"
      },
      "t_array(t_struct(CreatedContract)4938_storage)dyn_storage": {
        "base": "t_struct(CreatedContract)4938_storage",
        "encoding": "dynamic_array",
        "label": "struct WizardFactory.CreatedContract[]",
        "numberOfBytes": "32"
      },
      "t_contract(AggregatorV3Interface)45": {
        "encoding": "inplace",
        "label": "contract AggregatorV3Interface",
        "numberOfBytes": "20"
      },
      "t_enum(ERCType)4932": {
        "encoding": "inplace",
        "label": "enum WizardFactory.ERCType",
        "numberOfBytes": "1"
      },
      "t_int256": {
        "encoding": "inplace",
        "label": "int256",
        "numberOfBytes": "32"
      },
      "t_mapping(t_address,t_array(t_struct(CreatedContract)4938_storage)dyn_storage)": {
        "encoding": "mapping",
        "key": "t_address",
        "label": "mapping(address => struct WizardFactory.CreatedContract[])",
        "numberOfBytes": "32",
        "value": "t_array(t_struct(CreatedContract)4938_storage)dyn_storage"
      },
      "t_struct(CreatedContract)4938_storage": {
        "encoding": "inplace",
        "label": "struct WizardFactory.CreatedContract",
        "members": [
          {
            "astId": 4935,
            "contract": "contracts/WizardFactory.sol:WizardFactory",
            "label": "_type",
            "offset": 0,
            "slot": "0",
            "type": "t_enum(ERCType)4932"
          },
          {
            "astId": 4937,
            "contract": "contracts/WizardFactory.sol:WizardFactory",
            "label": "_address",
            "offset": 1,
            "slot": "0",
            "type": "t_address"
          }
        ],
        "numberOfBytes": "32"
      },
      "t_uint256": {
        "encoding": "inplace",
        "label": "uint256",
        "numberOfBytes": "32"
      }
    }
  }
}