{
  "address": "0x42da06D1a9883270E7C6AB8d3C5345be94E0D575",
  "abi": [
    {
      "anonymous": false,
      "inputs": [
        {
          "indexed": true,
          "internalType": "address",
          "name": "account",
          "type": "address"
        },
        {
          "indexed": true,
          "internalType": "address",
          "name": "operator",
          "type": "address"
        },
        {
          "indexed": false,
          "internalType": "bool",
          "name": "approved",
          "type": "bool"
        }
      ],
      "name": "ApprovalForAll",
      "type": "event"
    },
    {
      "anonymous": false,
      "inputs": [
        {
          "indexed": false,
          "internalType": "uint8",
          "name": "version",
          "type": "uint8"
        }
      ],
      "name": "Initialized",
      "type": "event"
    },
    {
      "anonymous": false,
      "inputs": [
        {
          "indexed": true,
          "internalType": "string",
          "name": "_name",
          "type": "string"
        },
        {
          "indexed": true,
          "internalType": "string",
          "name": "_symbol",
          "type": "string"
        },
        {
          "indexed": false,
          "internalType": "uint256",
          "name": "_id",
          "type": "uint256"
        },
        {
          "indexed": false,
          "internalType": "uint256",
          "name": "_amount",
          "type": "uint256"
        },
        {
          "indexed": false,
          "internalType": "string",
          "name": "_uri",
          "type": "string"
        },
        {
          "indexed": false,
          "internalType": "address",
          "name": "_royaltyReceiver",
          "type": "address"
        },
        {
          "indexed": false,
          "internalType": "uint96",
          "name": "_feePercent",
          "type": "uint96"
        },
        {
          "indexed": true,
          "internalType": "address",
          "name": "_owner",
          "type": "address"
        }
      ],
      "name": "InitializedContract",
      "type": "event"
    },
    {
      "anonymous": false,
      "inputs": [
        {
          "indexed": true,
          "internalType": "address",
          "name": "previousOwner",
          "type": "address"
        },
        {
          "indexed": true,
          "internalType": "address",
          "name": "newOwner",
          "type": "address"
        }
      ],
      "name": "OwnershipTransferred",
      "type": "event"
    },
    {
      "anonymous": false,
      "inputs": [
        {
          "indexed": true,
          "internalType": "address",
          "name": "operator",
          "type": "address"
        },
        {
          "indexed": true,
          "internalType": "address",
          "name": "from",
          "type": "address"
        },
        {
          "indexed": true,
          "internalType": "address",
          "name": "to",
          "type": "address"
        },
        {
          "indexed": false,
          "internalType": "uint256[]",
          "name": "ids",
          "type": "uint256[]"
        },
        {
          "indexed": false,
          "internalType": "uint256[]",
          "name": "values",
          "type": "uint256[]"
        }
      ],
      "name": "TransferBatch",
      "type": "event"
    },
    {
      "anonymous": false,
      "inputs": [
        {
          "indexed": true,
          "internalType": "address",
          "name": "operator",
          "type": "address"
        },
        {
          "indexed": true,
          "internalType": "address",
          "name": "from",
          "type": "address"
        },
        {
          "indexed": true,
          "internalType": "address",
          "name": "to",
          "type": "address"
        },
        {
          "indexed": false,
          "internalType": "uint256",
          "name": "id",
          "type": "uint256"
        },
        {
          "indexed": false,
          "internalType": "uint256",
          "name": "value",
          "type": "uint256"
        }
      ],
      "name": "TransferSingle",
      "type": "event"
    },
    {
      "anonymous": false,
      "inputs": [
        {
          "indexed": false,
          "internalType": "string",
          "name": "value",
          "type": "string"
        },
        {
          "indexed": true,
          "internalType": "uint256",
          "name": "id",
          "type": "uint256"
        }
      ],
      "name": "URI",
      "type": "event"
    },
    {
      "inputs": [
        {
          "internalType": "address",
          "name": "account",
          "type": "address"
        },
        {
          "internalType": "uint256",
          "name": "id",
          "type": "uint256"
        }
      ],
      "name": "balanceOf",
      "outputs": [
        {
          "internalType": "uint256",
          "name": "",
          "type": "uint256"
        }
      ],
      "stateMutability": "view",
      "type": "function"
    },
    {
      "inputs": [
        {
          "internalType": "address[]",
          "name": "accounts",
          "type": "address[]"
        },
        {
          "internalType": "uint256[]",
          "name": "ids",
          "type": "uint256[]"
        }
      ],
      "name": "balanceOfBatch",
      "outputs": [
        {
          "internalType": "uint256[]",
          "name": "",
          "type": "uint256[]"
        }
      ],
      "stateMutability": "view",
      "type": "function"
    },
    {
      "inputs": [
        {
          "internalType": "uint256",
          "name": "_id",
          "type": "uint256"
        },
        {
          "internalType": "uint256",
          "name": "_amount",
          "type": "uint256"
        }
      ],
      "name": "burn",
      "outputs": [],
      "stateMutability": "nonpayable",
      "type": "function"
    },
    {
      "inputs": [
        {
          "internalType": "uint256[]",
          "name": "_ids",
          "type": "uint256[]"
        },
        {
          "internalType": "uint256[]",
          "name": "_amounts",
          "type": "uint256[]"
        }
      ],
      "name": "burnBatch",
      "outputs": [],
      "stateMutability": "nonpayable",
      "type": "function"
    },
    {
      "inputs": [
        {
          "internalType": "address",
          "name": "_from",
          "type": "address"
        },
        {
          "internalType": "uint256[]",
          "name": "_burnIds",
          "type": "uint256[]"
        },
        {
          "internalType": "uint256[]",
          "name": "_burnAmounts",
          "type": "uint256[]"
        },
        {
          "internalType": "uint256[]",
          "name": "_mintIds",
          "type": "uint256[]"
        },
        {
          "internalType": "uint256[]",
          "name": "_mintAmounts",
          "type": "uint256[]"
        }
      ],
      "name": "burnForMint",
      "outputs": [],
      "stateMutability": "nonpayable",
      "type": "function"
    },
    {
      "inputs": [
        {
          "internalType": "string",
          "name": "_name",
          "type": "string"
        },
        {
          "internalType": "string",
          "name": "_symbol",
          "type": "string"
        },
        {
          "internalType": "uint256",
          "name": "_id",
          "type": "uint256"
        },
        {
          "internalType": "uint256",
          "name": "_amount",
          "type": "uint256"
        },
        {
          "internalType": "string",
          "name": "_uri",
          "type": "string"
        },
        {
          "internalType": "address",
          "name": "_royaltyReceiver",
          "type": "address"
        },
        {
          "internalType": "uint96",
          "name": "_feePercent",
          "type": "uint96"
        },
        {
          "internalType": "address",
          "name": "_owner",
          "type": "address"
        }
      ],
      "name": "initialize",
      "outputs": [],
      "stateMutability": "nonpayable",
      "type": "function"
    },
    {
      "inputs": [
        {
          "internalType": "address",
          "name": "account",
          "type": "address"
        },
        {
          "internalType": "address",
          "name": "operator",
          "type": "address"
        }
      ],
      "name": "isApprovedForAll",
      "outputs": [
        {
          "internalType": "bool",
          "name": "",
          "type": "bool"
        }
      ],
      "stateMutability": "view",
      "type": "function"
    },
    {
      "inputs": [
        {
          "internalType": "address",
          "name": "_to",
          "type": "address"
        },
        {
          "internalType": "uint256",
          "name": "_id",
          "type": "uint256"
        },
        {
          "internalType": "uint256",
          "name": "_amount",
          "type": "uint256"
        }
      ],
      "name": "mint",
      "outputs": [],
      "stateMutability": "nonpayable",
      "type": "function"
    },
    {
      "inputs": [
        {
          "internalType": "address",
          "name": "_to",
          "type": "address"
        },
        {
          "internalType": "uint256[]",
          "name": "_ids",
          "type": "uint256[]"
        },
        {
          "internalType": "uint256[]",
          "name": "_amounts",
          "type": "uint256[]"
        }
      ],
      "name": "mintBatch",
      "outputs": [],
      "stateMutability": "nonpayable",
      "type": "function"
    },
    {
      "inputs": [],
      "name": "name",
      "outputs": [
        {
          "internalType": "string",
          "name": "",
          "type": "string"
        }
      ],
      "stateMutability": "view",
      "type": "function"
    },
    {
      "inputs": [],
      "name": "owner",
      "outputs": [
        {
          "internalType": "address",
          "name": "",
          "type": "address"
        }
      ],
      "stateMutability": "view",
      "type": "function"
    },
    {
      "inputs": [],
      "name": "renounceOwnership",
      "outputs": [],
      "stateMutability": "nonpayable",
      "type": "function"
    },
    {
      "inputs": [
        {
          "internalType": "uint256",
          "name": "_tokenId",
          "type": "uint256"
        },
        {
          "internalType": "uint256",
          "name": "_salePrice",
          "type": "uint256"
        }
      ],
      "name": "royaltyInfo",
      "outputs": [
        {
          "internalType": "address",
          "name": "",
          "type": "address"
        },
        {
          "internalType": "uint256",
          "name": "",
          "type": "uint256"
        }
      ],
      "stateMutability": "view",
      "type": "function"
    },
    {
      "inputs": [
        {
          "internalType": "address",
          "name": "from",
          "type": "address"
        },
        {
          "internalType": "address",
          "name": "to",
          "type": "address"
        },
        {
          "internalType": "uint256[]",
          "name": "ids",
          "type": "uint256[]"
        },
        {
          "internalType": "uint256[]",
          "name": "amounts",
          "type": "uint256[]"
        },
        {
          "internalType": "bytes",
          "name": "data",
          "type": "bytes"
        }
      ],
      "name": "safeBatchTransferFrom",
      "outputs": [],
      "stateMutability": "nonpayable",
      "type": "function"
    },
    {
      "inputs": [
        {
          "internalType": "address",
          "name": "from",
          "type": "address"
        },
        {
          "internalType": "address",
          "name": "to",
          "type": "address"
        },
        {
          "internalType": "uint256",
          "name": "id",
          "type": "uint256"
        },
        {
          "internalType": "uint256",
          "name": "amount",
          "type": "uint256"
        },
        {
          "internalType": "bytes",
          "name": "data",
          "type": "bytes"
        }
      ],
      "name": "safeTransferFrom",
      "outputs": [],
      "stateMutability": "nonpayable",
      "type": "function"
    },
    {
      "inputs": [
        {
          "internalType": "address",
          "name": "operator",
          "type": "address"
        },
        {
          "internalType": "bool",
          "name": "approved",
          "type": "bool"
        }
      ],
      "name": "setApprovalForAll",
      "outputs": [],
      "stateMutability": "nonpayable",
      "type": "function"
    },
    {
      "inputs": [
        {
          "internalType": "address",
          "name": "_royaltyReceiver",
          "type": "address"
        },
        {
          "internalType": "uint96",
          "name": "_feePercent",
          "type": "uint96"
        }
      ],
      "name": "setRoyaltyInfo",
      "outputs": [],
      "stateMutability": "nonpayable",
      "type": "function"
    },
    {
      "inputs": [
        {
          "internalType": "uint256",
          "name": "_tokenId",
          "type": "uint256"
        },
        {
          "internalType": "address",
          "name": "_royaltyReceiver",
          "type": "address"
        },
        {
          "internalType": "uint96",
          "name": "_feePercent",
          "type": "uint96"
        }
      ],
      "name": "setTokenRoyaltyInfo",
      "outputs": [],
      "stateMutability": "nonpayable",
      "type": "function"
    },
    {
      "inputs": [
        {
          "internalType": "uint256",
          "name": "_id",
          "type": "uint256"
        },
        {
          "internalType": "string",
          "name": "_uri",
          "type": "string"
        }
      ],
      "name": "setURI",
      "outputs": [],
      "stateMutability": "nonpayable",
      "type": "function"
    },
    {
      "inputs": [
        {
          "internalType": "bytes4",
          "name": "_interfaceId",
          "type": "bytes4"
        }
      ],
      "name": "supportsInterface",
      "outputs": [
        {
          "internalType": "bool",
          "name": "",
          "type": "bool"
        }
      ],
      "stateMutability": "view",
      "type": "function"
    },
    {
      "inputs": [],
      "name": "symbol",
      "outputs": [
        {
          "internalType": "string",
          "name": "",
          "type": "string"
        }
      ],
      "stateMutability": "view",
      "type": "function"
    },
    {
      "inputs": [
        {
          "internalType": "uint256",
          "name": "",
          "type": "uint256"
        }
      ],
      "name": "tokenURI",
      "outputs": [
        {
          "internalType": "string",
          "name": "",
          "type": "string"
        }
      ],
      "stateMutability": "view",
      "type": "function"
    },
    {
      "inputs": [
        {
          "internalType": "address",
          "name": "newOwner",
          "type": "address"
        }
      ],
      "name": "transferOwnership",
      "outputs": [],
      "stateMutability": "nonpayable",
      "type": "function"
    },
    {
      "inputs": [
        {
          "internalType": "uint256",
          "name": "_id",
          "type": "uint256"
        }
      ],
      "name": "uri",
      "outputs": [
        {
          "internalType": "string",
          "name": "",
          "type": "string"
        }
      ],
      "stateMutability": "view",
      "type": "function"
    }
  ],
  "transactionHash": "0x9ec0a18a63b13062244db8ccce6552c86e71b4079991b04c30053b0a86e6225b",
  "args": [],
  "numDeployments": 1,
  "solcInputHash": "e8385f26a3f0be1c0cbaf03bae5074a5",
  "bytecode": "0x608060405234801561001057600080fd5b50614e1f806100206000396000f3fe608060405234801561001057600080fd5b50600436106101575760003560e01c8063862440e2116100c3578063c87b56dd1161007c578063c87b56dd146103ad578063d81d0a15146103dd578063e985e9c5146103f9578063f242432a14610429578063f2fde38b14610445578063f98d53a71461046157610157565b8063862440e2146103015780638da5cb5b1461031d57806395d89b411461033b578063a22cb46514610359578063b390c0ab14610375578063b8f730031461039157610157565b80632a55205a116101155780632a55205a146102425780632eb2c2d6146102735780634e1273f41461028f578063510f4104146102bf578063715018a6146102db57806383ca4b6f146102e557610157565b8062fdd58e1461015c57806301ffc9a71461018c57806302fa7c47146101bc57806306fdde03146101d85780630e89341c146101f6578063156e29f614610226575b600080fd5b610176600480360381019061017191906134fd565b61047d565b604051610183919061417a565b60405180910390f35b6101a660048036038101906101a191906136c0565b610547565b6040516101b39190613ec2565b60405180910390f35b6101d660048036038101906101d19190613590565b610579565b005b6101e06105dd565b6040516101ed9190613ef8565b60405180910390f35b610210600480360381019061020b9190613824565b61066b565b60405161021d9190613ef8565b60405180910390f35b610240600480360381019061023b919061353d565b610710565b005b61025c60048036038101906102579190613900565b610738565b60405161026a929190613e40565b60405180910390f35b61028d600480360381019061028891906131e1565b610923565b005b6102a960048036038101906102a491906135d0565b6109c4565b6040516102b69190613e69565b60405180910390f35b6102d960048036038101906102d491906133d2565b610add565b005b6102e3610b12565b005b6102ff60048036038101906102fa9190613648565b610b26565b005b61031b600480360381019061031691906138a4565b610b35565b005b610325610ba1565b6040516103329190613d63565b60405180910390f35b610343610bcb565b6040516103509190613ef8565b60405180910390f35b610373600480360381019061036e91906134bd565b610c59565b005b61038f600480360381019061038a9190613900565b610c6f565b005b6103ab60048036038101906103a69190613851565b610c7e565b005b6103c760048036038101906103c29190613824565b610ce6565b6040516103d49190613ef8565b60405180910390f35b6103f760048036038101906103f29190613347565b610d86565b005b610413600480360381019061040e91906131a1565b610dae565b6040516104209190613ec2565b60405180910390f35b610443600480360381019061043e91906132b0565b610e42565b005b61045f600480360381019061045a9190613174565b610ee3565b005b61047b6004803603810190610476919061371a565b610f67565b005b60008073ffffffffffffffffffffffffffffffffffffffff168373ffffffffffffffffffffffffffffffffffffffff1614156104ee576040517f08c379a00000000000000000000000000000000000000000000000000000000081526004016104e590613f7a565b60405180910390fd5b6065600083815260200190815260200160002060008473ffffffffffffffffffffffffffffffffffffffff1673ffffffffffffffffffffffffffffffffffffffff16815260200190815260200160002054905092915050565b6000610552826111ad565b8061056257506105618261128f565b5b8061057257506105718261128f565b5b9050919050565b610581611309565b61058b8282611387565b8173ffffffffffffffffffffffffffffffffffffffff167f649787d44a877bdd8d255fbfdaba9927f56be0ec7aae8fb86cd16841966479d2826040516105d19190614241565b60405180910390a25050565b60fb80546105ea90614585565b80601f016020809104026020016040519081016040528092919081815260200182805461061690614585565b80156106635780601f1061063857610100808354040283529160200191610663565b820191906000526020600020905b81548152906001019060200180831161064657829003601f168201915b505050505081565b606060fd6000838152602001908152602001600020805461068b90614585565b80601f01602080910402602001604051908101604052809291908181526020018280546106b790614585565b80156107045780601f106106d957610100808354040283529160200191610704565b820191906000526020600020905b8154815290600101906020018083116106e757829003601f168201915b50505050509050919050565b610718611309565b6107338383836040518060200160405280600081525061151d565b505050565b6000806000609860008681526020019081526020016000206040518060400160405290816000820160009054906101000a900473ffffffffffffffffffffffffffffffffffffffff1673ffffffffffffffffffffffffffffffffffffffff1673ffffffffffffffffffffffffffffffffffffffff1681526020016000820160149054906101000a90046bffffffffffffffffffffffff166bffffffffffffffffffffffff166bffffffffffffffffffffffff16815250509050600073ffffffffffffffffffffffffffffffffffffffff16816000015173ffffffffffffffffffffffffffffffffffffffff1614156108ce5760976040518060400160405290816000820160009054906101000a900473ffffffffffffffffffffffffffffffffffffffff1673ffffffffffffffffffffffffffffffffffffffff1673ffffffffffffffffffffffffffffffffffffffff1681526020016000820160149054906101000a90046bffffffffffffffffffffffff166bffffffffffffffffffffffff166bffffffffffffffffffffffff168152505090505b60006108d86116cf565b6bffffffffffffffffffffffff1682602001516bffffffffffffffffffffffff1686610904919061443e565b61090e919061440d565b90508160000151819350935050509250929050565b61092b6116d9565b73ffffffffffffffffffffffffffffffffffffffff168573ffffffffffffffffffffffffffffffffffffffff16148061097157506109708561096b6116d9565b610dae565b5b6109b0576040517f08c379a00000000000000000000000000000000000000000000000000000000081526004016109a790613f9a565b60405180910390fd5b6109bd85858585856116e1565b5050505050565b60608151835114610a0a576040517f08c379a0000000000000000000000000000000000000000000000000000000008152600401610a01906140da565b60405180910390fd5b6000835167ffffffffffffffff811115610a2757610a266146ed565b5b604051908082528060200260200182016040528015610a555781602001602082028036833780820191505090505b50905060005b8451811015610ad257610aa2858281518110610a7a57610a796146be565b5b6020026020010151858381518110610a9557610a946146be565b5b602002602001015161047d565b828281518110610ab557610ab46146be565b5b60200260200101818152505080610acb906145e8565b9050610a5b565b508091505092915050565b610ae5611309565b610af0858585611a06565b610b0b85838360405180602001604052806000815250611cd7565b5050505050565b610b1a611309565b610b246000611f05565b565b610b31338383611a06565b5050565b610b3d611309565b8060fd60008481526020019081526020016000209080519060200190610b64929190612e37565b50817f6bb7ff708619ba0610cba295a58592e0451dee2622938c8755667688daf3529b82604051610b959190613ef8565b60405180910390a25050565b600060c960009054906101000a900473ffffffffffffffffffffffffffffffffffffffff16905090565b60fc8054610bd890614585565b80601f0160208091040260200160405190810160405280929190818152602001828054610c0490614585565b8015610c515780601f10610c2657610100808354040283529160200191610c51565b820191906000526020600020905b815481529060010190602001808311610c3457829003601f168201915b505050505081565b610c6b610c646116d9565b8383611fcb565b5050565b610c7a338383612138565b5050565b610c86611309565b610c91838383612381565b8173ffffffffffffffffffffffffffffffffffffffff167f6b487ddd0efdbfd7606e8030e43550f55602ad00f641f939c333b8731daca8a28483604051610cd9929190614218565b60405180910390a2505050565b60fd6020528060005260406000206000915090508054610d0590614585565b80601f0160208091040260200160405190810160405280929190818152602001828054610d3190614585565b8015610d7e5780601f10610d5357610100808354040283529160200191610d7e565b820191906000526020600020905b815481529060010190602001808311610d6157829003601f168201915b505050505081565b610d8e611309565b610da983838360405180602001604052806000815250611cd7565b505050565b6000606660008473ffffffffffffffffffffffffffffffffffffffff1673ffffffffffffffffffffffffffffffffffffffff16815260200190815260200160002060008373ffffffffffffffffffffffffffffffffffffffff1673ffffffffffffffffffffffffffffffffffffffff16815260200190815260200160002060009054906101000a900460ff16905092915050565b610e4a6116d9565b73ffffffffffffffffffffffffffffffffffffffff168573ffffffffffffffffffffffffffffffffffffffff161480610e905750610e8f85610e8a6116d9565b610dae565b5b610ecf576040517f08c379a0000000000000000000000000000000000000000000000000000000008152600401610ec690613f9a565b60405180910390fd5b610edc8585858585612529565b5050505050565b610eeb611309565b600073ffffffffffffffffffffffffffffffffffffffff168173ffffffffffffffffffffffffffffffffffffffff161415610f5b576040517f08c379a0000000000000000000000000000000000000000000000000000000008152600401610f5290613f3a565b60405180910390fd5b610f6481611f05565b50565b60008060019054906101000a900460ff16159050808015610f985750600160008054906101000a900460ff1660ff16105b80610fc55750610fa7306127c8565b158015610fc45750600160008054906101000a900460ff1660ff16145b5b611004576040517f08c379a0000000000000000000000000000000000000000000000000000000008152600401610ffb90613fda565b60405180910390fd5b60016000806101000a81548160ff021916908360ff1602179055508015611041576001600060016101000a81548160ff0219169083151502179055505b6110496127eb565b61106160405180602001604052806000815250612844565b8860fb9080519060200190611077929190612e37565b508760fc908051906020019061108e929190612e37565b506110aa8288886040518060200160405280600081525061151d565b6110b48786610b35565b6110be8484610579565b6110c782610ee3565b8173ffffffffffffffffffffffffffffffffffffffff16886040516110ec9190613d4c565b60405180910390208a6040516111029190613d4c565b60405180910390207fa1880405d5bb13de06518f8b8ab7d9887059d4e47ea9a6273131e989b014ae108a8a8a8a8a6040516111419594939291906141be565b60405180910390a480156111a25760008060016101000a81548160ff0219169083151502179055507f7f26b83ff96e1f2b6a682f133852f6798a09c465da95921460cefb384740249860016040516111999190613edd565b60405180910390a15b505050505050505050565b60007fd9b67a26000000000000000000000000000000000000000000000000000000007bffffffffffffffffffffffffffffffffffffffffffffffffffffffff1916827bffffffffffffffffffffffffffffffffffffffffffffffffffffffff1916148061127857507f0e89341c000000000000000000000000000000000000000000000000000000007bffffffffffffffffffffffffffffffffffffffffffffffffffffffff1916827bffffffffffffffffffffffffffffffffffffffffffffffffffffffff1916145b8061128857506112878261289f565b5b9050919050565b60007f2a55205a000000000000000000000000000000000000000000000000000000007bffffffffffffffffffffffffffffffffffffffffffffffffffffffff1916827bffffffffffffffffffffffffffffffffffffffffffffffffffffffff191614806113025750611301826111ad565b5b9050919050565b6113116116d9565b73ffffffffffffffffffffffffffffffffffffffff1661132f610ba1565b73ffffffffffffffffffffffffffffffffffffffff1614611385576040517f08c379a000000000000000000000000000000000000000000000000000000000815260040161137c9061403a565b60405180910390fd5b565b61138f6116cf565b6bffffffffffffffffffffffff16816bffffffffffffffffffffffff1611156113ed576040517f08c379a00000000000000000000000000000000000000000000000000000000081526004016113e49061409a565b60405180910390fd5b600073ffffffffffffffffffffffffffffffffffffffff168273ffffffffffffffffffffffffffffffffffffffff16141561145d576040517f08c379a00000000000000000000000000000000000000000000000000000000081526004016114549061415a565b60405180910390fd5b60405180604001604052808373ffffffffffffffffffffffffffffffffffffffff168152602001826bffffffffffffffffffffffff16815250609760008201518160000160006101000a81548173ffffffffffffffffffffffffffffffffffffffff021916908373ffffffffffffffffffffffffffffffffffffffff16021790555060208201518160000160146101000a8154816bffffffffffffffffffffffff02191690836bffffffffffffffffffffffff1602179055509050505050565b600073ffffffffffffffffffffffffffffffffffffffff168473ffffffffffffffffffffffffffffffffffffffff16141561158d576040517f08c379a00000000000000000000000000000000000000000000000000000000081526004016115849061411a565b60405180910390fd5b60006115976116d9565b905060006115a485612909565b905060006115b185612909565b90506115c283600089858589612983565b846065600088815260200190815260200160002060008973ffffffffffffffffffffffffffffffffffffffff1673ffffffffffffffffffffffffffffffffffffffff168152602001908152602001600020600082825461162291906143b7565b925050819055508673ffffffffffffffffffffffffffffffffffffffff16600073ffffffffffffffffffffffffffffffffffffffff168473ffffffffffffffffffffffffffffffffffffffff167fc3d58168c5ae7397731d063d5bbf3d657854427343f4c083240f7aacaa2d0f6289896040516116a0929190614195565b60405180910390a46116b78360008985858961298b565b6116c683600089898989612993565b50505050505050565b6000612710905090565b600033905090565b8151835114611725576040517f08c379a000000000000000000000000000000000000000000000000000000000815260040161171c906140fa565b60405180910390fd5b600073ffffffffffffffffffffffffffffffffffffffff168473ffffffffffffffffffffffffffffffffffffffff161415611795576040517f08c379a000000000000000000000000000000000000000000000000000000000815260040161178c90613fba565b60405180910390fd5b600061179f6116d9565b90506117af818787878787612983565b60005b84518110156119635760008582815181106117d0576117cf6146be565b5b6020026020010151905060008583815181106117ef576117ee6146be565b5b6020026020010151905060006065600084815260200190815260200160002060008b73ffffffffffffffffffffffffffffffffffffffff1673ffffffffffffffffffffffffffffffffffffffff16815260200190815260200160002054905081811015611891576040517f08c379a00000000000000000000000000000000000000000000000000000000081526004016118889061401a565b60405180910390fd5b8181036065600085815260200190815260200160002060008c73ffffffffffffffffffffffffffffffffffffffff1673ffffffffffffffffffffffffffffffffffffffff16815260200190815260200160002081905550816065600085815260200190815260200160002060008b73ffffffffffffffffffffffffffffffffffffffff1673ffffffffffffffffffffffffffffffffffffffff168152602001908152602001600020600082825461194891906143b7565b925050819055505050508061195c906145e8565b90506117b2565b508473ffffffffffffffffffffffffffffffffffffffff168673ffffffffffffffffffffffffffffffffffffffff168273ffffffffffffffffffffffffffffffffffffffff167f4a39dc06d4c0dbc64b70af90fd698a233a518aa5d07e595d983b8c0526c8f7fb87876040516119da929190613e8b565b60405180910390a46119f081878787878761298b565b6119fe818787878787612b7a565b505050505050565b600073ffffffffffffffffffffffffffffffffffffffff168373ffffffffffffffffffffffffffffffffffffffff161415611a76576040517f08c379a0000000000000000000000000000000000000000000000000000000008152600401611a6d90613ffa565b60405180910390fd5b8051825114611aba576040517f08c379a0000000000000000000000000000000000000000000000000000000008152600401611ab1906140fa565b60405180910390fd5b6000611ac46116d9565b9050611ae481856000868660405180602001604052806000815250612983565b60005b8351811015611c33576000848281518110611b0557611b046146be565b5b602002602001015190506000848381518110611b2457611b236146be565b5b6020026020010151905060006065600084815260200190815260200160002060008973ffffffffffffffffffffffffffffffffffffffff1673ffffffffffffffffffffffffffffffffffffffff16815260200190815260200160002054905081811015611bc6576040517f08c379a0000000000000000000000000000000000000000000000000000000008152600401611bbd90613f5a565b60405180910390fd5b8181036065600085815260200190815260200160002060008a73ffffffffffffffffffffffffffffffffffffffff1673ffffffffffffffffffffffffffffffffffffffff168152602001908152602001600020819055505050508080611c2b906145e8565b915050611ae7565b50600073ffffffffffffffffffffffffffffffffffffffff168473ffffffffffffffffffffffffffffffffffffffff168273ffffffffffffffffffffffffffffffffffffffff167f4a39dc06d4c0dbc64b70af90fd698a233a518aa5d07e595d983b8c0526c8f7fb8686604051611cab929190613e8b565b60405180910390a4611cd18185600086866040518060200160405280600081525061298b565b50505050565b600073ffffffffffffffffffffffffffffffffffffffff168473ffffffffffffffffffffffffffffffffffffffff161415611d47576040517f08c379a0000000000000000000000000000000000000000000000000000000008152600401611d3e9061411a565b60405180910390fd5b8151835114611d8b576040517f08c379a0000000000000000000000000000000000000000000000000000000008152600401611d82906140fa565b60405180910390fd5b6000611d956116d9565b9050611da681600087878787612983565b60005b8451811015611e6057838181518110611dc557611dc46146be565b5b602002602001015160656000878481518110611de457611de36146be565b5b6020026020010151815260200190815260200160002060008873ffffffffffffffffffffffffffffffffffffffff1673ffffffffffffffffffffffffffffffffffffffff1681526020019081526020016000206000828254611e4691906143b7565b925050819055508080611e58906145e8565b915050611da9565b508473ffffffffffffffffffffffffffffffffffffffff16600073ffffffffffffffffffffffffffffffffffffffff168273ffffffffffffffffffffffffffffffffffffffff167f4a39dc06d4c0dbc64b70af90fd698a233a518aa5d07e595d983b8c0526c8f7fb8787604051611ed8929190613e8b565b60405180910390a4611eef8160008787878761298b565b611efe81600087878787612b7a565b5050505050565b600060c960009054906101000a900473ffffffffffffffffffffffffffffffffffffffff1690508160c960006101000a81548173ffffffffffffffffffffffffffffffffffffffff021916908373ffffffffffffffffffffffffffffffffffffffff1602179055508173ffffffffffffffffffffffffffffffffffffffff168173ffffffffffffffffffffffffffffffffffffffff167f8be0079c531659141344cd1fd0a4f28419497f9722a3daafe3b4186f6b6457e060405160405180910390a35050565b8173ffffffffffffffffffffffffffffffffffffffff168373ffffffffffffffffffffffffffffffffffffffff16141561203a576040517f08c379a0000000000000000000000000000000000000000000000000000000008152600401612031906140ba565b60405180910390fd5b80606660008573ffffffffffffffffffffffffffffffffffffffff1673ffffffffffffffffffffffffffffffffffffffff16815260200190815260200160002060008473ffffffffffffffffffffffffffffffffffffffff1673ffffffffffffffffffffffffffffffffffffffff16815260200190815260200160002060006101000a81548160ff0219169083151502179055508173ffffffffffffffffffffffffffffffffffffffff168373ffffffffffffffffffffffffffffffffffffffff167f17307eab39ab6107e8899845ad3d59bd9653f200f220920489ca2b5937696c318360405161212b9190613ec2565b60405180910390a3505050565b600073ffffffffffffffffffffffffffffffffffffffff168373ffffffffffffffffffffffffffffffffffffffff1614156121a8576040517f08c379a000000000000000000000000000000000000000000000000000000000815260040161219f90613ffa565b60405180910390fd5b60006121b26116d9565b905060006121bf84612909565b905060006121cc84612909565b90506121ec83876000858560405180602001604052806000815250612983565b60006065600087815260200190815260200160002060008873ffffffffffffffffffffffffffffffffffffffff1673ffffffffffffffffffffffffffffffffffffffff16815260200190815260200160002054905084811015612284576040517f08c379a000000000000000000000000000000000000000000000000000000000815260040161227b90613f5a565b60405180910390fd5b8481036065600088815260200190815260200160002060008973ffffffffffffffffffffffffffffffffffffffff1673ffffffffffffffffffffffffffffffffffffffff16815260200190815260200160002081905550600073ffffffffffffffffffffffffffffffffffffffff168773ffffffffffffffffffffffffffffffffffffffff168573ffffffffffffffffffffffffffffffffffffffff167fc3d58168c5ae7397731d063d5bbf3d657854427343f4c083240f7aacaa2d0f628989604051612352929190614195565b60405180910390a46123788488600086866040518060200160405280600081525061298b565b50505050505050565b6123896116cf565b6bffffffffffffffffffffffff16816bffffffffffffffffffffffff1611156123e7576040517f08c379a00000000000000000000000000000000000000000000000000000000081526004016123de9061409a565b60405180910390fd5b600073ffffffffffffffffffffffffffffffffffffffff168273ffffffffffffffffffffffffffffffffffffffff161415612457576040517f08c379a000000000000000000000000000000000000000000000000000000000815260040161244e9061405a565b60405180910390fd5b60405180604001604052808373ffffffffffffffffffffffffffffffffffffffff168152602001826bffffffffffffffffffffffff168152506098600085815260200190815260200160002060008201518160000160006101000a81548173ffffffffffffffffffffffffffffffffffffffff021916908373ffffffffffffffffffffffffffffffffffffffff16021790555060208201518160000160146101000a8154816bffffffffffffffffffffffff02191690836bffffffffffffffffffffffff160217905550905050505050565b600073ffffffffffffffffffffffffffffffffffffffff168473ffffffffffffffffffffffffffffffffffffffff161415612599576040517f08c379a000000000000000000000000000000000000000000000000000000000815260040161259090613fba565b60405180910390fd5b60006125a36116d9565b905060006125b085612909565b905060006125bd85612909565b90506125cd838989858589612983565b60006065600088815260200190815260200160002060008a73ffffffffffffffffffffffffffffffffffffffff1673ffffffffffffffffffffffffffffffffffffffff16815260200190815260200160002054905085811015612665576040517f08c379a000000000000000000000000000000000000000000000000000000000815260040161265c9061401a565b60405180910390fd5b8581036065600089815260200190815260200160002060008b73ffffffffffffffffffffffffffffffffffffffff1673ffffffffffffffffffffffffffffffffffffffff16815260200190815260200160002081905550856065600089815260200190815260200160002060008a73ffffffffffffffffffffffffffffffffffffffff1673ffffffffffffffffffffffffffffffffffffffff168152602001908152602001600020600082825461271c91906143b7565b925050819055508773ffffffffffffffffffffffffffffffffffffffff168973ffffffffffffffffffffffffffffffffffffffff168573ffffffffffffffffffffffffffffffffffffffff167fc3d58168c5ae7397731d063d5bbf3d657854427343f4c083240f7aacaa2d0f628a8a604051612799929190614195565b60405180910390a46127af848a8a86868a61298b565b6127bd848a8a8a8a8a612993565b505050505050505050565b6000808273ffffffffffffffffffffffffffffffffffffffff163b119050919050565b600060019054906101000a900460ff1661283a576040517f08c379a00000000000000000000000000000000000000000000000000000000081526004016128319061407a565b60405180910390fd5b612842612d61565b565b600060019054906101000a900460ff16612893576040517f08c379a000000000000000000000000000000000000000000000000000000000815260040161288a9061407a565b60405180910390fd5b61289c81612dc2565b50565b60007f01ffc9a7000000000000000000000000000000000000000000000000000000007bffffffffffffffffffffffffffffffffffffffffffffffffffffffff1916827bffffffffffffffffffffffffffffffffffffffffffffffffffffffff1916149050919050565b60606000600167ffffffffffffffff811115612928576129276146ed565b5b6040519080825280602002602001820160405280156129565781602001602082028036833780820191505090505b509050828160008151811061296e5761296d6146be565b5b60200260200101818152505080915050919050565b505050505050565b505050505050565b6129b28473ffffffffffffffffffffffffffffffffffffffff166127c8565b15612b72578373ffffffffffffffffffffffffffffffffffffffff1663f23a6e6187878686866040518663ffffffff1660e01b81526004016129f8959493929190613de6565b602060405180830381600087803b158015612a1257600080fd5b505af1925050508015612a4357506040513d601f19601f82011682018060405250810190612a4091906136ed565b60015b612ae957612a4f61471c565b806308c379a01415612aac5750612a64614ce0565b80612a6f5750612aae565b806040517f08c379a0000000000000000000000000000000000000000000000000000000008152600401612aa39190613ef8565b60405180910390fd5b505b6040517f08c379a0000000000000000000000000000000000000000000000000000000008152600401612ae09061413a565b60405180910390fd5b63f23a6e6160e01b7bffffffffffffffffffffffffffffffffffffffffffffffffffffffff1916817bffffffffffffffffffffffffffffffffffffffffffffffffffffffff191614612b70576040517f08c379a0000000000000000000000000000000000000000000000000000000008152600401612b6790613f1a565b60405180910390fd5b505b505050505050565b612b998473ffffffffffffffffffffffffffffffffffffffff166127c8565b15612d59578373ffffffffffffffffffffffffffffffffffffffff1663bc197c8187878686866040518663ffffffff1660e01b8152600401612bdf959493929190613d7e565b602060405180830381600087803b158015612bf957600080fd5b505af1925050508015612c2a57506040513d601f19601f82011682018060405250810190612c2791906136ed565b60015b612cd057612c3661471c565b806308c379a01415612c935750612c4b614ce0565b80612c565750612c95565b806040517f08c379a0000000000000000000000000000000000000000000000000000000008152600401612c8a9190613ef8565b60405180910390fd5b505b6040517f08c379a0000000000000000000000000000000000000000000000000000000008152600401612cc79061413a565b60405180910390fd5b63bc197c8160e01b7bffffffffffffffffffffffffffffffffffffffffffffffffffffffff1916817bffffffffffffffffffffffffffffffffffffffffffffffffffffffff191614612d57576040517f08c379a0000000000000000000000000000000000000000000000000000000008152600401612d4e90613f1a565b60405180910390fd5b505b505050505050565b600060019054906101000a900460ff16612db0576040517f08c379a0000000000000000000000000000000000000000000000000000000008152600401612da79061407a565b60405180910390fd5b612dc0612dbb6116d9565b611f05565b565b600060019054906101000a900460ff16612e11576040517f08c379a0000000000000000000000000000000000000000000000000000000008152600401612e089061407a565b60405180910390fd5b612e1a81612e1d565b50565b8060679080519060200190612e33929190612e37565b5050565b828054612e4390614585565b90600052602060002090601f016020900481019282612e655760008555612eac565b82601f10612e7e57805160ff1916838001178555612eac565b82800160010185558215612eac579182015b82811115612eab578251825591602001919060010190612e90565b5b509050612eb99190612ebd565b5090565b5b80821115612ed6576000816000905550600101612ebe565b5090565b6000612eed612ee884614281565b61425c565b90508083825260208201905082856020860282011115612f1057612f0f614743565b5b60005b85811015612f405781612f26888261303e565b845260208401935060208301925050600181019050612f13565b5050509392505050565b6000612f5d612f58846142ad565b61425c565b90508083825260208201905082856020860282011115612f8057612f7f614743565b5b60005b85811015612fb05781612f96888261314a565b845260208401935060208301925050600181019050612f83565b5050509392505050565b6000612fcd612fc8846142d9565b61425c565b905082815260208101848484011115612fe957612fe8614748565b5b612ff4848285614543565b509392505050565b600061300f61300a8461430a565b61425c565b90508281526020810184848401111561302b5761302a614748565b5b613036848285614543565b509392505050565b60008135905061304d81614d76565b92915050565b600082601f8301126130685761306761473e565b5b8135613078848260208601612eda565b91505092915050565b600082601f8301126130965761309561473e565b5b81356130a6848260208601612f4a565b91505092915050565b6000813590506130be81614d8d565b92915050565b6000813590506130d381614da4565b92915050565b6000815190506130e881614da4565b92915050565b600082601f8301126131035761310261473e565b5b8135613113848260208601612fba565b91505092915050565b600082601f8301126131315761313061473e565b5b8135613141848260208601612ffc565b91505092915050565b60008135905061315981614dbb565b92915050565b60008135905061316e81614dd2565b92915050565b60006020828403121561318a57613189614752565b5b60006131988482850161303e565b91505092915050565b600080604083850312156131b8576131b7614752565b5b60006131c68582860161303e565b92505060206131d78582860161303e565b9150509250929050565b600080600080600060a086880312156131fd576131fc614752565b5b600061320b8882890161303e565b955050602061321c8882890161303e565b945050604086013567ffffffffffffffff81111561323d5761323c61474d565b5b61324988828901613081565b935050606086013567ffffffffffffffff81111561326a5761326961474d565b5b61327688828901613081565b925050608086013567ffffffffffffffff8111156132975761329661474d565b5b6132a3888289016130ee565b9150509295509295909350565b600080600080600060a086880312156132cc576132cb614752565b5b60006132da8882890161303e565b95505060206132eb8882890161303e565b94505060406132fc8882890161314a565b935050606061330d8882890161314a565b925050608086013567ffffffffffffffff81111561332e5761332d61474d565b5b61333a888289016130ee565b9150509295509295909350565b6000806000606084860312156133605761335f614752565b5b600061336e8682870161303e565b935050602084013567ffffffffffffffff81111561338f5761338e61474d565b5b61339b86828701613081565b925050604084013567ffffffffffffffff8111156133bc576133bb61474d565b5b6133c886828701613081565b9150509250925092565b600080600080600060a086880312156133ee576133ed614752565b5b60006133fc8882890161303e565b955050602086013567ffffffffffffffff81111561341d5761341c61474d565b5b61342988828901613081565b945050604086013567ffffffffffffffff81111561344a5761344961474d565b5b61345688828901613081565b935050606086013567ffffffffffffffff8111156134775761347661474d565b5b61348388828901613081565b925050608086013567ffffffffffffffff8111156134a4576134a361474d565b5b6134b088828901613081565b9150509295509295909350565b600080604083850312156134d4576134d3614752565b5b60006134e28582860161303e565b92505060206134f3858286016130af565b9150509250929050565b6000806040838503121561351457613513614752565b5b60006135228582860161303e565b92505060206135338582860161314a565b9150509250929050565b60008060006060848603121561355657613555614752565b5b60006135648682870161303e565b93505060206135758682870161314a565b92505060406135868682870161314a565b9150509250925092565b600080604083850312156135a7576135a6614752565b5b60006135b58582860161303e565b92505060206135c68582860161315f565b9150509250929050565b600080604083850312156135e7576135e6614752565b5b600083013567ffffffffffffffff8111156136055761360461474d565b5b61361185828601613053565b925050602083013567ffffffffffffffff8111156136325761363161474d565b5b61363e85828601613081565b9150509250929050565b6000806040838503121561365f5761365e614752565b5b600083013567ffffffffffffffff81111561367d5761367c61474d565b5b61368985828601613081565b925050602083013567ffffffffffffffff8111156136aa576136a961474d565b5b6136b685828601613081565b9150509250929050565b6000602082840312156136d6576136d5614752565b5b60006136e4848285016130c4565b91505092915050565b60006020828403121561370357613702614752565b5b6000613711848285016130d9565b91505092915050565b600080600080600080600080610100898b03121561373b5761373a614752565b5b600089013567ffffffffffffffff8111156137595761375861474d565b5b6137658b828c0161311c565b985050602089013567ffffffffffffffff8111156137865761378561474d565b5b6137928b828c0161311c565b97505060406137a38b828c0161314a565b96505060606137b48b828c0161314a565b955050608089013567ffffffffffffffff8111156137d5576137d461474d565b5b6137e18b828c0161311c565b94505060a06137f28b828c0161303e565b93505060c06138038b828c0161315f565b92505060e06138148b828c0161303e565b9150509295985092959890939650565b60006020828403121561383a57613839614752565b5b60006138488482850161314a565b91505092915050565b60008060006060848603121561386a57613869614752565b5b60006138788682870161314a565b93505060206138898682870161303e565b925050604061389a8682870161315f565b9150509250925092565b600080604083850312156138bb576138ba614752565b5b60006138c98582860161314a565b925050602083013567ffffffffffffffff8111156138ea576138e961474d565b5b6138f68582860161311c565b9150509250929050565b6000806040838503121561391757613916614752565b5b60006139258582860161314a565b92505060206139368582860161314a565b9150509250929050565b600061394c8383613d1f565b60208301905092915050565b61396181614498565b82525050565b60006139728261434b565b61397c8185614379565b93506139878361433b565b8060005b838110156139b857815161399f8882613940565b97506139aa8361436c565b92505060018101905061398b565b5085935050505092915050565b6139ce816144aa565b82525050565b60006139df82614356565b6139e9818561438a565b93506139f9818560208601614552565b613a0281614757565b840191505092915050565b613a1681614531565b82525050565b6000613a2782614361565b613a31818561439b565b9350613a41818560208601614552565b613a4a81614757565b840191505092915050565b6000613a6082614361565b613a6a81856143ac565b9350613a7a818560208601614552565b80840191505092915050565b6000613a9360288361439b565b9150613a9e82614775565b604082019050919050565b6000613ab660268361439b565b9150613ac1826147c4565b604082019050919050565b6000613ad960248361439b565b9150613ae482614813565b604082019050919050565b6000613afc602a8361439b565b9150613b0782614862565b604082019050919050565b6000613b1f602e8361439b565b9150613b2a826148b1565b604082019050919050565b6000613b4260258361439b565b9150613b4d82614900565b604082019050919050565b6000613b65602e8361439b565b9150613b708261494f565b604082019050919050565b6000613b8860238361439b565b9150613b938261499e565b604082019050919050565b6000613bab602a8361439b565b9150613bb6826149ed565b604082019050919050565b6000613bce60208361439b565b9150613bd982614a3c565b602082019050919050565b6000613bf1601b8361439b565b9150613bfc82614a65565b602082019050919050565b6000613c14602b8361439b565b9150613c1f82614a8e565b604082019050919050565b6000613c37602a8361439b565b9150613c4282614add565b604082019050919050565b6000613c5a60298361439b565b9150613c6582614b2c565b604082019050919050565b6000613c7d60298361439b565b9150613c8882614b7b565b604082019050919050565b6000613ca060288361439b565b9150613cab82614bca565b604082019050919050565b6000613cc360218361439b565b9150613cce82614c19565b604082019050919050565b6000613ce660348361439b565b9150613cf182614c68565b604082019050919050565b6000613d0960198361439b565b9150613d1482614cb7565b602082019050919050565b613d2881614502565b82525050565b613d3781614502565b82525050565b613d4681614519565b82525050565b6000613d588284613a55565b915081905092915050565b6000602082019050613d786000830184613958565b92915050565b600060a082019050613d936000830188613958565b613da06020830187613958565b8181036040830152613db28186613967565b90508181036060830152613dc68185613967565b90508181036080830152613dda81846139d4565b90509695505050505050565b600060a082019050613dfb6000830188613958565b613e086020830187613958565b613e156040830186613d2e565b613e226060830185613d2e565b8181036080830152613e3481846139d4565b90509695505050505050565b6000604082019050613e556000830185613958565b613e626020830184613d2e565b9392505050565b60006020820190508181036000830152613e838184613967565b905092915050565b60006040820190508181036000830152613ea58185613967565b90508181036020830152613eb98184613967565b90509392505050565b6000602082019050613ed760008301846139c5565b92915050565b6000602082019050613ef26000830184613a0d565b92915050565b60006020820190508181036000830152613f128184613a1c565b905092915050565b60006020820190508181036000830152613f3381613a86565b9050919050565b60006020820190508181036000830152613f5381613aa9565b9050919050565b60006020820190508181036000830152613f7381613acc565b9050919050565b60006020820190508181036000830152613f9381613aef565b9050919050565b60006020820190508181036000830152613fb381613b12565b9050919050565b60006020820190508181036000830152613fd381613b35565b9050919050565b60006020820190508181036000830152613ff381613b58565b9050919050565b6000602082019050818103600083015261401381613b7b565b9050919050565b6000602082019050818103600083015261403381613b9e565b9050919050565b6000602082019050818103600083015261405381613bc1565b9050919050565b6000602082019050818103600083015261407381613be4565b9050919050565b6000602082019050818103600083015261409381613c07565b9050919050565b600060208201905081810360008301526140b381613c2a565b9050919050565b600060208201905081810360008301526140d381613c4d565b9050919050565b600060208201905081810360008301526140f381613c70565b9050919050565b6000602082019050818103600083015261411381613c93565b9050919050565b6000602082019050818103600083015261413381613cb6565b9050919050565b6000602082019050818103600083015261415381613cd9565b9050919050565b6000602082019050818103600083015261417381613cfc565b9050919050565b600060208201905061418f6000830184613d2e565b92915050565b60006040820190506141aa6000830185613d2e565b6141b76020830184613d2e565b9392505050565b600060a0820190506141d36000830188613d2e565b6141e06020830187613d2e565b81810360408301526141f28186613a1c565b90506142016060830185613958565b61420e6080830184613d3d565b9695505050505050565b600060408201905061422d6000830185613d2e565b61423a6020830184613d3d565b9392505050565b60006020820190506142566000830184613d3d565b92915050565b6000614266614277565b905061427282826145b7565b919050565b6000604051905090565b600067ffffffffffffffff82111561429c5761429b6146ed565b5b602082029050602081019050919050565b600067ffffffffffffffff8211156142c8576142c76146ed565b5b602082029050602081019050919050565b600067ffffffffffffffff8211156142f4576142f36146ed565b5b6142fd82614757565b9050602081019050919050565b600067ffffffffffffffff821115614325576143246146ed565b5b61432e82614757565b9050602081019050919050565b6000819050602082019050919050565b600081519050919050565b600081519050919050565b600081519050919050565b6000602082019050919050565b600082825260208201905092915050565b600082825260208201905092915050565b600082825260208201905092915050565b600081905092915050565b60006143c282614502565b91506143cd83614502565b9250827fffffffffffffffffffffffffffffffffffffffffffffffffffffffffffffffff0382111561440257614401614631565b5b828201905092915050565b600061441882614502565b915061442383614502565b92508261443357614432614660565b5b828204905092915050565b600061444982614502565b915061445483614502565b9250817fffffffffffffffffffffffffffffffffffffffffffffffffffffffffffffffff048311821515161561448d5761448c614631565b5b828202905092915050565b60006144a3826144e2565b9050919050565b60008115159050919050565b60007fffffffff0000000000000000000000000000000000000000000000000000000082169050919050565b600073ffffffffffffffffffffffffffffffffffffffff82169050919050565b6000819050919050565b600060ff82169050919050565b60006bffffffffffffffffffffffff82169050919050565b600061453c8261450c565b9050919050565b82818337600083830152505050565b60005b83811015614570578082015181840152602081019050614555565b8381111561457f576000848401525b50505050565b6000600282049050600182168061459d57607f821691505b602082108114156145b1576145b061468f565b5b50919050565b6145c082614757565b810181811067ffffffffffffffff821117156145df576145de6146ed565b5b80604052505050565b60006145f382614502565b91507fffffffffffffffffffffffffffffffffffffffffffffffffffffffffffffffff82141561462657614625614631565b5b600182019050919050565b7f4e487b7100000000000000000000000000000000000000000000000000000000600052601160045260246000fd5b7f4e487b7100000000000000000000000000000000000000000000000000000000600052601260045260246000fd5b7f4e487b7100000000000000000000000000000000000000000000000000000000600052602260045260246000fd5b7f4e487b7100000000000000000000000000000000000000000000000000000000600052603260045260246000fd5b7f4e487b7100000000000000000000000000000000000000000000000000000000600052604160045260246000fd5b600060033d111561473b5760046000803e614738600051614768565b90505b90565b600080fd5b600080fd5b600080fd5b600080fd5b600080fd5b6000601f19601f8301169050919050565b60008160e01c9050919050565b7f455243313135353a204552433131353552656365697665722072656a6563746560008201527f6420746f6b656e73000000000000000000000000000000000000000000000000602082015250565b7f4f776e61626c653a206e6577206f776e657220697320746865207a65726f206160008201527f6464726573730000000000000000000000000000000000000000000000000000602082015250565b7f455243313135353a206275726e20616d6f756e7420657863656564732062616c60008201527f616e636500000000000000000000000000000000000000000000000000000000602082015250565b7f455243313135353a2061646472657373207a65726f206973206e6f742061207660008201527f616c6964206f776e657200000000000000000000000000000000000000000000602082015250565b7f455243313135353a2063616c6c6572206973206e6f7420746f6b656e206f776e60008201527f6572206f7220617070726f766564000000000000000000000000000000000000602082015250565b7f455243313135353a207472616e7366657220746f20746865207a65726f20616460008201527f6472657373000000000000000000000000000000000000000000000000000000602082015250565b7f496e697469616c697a61626c653a20636f6e747261637420697320616c72656160008201527f647920696e697469616c697a6564000000000000000000000000000000000000602082015250565b7f455243313135353a206275726e2066726f6d20746865207a65726f206164647260008201527f6573730000000000000000000000000000000000000000000000000000000000602082015250565b7f455243313135353a20696e73756666696369656e742062616c616e636520666f60008201527f72207472616e7366657200000000000000000000000000000000000000000000602082015250565b7f4f776e61626c653a2063616c6c6572206973206e6f7420746865206f776e6572600082015250565b7f455243323938313a20496e76616c696420706172616d65746572730000000000600082015250565b7f496e697469616c697a61626c653a20636f6e7472616374206973206e6f74206960008201527f6e697469616c697a696e67000000000000000000000000000000000000000000602082015250565b7f455243323938313a20726f79616c7479206665652077696c6c2065786365656460008201527f2073616c65507269636500000000000000000000000000000000000000000000602082015250565b7f455243313135353a2073657474696e6720617070726f76616c2073746174757360008201527f20666f722073656c660000000000000000000000000000000000000000000000602082015250565b7f455243313135353a206163636f756e747320616e6420696473206c656e67746860008201527f206d69736d617463680000000000000000000000000000000000000000000000602082015250565b7f455243313135353a2069647320616e6420616d6f756e7473206c656e6774682060008201527f6d69736d61746368000000000000000000000000000000000000000000000000602082015250565b7f455243313135353a206d696e7420746f20746865207a65726f2061646472657360008201527f7300000000000000000000000000000000000000000000000000000000000000602082015250565b7f455243313135353a207472616e7366657220746f206e6f6e2d4552433131353560008201527f526563656976657220696d706c656d656e746572000000000000000000000000602082015250565b7f455243323938313a20696e76616c696420726563656976657200000000000000600082015250565b600060443d1015614cf057614d73565b614cf8614277565b60043d036004823e80513d602482011167ffffffffffffffff82111715614d20575050614d73565b808201805167ffffffffffffffff811115614d3e5750505050614d73565b80602083010160043d038501811115614d5b575050505050614d73565b614d6a826020018501866145b7565b82955050505050505b90565b614d7f81614498565b8114614d8a57600080fd5b50565b614d96816144aa565b8114614da157600080fd5b50565b614dad816144b6565b8114614db857600080fd5b50565b614dc481614502565b8114614dcf57600080fd5b50565b614ddb81614519565b8114614de657600080fd5b5056fea264697066735822122075d300dca680d0935f61141306af4ca02d34e242612b014077fff0242167170b64736f6c63430008070033",
  "devdoc": {
    "events": {
      "InitializedContract(string,string,uint256,uint256,string,address,uint96,address)": {
        "params": {
          "_amount": "Token supply",
          "_feePercent": "Royalty fee numerator; denominator is 10,000. So 500 represents 5%",
          "_id": "Token id",
          "_name": "Contract name",
          "_owner": "Contract owner",
          "_royaltyReceiver": "Royalty fee collector",
          "_symbol": "Contract symbol",
          "_uri": "Token uri"
        }
      }
    },
    "kind": "dev",
    "methods": {
      "balanceOf(address,uint256)": {
        "details": "See {IERC1155-balanceOf}. Requirements: - `account` cannot be the zero address."
      },
      "balanceOfBatch(address[],uint256[])": {
        "details": "See {IERC1155-balanceOfBatch}. Requirements: - `accounts` and `ids` must have the same length."
      },
      "burn(uint256,uint256)": {
        "params": {
          "_amount": "Token amount to be burned",
          "_id": "Token id to be burned"
        }
      },
      "burnBatch(uint256[],uint256[])": {
        "params": {
          "_amounts": "Token amounts to be burned",
          "_ids": "Token ids to be burned"
        }
      },
      "initialize(string,string,uint256,uint256,string,address,uint96,address)": {
        "params": {
          "_amount": "Token supply",
          "_feePercent": "Royalty fee numerator; denominator is 10,000. So 500 represents 5%",
          "_id": "Token id",
          "_name": "Contract name",
          "_owner": "Contract owner",
          "_royaltyReceiver": "Royalty fee collector",
          "_symbol": "Contract symbol",
          "_uri": "Token uri"
        }
      },
      "isApprovedForAll(address,address)": {
        "details": "See {IERC1155-isApprovedForAll}."
      },
      "mint(address,uint256,uint256)": {
        "details": "Can only be called by project owner",
        "params": {
          "_amount": "Mint token amount",
          "_id": "Mint token id",
          "_to": "Mint address destination"
        }
      },
      "mintBatch(address,uint256[],uint256[])": {
        "details": "Can only be called by project owner",
        "params": {
          "_amounts": "Mint token amounts",
          "_ids": "Mint token ids",
          "_to": "Mint address destination"
        }
      },
      "owner()": {
        "details": "Returns the address of the current owner."
      },
      "renounceOwnership()": {
        "details": "Leaves the contract without owner. It will not be possible to call `onlyOwner` functions anymore. Can only be called by the current owner. NOTE: Renouncing ownership will leave the contract without an owner, thereby removing any functionality that is only available to the owner."
      },
      "royaltyInfo(uint256,uint256)": {
        "details": "Returns how much royalty is owed and to whom, based on a sale price that may be denominated in any unit of exchange. The royalty amount is denominated and should be paid in that same unit of exchange."
      },
      "safeBatchTransferFrom(address,address,uint256[],uint256[],bytes)": {
        "details": "See {IERC1155-safeBatchTransferFrom}."
      },
      "safeTransferFrom(address,address,uint256,uint256,bytes)": {
        "details": "See {IERC1155-safeTransferFrom}."
      },
      "setApprovalForAll(address,bool)": {
        "details": "See {IERC1155-setApprovalForAll}."
      },
      "setRoyaltyInfo(address,uint96)": {
        "details": "Can only be called by project ownerOwner can prevent any sale by setting the address to any address that can't receive native network token",
        "params": {
          "_feePercent": "Royalty fee numerator; denominator is 10,000. So 500 represents 5%",
          "_royaltyReceiver": "Royalty fee collector"
        }
      },
      "setTokenRoyaltyInfo(uint256,address,uint96)": {
        "details": "Can only be called by project ownerOwner can prevent any sale by setting the address to any address that can't receive native network token",
        "params": {
          "_feePercent": "Royalty fee numerator; denominator is 10,000. So 500 represents 5%",
          "_royaltyReceiver": "Royalty fee collector",
          "_tokenId": "Token ID royalty to be set"
        }
      },
      "setURI(uint256,string)": {
        "details": "Can only be called by project owner",
        "params": {
          "_id": "Token id",
          "_uri": "Token uri"
        }
      },
      "supportsInterface(bytes4)": {
        "details": "Needs to be overridden cause two base contracts implement it",
        "params": {
          "_interfaceId": "InterfaceId to consider. Comes from type(InterfaceContract).interfaceId"
        },
        "returns": {
          "_0": "bool True if the considered interface is supported"
        }
      },
      "transferOwnership(address)": {
        "details": "Transfers ownership of the contract to a new account (`newOwner`). Can only be called by the current owner."
      },
      "uri(uint256)": {
        "params": {
          "_id": "Token id"
        },
        "returns": {
          "_0": "string Token uri"
        }
      }
    },
    "version": 1
  },
  "userdoc": {
    "events": {
      "InitializedContract(string,string,uint256,uint256,string,address,uint96,address)": {
        "notice": "Emmited on initialize()"
      }
    },
    "kind": "user",
    "methods": {
      "burn(uint256,uint256)": {
        "notice": "Function to burn token"
      },
      "burnBatch(uint256[],uint256[])": {
        "notice": "Function to burn batch token"
      },
      "initialize(string,string,uint256,uint256,string,address,uint96,address)": {
        "notice": "Contract initialization"
      },
      "mint(address,uint256,uint256)": {
        "notice": "Function to mint new tokens"
      },
      "mintBatch(address,uint256[],uint256[])": {
        "notice": "Function to mint batch tokens"
      },
      "name()": {
        "notice": "Contract name"
      },
      "setRoyaltyInfo(address,uint96)": {
        "notice": "Function for changing royalty information"
      },
      "setTokenRoyaltyInfo(uint256,address,uint96)": {
        "notice": "Function for changing token royalty information"
      },
      "setURI(uint256,string)": {
        "notice": "Function to set token uri"
      },
      "supportsInterface(bytes4)": {
        "notice": "Returns true if this contract implements the interface defined by `interfaceId`"
      },
      "symbol()": {
        "notice": "Contract symbol"
      },
      "tokenURI(uint256)": {
        "notice": "Mapping of uint (tokenId) to tokenURI"
      },
      "uri(uint256)": {
        "notice": "Function to get token uri"
      }
    },
    "version": 1
  },
  "storageLayout": {
    "storage": [
      {
        "astId": 203,
        "contract": "contracts/ERC1155.sol:ERC1155",
        "label": "_initialized",
        "offset": 0,
        "slot": "0",
        "type": "t_uint8"
      },
      {
        "astId": 206,
        "contract": "contracts/ERC1155.sol:ERC1155",
        "label": "_initializing",
        "offset": 1,
        "slot": "0",
        "type": "t_bool"
      },
      {
        "astId": 2565,
        "contract": "contracts/ERC1155.sol:ERC1155",
        "label": "__gap",
        "offset": 0,
        "slot": "1",
        "type": "t_array(t_uint256)50_storage"
      },
      {
        "astId": 2784,
        "contract": "contracts/ERC1155.sol:ERC1155",
        "label": "__gap",
        "offset": 0,
        "slot": "51",
        "type": "t_array(t_uint256)50_storage"
      },
      {
        "astId": 467,
        "contract": "contracts/ERC1155.sol:ERC1155",
        "label": "_balances",
        "offset": 0,
        "slot": "101",
        "type": "t_mapping(t_uint256,t_mapping(t_address,t_uint256))"
      },
      {
        "astId": 473,
        "contract": "contracts/ERC1155.sol:ERC1155",
        "label": "_operatorApprovals",
        "offset": 0,
        "slot": "102",
        "type": "t_mapping(t_address,t_mapping(t_address,t_bool))"
      },
      {
        "astId": 475,
        "contract": "contracts/ERC1155.sol:ERC1155",
        "label": "_uri",
        "offset": 0,
        "slot": "103",
        "type": "t_string_storage"
      },
      {
        "astId": 1682,
        "contract": "contracts/ERC1155.sol:ERC1155",
        "label": "__gap",
        "offset": 0,
        "slot": "104",
        "type": "t_array(t_uint256)47_storage"
      },
      {
        "astId": 2054,
        "contract": "contracts/ERC1155.sol:ERC1155",
        "label": "_defaultRoyaltyInfo",
        "offset": 0,
        "slot": "151",
        "type": "t_struct(RoyaltyInfo)2051_storage"
      },
      {
        "astId": 2059,
        "contract": "contracts/ERC1155.sol:ERC1155",
        "label": "_tokenRoyaltyInfo",
        "offset": 0,
        "slot": "152",
        "type": "t_mapping(t_uint256,t_struct(RoyaltyInfo)2051_storage)"
      },
      {
        "astId": 2239,
        "contract": "contracts/ERC1155.sol:ERC1155",
        "label": "__gap",
        "offset": 0,
        "slot": "153",
        "type": "t_array(t_uint256)48_storage"
      },
      {
        "astId": 56,
        "contract": "contracts/ERC1155.sol:ERC1155",
        "label": "_owner",
        "offset": 0,
        "slot": "201",
        "type": "t_address"
      },
      {
        "astId": 176,
        "contract": "contracts/ERC1155.sol:ERC1155",
        "label": "__gap",
        "offset": 0,
        "slot": "202",
        "type": "t_array(t_uint256)49_storage"
      },
      {
        "astId": 4661,
        "contract": "contracts/ERC1155.sol:ERC1155",
        "label": "name",
        "offset": 0,
        "slot": "251",
        "type": "t_string_storage"
      },
      {
        "astId": 4664,
        "contract": "contracts/ERC1155.sol:ERC1155",
        "label": "symbol",
        "offset": 0,
        "slot": "252",
        "type": "t_string_storage"
      },
      {
        "astId": 4669,
        "contract": "contracts/ERC1155.sol:ERC1155",
        "label": "tokenURI",
        "offset": 0,
        "slot": "253",
        "type": "t_mapping(t_uint256,t_string_storage)"
      }
    ],
    "types": {
      "t_address": {
        "encoding": "inplace",
        "label": "address",
        "numberOfBytes": "20"
      },
      "t_array(t_uint256)47_storage": {
        "base": "t_uint256",
        "encoding": "inplace",
        "label": "uint256[47]",
        "numberOfBytes": "1504"
      },
      "t_array(t_uint256)48_storage": {
        "base": "t_uint256",
        "encoding": "inplace",
        "label": "uint256[48]",
        "numberOfBytes": "1536"
      },
      "t_array(t_uint256)49_storage": {
        "base": "t_uint256",
        "encoding": "inplace",
        "label": "uint256[49]",
        "numberOfBytes": "1568"
      },
      "t_array(t_uint256)50_storage": {
        "base": "t_uint256",
        "encoding": "inplace",
        "label": "uint256[50]",
        "numberOfBytes": "1600"
      },
      "t_bool": {
        "encoding": "inplace",
        "label": "bool",
        "numberOfBytes": "1"
      },
      "t_mapping(t_address,t_bool)": {
        "encoding": "mapping",
        "key": "t_address",
        "label": "mapping(address => bool)",
        "numberOfBytes": "32",
        "value": "t_bool"
      },
      "t_mapping(t_address,t_mapping(t_address,t_bool))": {
        "encoding": "mapping",
        "key": "t_address",
        "label": "mapping(address => mapping(address => bool))",
        "numberOfBytes": "32",
        "value": "t_mapping(t_address,t_bool)"
      },
      "t_mapping(t_address,t_uint256)": {
        "encoding": "mapping",
        "key": "t_address",
        "label": "mapping(address => uint256)",
        "numberOfBytes": "32",
        "value": "t_uint256"
      },
      "t_mapping(t_uint256,t_mapping(t_address,t_uint256))": {
        "encoding": "mapping",
        "key": "t_uint256",
        "label": "mapping(uint256 => mapping(address => uint256))",
        "numberOfBytes": "32",
        "value": "t_mapping(t_address,t_uint256)"
      },
      "t_mapping(t_uint256,t_string_storage)": {
        "encoding": "mapping",
        "key": "t_uint256",
        "label": "mapping(uint256 => string)",
        "numberOfBytes": "32",
        "value": "t_string_storage"
      },
      "t_mapping(t_uint256,t_struct(RoyaltyInfo)2051_storage)": {
        "encoding": "mapping",
        "key": "t_uint256",
        "label": "mapping(uint256 => struct ERC2981Upgradeable.RoyaltyInfo)",
        "numberOfBytes": "32",
        "value": "t_struct(RoyaltyInfo)2051_storage"
      },
      "t_string_storage": {
        "encoding": "bytes",
        "label": "string",
        "numberOfBytes": "32"
      },
      "t_struct(RoyaltyInfo)2051_storage": {
        "encoding": "inplace",
        "label": "struct ERC2981Upgradeable.RoyaltyInfo",
        "members": [
          {
            "astId": 2048,
            "contract": "contracts/ERC1155.sol:ERC1155",
            "label": "receiver",
            "offset": 0,
            "slot": "0",
            "type": "t_address"
          },
          {
            "astId": 2050,
            "contract": "contracts/ERC1155.sol:ERC1155",
            "label": "royaltyFraction",
            "offset": 20,
            "slot": "0",
            "type": "t_uint96"
          }
        ],
        "numberOfBytes": "32"
      },
      "t_uint256": {
        "encoding": "inplace",
        "label": "uint256",
        "numberOfBytes": "32"
      },
      "t_uint8": {
        "encoding": "inplace",
        "label": "uint8",
        "numberOfBytes": "1"
      },
      "t_uint96": {
        "encoding": "inplace",
        "label": "uint96",
        "numberOfBytes": "12"
      }
    }
  }
}