{
  "address": "0xadb486B2A3ba160E374C0Ea4F1132313E7bb4474",
  "abi": [
    {
      "anonymous": false,
      "inputs": [
        {
          "indexed": true,
          "internalType": "address",
          "name": "account",
          "type": "address"
        },
        {
          "indexed": true,
          "internalType": "address",
          "name": "operator",
          "type": "address"
        },
        {
          "indexed": false,
          "internalType": "bool",
          "name": "approved",
          "type": "bool"
        }
      ],
      "name": "ApprovalForAll",
      "type": "event"
    },
    {
      "anonymous": false,
      "inputs": [
        {
          "indexed": false,
          "internalType": "uint8",
          "name": "version",
          "type": "uint8"
        }
      ],
      "name": "Initialized",
      "type": "event"
    },
    {
      "anonymous": false,
      "inputs": [
        {
          "indexed": true,
          "internalType": "string",
          "name": "_name",
          "type": "string"
        },
        {
          "indexed": true,
          "internalType": "string",
          "name": "_symbol",
          "type": "string"
        },
        {
          "indexed": false,
          "internalType": "uint256",
          "name": "_id",
          "type": "uint256"
        },
        {
          "indexed": false,
          "internalType": "uint256",
          "name": "_amount",
          "type": "uint256"
        },
        {
          "indexed": false,
          "internalType": "string",
          "name": "_uri",
          "type": "string"
        },
        {
          "indexed": false,
          "internalType": "address",
          "name": "_royaltyReceiver",
          "type": "address"
        },
        {
          "indexed": false,
          "internalType": "uint96",
          "name": "_feePercent",
          "type": "uint96"
        },
        {
          "indexed": true,
          "internalType": "address",
          "name": "_owner",
          "type": "address"
        }
      ],
      "name": "InitializedContract",
      "type": "event"
    },
    {
      "anonymous": false,
      "inputs": [
        {
          "indexed": true,
          "internalType": "address",
          "name": "previousOwner",
          "type": "address"
        },
        {
          "indexed": true,
          "internalType": "address",
          "name": "newOwner",
          "type": "address"
        }
      ],
      "name": "OwnershipTransferred",
      "type": "event"
    },
    {
      "anonymous": false,
      "inputs": [
        {
          "indexed": true,
          "internalType": "address",
          "name": "operator",
          "type": "address"
        },
        {
          "indexed": true,
          "internalType": "address",
          "name": "from",
          "type": "address"
        },
        {
          "indexed": true,
          "internalType": "address",
          "name": "to",
          "type": "address"
        },
        {
          "indexed": false,
          "internalType": "uint256[]",
          "name": "ids",
          "type": "uint256[]"
        },
        {
          "indexed": false,
          "internalType": "uint256[]",
          "name": "values",
          "type": "uint256[]"
        }
      ],
      "name": "TransferBatch",
      "type": "event"
    },
    {
      "anonymous": false,
      "inputs": [
        {
          "indexed": true,
          "internalType": "address",
          "name": "operator",
          "type": "address"
        },
        {
          "indexed": true,
          "internalType": "address",
          "name": "from",
          "type": "address"
        },
        {
          "indexed": true,
          "internalType": "address",
          "name": "to",
          "type": "address"
        },
        {
          "indexed": false,
          "internalType": "uint256",
          "name": "id",
          "type": "uint256"
        },
        {
          "indexed": false,
          "internalType": "uint256",
          "name": "value",
          "type": "uint256"
        }
      ],
      "name": "TransferSingle",
      "type": "event"
    },
    {
      "anonymous": false,
      "inputs": [
        {
          "indexed": false,
          "internalType": "string",
          "name": "value",
          "type": "string"
        },
        {
          "indexed": true,
          "internalType": "uint256",
          "name": "id",
          "type": "uint256"
        }
      ],
      "name": "URI",
      "type": "event"
    },
    {
      "inputs": [
        {
          "internalType": "address",
          "name": "account",
          "type": "address"
        },
        {
          "internalType": "uint256",
          "name": "id",
          "type": "uint256"
        }
      ],
      "name": "balanceOf",
      "outputs": [
        {
          "internalType": "uint256",
          "name": "",
          "type": "uint256"
        }
      ],
      "stateMutability": "view",
      "type": "function"
    },
    {
      "inputs": [
        {
          "internalType": "address[]",
          "name": "accounts",
          "type": "address[]"
        },
        {
          "internalType": "uint256[]",
          "name": "ids",
          "type": "uint256[]"
        }
      ],
      "name": "balanceOfBatch",
      "outputs": [
        {
          "internalType": "uint256[]",
          "name": "",
          "type": "uint256[]"
        }
      ],
      "stateMutability": "view",
      "type": "function"
    },
    {
      "inputs": [
        {
          "internalType": "uint256",
          "name": "_id",
          "type": "uint256"
        },
        {
          "internalType": "uint256",
          "name": "_amount",
          "type": "uint256"
        }
      ],
      "name": "burn",
      "outputs": [],
      "stateMutability": "nonpayable",
      "type": "function"
    },
    {
      "inputs": [
        {
          "internalType": "uint256[]",
          "name": "_ids",
          "type": "uint256[]"
        },
        {
          "internalType": "uint256[]",
          "name": "_amounts",
          "type": "uint256[]"
        }
      ],
      "name": "burnBatch",
      "outputs": [],
      "stateMutability": "nonpayable",
      "type": "function"
    },
    {
      "inputs": [
        {
          "internalType": "address",
          "name": "_from",
          "type": "address"
        },
        {
          "internalType": "uint256[]",
          "name": "_burnIds",
          "type": "uint256[]"
        },
        {
          "internalType": "uint256[]",
          "name": "_burnAmounts",
          "type": "uint256[]"
        },
        {
          "internalType": "uint256[]",
          "name": "_mintIds",
          "type": "uint256[]"
        },
        {
          "internalType": "uint256[]",
          "name": "_mintAmounts",
          "type": "uint256[]"
        }
      ],
      "name": "burnForMint",
      "outputs": [],
      "stateMutability": "nonpayable",
      "type": "function"
    },
    {
      "inputs": [
        {
          "internalType": "string",
          "name": "_name",
          "type": "string"
        },
        {
          "internalType": "string",
          "name": "_symbol",
          "type": "string"
        },
        {
          "internalType": "uint256",
          "name": "_id",
          "type": "uint256"
        },
        {
          "internalType": "uint256",
          "name": "_amount",
          "type": "uint256"
        },
        {
          "internalType": "string",
          "name": "_uri",
          "type": "string"
        },
        {
          "internalType": "address",
          "name": "_royaltyReceiver",
          "type": "address"
        },
        {
          "internalType": "uint96",
          "name": "_feePercent",
          "type": "uint96"
        },
        {
          "internalType": "address",
          "name": "_owner",
          "type": "address"
        }
      ],
      "name": "initialize",
      "outputs": [],
      "stateMutability": "nonpayable",
      "type": "function"
    },
    {
      "inputs": [
        {
          "internalType": "address",
          "name": "account",
          "type": "address"
        },
        {
          "internalType": "address",
          "name": "operator",
          "type": "address"
        }
      ],
      "name": "isApprovedForAll",
      "outputs": [
        {
          "internalType": "bool",
          "name": "",
          "type": "bool"
        }
      ],
      "stateMutability": "view",
      "type": "function"
    },
    {
      "inputs": [
        {
          "internalType": "address",
          "name": "_to",
          "type": "address"
        },
        {
          "internalType": "uint256",
          "name": "_id",
          "type": "uint256"
        },
        {
          "internalType": "uint256",
          "name": "_amount",
          "type": "uint256"
        }
      ],
      "name": "mint",
      "outputs": [],
      "stateMutability": "nonpayable",
      "type": "function"
    },
    {
      "inputs": [
        {
          "internalType": "address",
          "name": "_to",
          "type": "address"
        },
        {
          "internalType": "uint256[]",
          "name": "_ids",
          "type": "uint256[]"
        },
        {
          "internalType": "uint256[]",
          "name": "_amounts",
          "type": "uint256[]"
        }
      ],
      "name": "mintBatch",
      "outputs": [],
      "stateMutability": "nonpayable",
      "type": "function"
    },
    {
      "inputs": [],
      "name": "name",
      "outputs": [
        {
          "internalType": "string",
          "name": "",
          "type": "string"
        }
      ],
      "stateMutability": "view",
      "type": "function"
    },
    {
      "inputs": [],
      "name": "owner",
      "outputs": [
        {
          "internalType": "address",
          "name": "",
          "type": "address"
        }
      ],
      "stateMutability": "view",
      "type": "function"
    },
    {
      "inputs": [],
      "name": "renounceOwnership",
      "outputs": [],
      "stateMutability": "nonpayable",
      "type": "function"
    },
    {
      "inputs": [
        {
          "internalType": "uint256",
          "name": "_tokenId",
          "type": "uint256"
        },
        {
          "internalType": "uint256",
          "name": "_salePrice",
          "type": "uint256"
        }
      ],
      "name": "royaltyInfo",
      "outputs": [
        {
          "internalType": "address",
          "name": "",
          "type": "address"
        },
        {
          "internalType": "uint256",
          "name": "",
          "type": "uint256"
        }
      ],
      "stateMutability": "view",
      "type": "function"
    },
    {
      "inputs": [
        {
          "internalType": "address",
          "name": "from",
          "type": "address"
        },
        {
          "internalType": "address",
          "name": "to",
          "type": "address"
        },
        {
          "internalType": "uint256[]",
          "name": "ids",
          "type": "uint256[]"
        },
        {
          "internalType": "uint256[]",
          "name": "amounts",
          "type": "uint256[]"
        },
        {
          "internalType": "bytes",
          "name": "data",
          "type": "bytes"
        }
      ],
      "name": "safeBatchTransferFrom",
      "outputs": [],
      "stateMutability": "nonpayable",
      "type": "function"
    },
    {
      "inputs": [
        {
          "internalType": "address",
          "name": "from",
          "type": "address"
        },
        {
          "internalType": "address",
          "name": "to",
          "type": "address"
        },
        {
          "internalType": "uint256",
          "name": "id",
          "type": "uint256"
        },
        {
          "internalType": "uint256",
          "name": "amount",
          "type": "uint256"
        },
        {
          "internalType": "bytes",
          "name": "data",
          "type": "bytes"
        }
      ],
      "name": "safeTransferFrom",
      "outputs": [],
      "stateMutability": "nonpayable",
      "type": "function"
    },
    {
      "inputs": [
        {
          "internalType": "address",
          "name": "operator",
          "type": "address"
        },
        {
          "internalType": "bool",
          "name": "approved",
          "type": "bool"
        }
      ],
      "name": "setApprovalForAll",
      "outputs": [],
      "stateMutability": "nonpayable",
      "type": "function"
    },
    {
      "inputs": [
        {
          "internalType": "address",
          "name": "_royaltyReceiver",
          "type": "address"
        },
        {
          "internalType": "uint96",
          "name": "_feePercent",
          "type": "uint96"
        }
      ],
      "name": "setRoyaltyInfo",
      "outputs": [],
      "stateMutability": "nonpayable",
      "type": "function"
    },
    {
      "inputs": [
        {
          "internalType": "uint256",
          "name": "_tokenId",
          "type": "uint256"
        },
        {
          "internalType": "address",
          "name": "_royaltyReceiver",
          "type": "address"
        },
        {
          "internalType": "uint96",
          "name": "_feePercent",
          "type": "uint96"
        }
      ],
      "name": "setTokenRoyaltyInfo",
      "outputs": [],
      "stateMutability": "nonpayable",
      "type": "function"
    },
    {
      "inputs": [
        {
          "internalType": "uint256",
          "name": "_id",
          "type": "uint256"
        },
        {
          "internalType": "string",
          "name": "_uri",
          "type": "string"
        }
      ],
      "name": "setURI",
      "outputs": [],
      "stateMutability": "nonpayable",
      "type": "function"
    },
    {
      "inputs": [
        {
          "internalType": "bytes4",
          "name": "_interfaceId",
          "type": "bytes4"
        }
      ],
      "name": "supportsInterface",
      "outputs": [
        {
          "internalType": "bool",
          "name": "",
          "type": "bool"
        }
      ],
      "stateMutability": "view",
      "type": "function"
    },
    {
      "inputs": [],
      "name": "symbol",
      "outputs": [
        {
          "internalType": "string",
          "name": "",
          "type": "string"
        }
      ],
      "stateMutability": "view",
      "type": "function"
    },
    {
      "inputs": [
        {
          "internalType": "uint256",
          "name": "",
          "type": "uint256"
        }
      ],
      "name": "tokenURI",
      "outputs": [
        {
          "internalType": "string",
          "name": "",
          "type": "string"
        }
      ],
      "stateMutability": "view",
      "type": "function"
    },
    {
      "inputs": [
        {
          "internalType": "address",
          "name": "newOwner",
          "type": "address"
        }
      ],
      "name": "transferOwnership",
      "outputs": [],
      "stateMutability": "nonpayable",
      "type": "function"
    },
    {
      "inputs": [
        {
          "internalType": "uint256",
          "name": "_id",
          "type": "uint256"
        }
      ],
      "name": "uri",
      "outputs": [
        {
          "internalType": "string",
          "name": "",
          "type": "string"
        }
      ],
      "stateMutability": "view",
      "type": "function"
    }
  ],
  "transactionHash": "0x41660b0d38beca1884153b4b1d047694c24852a9a3357f2eac535beb9d52b5c8",
  "args": [],
  "numDeployments": 1,
  "solcInputHash": "654d9896e6e30e404eb53af916706dbd",
  "bytecode": "0x608060405234801561001057600080fd5b50614e78806100206000396000f3fe608060405234801561001057600080fd5b50600436106101575760003560e01c8063862440e2116100c3578063c87b56dd1161007c578063c87b56dd146103ad578063d81d0a15146103dd578063e985e9c5146103f9578063f242432a14610429578063f2fde38b14610445578063f98d53a71461046157610157565b8063862440e2146103015780638da5cb5b1461031d57806395d89b411461033b578063a22cb46514610359578063b390c0ab14610375578063b8f730031461039157610157565b80632a55205a116101155780632a55205a146102425780632eb2c2d6146102735780634e1273f41461028f578063510f4104146102bf578063715018a6146102db57806383ca4b6f146102e557610157565b8062fdd58e1461015c57806301ffc9a71461018c57806302fa7c47146101bc57806306fdde03146101d85780630e89341c146101f6578063156e29f614610226575b600080fd5b61017660048036038101906101719190613556565b61047d565b60405161018391906141d3565b60405180910390f35b6101a660048036038101906101a19190613719565b610547565b6040516101b39190613f1b565b60405180910390f35b6101d660048036038101906101d191906135e9565b610579565b005b6101e06105dd565b6040516101ed9190613f51565b60405180910390f35b610210600480360381019061020b919061387d565b61066b565b60405161021d9190613f51565b60405180910390f35b610240600480360381019061023b9190613596565b610710565b005b61025c60048036038101906102579190613959565b610738565b60405161026a929190613e99565b60405180910390f35b61028d6004803603810190610288919061323a565b610923565b005b6102a960048036038101906102a49190613629565b6109c4565b6040516102b69190613ec2565b60405180910390f35b6102d960048036038101906102d4919061342b565b610add565b005b6102e3610b12565b005b6102ff60048036038101906102fa91906136a1565b610b26565b005b61031b600480360381019061031691906138fd565b610b35565b005b610325610ba1565b6040516103329190613dbc565b60405180910390f35b610343610bcb565b6040516103509190613f51565b60405180910390f35b610373600480360381019061036e9190613516565b610c59565b005b61038f600480360381019061038a9190613959565b610c6f565b005b6103ab60048036038101906103a691906138aa565b610c7e565b005b6103c760048036038101906103c2919061387d565b610ce6565b6040516103d49190613f51565b60405180910390f35b6103f760048036038101906103f291906133a0565b610d86565b005b610413600480360381019061040e91906131fa565b610dae565b6040516104209190613f1b565b60405180910390f35b610443600480360381019061043e9190613309565b610e42565b005b61045f600480360381019061045a91906131cd565b610ee3565b005b61047b60048036038101906104769190613773565b610f67565b005b60008073ffffffffffffffffffffffffffffffffffffffff168373ffffffffffffffffffffffffffffffffffffffff1614156104ee576040517f08c379a00000000000000000000000000000000000000000000000000000000081526004016104e590613fd3565b60405180910390fd5b6065600083815260200190815260200160002060008473ffffffffffffffffffffffffffffffffffffffff1673ffffffffffffffffffffffffffffffffffffffff16815260200190815260200160002054905092915050565b6000610552826111b5565b80610562575061056182611297565b5b80610572575061057182611297565b5b9050919050565b610581611311565b61058b828261138f565b8173ffffffffffffffffffffffffffffffffffffffff167f649787d44a877bdd8d255fbfdaba9927f56be0ec7aae8fb86cd16841966479d2826040516105d1919061429a565b60405180910390a25050565b60fb80546105ea906145de565b80601f0160208091040260200160405190810160405280929190818152602001828054610616906145de565b80156106635780601f1061063857610100808354040283529160200191610663565b820191906000526020600020905b81548152906001019060200180831161064657829003601f168201915b505050505081565b606060fd6000838152602001908152602001600020805461068b906145de565b80601f01602080910402602001604051908101604052809291908181526020018280546106b7906145de565b80156107045780601f106106d957610100808354040283529160200191610704565b820191906000526020600020905b8154815290600101906020018083116106e757829003601f168201915b50505050509050919050565b610718611311565b61073383838360405180602001604052806000815250611525565b505050565b6000806000609860008681526020019081526020016000206040518060400160405290816000820160009054906101000a900473ffffffffffffffffffffffffffffffffffffffff1673ffffffffffffffffffffffffffffffffffffffff1673ffffffffffffffffffffffffffffffffffffffff1681526020016000820160149054906101000a90046bffffffffffffffffffffffff166bffffffffffffffffffffffff166bffffffffffffffffffffffff16815250509050600073ffffffffffffffffffffffffffffffffffffffff16816000015173ffffffffffffffffffffffffffffffffffffffff1614156108ce5760976040518060400160405290816000820160009054906101000a900473ffffffffffffffffffffffffffffffffffffffff1673ffffffffffffffffffffffffffffffffffffffff1673ffffffffffffffffffffffffffffffffffffffff1681526020016000820160149054906101000a90046bffffffffffffffffffffffff166bffffffffffffffffffffffff166bffffffffffffffffffffffff168152505090505b60006108d86116d7565b6bffffffffffffffffffffffff1682602001516bffffffffffffffffffffffff16866109049190614497565b61090e9190614466565b90508160000151819350935050509250929050565b61092b6116e1565b73ffffffffffffffffffffffffffffffffffffffff168573ffffffffffffffffffffffffffffffffffffffff16148061097157506109708561096b6116e1565b610dae565b5b6109b0576040517f08c379a00000000000000000000000000000000000000000000000000000000081526004016109a790613ff3565b60405180910390fd5b6109bd85858585856116e9565b5050505050565b60608151835114610a0a576040517f08c379a0000000000000000000000000000000000000000000000000000000008152600401610a0190614133565b60405180910390fd5b6000835167ffffffffffffffff811115610a2757610a26614746565b5b604051908082528060200260200182016040528015610a555781602001602082028036833780820191505090505b50905060005b8451811015610ad257610aa2858281518110610a7a57610a79614717565b5b6020026020010151858381518110610a9557610a94614717565b5b602002602001015161047d565b828281518110610ab557610ab4614717565b5b60200260200101818152505080610acb90614641565b9050610a5b565b508091505092915050565b610ae5611311565b610af0858585611a0e565b610b0b85838360405180602001604052806000815250611cdf565b5050505050565b610b1a611311565b610b246000611f0d565b565b610b31338383611a0e565b5050565b610b3d611311565b8060fd60008481526020019081526020016000209080519060200190610b64929190612e90565b50817f6bb7ff708619ba0610cba295a58592e0451dee2622938c8755667688daf3529b82604051610b959190613f51565b60405180910390a25050565b600060c960009054906101000a900473ffffffffffffffffffffffffffffffffffffffff16905090565b60fc8054610bd8906145de565b80601f0160208091040260200160405190810160405280929190818152602001828054610c04906145de565b8015610c515780601f10610c2657610100808354040283529160200191610c51565b820191906000526020600020905b815481529060010190602001808311610c3457829003601f168201915b505050505081565b610c6b610c646116e1565b8383611fd3565b5050565b610c7a338383612140565b5050565b610c86611311565b610c91838383612389565b8173ffffffffffffffffffffffffffffffffffffffff167f6b487ddd0efdbfd7606e8030e43550f55602ad00f641f939c333b8731daca8a28483604051610cd9929190614271565b60405180910390a2505050565b60fd6020528060005260406000206000915090508054610d05906145de565b80601f0160208091040260200160405190810160405280929190818152602001828054610d31906145de565b8015610d7e5780601f10610d5357610100808354040283529160200191610d7e565b820191906000526020600020905b815481529060010190602001808311610d6157829003601f168201915b505050505081565b610d8e611311565b610da983838360405180602001604052806000815250611cdf565b505050565b6000606660008473ffffffffffffffffffffffffffffffffffffffff1673ffffffffffffffffffffffffffffffffffffffff16815260200190815260200160002060008373ffffffffffffffffffffffffffffffffffffffff1673ffffffffffffffffffffffffffffffffffffffff16815260200190815260200160002060009054906101000a900460ff16905092915050565b610e4a6116e1565b73ffffffffffffffffffffffffffffffffffffffff168573ffffffffffffffffffffffffffffffffffffffff161480610e905750610e8f85610e8a6116e1565b610dae565b5b610ecf576040517f08c379a0000000000000000000000000000000000000000000000000000000008152600401610ec690613ff3565b60405180910390fd5b610edc8585858585612531565b5050505050565b610eeb611311565b600073ffffffffffffffffffffffffffffffffffffffff168173ffffffffffffffffffffffffffffffffffffffff161415610f5b576040517f08c379a0000000000000000000000000000000000000000000000000000000008152600401610f5290613f93565b60405180910390fd5b610f6481611f0d565b50565b60008060019054906101000a900460ff16159050808015610f985750600160008054906101000a900460ff1660ff16105b80610fc55750610fa7306127d0565b158015610fc45750600160008054906101000a900460ff1660ff16145b5b611004576040517f08c379a0000000000000000000000000000000000000000000000000000000008152600401610ffb90614033565b60405180910390fd5b60016000806101000a81548160ff021916908360ff1602179055508015611041576001600060016101000a81548160ff0219169083151502179055505b6110496127f3565b61105161284c565b6110696040518060200160405280600081525061289d565b8860fb908051906020019061107f929190612e90565b508760fc9080519060200190611096929190612e90565b506110b282888860405180602001604052806000815250611525565b6110bc8786610b35565b6110c68484610579565b6110cf82610ee3565b8173ffffffffffffffffffffffffffffffffffffffff16886040516110f49190613da5565b60405180910390208a60405161110a9190613da5565b60405180910390207fa1880405d5bb13de06518f8b8ab7d9887059d4e47ea9a6273131e989b014ae108a8a8a8a8a604051611149959493929190614217565b60405180910390a480156111aa5760008060016101000a81548160ff0219169083151502179055507f7f26b83ff96e1f2b6a682f133852f6798a09c465da95921460cefb384740249860016040516111a19190613f36565b60405180910390a15b505050505050505050565b60007fd9b67a26000000000000000000000000000000000000000000000000000000007bffffffffffffffffffffffffffffffffffffffffffffffffffffffff1916827bffffffffffffffffffffffffffffffffffffffffffffffffffffffff1916148061128057507f0e89341c000000000000000000000000000000000000000000000000000000007bffffffffffffffffffffffffffffffffffffffffffffffffffffffff1916827bffffffffffffffffffffffffffffffffffffffffffffffffffffffff1916145b80611290575061128f826128f8565b5b9050919050565b60007f2a55205a000000000000000000000000000000000000000000000000000000007bffffffffffffffffffffffffffffffffffffffffffffffffffffffff1916827bffffffffffffffffffffffffffffffffffffffffffffffffffffffff1916148061130a5750611309826111b5565b5b9050919050565b6113196116e1565b73ffffffffffffffffffffffffffffffffffffffff16611337610ba1565b73ffffffffffffffffffffffffffffffffffffffff161461138d576040517f08c379a000000000000000000000000000000000000000000000000000000000815260040161138490614093565b60405180910390fd5b565b6113976116d7565b6bffffffffffffffffffffffff16816bffffffffffffffffffffffff1611156113f5576040517f08c379a00000000000000000000000000000000000000000000000000000000081526004016113ec906140f3565b60405180910390fd5b600073ffffffffffffffffffffffffffffffffffffffff168273ffffffffffffffffffffffffffffffffffffffff161415611465576040517f08c379a000000000000000000000000000000000000000000000000000000000815260040161145c906141b3565b60405180910390fd5b60405180604001604052808373ffffffffffffffffffffffffffffffffffffffff168152602001826bffffffffffffffffffffffff16815250609760008201518160000160006101000a81548173ffffffffffffffffffffffffffffffffffffffff021916908373ffffffffffffffffffffffffffffffffffffffff16021790555060208201518160000160146101000a8154816bffffffffffffffffffffffff02191690836bffffffffffffffffffffffff1602179055509050505050565b600073ffffffffffffffffffffffffffffffffffffffff168473ffffffffffffffffffffffffffffffffffffffff161415611595576040517f08c379a000000000000000000000000000000000000000000000000000000000815260040161158c90614173565b60405180910390fd5b600061159f6116e1565b905060006115ac85612962565b905060006115b985612962565b90506115ca836000898585896129dc565b846065600088815260200190815260200160002060008973ffffffffffffffffffffffffffffffffffffffff1673ffffffffffffffffffffffffffffffffffffffff168152602001908152602001600020600082825461162a9190614410565b925050819055508673ffffffffffffffffffffffffffffffffffffffff16600073ffffffffffffffffffffffffffffffffffffffff168473ffffffffffffffffffffffffffffffffffffffff167fc3d58168c5ae7397731d063d5bbf3d657854427343f4c083240f7aacaa2d0f6289896040516116a89291906141ee565b60405180910390a46116bf836000898585896129e4565b6116ce836000898989896129ec565b50505050505050565b6000612710905090565b600033905090565b815183511461172d576040517f08c379a000000000000000000000000000000000000000000000000000000000815260040161172490614153565b60405180910390fd5b600073ffffffffffffffffffffffffffffffffffffffff168473ffffffffffffffffffffffffffffffffffffffff16141561179d576040517f08c379a000000000000000000000000000000000000000000000000000000000815260040161179490614013565b60405180910390fd5b60006117a76116e1565b90506117b78187878787876129dc565b60005b845181101561196b5760008582815181106117d8576117d7614717565b5b6020026020010151905060008583815181106117f7576117f6614717565b5b6020026020010151905060006065600084815260200190815260200160002060008b73ffffffffffffffffffffffffffffffffffffffff1673ffffffffffffffffffffffffffffffffffffffff16815260200190815260200160002054905081811015611899576040517f08c379a000000000000000000000000000000000000000000000000000000000815260040161189090614073565b60405180910390fd5b8181036065600085815260200190815260200160002060008c73ffffffffffffffffffffffffffffffffffffffff1673ffffffffffffffffffffffffffffffffffffffff16815260200190815260200160002081905550816065600085815260200190815260200160002060008b73ffffffffffffffffffffffffffffffffffffffff1673ffffffffffffffffffffffffffffffffffffffff16815260200190815260200160002060008282546119509190614410565b925050819055505050508061196490614641565b90506117ba565b508473ffffffffffffffffffffffffffffffffffffffff168673ffffffffffffffffffffffffffffffffffffffff168273ffffffffffffffffffffffffffffffffffffffff167f4a39dc06d4c0dbc64b70af90fd698a233a518aa5d07e595d983b8c0526c8f7fb87876040516119e2929190613ee4565b60405180910390a46119f88187878787876129e4565b611a06818787878787612bd3565b505050505050565b600073ffffffffffffffffffffffffffffffffffffffff168373ffffffffffffffffffffffffffffffffffffffff161415611a7e576040517f08c379a0000000000000000000000000000000000000000000000000000000008152600401611a7590614053565b60405180910390fd5b8051825114611ac2576040517f08c379a0000000000000000000000000000000000000000000000000000000008152600401611ab990614153565b60405180910390fd5b6000611acc6116e1565b9050611aec818560008686604051806020016040528060008152506129dc565b60005b8351811015611c3b576000848281518110611b0d57611b0c614717565b5b602002602001015190506000848381518110611b2c57611b2b614717565b5b6020026020010151905060006065600084815260200190815260200160002060008973ffffffffffffffffffffffffffffffffffffffff1673ffffffffffffffffffffffffffffffffffffffff16815260200190815260200160002054905081811015611bce576040517f08c379a0000000000000000000000000000000000000000000000000000000008152600401611bc590613fb3565b60405180910390fd5b8181036065600085815260200190815260200160002060008a73ffffffffffffffffffffffffffffffffffffffff1673ffffffffffffffffffffffffffffffffffffffff168152602001908152602001600020819055505050508080611c3390614641565b915050611aef565b50600073ffffffffffffffffffffffffffffffffffffffff168473ffffffffffffffffffffffffffffffffffffffff168273ffffffffffffffffffffffffffffffffffffffff167f4a39dc06d4c0dbc64b70af90fd698a233a518aa5d07e595d983b8c0526c8f7fb8686604051611cb3929190613ee4565b60405180910390a4611cd9818560008686604051806020016040528060008152506129e4565b50505050565b600073ffffffffffffffffffffffffffffffffffffffff168473ffffffffffffffffffffffffffffffffffffffff161415611d4f576040517f08c379a0000000000000000000000000000000000000000000000000000000008152600401611d4690614173565b60405180910390fd5b8151835114611d93576040517f08c379a0000000000000000000000000000000000000000000000000000000008152600401611d8a90614153565b60405180910390fd5b6000611d9d6116e1565b9050611dae816000878787876129dc565b60005b8451811015611e6857838181518110611dcd57611dcc614717565b5b602002602001015160656000878481518110611dec57611deb614717565b5b6020026020010151815260200190815260200160002060008873ffffffffffffffffffffffffffffffffffffffff1673ffffffffffffffffffffffffffffffffffffffff1681526020019081526020016000206000828254611e4e9190614410565b925050819055508080611e6090614641565b915050611db1565b508473ffffffffffffffffffffffffffffffffffffffff16600073ffffffffffffffffffffffffffffffffffffffff168273ffffffffffffffffffffffffffffffffffffffff167f4a39dc06d4c0dbc64b70af90fd698a233a518aa5d07e595d983b8c0526c8f7fb8787604051611ee0929190613ee4565b60405180910390a4611ef7816000878787876129e4565b611f0681600087878787612bd3565b5050505050565b600060c960009054906101000a900473ffffffffffffffffffffffffffffffffffffffff1690508160c960006101000a81548173ffffffffffffffffffffffffffffffffffffffff021916908373ffffffffffffffffffffffffffffffffffffffff1602179055508173ffffffffffffffffffffffffffffffffffffffff168173ffffffffffffffffffffffffffffffffffffffff167f8be0079c531659141344cd1fd0a4f28419497f9722a3daafe3b4186f6b6457e060405160405180910390a35050565b8173ffffffffffffffffffffffffffffffffffffffff168373ffffffffffffffffffffffffffffffffffffffff161415612042576040517f08c379a000000000000000000000000000000000000000000000000000000000815260040161203990614113565b60405180910390fd5b80606660008573ffffffffffffffffffffffffffffffffffffffff1673ffffffffffffffffffffffffffffffffffffffff16815260200190815260200160002060008473ffffffffffffffffffffffffffffffffffffffff1673ffffffffffffffffffffffffffffffffffffffff16815260200190815260200160002060006101000a81548160ff0219169083151502179055508173ffffffffffffffffffffffffffffffffffffffff168373ffffffffffffffffffffffffffffffffffffffff167f17307eab39ab6107e8899845ad3d59bd9653f200f220920489ca2b5937696c31836040516121339190613f1b565b60405180910390a3505050565b600073ffffffffffffffffffffffffffffffffffffffff168373ffffffffffffffffffffffffffffffffffffffff1614156121b0576040517f08c379a00000000000000000000000000000000000000000000000000000000081526004016121a790614053565b60405180910390fd5b60006121ba6116e1565b905060006121c784612962565b905060006121d484612962565b90506121f4838760008585604051806020016040528060008152506129dc565b60006065600087815260200190815260200160002060008873ffffffffffffffffffffffffffffffffffffffff1673ffffffffffffffffffffffffffffffffffffffff1681526020019081526020016000205490508481101561228c576040517f08c379a000000000000000000000000000000000000000000000000000000000815260040161228390613fb3565b60405180910390fd5b8481036065600088815260200190815260200160002060008973ffffffffffffffffffffffffffffffffffffffff1673ffffffffffffffffffffffffffffffffffffffff16815260200190815260200160002081905550600073ffffffffffffffffffffffffffffffffffffffff168773ffffffffffffffffffffffffffffffffffffffff168573ffffffffffffffffffffffffffffffffffffffff167fc3d58168c5ae7397731d063d5bbf3d657854427343f4c083240f7aacaa2d0f62898960405161235a9291906141ee565b60405180910390a4612380848860008686604051806020016040528060008152506129e4565b50505050505050565b6123916116d7565b6bffffffffffffffffffffffff16816bffffffffffffffffffffffff1611156123ef576040517f08c379a00000000000000000000000000000000000000000000000000000000081526004016123e6906140f3565b60405180910390fd5b600073ffffffffffffffffffffffffffffffffffffffff168273ffffffffffffffffffffffffffffffffffffffff16141561245f576040517f08c379a0000000000000000000000000000000000000000000000000000000008152600401612456906140b3565b60405180910390fd5b60405180604001604052808373ffffffffffffffffffffffffffffffffffffffff168152602001826bffffffffffffffffffffffff168152506098600085815260200190815260200160002060008201518160000160006101000a81548173ffffffffffffffffffffffffffffffffffffffff021916908373ffffffffffffffffffffffffffffffffffffffff16021790555060208201518160000160146101000a8154816bffffffffffffffffffffffff02191690836bffffffffffffffffffffffff160217905550905050505050565b600073ffffffffffffffffffffffffffffffffffffffff168473ffffffffffffffffffffffffffffffffffffffff1614156125a1576040517f08c379a000000000000000000000000000000000000000000000000000000000815260040161259890614013565b60405180910390fd5b60006125ab6116e1565b905060006125b885612962565b905060006125c585612962565b90506125d58389898585896129dc565b60006065600088815260200190815260200160002060008a73ffffffffffffffffffffffffffffffffffffffff1673ffffffffffffffffffffffffffffffffffffffff1681526020019081526020016000205490508581101561266d576040517f08c379a000000000000000000000000000000000000000000000000000000000815260040161266490614073565b60405180910390fd5b8581036065600089815260200190815260200160002060008b73ffffffffffffffffffffffffffffffffffffffff1673ffffffffffffffffffffffffffffffffffffffff16815260200190815260200160002081905550856065600089815260200190815260200160002060008a73ffffffffffffffffffffffffffffffffffffffff1673ffffffffffffffffffffffffffffffffffffffff16815260200190815260200160002060008282546127249190614410565b925050819055508773ffffffffffffffffffffffffffffffffffffffff168973ffffffffffffffffffffffffffffffffffffffff168573ffffffffffffffffffffffffffffffffffffffff167fc3d58168c5ae7397731d063d5bbf3d657854427343f4c083240f7aacaa2d0f628a8a6040516127a19291906141ee565b60405180910390a46127b7848a8a86868a6129e4565b6127c5848a8a8a8a8a6129ec565b505050505050505050565b6000808273ffffffffffffffffffffffffffffffffffffffff163b119050919050565b600060019054906101000a900460ff16612842576040517f08c379a0000000000000000000000000000000000000000000000000000000008152600401612839906140d3565b60405180910390fd5b61284a612dba565b565b600060019054906101000a900460ff1661289b576040517f08c379a0000000000000000000000000000000000000000000000000000000008152600401612892906140d3565b60405180910390fd5b565b600060019054906101000a900460ff166128ec576040517f08c379a00000000000000000000000000000000000000000000000000000000081526004016128e3906140d3565b60405180910390fd5b6128f581612e1b565b50565b60007f01ffc9a7000000000000000000000000000000000000000000000000000000007bffffffffffffffffffffffffffffffffffffffffffffffffffffffff1916827bffffffffffffffffffffffffffffffffffffffffffffffffffffffff1916149050919050565b60606000600167ffffffffffffffff81111561298157612980614746565b5b6040519080825280602002602001820160405280156129af5781602001602082028036833780820191505090505b50905082816000815181106129c7576129c6614717565b5b60200260200101818152505080915050919050565b505050505050565b505050505050565b612a0b8473ffffffffffffffffffffffffffffffffffffffff166127d0565b15612bcb578373ffffffffffffffffffffffffffffffffffffffff1663f23a6e6187878686866040518663ffffffff1660e01b8152600401612a51959493929190613e3f565b602060405180830381600087803b158015612a6b57600080fd5b505af1925050508015612a9c57506040513d601f19601f82011682018060405250810190612a999190613746565b60015b612b4257612aa8614775565b806308c379a01415612b055750612abd614d39565b80612ac85750612b07565b806040517f08c379a0000000000000000000000000000000000000000000000000000000008152600401612afc9190613f51565b60405180910390fd5b505b6040517f08c379a0000000000000000000000000000000000000000000000000000000008152600401612b3990614193565b60405180910390fd5b63f23a6e6160e01b7bffffffffffffffffffffffffffffffffffffffffffffffffffffffff1916817bffffffffffffffffffffffffffffffffffffffffffffffffffffffff191614612bc9576040517f08c379a0000000000000000000000000000000000000000000000000000000008152600401612bc090613f73565b60405180910390fd5b505b505050505050565b612bf28473ffffffffffffffffffffffffffffffffffffffff166127d0565b15612db2578373ffffffffffffffffffffffffffffffffffffffff1663bc197c8187878686866040518663ffffffff1660e01b8152600401612c38959493929190613dd7565b602060405180830381600087803b158015612c5257600080fd5b505af1925050508015612c8357506040513d601f19601f82011682018060405250810190612c809190613746565b60015b612d2957612c8f614775565b806308c379a01415612cec5750612ca4614d39565b80612caf5750612cee565b806040517f08c379a0000000000000000000000000000000000000000000000000000000008152600401612ce39190613f51565b60405180910390fd5b505b6040517f08c379a0000000000000000000000000000000000000000000000000000000008152600401612d2090614193565b60405180910390fd5b63bc197c8160e01b7bffffffffffffffffffffffffffffffffffffffffffffffffffffffff1916817bffffffffffffffffffffffffffffffffffffffffffffffffffffffff191614612db0576040517f08c379a0000000000000000000000000000000000000000000000000000000008152600401612da790613f73565b60405180910390fd5b505b505050505050565b600060019054906101000a900460ff16612e09576040517f08c379a0000000000000000000000000000000000000000000000000000000008152600401612e00906140d3565b60405180910390fd5b612e19612e146116e1565b611f0d565b565b600060019054906101000a900460ff16612e6a576040517f08c379a0000000000000000000000000000000000000000000000000000000008152600401612e61906140d3565b60405180910390fd5b612e7381612e76565b50565b8060679080519060200190612e8c929190612e90565b5050565b828054612e9c906145de565b90600052602060002090601f016020900481019282612ebe5760008555612f05565b82601f10612ed757805160ff1916838001178555612f05565b82800160010185558215612f05579182015b82811115612f04578251825591602001919060010190612ee9565b5b509050612f129190612f16565b5090565b5b80821115612f2f576000816000905550600101612f17565b5090565b6000612f46612f41846142da565b6142b5565b90508083825260208201905082856020860282011115612f6957612f6861479c565b5b60005b85811015612f995781612f7f8882613097565b845260208401935060208301925050600181019050612f6c565b5050509392505050565b6000612fb6612fb184614306565b6142b5565b90508083825260208201905082856020860282011115612fd957612fd861479c565b5b60005b858110156130095781612fef88826131a3565b845260208401935060208301925050600181019050612fdc565b5050509392505050565b600061302661302184614332565b6142b5565b905082815260208101848484011115613042576130416147a1565b5b61304d84828561459c565b509392505050565b600061306861306384614363565b6142b5565b905082815260208101848484011115613084576130836147a1565b5b61308f84828561459c565b509392505050565b6000813590506130a681614dcf565b92915050565b600082601f8301126130c1576130c0614797565b5b81356130d1848260208601612f33565b91505092915050565b600082601f8301126130ef576130ee614797565b5b81356130ff848260208601612fa3565b91505092915050565b60008135905061311781614de6565b92915050565b60008135905061312c81614dfd565b92915050565b60008151905061314181614dfd565b92915050565b600082601f83011261315c5761315b614797565b5b813561316c848260208601613013565b91505092915050565b600082601f83011261318a57613189614797565b5b813561319a848260208601613055565b91505092915050565b6000813590506131b281614e14565b92915050565b6000813590506131c781614e2b565b92915050565b6000602082840312156131e3576131e26147ab565b5b60006131f184828501613097565b91505092915050565b60008060408385031215613211576132106147ab565b5b600061321f85828601613097565b925050602061323085828601613097565b9150509250929050565b600080600080600060a08688031215613256576132556147ab565b5b600061326488828901613097565b955050602061327588828901613097565b945050604086013567ffffffffffffffff811115613296576132956147a6565b5b6132a2888289016130da565b935050606086013567ffffffffffffffff8111156132c3576132c26147a6565b5b6132cf888289016130da565b925050608086013567ffffffffffffffff8111156132f0576132ef6147a6565b5b6132fc88828901613147565b9150509295509295909350565b600080600080600060a08688031215613325576133246147ab565b5b600061333388828901613097565b955050602061334488828901613097565b9450506040613355888289016131a3565b9350506060613366888289016131a3565b925050608086013567ffffffffffffffff811115613387576133866147a6565b5b61339388828901613147565b9150509295509295909350565b6000806000606084860312156133b9576133b86147ab565b5b60006133c786828701613097565b935050602084013567ffffffffffffffff8111156133e8576133e76147a6565b5b6133f4868287016130da565b925050604084013567ffffffffffffffff811115613415576134146147a6565b5b613421868287016130da565b9150509250925092565b600080600080600060a08688031215613447576134466147ab565b5b600061345588828901613097565b955050602086013567ffffffffffffffff811115613476576134756147a6565b5b613482888289016130da565b945050604086013567ffffffffffffffff8111156134a3576134a26147a6565b5b6134af888289016130da565b935050606086013567ffffffffffffffff8111156134d0576134cf6147a6565b5b6134dc888289016130da565b925050608086013567ffffffffffffffff8111156134fd576134fc6147a6565b5b613509888289016130da565b9150509295509295909350565b6000806040838503121561352d5761352c6147ab565b5b600061353b85828601613097565b925050602061354c85828601613108565b9150509250929050565b6000806040838503121561356d5761356c6147ab565b5b600061357b85828601613097565b925050602061358c858286016131a3565b9150509250929050565b6000806000606084860312156135af576135ae6147ab565b5b60006135bd86828701613097565b93505060206135ce868287016131a3565b92505060406135df868287016131a3565b9150509250925092565b60008060408385031215613600576135ff6147ab565b5b600061360e85828601613097565b925050602061361f858286016131b8565b9150509250929050565b600080604083850312156136405761363f6147ab565b5b600083013567ffffffffffffffff81111561365e5761365d6147a6565b5b61366a858286016130ac565b925050602083013567ffffffffffffffff81111561368b5761368a6147a6565b5b613697858286016130da565b9150509250929050565b600080604083850312156136b8576136b76147ab565b5b600083013567ffffffffffffffff8111156136d6576136d56147a6565b5b6136e2858286016130da565b925050602083013567ffffffffffffffff811115613703576137026147a6565b5b61370f858286016130da565b9150509250929050565b60006020828403121561372f5761372e6147ab565b5b600061373d8482850161311d565b91505092915050565b60006020828403121561375c5761375b6147ab565b5b600061376a84828501613132565b91505092915050565b600080600080600080600080610100898b031215613794576137936147ab565b5b600089013567ffffffffffffffff8111156137b2576137b16147a6565b5b6137be8b828c01613175565b985050602089013567ffffffffffffffff8111156137df576137de6147a6565b5b6137eb8b828c01613175565b97505060406137fc8b828c016131a3565b965050606061380d8b828c016131a3565b955050608089013567ffffffffffffffff81111561382e5761382d6147a6565b5b61383a8b828c01613175565b94505060a061384b8b828c01613097565b93505060c061385c8b828c016131b8565b92505060e061386d8b828c01613097565b9150509295985092959890939650565b600060208284031215613893576138926147ab565b5b60006138a1848285016131a3565b91505092915050565b6000806000606084860312156138c3576138c26147ab565b5b60006138d1868287016131a3565b93505060206138e286828701613097565b92505060406138f3868287016131b8565b9150509250925092565b60008060408385031215613914576139136147ab565b5b6000613922858286016131a3565b925050602083013567ffffffffffffffff811115613943576139426147a6565b5b61394f85828601613175565b9150509250929050565b600080604083850312156139705761396f6147ab565b5b600061397e858286016131a3565b925050602061398f858286016131a3565b9150509250929050565b60006139a58383613d78565b60208301905092915050565b6139ba816144f1565b82525050565b60006139cb826143a4565b6139d581856143d2565b93506139e083614394565b8060005b83811015613a115781516139f88882613999565b9750613a03836143c5565b9250506001810190506139e4565b5085935050505092915050565b613a2781614503565b82525050565b6000613a38826143af565b613a4281856143e3565b9350613a528185602086016145ab565b613a5b816147b0565b840191505092915050565b613a6f8161458a565b82525050565b6000613a80826143ba565b613a8a81856143f4565b9350613a9a8185602086016145ab565b613aa3816147b0565b840191505092915050565b6000613ab9826143ba565b613ac38185614405565b9350613ad38185602086016145ab565b80840191505092915050565b6000613aec6028836143f4565b9150613af7826147ce565b604082019050919050565b6000613b0f6026836143f4565b9150613b1a8261481d565b604082019050919050565b6000613b326024836143f4565b9150613b3d8261486c565b604082019050919050565b6000613b55602a836143f4565b9150613b60826148bb565b604082019050919050565b6000613b78602e836143f4565b9150613b838261490a565b604082019050919050565b6000613b9b6025836143f4565b9150613ba682614959565b604082019050919050565b6000613bbe602e836143f4565b9150613bc9826149a8565b604082019050919050565b6000613be16023836143f4565b9150613bec826149f7565b604082019050919050565b6000613c04602a836143f4565b9150613c0f82614a46565b604082019050919050565b6000613c276020836143f4565b9150613c3282614a95565b602082019050919050565b6000613c4a601b836143f4565b9150613c5582614abe565b602082019050919050565b6000613c6d602b836143f4565b9150613c7882614ae7565b604082019050919050565b6000613c90602a836143f4565b9150613c9b82614b36565b604082019050919050565b6000613cb36029836143f4565b9150613cbe82614b85565b604082019050919050565b6000613cd66029836143f4565b9150613ce182614bd4565b604082019050919050565b6000613cf96028836143f4565b9150613d0482614c23565b604082019050919050565b6000613d1c6021836143f4565b9150613d2782614c72565b604082019050919050565b6000613d3f6034836143f4565b9150613d4a82614cc1565b604082019050919050565b6000613d626019836143f4565b9150613d6d82614d10565b602082019050919050565b613d818161455b565b82525050565b613d908161455b565b82525050565b613d9f81614572565b82525050565b6000613db18284613aae565b915081905092915050565b6000602082019050613dd160008301846139b1565b92915050565b600060a082019050613dec60008301886139b1565b613df960208301876139b1565b8181036040830152613e0b81866139c0565b90508181036060830152613e1f81856139c0565b90508181036080830152613e338184613a2d565b90509695505050505050565b600060a082019050613e5460008301886139b1565b613e6160208301876139b1565b613e6e6040830186613d87565b613e7b6060830185613d87565b8181036080830152613e8d8184613a2d565b90509695505050505050565b6000604082019050613eae60008301856139b1565b613ebb6020830184613d87565b9392505050565b60006020820190508181036000830152613edc81846139c0565b905092915050565b60006040820190508181036000830152613efe81856139c0565b90508181036020830152613f1281846139c0565b90509392505050565b6000602082019050613f306000830184613a1e565b92915050565b6000602082019050613f4b6000830184613a66565b92915050565b60006020820190508181036000830152613f6b8184613a75565b905092915050565b60006020820190508181036000830152613f8c81613adf565b9050919050565b60006020820190508181036000830152613fac81613b02565b9050919050565b60006020820190508181036000830152613fcc81613b25565b9050919050565b60006020820190508181036000830152613fec81613b48565b9050919050565b6000602082019050818103600083015261400c81613b6b565b9050919050565b6000602082019050818103600083015261402c81613b8e565b9050919050565b6000602082019050818103600083015261404c81613bb1565b9050919050565b6000602082019050818103600083015261406c81613bd4565b9050919050565b6000602082019050818103600083015261408c81613bf7565b9050919050565b600060208201905081810360008301526140ac81613c1a565b9050919050565b600060208201905081810360008301526140cc81613c3d565b9050919050565b600060208201905081810360008301526140ec81613c60565b9050919050565b6000602082019050818103600083015261410c81613c83565b9050919050565b6000602082019050818103600083015261412c81613ca6565b9050919050565b6000602082019050818103600083015261414c81613cc9565b9050919050565b6000602082019050818103600083015261416c81613cec565b9050919050565b6000602082019050818103600083015261418c81613d0f565b9050919050565b600060208201905081810360008301526141ac81613d32565b9050919050565b600060208201905081810360008301526141cc81613d55565b9050919050565b60006020820190506141e86000830184613d87565b92915050565b60006040820190506142036000830185613d87565b6142106020830184613d87565b9392505050565b600060a08201905061422c6000830188613d87565b6142396020830187613d87565b818103604083015261424b8186613a75565b905061425a60608301856139b1565b6142676080830184613d96565b9695505050505050565b60006040820190506142866000830185613d87565b6142936020830184613d96565b9392505050565b60006020820190506142af6000830184613d96565b92915050565b60006142bf6142d0565b90506142cb8282614610565b919050565b6000604051905090565b600067ffffffffffffffff8211156142f5576142f4614746565b5b602082029050602081019050919050565b600067ffffffffffffffff82111561432157614320614746565b5b602082029050602081019050919050565b600067ffffffffffffffff82111561434d5761434c614746565b5b614356826147b0565b9050602081019050919050565b600067ffffffffffffffff82111561437e5761437d614746565b5b614387826147b0565b9050602081019050919050565b6000819050602082019050919050565b600081519050919050565b600081519050919050565b600081519050919050565b6000602082019050919050565b600082825260208201905092915050565b600082825260208201905092915050565b600082825260208201905092915050565b600081905092915050565b600061441b8261455b565b91506144268361455b565b9250827fffffffffffffffffffffffffffffffffffffffffffffffffffffffffffffffff0382111561445b5761445a61468a565b5b828201905092915050565b60006144718261455b565b915061447c8361455b565b92508261448c5761448b6146b9565b5b828204905092915050565b60006144a28261455b565b91506144ad8361455b565b9250817fffffffffffffffffffffffffffffffffffffffffffffffffffffffffffffffff04831182151516156144e6576144e561468a565b5b828202905092915050565b60006144fc8261453b565b9050919050565b60008115159050919050565b60007fffffffff0000000000000000000000000000000000000000000000000000000082169050919050565b600073ffffffffffffffffffffffffffffffffffffffff82169050919050565b6000819050919050565b600060ff82169050919050565b60006bffffffffffffffffffffffff82169050919050565b600061459582614565565b9050919050565b82818337600083830152505050565b60005b838110156145c95780820151818401526020810190506145ae565b838111156145d8576000848401525b50505050565b600060028204905060018216806145f657607f821691505b6020821081141561460a576146096146e8565b5b50919050565b614619826147b0565b810181811067ffffffffffffffff8211171561463857614637614746565b5b80604052505050565b600061464c8261455b565b91507fffffffffffffffffffffffffffffffffffffffffffffffffffffffffffffffff82141561467f5761467e61468a565b5b600182019050919050565b7f4e487b7100000000000000000000000000000000000000000000000000000000600052601160045260246000fd5b7f4e487b7100000000000000000000000000000000000000000000000000000000600052601260045260246000fd5b7f4e487b7100000000000000000000000000000000000000000000000000000000600052602260045260246000fd5b7f4e487b7100000000000000000000000000000000000000000000000000000000600052603260045260246000fd5b7f4e487b7100000000000000000000000000000000000000000000000000000000600052604160045260246000fd5b600060033d11156147945760046000803e6147916000516147c1565b90505b90565b600080fd5b600080fd5b600080fd5b600080fd5b600080fd5b6000601f19601f8301169050919050565b60008160e01c9050919050565b7f455243313135353a204552433131353552656365697665722072656a6563746560008201527f6420746f6b656e73000000000000000000000000000000000000000000000000602082015250565b7f4f776e61626c653a206e6577206f776e657220697320746865207a65726f206160008201527f6464726573730000000000000000000000000000000000000000000000000000602082015250565b7f455243313135353a206275726e20616d6f756e7420657863656564732062616c60008201527f616e636500000000000000000000000000000000000000000000000000000000602082015250565b7f455243313135353a2061646472657373207a65726f206973206e6f742061207660008201527f616c6964206f776e657200000000000000000000000000000000000000000000602082015250565b7f455243313135353a2063616c6c6572206973206e6f7420746f6b656e206f776e60008201527f6572206f7220617070726f766564000000000000000000000000000000000000602082015250565b7f455243313135353a207472616e7366657220746f20746865207a65726f20616460008201527f6472657373000000000000000000000000000000000000000000000000000000602082015250565b7f496e697469616c697a61626c653a20636f6e747261637420697320616c72656160008201527f647920696e697469616c697a6564000000000000000000000000000000000000602082015250565b7f455243313135353a206275726e2066726f6d20746865207a65726f206164647260008201527f6573730000000000000000000000000000000000000000000000000000000000602082015250565b7f455243313135353a20696e73756666696369656e742062616c616e636520666f60008201527f72207472616e7366657200000000000000000000000000000000000000000000602082015250565b7f4f776e61626c653a2063616c6c6572206973206e6f7420746865206f776e6572600082015250565b7f455243323938313a20496e76616c696420706172616d65746572730000000000600082015250565b7f496e697469616c697a61626c653a20636f6e7472616374206973206e6f74206960008201527f6e697469616c697a696e67000000000000000000000000000000000000000000602082015250565b7f455243323938313a20726f79616c7479206665652077696c6c2065786365656460008201527f2073616c65507269636500000000000000000000000000000000000000000000602082015250565b7f455243313135353a2073657474696e6720617070726f76616c2073746174757360008201527f20666f722073656c660000000000000000000000000000000000000000000000602082015250565b7f455243313135353a206163636f756e747320616e6420696473206c656e67746860008201527f206d69736d617463680000000000000000000000000000000000000000000000602082015250565b7f455243313135353a2069647320616e6420616d6f756e7473206c656e6774682060008201527f6d69736d61746368000000000000000000000000000000000000000000000000602082015250565b7f455243313135353a206d696e7420746f20746865207a65726f2061646472657360008201527f7300000000000000000000000000000000000000000000000000000000000000602082015250565b7f455243313135353a207472616e7366657220746f206e6f6e2d4552433131353560008201527f526563656976657220696d706c656d656e746572000000000000000000000000602082015250565b7f455243323938313a20696e76616c696420726563656976657200000000000000600082015250565b600060443d1015614d4957614dcc565b614d516142d0565b60043d036004823e80513d602482011167ffffffffffffffff82111715614d79575050614dcc565b808201805167ffffffffffffffff811115614d975750505050614dcc565b80602083010160043d038501811115614db4575050505050614dcc565b614dc382602001850186614610565b82955050505050505b90565b614dd8816144f1565b8114614de357600080fd5b50565b614def81614503565b8114614dfa57600080fd5b50565b614e068161450f565b8114614e1157600080fd5b50565b614e1d8161455b565b8114614e2857600080fd5b50565b614e3481614572565b8114614e3f57600080fd5b5056fea2646970667358221220ed044cc9cbbe078be279152a5b2219962960e8978fb9493359d465ed578720e264736f6c63430008070033",
  "devdoc": {
    "events": {
      "InitializedContract(string,string,uint256,uint256,string,address,uint96,address)": {
        "params": {
          "_amount": "Token supply",
          "_feePercent": "Royalty fee numerator; denominator is 10,000. So 500 represents 5%",
          "_id": "Token id",
          "_name": "Contract name",
          "_owner": "Contract owner",
          "_royaltyReceiver": "Royalty fee collector",
          "_symbol": "Contract symbol",
          "_uri": "Token uri"
        }
      }
    },
    "kind": "dev",
    "methods": {
      "balanceOf(address,uint256)": {
        "details": "See {IERC1155-balanceOf}. Requirements: - `account` cannot be the zero address."
      },
      "balanceOfBatch(address[],uint256[])": {
        "details": "See {IERC1155-balanceOfBatch}. Requirements: - `accounts` and `ids` must have the same length."
      },
      "burn(uint256,uint256)": {
        "params": {
          "_amount": "Token amount to be burned",
          "_id": "Token id to be burned"
        }
      },
      "burnBatch(uint256[],uint256[])": {
        "params": {
          "_amounts": "Token amounts to be burned",
          "_ids": "Token ids to be burned"
        }
      },
      "initialize(string,string,uint256,uint256,string,address,uint96,address)": {
        "params": {
          "_amount": "Token supply",
          "_feePercent": "Royalty fee numerator; denominator is 10,000. So 500 represents 5%",
          "_id": "Token id",
          "_name": "Contract name",
          "_owner": "Contract owner",
          "_royaltyReceiver": "Royalty fee collector",
          "_symbol": "Contract symbol",
          "_uri": "Token uri"
        }
      },
      "isApprovedForAll(address,address)": {
        "details": "See {IERC1155-isApprovedForAll}."
      },
      "mint(address,uint256,uint256)": {
        "details": "Can only be called by project owner",
        "params": {
          "_amount": "Mint token amount",
          "_id": "Mint token id",
          "_to": "Mint address destination"
        }
      },
      "mintBatch(address,uint256[],uint256[])": {
        "details": "Can only be called by project owner",
        "params": {
          "_amounts": "Mint token amounts",
          "_ids": "Mint token ids",
          "_to": "Mint address destination"
        }
      },
      "owner()": {
        "details": "Returns the address of the current owner."
      },
      "renounceOwnership()": {
        "details": "Leaves the contract without owner. It will not be possible to call `onlyOwner` functions anymore. Can only be called by the current owner. NOTE: Renouncing ownership will leave the contract without an owner, thereby removing any functionality that is only available to the owner."
      },
      "royaltyInfo(uint256,uint256)": {
        "details": "Returns how much royalty is owed and to whom, based on a sale price that may be denominated in any unit of exchange. The royalty amount is denominated and should be paid in that same unit of exchange."
      },
      "safeBatchTransferFrom(address,address,uint256[],uint256[],bytes)": {
        "details": "See {IERC1155-safeBatchTransferFrom}."
      },
      "safeTransferFrom(address,address,uint256,uint256,bytes)": {
        "details": "See {IERC1155-safeTransferFrom}."
      },
      "setApprovalForAll(address,bool)": {
        "details": "See {IERC1155-setApprovalForAll}."
      },
      "setRoyaltyInfo(address,uint96)": {
        "details": "Can only be called by project ownerOwner can prevent any sale by setting the address to any address that can't receive native network token",
        "params": {
          "_feePercent": "Royalty fee numerator; denominator is 10,000. So 500 represents 5%",
          "_royaltyReceiver": "Royalty fee collector"
        }
      },
      "setTokenRoyaltyInfo(uint256,address,uint96)": {
        "details": "Can only be called by project ownerOwner can prevent any sale by setting the address to any address that can't receive native network token",
        "params": {
          "_feePercent": "Royalty fee numerator; denominator is 10,000. So 500 represents 5%",
          "_royaltyReceiver": "Royalty fee collector",
          "_tokenId": "Token ID royalty to be set"
        }
      },
      "setURI(uint256,string)": {
        "details": "Can only be called by project owner",
        "params": {
          "_id": "Token id",
          "_uri": "Token uri"
        }
      },
      "supportsInterface(bytes4)": {
        "details": "Needs to be overridden cause two base contracts implement it",
        "params": {
          "_interfaceId": "InterfaceId to consider. Comes from type(InterfaceContract).interfaceId"
        },
        "returns": {
          "_0": "bool True if the considered interface is supported"
        }
      },
      "transferOwnership(address)": {
        "details": "Transfers ownership of the contract to a new account (`newOwner`). Can only be called by the current owner."
      },
      "uri(uint256)": {
        "params": {
          "_id": "Token id"
        },
        "returns": {
          "_0": "string Token uri"
        }
      }
    },
    "version": 1
  },
  "userdoc": {
    "events": {
      "InitializedContract(string,string,uint256,uint256,string,address,uint96,address)": {
        "notice": "Emmited on initialize()"
      }
    },
    "kind": "user",
    "methods": {
      "burn(uint256,uint256)": {
        "notice": "Function to burn token"
      },
      "burnBatch(uint256[],uint256[])": {
        "notice": "Function to burn batch token"
      },
      "initialize(string,string,uint256,uint256,string,address,uint96,address)": {
        "notice": "Contract initialization"
      },
      "mint(address,uint256,uint256)": {
        "notice": "Function to mint new tokens"
      },
      "mintBatch(address,uint256[],uint256[])": {
        "notice": "Function to mint batch tokens"
      },
      "name()": {
        "notice": "Contract name"
      },
      "setRoyaltyInfo(address,uint96)": {
        "notice": "Function for changing royalty information"
      },
      "setTokenRoyaltyInfo(uint256,address,uint96)": {
        "notice": "Function for changing token royalty information"
      },
      "setURI(uint256,string)": {
        "notice": "Function to set token uri"
      },
      "supportsInterface(bytes4)": {
        "notice": "Returns true if this contract implements the interface defined by `interfaceId`"
      },
      "symbol()": {
        "notice": "Contract symbol"
      },
      "tokenURI(uint256)": {
        "notice": "Mapping of uint (tokenId) to tokenURI"
      },
      "uri(uint256)": {
        "notice": "Function to get token uri"
      }
    },
    "version": 1
  },
  "storageLayout": {
    "storage": [
      {
        "astId": 203,
        "contract": "contracts/ERC1155/ERC1155_Basic.sol:ERC1155_Basic",
        "label": "_initialized",
        "offset": 0,
        "slot": "0",
        "type": "t_uint8"
      },
      {
        "astId": 206,
        "contract": "contracts/ERC1155/ERC1155_Basic.sol:ERC1155_Basic",
        "label": "_initializing",
        "offset": 1,
        "slot": "0",
        "type": "t_bool"
      },
      {
        "astId": 2565,
        "contract": "contracts/ERC1155/ERC1155_Basic.sol:ERC1155_Basic",
        "label": "__gap",
        "offset": 0,
        "slot": "1",
        "type": "t_array(t_uint256)50_storage"
      },
      {
        "astId": 3286,
        "contract": "contracts/ERC1155/ERC1155_Basic.sol:ERC1155_Basic",
        "label": "__gap",
        "offset": 0,
        "slot": "51",
        "type": "t_array(t_uint256)50_storage"
      },
      {
        "astId": 467,
        "contract": "contracts/ERC1155/ERC1155_Basic.sol:ERC1155_Basic",
        "label": "_balances",
        "offset": 0,
        "slot": "101",
        "type": "t_mapping(t_uint256,t_mapping(t_address,t_uint256))"
      },
      {
        "astId": 473,
        "contract": "contracts/ERC1155/ERC1155_Basic.sol:ERC1155_Basic",
        "label": "_operatorApprovals",
        "offset": 0,
        "slot": "102",
        "type": "t_mapping(t_address,t_mapping(t_address,t_bool))"
      },
      {
        "astId": 475,
        "contract": "contracts/ERC1155/ERC1155_Basic.sol:ERC1155_Basic",
        "label": "_uri",
        "offset": 0,
        "slot": "103",
        "type": "t_string_storage"
      },
      {
        "astId": 1682,
        "contract": "contracts/ERC1155/ERC1155_Basic.sol:ERC1155_Basic",
        "label": "__gap",
        "offset": 0,
        "slot": "104",
        "type": "t_array(t_uint256)47_storage"
      },
      {
        "astId": 2054,
        "contract": "contracts/ERC1155/ERC1155_Basic.sol:ERC1155_Basic",
        "label": "_defaultRoyaltyInfo",
        "offset": 0,
        "slot": "151",
        "type": "t_struct(RoyaltyInfo)2051_storage"
      },
      {
        "astId": 2059,
        "contract": "contracts/ERC1155/ERC1155_Basic.sol:ERC1155_Basic",
        "label": "_tokenRoyaltyInfo",
        "offset": 0,
        "slot": "152",
        "type": "t_mapping(t_uint256,t_struct(RoyaltyInfo)2051_storage)"
      },
      {
        "astId": 2239,
        "contract": "contracts/ERC1155/ERC1155_Basic.sol:ERC1155_Basic",
        "label": "__gap",
        "offset": 0,
        "slot": "153",
        "type": "t_array(t_uint256)48_storage"
      },
      {
        "astId": 56,
        "contract": "contracts/ERC1155/ERC1155_Basic.sol:ERC1155_Basic",
        "label": "_owner",
        "offset": 0,
        "slot": "201",
        "type": "t_address"
      },
      {
        "astId": 176,
        "contract": "contracts/ERC1155/ERC1155_Basic.sol:ERC1155_Basic",
        "label": "__gap",
        "offset": 0,
        "slot": "202",
        "type": "t_array(t_uint256)49_storage"
      },
      {
        "astId": 4435,
        "contract": "contracts/ERC1155/ERC1155_Basic.sol:ERC1155_Basic",
        "label": "name",
        "offset": 0,
        "slot": "251",
        "type": "t_string_storage"
      },
      {
        "astId": 4438,
        "contract": "contracts/ERC1155/ERC1155_Basic.sol:ERC1155_Basic",
        "label": "symbol",
        "offset": 0,
        "slot": "252",
        "type": "t_string_storage"
      },
      {
        "astId": 4443,
        "contract": "contracts/ERC1155/ERC1155_Basic.sol:ERC1155_Basic",
        "label": "tokenURI",
        "offset": 0,
        "slot": "253",
        "type": "t_mapping(t_uint256,t_string_storage)"
      }
    ],
    "types": {
      "t_address": {
        "encoding": "inplace",
        "label": "address",
        "numberOfBytes": "20"
      },
      "t_array(t_uint256)47_storage": {
        "base": "t_uint256",
        "encoding": "inplace",
        "label": "uint256[47]",
        "numberOfBytes": "1504"
      },
      "t_array(t_uint256)48_storage": {
        "base": "t_uint256",
        "encoding": "inplace",
        "label": "uint256[48]",
        "numberOfBytes": "1536"
      },
      "t_array(t_uint256)49_storage": {
        "base": "t_uint256",
        "encoding": "inplace",
        "label": "uint256[49]",
        "numberOfBytes": "1568"
      },
      "t_array(t_uint256)50_storage": {
        "base": "t_uint256",
        "encoding": "inplace",
        "label": "uint256[50]",
        "numberOfBytes": "1600"
      },
      "t_bool": {
        "encoding": "inplace",
        "label": "bool",
        "numberOfBytes": "1"
      },
      "t_mapping(t_address,t_bool)": {
        "encoding": "mapping",
        "key": "t_address",
        "label": "mapping(address => bool)",
        "numberOfBytes": "32",
        "value": "t_bool"
      },
      "t_mapping(t_address,t_mapping(t_address,t_bool))": {
        "encoding": "mapping",
        "key": "t_address",
        "label": "mapping(address => mapping(address => bool))",
        "numberOfBytes": "32",
        "value": "t_mapping(t_address,t_bool)"
      },
      "t_mapping(t_address,t_uint256)": {
        "encoding": "mapping",
        "key": "t_address",
        "label": "mapping(address => uint256)",
        "numberOfBytes": "32",
        "value": "t_uint256"
      },
      "t_mapping(t_uint256,t_mapping(t_address,t_uint256))": {
        "encoding": "mapping",
        "key": "t_uint256",
        "label": "mapping(uint256 => mapping(address => uint256))",
        "numberOfBytes": "32",
        "value": "t_mapping(t_address,t_uint256)"
      },
      "t_mapping(t_uint256,t_string_storage)": {
        "encoding": "mapping",
        "key": "t_uint256",
        "label": "mapping(uint256 => string)",
        "numberOfBytes": "32",
        "value": "t_string_storage"
      },
      "t_mapping(t_uint256,t_struct(RoyaltyInfo)2051_storage)": {
        "encoding": "mapping",
        "key": "t_uint256",
        "label": "mapping(uint256 => struct ERC2981Upgradeable.RoyaltyInfo)",
        "numberOfBytes": "32",
        "value": "t_struct(RoyaltyInfo)2051_storage"
      },
      "t_string_storage": {
        "encoding": "bytes",
        "label": "string",
        "numberOfBytes": "32"
      },
      "t_struct(RoyaltyInfo)2051_storage": {
        "encoding": "inplace",
        "label": "struct ERC2981Upgradeable.RoyaltyInfo",
        "members": [
          {
            "astId": 2048,
            "contract": "contracts/ERC1155/ERC1155_Basic.sol:ERC1155_Basic",
            "label": "receiver",
            "offset": 0,
            "slot": "0",
            "type": "t_address"
          },
          {
            "astId": 2050,
            "contract": "contracts/ERC1155/ERC1155_Basic.sol:ERC1155_Basic",
            "label": "royaltyFraction",
            "offset": 20,
            "slot": "0",
            "type": "t_uint96"
          }
        ],
        "numberOfBytes": "32"
      },
      "t_uint256": {
        "encoding": "inplace",
        "label": "uint256",
        "numberOfBytes": "32"
      },
      "t_uint8": {
        "encoding": "inplace",
        "label": "uint8",
        "numberOfBytes": "1"
      },
      "t_uint96": {
        "encoding": "inplace",
        "label": "uint96",
        "numberOfBytes": "12"
      }
    }
  }
}