{
  "address": "0x2F368D3818b71f872C73c4EFB288a66b60fc47C7",
  "abi": [
    {
      "inputs": [
        {
          "internalType": "address",
          "name": "_factory",
          "type": "address"
        }
      ],
      "stateMutability": "nonpayable",
      "type": "constructor"
    },
    {
      "inputs": [],
      "name": "CallerIsNotTheFactory",
      "type": "error"
    },
    {
      "anonymous": false,
      "inputs": [
        {
          "indexed": true,
          "internalType": "address",
          "name": "previousOwner",
          "type": "address"
        },
        {
          "indexed": true,
          "internalType": "address",
          "name": "newOwner",
          "type": "address"
        }
      ],
      "name": "OwnershipTransferred",
      "type": "event"
    },
    {
      "inputs": [
        {
          "internalType": "address",
          "name": "",
          "type": "address"
        },
        {
          "internalType": "uint256",
          "name": "",
          "type": "uint256"
        }
      ],
      "name": "createdContracts",
      "outputs": [
        {
          "internalType": "enum Enums.Standard",
          "name": "standard",
          "type": "uint8"
        },
        {
          "internalType": "enum Enums.Tier",
          "name": "tier",
          "type": "uint8"
        },
        {
          "internalType": "address",
          "name": "address_",
          "type": "address"
        }
      ],
      "stateMutability": "view",
      "type": "function"
    },
    {
      "inputs": [],
      "name": "factory",
      "outputs": [
        {
          "internalType": "address",
          "name": "",
          "type": "address"
        }
      ],
      "stateMutability": "view",
      "type": "function"
    },
    {
      "inputs": [
        {
          "internalType": "address",
          "name": "_address",
          "type": "address"
        }
      ],
      "name": "getCreatedContracts",
      "outputs": [
        {
          "components": [
            {
              "internalType": "enum Enums.Standard",
              "name": "standard",
              "type": "uint8"
            },
            {
              "internalType": "enum Enums.Tier",
              "name": "tier",
              "type": "uint8"
            },
            {
              "internalType": "address",
              "name": "address_",
              "type": "address"
            }
          ],
          "internalType": "struct WizardStorage.CreatedContract[]",
          "name": "",
          "type": "tuple[]"
        }
      ],
      "stateMutability": "view",
      "type": "function"
    },
    {
      "inputs": [],
      "name": "owner",
      "outputs": [
        {
          "internalType": "address",
          "name": "",
          "type": "address"
        }
      ],
      "stateMutability": "view",
      "type": "function"
    },
    {
      "inputs": [],
      "name": "renounceOwnership",
      "outputs": [],
      "stateMutability": "nonpayable",
      "type": "function"
    },
    {
      "inputs": [
        {
          "internalType": "address",
          "name": "_factory",
          "type": "address"
        }
      ],
      "name": "setFactoryAddress",
      "outputs": [],
      "stateMutability": "nonpayable",
      "type": "function"
    },
    {
      "inputs": [
        {
          "internalType": "address",
          "name": "_deployer",
          "type": "address"
        },
        {
          "internalType": "enum Enums.Standard",
          "name": "_standard",
          "type": "uint8"
        },
        {
          "internalType": "enum Enums.Tier",
          "name": "_tier",
          "type": "uint8"
        },
        {
          "internalType": "address",
          "name": "_address",
          "type": "address"
        }
      ],
      "name": "storeCreatedContract",
      "outputs": [],
      "stateMutability": "nonpayable",
      "type": "function"
    },
    {
      "inputs": [
        {
          "internalType": "address",
          "name": "newOwner",
          "type": "address"
        }
      ],
      "name": "transferOwnership",
      "outputs": [],
      "stateMutability": "nonpayable",
      "type": "function"
    }
  ],
  "transactionHash": "0x297e036be29af408de24e934520fcc69de24d77845b59f9c9409fbd792a2806d",
  "args": [
    "0xF4FFD7Df10bE5a2b08CCEABCa2470bAC85CB5797"
  ],
  "numDeployments": 2,
  "solcInputHash": "3ed29a805d4abb0798a90ac909d7bed5",
  "bytecode": "0x60806040523480156200001157600080fd5b5060405162000f4b38038062000f4b833981810160405281019062000037919062000182565b620000576200004b6200009f60201b60201c565b620000a760201b60201c565b80600160006101000a81548173ffffffffffffffffffffffffffffffffffffffff021916908373ffffffffffffffffffffffffffffffffffffffff1602179055505062000207565b600033905090565b60008060009054906101000a900473ffffffffffffffffffffffffffffffffffffffff169050816000806101000a81548173ffffffffffffffffffffffffffffffffffffffff021916908373ffffffffffffffffffffffffffffffffffffffff1602179055508173ffffffffffffffffffffffffffffffffffffffff168173ffffffffffffffffffffffffffffffffffffffff167f8be0079c531659141344cd1fd0a4f28419497f9722a3daafe3b4186f6b6457e060405160405180910390a35050565b6000815190506200017c81620001ed565b92915050565b6000602082840312156200019b576200019a620001e8565b5b6000620001ab848285016200016b565b91505092915050565b6000620001c182620001c8565b9050919050565b600073ffffffffffffffffffffffffffffffffffffffff82169050919050565b600080fd5b620001f881620001b4565b81146200020457600080fd5b50565b610d3480620002176000396000f3fe608060405234801561001057600080fd5b50600436106100885760003560e01c80638524426e1161005b5780638524426e146101155780638da5cb5b14610131578063c45a01551461014f578063f2fde38b1461016d57610088565b80631a75a1061461008d578063715018a6146100bf5780637fab834f146100c957806383c17c55146100f9575b600080fd5b6100a760048036038101906100a291906108c0565b610189565b6040516100b693929190610a95565b60405180910390f35b6100c7610206565b005b6100e360048036038101906100de919061082c565b61021a565b6040516100f09190610a73565b60405180910390f35b610113600480360381019061010e919061082c565b610380565b005b61012f600480360381019061012a9190610859565b6103cc565b005b6101396105bb565b6040516101469190610a58565b60405180910390f35b6101576105e4565b6040516101649190610a58565b60405180910390f35b6101876004803603810190610182919061082c565b61060a565b005b600260205281600052604060002081815481106101a557600080fd5b90600052602060002001600091509150508060000160009054906101000a900460ff16908060000160019054906101000a900460ff16908060000160029054906101000a900473ffffffffffffffffffffffffffffffffffffffff16905083565b61020e61068e565b610218600061070c565b565b6060600260008373ffffffffffffffffffffffffffffffffffffffff1673ffffffffffffffffffffffffffffffffffffffff168152602001908152602001600020805480602002602001604051908101604052809291908181526020016000905b82821015610375578382906000526020600020016040518060600160405290816000820160009054906101000a900460ff1660018111156102bf576102be610bdc565b5b60018111156102d1576102d0610bdc565b5b81526020016000820160019054906101000a900460ff1660028111156102fa576102f9610bdc565b5b600281111561030c5761030b610bdc565b5b81526020016000820160029054906101000a900473ffffffffffffffffffffffffffffffffffffffff1673ffffffffffffffffffffffffffffffffffffffff1673ffffffffffffffffffffffffffffffffffffffff16815250508152602001906001019061027b565b505050509050919050565b61038861068e565b80600160006101000a81548173ffffffffffffffffffffffffffffffffffffffff021916908373ffffffffffffffffffffffffffffffffffffffff16021790555050565b3373ffffffffffffffffffffffffffffffffffffffff16600160009054906101000a900473ffffffffffffffffffffffffffffffffffffffff1673ffffffffffffffffffffffffffffffffffffffff1614610453576040517f7fa8f6c800000000000000000000000000000000000000000000000000000000815260040160405180910390fd5b600260008573ffffffffffffffffffffffffffffffffffffffff1673ffffffffffffffffffffffffffffffffffffffff16815260200190815260200160002060405180606001604052808560018111156104b0576104af610bdc565b5b81526020018460028111156104c8576104c7610bdc565b5b81526020018373ffffffffffffffffffffffffffffffffffffffff168152509080600181540180825580915050600190039060005260206000200160009091909190915060008201518160000160006101000a81548160ff0219169083600181111561053757610536610bdc565b5b021790555060208201518160000160016101000a81548160ff0219169083600281111561056757610566610bdc565b5b021790555060408201518160000160026101000a81548173ffffffffffffffffffffffffffffffffffffffff021916908373ffffffffffffffffffffffffffffffffffffffff160217905550505050505050565b60008060009054906101000a900473ffffffffffffffffffffffffffffffffffffffff16905090565b600160009054906101000a900473ffffffffffffffffffffffffffffffffffffffff1681565b61061261068e565b600073ffffffffffffffffffffffffffffffffffffffff168173ffffffffffffffffffffffffffffffffffffffff161415610682576040517f08c379a000000000000000000000000000000000000000000000000000000000815260040161067990610acc565b60405180910390fd5b61068b8161070c565b50565b6106966107d0565b73ffffffffffffffffffffffffffffffffffffffff166106b46105bb565b73ffffffffffffffffffffffffffffffffffffffff161461070a576040517f08c379a000000000000000000000000000000000000000000000000000000000815260040161070190610aec565b60405180910390fd5b565b60008060009054906101000a900473ffffffffffffffffffffffffffffffffffffffff169050816000806101000a81548173ffffffffffffffffffffffffffffffffffffffff021916908373ffffffffffffffffffffffffffffffffffffffff1602179055508173ffffffffffffffffffffffffffffffffffffffff168173ffffffffffffffffffffffffffffffffffffffff167f8be0079c531659141344cd1fd0a4f28419497f9722a3daafe3b4186f6b6457e060405160405180910390a35050565b600033905090565b6000813590506107e781610cb0565b92915050565b6000813590506107fc81610cc7565b92915050565b60008135905061081181610cd7565b92915050565b60008135905061082681610ce7565b92915050565b60006020828403121561084257610841610c0b565b5b6000610850848285016107d8565b91505092915050565b6000806000806080858703121561087357610872610c0b565b5b6000610881878288016107d8565b9450506020610892878288016107ed565b93505060406108a387828801610802565b92505060606108b4878288016107d8565b91505092959194509250565b600080604083850312156108d7576108d6610c0b565b5b60006108e5858286016107d8565b92505060206108f685828601610817565b9150509250929050565b600061090c8383610a16565b60608301905092915050565b61092181610b56565b82525050565b61093081610b56565b82525050565b600061094182610b1c565b61094b8185610b34565b935061095683610b0c565b8060005b8381101561098757815161096e8882610900565b975061097983610b27565b92505060018101905061095a565b5085935050505092915050565b61099d81610bb8565b82525050565b6109ac81610bb8565b82525050565b6109bb81610bca565b82525050565b6109ca81610bca565b82525050565b60006109dd602683610b45565b91506109e882610c10565b604082019050919050565b6000610a00602083610b45565b9150610a0b82610c5f565b602082019050919050565b606082016000820151610a2c6000850182610994565b506020820151610a3f60208501826109b2565b506040820151610a526040850182610918565b50505050565b6000602082019050610a6d6000830184610927565b92915050565b60006020820190508181036000830152610a8d8184610936565b905092915050565b6000606082019050610aaa60008301866109a3565b610ab760208301856109c1565b610ac46040830184610927565b949350505050565b60006020820190508181036000830152610ae5816109d0565b9050919050565b60006020820190508181036000830152610b05816109f3565b9050919050565b6000819050602082019050919050565b600081519050919050565b6000602082019050919050565b600082825260208201905092915050565b600082825260208201905092915050565b6000610b6182610b8e565b9050919050565b6000819050610b7682610c88565b919050565b6000819050610b8982610c9c565b919050565b600073ffffffffffffffffffffffffffffffffffffffff82169050919050565b6000819050919050565b6000610bc382610b68565b9050919050565b6000610bd582610b7b565b9050919050565b7f4e487b7100000000000000000000000000000000000000000000000000000000600052602160045260246000fd5b600080fd5b7f4f776e61626c653a206e6577206f776e657220697320746865207a65726f206160008201527f6464726573730000000000000000000000000000000000000000000000000000602082015250565b7f4f776e61626c653a2063616c6c6572206973206e6f7420746865206f776e6572600082015250565b60028110610c9957610c98610bdc565b5b50565b60038110610cad57610cac610bdc565b5b50565b610cb981610b56565b8114610cc457600080fd5b50565b60028110610cd457600080fd5b50565b60038110610ce457600080fd5b50565b610cf081610bae565b8114610cfb57600080fd5b5056fea2646970667358221220ba0e7b21ff309c26c3153eb12931d81de2769de21be15230be19f055694f9f7d64736f6c63430008070033",
  "devdoc": {
    "kind": "dev",
    "methods": {
      "constructor": {
        "params": {
          "_factory": "factory address"
        }
      },
      "getCreatedContracts(address)": {
        "params": {
          "_address": "Address of contract deployer"
        }
      },
      "owner()": {
        "details": "Returns the address of the current owner."
      },
      "renounceOwnership()": {
        "details": "Leaves the contract without owner. It will not be possible to call `onlyOwner` functions anymore. Can only be called by the current owner. NOTE: Renouncing ownership will leave the contract without an owner, thereby removing any functionality that is only available to the owner."
      },
      "setFactoryAddress(address)": {
        "params": {
          "_factory": "Factory address"
        }
      },
      "storeCreatedContract(address,uint8,uint8,address)": {
        "params": {
          "_address": "Created contract address",
          "_deployer": "Deployer address",
          "_standard": "Contract standard",
          "_tier": "Contract standard tier"
        }
      },
      "transferOwnership(address)": {
        "details": "Transfers ownership of the contract to a new account (`newOwner`). Can only be called by the current owner."
      }
    },
    "title": "Wizard Storage",
    "version": 1
  },
  "userdoc": {
    "errors": {
      "CallerIsNotTheFactory()": [
        {
          "notice": "Caller is not the factory!"
        }
      ]
    },
    "kind": "user",
    "methods": {
      "constructor": {
        "notice": "Constructor"
      },
      "createdContracts(address,uint256)": {
        "notice": "Mapping of address (deployer) to created contracts"
      },
      "getCreatedContracts(address)": {
        "notice": "Function to get all deployed contracts by an address"
      },
      "setFactoryAddress(address)": {
        "notice": "Function to set the factory address"
      },
      "storeCreatedContract(address,uint8,uint8,address)": {
        "notice": "Function to store created contract data"
      }
    },
    "notice": "Storage that store contracts",
    "version": 1
  },
  "storageLayout": {
    "storage": [
      {
        "astId": 4172,
        "contract": "contracts/WizardStorage.sol:WizardStorage",
        "label": "_owner",
        "offset": 0,
        "slot": "0",
        "type": "t_address"
      },
      {
        "astId": 5959,
        "contract": "contracts/WizardStorage.sol:WizardStorage",
        "label": "factory",
        "offset": 0,
        "slot": "1",
        "type": "t_address"
      },
      {
        "astId": 5975,
        "contract": "contracts/WizardStorage.sol:WizardStorage",
        "label": "createdContracts",
        "offset": 0,
        "slot": "2",
        "type": "t_mapping(t_address,t_array(t_struct(CreatedContract)5968_storage)dyn_storage)"
      }
    ],
    "types": {
      "t_address": {
        "encoding": "inplace",
        "label": "address",
        "numberOfBytes": "20"
      },
      "t_array(t_struct(CreatedContract)5968_storage)dyn_storage": {
        "base": "t_struct(CreatedContract)5968_storage",
        "encoding": "dynamic_array",
        "label": "struct WizardStorage.CreatedContract[]",
        "numberOfBytes": "32"
      },
      "t_enum(Standard)6126": {
        "encoding": "inplace",
        "label": "enum Enums.Standard",
        "numberOfBytes": "1"
      },
      "t_enum(Tier)6130": {
        "encoding": "inplace",
        "label": "enum Enums.Tier",
        "numberOfBytes": "1"
      },
      "t_mapping(t_address,t_array(t_struct(CreatedContract)5968_storage)dyn_storage)": {
        "encoding": "mapping",
        "key": "t_address",
        "label": "mapping(address => struct WizardStorage.CreatedContract[])",
        "numberOfBytes": "32",
        "value": "t_array(t_struct(CreatedContract)5968_storage)dyn_storage"
      },
      "t_struct(CreatedContract)5968_storage": {
        "encoding": "inplace",
        "label": "struct WizardStorage.CreatedContract",
        "members": [
          {
            "astId": 5962,
            "contract": "contracts/WizardStorage.sol:WizardStorage",
            "label": "standard",
            "offset": 0,
            "slot": "0",
            "type": "t_enum(Standard)6126"
          },
          {
            "astId": 5965,
            "contract": "contracts/WizardStorage.sol:WizardStorage",
            "label": "tier",
            "offset": 1,
            "slot": "0",
            "type": "t_enum(Tier)6130"
          },
          {
            "astId": 5967,
            "contract": "contracts/WizardStorage.sol:WizardStorage",
            "label": "address_",
            "offset": 2,
            "slot": "0",
            "type": "t_address"
          }
        ],
        "numberOfBytes": "32"
      }
    }
  }
}