{
  "address": "0xb20A4A53e0BAD8A56d0427EE0Fc01d51D2baB6a1",
  "abi": [
    {
      "inputs": [
        {
          "internalType": "int256",
          "name": "_cost",
          "type": "int256"
        },
        {
          "internalType": "address",
          "name": "priceFeedAddress",
          "type": "address"
        }
      ],
      "stateMutability": "nonpayable",
      "type": "constructor"
    },
    {
      "inputs": [],
      "name": "InsufficientFunds",
      "type": "error"
    },
    {
      "inputs": [],
      "name": "InvalidERC1155Implementation",
      "type": "error"
    },
    {
      "inputs": [],
      "name": "InvalidERC721AImplementation",
      "type": "error"
    },
    {
      "inputs": [],
      "name": "InvalidStorageImplementation",
      "type": "error"
    },
    {
      "anonymous": false,
      "inputs": [
        {
          "indexed": true,
          "internalType": "address",
          "name": "createdContract",
          "type": "address"
        },
        {
          "indexed": false,
          "internalType": "string",
          "name": "name",
          "type": "string"
        },
        {
          "indexed": false,
          "internalType": "string",
          "name": "symbol",
          "type": "string"
        },
        {
          "indexed": false,
          "internalType": "enum WizardFactory.ERCType",
          "name": "contractType",
          "type": "uint8"
        },
        {
          "indexed": true,
          "internalType": "address",
          "name": "royaltyReceiver",
          "type": "address"
        },
        {
          "indexed": true,
          "internalType": "address",
          "name": "contractOwner",
          "type": "address"
        }
      ],
      "name": "ContractCreated",
      "type": "event"
    },
    {
      "anonymous": false,
      "inputs": [
        {
          "indexed": true,
          "internalType": "address",
          "name": "previousOwner",
          "type": "address"
        },
        {
          "indexed": true,
          "internalType": "address",
          "name": "newOwner",
          "type": "address"
        }
      ],
      "name": "OwnershipTransferred",
      "type": "event"
    },
    {
      "anonymous": false,
      "inputs": [
        {
          "indexed": true,
          "internalType": "address",
          "name": "ercImplementation",
          "type": "address"
        }
      ],
      "name": "SetERCImplementation",
      "type": "event"
    },
    {
      "inputs": [],
      "name": "ERC1155Implementation",
      "outputs": [
        {
          "internalType": "address",
          "name": "",
          "type": "address"
        }
      ],
      "stateMutability": "view",
      "type": "function"
    },
    {
      "inputs": [],
      "name": "ERC721AImplementation",
      "outputs": [
        {
          "internalType": "address",
          "name": "",
          "type": "address"
        }
      ],
      "stateMutability": "view",
      "type": "function"
    },
    {
      "inputs": [],
      "name": "WizardStorageImplementation",
      "outputs": [
        {
          "internalType": "address",
          "name": "",
          "type": "address"
        }
      ],
      "stateMutability": "view",
      "type": "function"
    },
    {
      "inputs": [],
      "name": "cost",
      "outputs": [
        {
          "internalType": "int256",
          "name": "",
          "type": "int256"
        }
      ],
      "stateMutability": "view",
      "type": "function"
    },
    {
      "inputs": [
        {
          "internalType": "string",
          "name": "_name",
          "type": "string"
        },
        {
          "internalType": "string",
          "name": "_symbol",
          "type": "string"
        },
        {
          "internalType": "uint256",
          "name": "_id",
          "type": "uint256"
        },
        {
          "internalType": "uint256",
          "name": "_amount",
          "type": "uint256"
        },
        {
          "internalType": "string",
          "name": "_uri",
          "type": "string"
        },
        {
          "internalType": "address",
          "name": "_royaltyReceiver",
          "type": "address"
        },
        {
          "internalType": "uint96",
          "name": "_feePercent",
          "type": "uint96"
        }
      ],
      "name": "createERC1155Contract",
      "outputs": [],
      "stateMutability": "payable",
      "type": "function"
    },
    {
      "inputs": [
        {
          "internalType": "string",
          "name": "_name",
          "type": "string"
        },
        {
          "internalType": "string",
          "name": "_symbol",
          "type": "string"
        },
        {
          "internalType": "uint256",
          "name": "_cost",
          "type": "uint256"
        },
        {
          "internalType": "uint256",
          "name": "_maxSupply",
          "type": "uint256"
        },
        {
          "internalType": "uint256",
          "name": "_maxMintAmountPerTx",
          "type": "uint256"
        },
        {
          "internalType": "string",
          "name": "_hiddenMetadataUri",
          "type": "string"
        },
        {
          "internalType": "string",
          "name": "_uriPrefix",
          "type": "string"
        },
        {
          "internalType": "address",
          "name": "_royaltyReceiver",
          "type": "address"
        },
        {
          "internalType": "uint96",
          "name": "_feePercent",
          "type": "uint96"
        }
      ],
      "name": "createERC721AContract",
      "outputs": [],
      "stateMutability": "payable",
      "type": "function"
    },
    {
      "inputs": [],
      "name": "getCost",
      "outputs": [
        {
          "internalType": "uint256",
          "name": "",
          "type": "uint256"
        }
      ],
      "stateMutability": "view",
      "type": "function"
    },
    {
      "inputs": [],
      "name": "getLatestPrice",
      "outputs": [
        {
          "internalType": "int256",
          "name": "",
          "type": "int256"
        }
      ],
      "stateMutability": "view",
      "type": "function"
    },
    {
      "inputs": [],
      "name": "owner",
      "outputs": [
        {
          "internalType": "address",
          "name": "",
          "type": "address"
        }
      ],
      "stateMutability": "view",
      "type": "function"
    },
    {
      "inputs": [],
      "name": "priceFeed",
      "outputs": [
        {
          "internalType": "contract AggregatorV3Interface",
          "name": "",
          "type": "address"
        }
      ],
      "stateMutability": "view",
      "type": "function"
    },
    {
      "inputs": [],
      "name": "renounceOwnership",
      "outputs": [],
      "stateMutability": "nonpayable",
      "type": "function"
    },
    {
      "inputs": [
        {
          "internalType": "int256",
          "name": "_cost",
          "type": "int256"
        }
      ],
      "name": "setCost",
      "outputs": [],
      "stateMutability": "nonpayable",
      "type": "function"
    },
    {
      "inputs": [
        {
          "internalType": "address",
          "name": "_ercImplementation",
          "type": "address"
        }
      ],
      "name": "setERC1155Implementation",
      "outputs": [],
      "stateMutability": "nonpayable",
      "type": "function"
    },
    {
      "inputs": [
        {
          "internalType": "address",
          "name": "_ercImplementation",
          "type": "address"
        }
      ],
      "name": "setERC721AImplementation",
      "outputs": [],
      "stateMutability": "nonpayable",
      "type": "function"
    },
    {
      "inputs": [
        {
          "internalType": "address",
          "name": "_priceFeedAddress",
          "type": "address"
        }
      ],
      "name": "setPriceFeed",
      "outputs": [],
      "stateMutability": "nonpayable",
      "type": "function"
    },
    {
      "inputs": [
        {
          "internalType": "address",
          "name": "_wizardStorageImplementation",
          "type": "address"
        }
      ],
      "name": "setWizardStorageImplementation",
      "outputs": [],
      "stateMutability": "nonpayable",
      "type": "function"
    },
    {
      "inputs": [
        {
          "internalType": "address",
          "name": "newOwner",
          "type": "address"
        }
      ],
      "name": "transferOwnership",
      "outputs": [],
      "stateMutability": "nonpayable",
      "type": "function"
    },
    {
      "inputs": [],
      "name": "withdraw",
      "outputs": [],
      "stateMutability": "nonpayable",
      "type": "function"
    }
  ],
  "transactionHash": "0x5ce2ee073874b8a977fff8fc5847cf3b5cd216db58262fa8543738fdc2756833",
  "args": [
    "100000000000000000",
    "0xd0D5e3DB44DE05E9F294BB0a3bEEaF030DE24Ada"
  ],
  "numDeployments": 1,
  "solcInputHash": "20dd659065c5dad5a087758ad2167d9d",
  "bytecode": "0x60806040523480156200001157600080fd5b50604051620021a4380380620021a48339818101604052810190620000379190620001a8565b620000576200004b620000ae60201b60201c565b620000b660201b60201c565b600180819055508160028190555080600360006101000a81548173ffffffffffffffffffffffffffffffffffffffff021916908373ffffffffffffffffffffffffffffffffffffffff160217905550505062000266565b600033905090565b60008060009054906101000a900473ffffffffffffffffffffffffffffffffffffffff169050816000806101000a81548173ffffffffffffffffffffffffffffffffffffffff021916908373ffffffffffffffffffffffffffffffffffffffff1602179055508173ffffffffffffffffffffffffffffffffffffffff168173ffffffffffffffffffffffffffffffffffffffff167f8be0079c531659141344cd1fd0a4f28419497f9722a3daafe3b4186f6b6457e060405160405180910390a35050565b6000815190506200018b8162000232565b92915050565b600081519050620001a2816200024c565b92915050565b60008060408385031215620001c257620001c16200022d565b5b6000620001d28582860162000191565b9250506020620001e5858286016200017a565b9150509250929050565b6000620001fc826200020d565b9050919050565b6000819050919050565b600073ffffffffffffffffffffffffffffffffffffffff82169050919050565b600080fd5b6200023d81620001ef565b81146200024957600080fd5b50565b620002578162000203565b81146200026357600080fd5b50565b611f2e80620002766000396000f3fe6080604052600436106101095760003560e01c80637d2405bb11610095578063988f01e211610064578063988f01e21461030d578063bd3e19d414610329578063c9d6348d14610354578063f219881714610370578063f2fde38b1461039957610109565b80637d2405bb146102635780638da5cb5b1461028c5780638e15f473146102b757806393758b41146102e257610109565b80634809b4c7116100dc5780634809b4c7146101a457806370654067146101cd578063715018a6146101f8578063724e78da1461020f578063741bef1a1461023857610109565b806313faede61461010e5780632799459d146101395780632efb88e7146101625780633ccfd60b1461018d575b600080fd5b34801561011a57600080fd5b506101236103c2565b6040516101309190611730565b60405180910390f35b34801561014557600080fd5b50610160600480360381019061015b9190611285565b6103c8565b005b34801561016e57600080fd5b506101776103da565b60405161018491906116c3565b60405180910390f35b34801561019957600080fd5b506101a2610400565b005b3480156101b057600080fd5b506101cb60048036038101906101c69190611258565b6104dd565b005b3480156101d957600080fd5b506101e2610590565b6040516101ef91906116c3565b60405180910390f35b34801561020457600080fd5b5061020d6105b6565b005b34801561021b57600080fd5b5061023660048036038101906102319190611258565b6105ca565b005b34801561024457600080fd5b5061024d610616565b60405161025a9190611715565b60405180910390f35b34801561026f57600080fd5b5061028a60048036038101906102859190611258565b61063c565b005b34801561029857600080fd5b506102a1610732565b6040516102ae91906116c3565b60405180910390f35b3480156102c357600080fd5b506102cc61075b565b6040516102d99190611730565b60405180910390f35b3480156102ee57600080fd5b506102f761081b565b60405161030491906116c3565b60405180910390f35b610327600480360381019061032291906113a8565b610841565b005b34801561033557600080fd5b5061033e610ae8565b60405161034b919061195b565b60405180910390f35b61036e600480360381019061036991906112b2565b610b1c565b005b34801561037c57600080fd5b5061039760048036038101906103929190611258565b610dbc565b005b3480156103a557600080fd5b506103c060048036038101906103bb9190611258565b610eb2565b005b60025481565b6103d0610f36565b8060028190555050565b600660009054906101000a900473ffffffffffffffffffffffffffffffffffffffff1681565b610408610f36565b6002600154141561044e576040517f08c379a00000000000000000000000000000000000000000000000000000000081526004016104459061193b565b60405180910390fd5b60026001819055506000610460610732565b73ffffffffffffffffffffffffffffffffffffffff1647604051610483906116ae565b60006040518083038185875af1925050503d80600081146104c0576040519150601f19603f3d011682016040523d82523d6000602084013e6104c5565b606091505b50509050806104d357600080fd5b5060018081905550565b6104e5610f36565b600073ffffffffffffffffffffffffffffffffffffffff168173ffffffffffffffffffffffffffffffffffffffff16141561054c576040517f6996356000000000000000000000000000000000000000000000000000000000815260040160405180910390fd5b80600460006101000a81548173ffffffffffffffffffffffffffffffffffffffff021916908373ffffffffffffffffffffffffffffffffffffffff16021790555050565b600560009054906101000a900473ffffffffffffffffffffffffffffffffffffffff1681565b6105be610f36565b6105c86000610fb4565b565b6105d2610f36565b80600360006101000a81548173ffffffffffffffffffffffffffffffffffffffff021916908373ffffffffffffffffffffffffffffffffffffffff16021790555050565b600360009054906101000a900473ffffffffffffffffffffffffffffffffffffffff1681565b610644610f36565b600073ffffffffffffffffffffffffffffffffffffffff168173ffffffffffffffffffffffffffffffffffffffff1614156106ab576040517f67fca64a00000000000000000000000000000000000000000000000000000000815260040160405180910390fd5b80600660006101000a81548173ffffffffffffffffffffffffffffffffffffffff021916908373ffffffffffffffffffffffffffffffffffffffff1602179055508073ffffffffffffffffffffffffffffffffffffffff167fed037ad9142f2f0bdc568a61ae7667137030ec85269e69f1601739b283ffb8e160405160405180910390a250565b60008060009054906101000a900473ffffffffffffffffffffffffffffffffffffffff16905090565b600080600360009054906101000a900473ffffffffffffffffffffffffffffffffffffffff1673ffffffffffffffffffffffffffffffffffffffff1663feaf968c6040518163ffffffff1660e01b815260040160a06040518083038186803b1580156107c657600080fd5b505afa1580156107da573d6000803e3d6000fd5b505050506040513d601f19601f820116820180604052508101906107fe91906114e2565b5050509150506402540be400816108159190611a5d565b91505090565b600460009054906101000a900473ffffffffffffffffffffffffffffffffffffffff1681565b610849610ae8565b341015610882576040517f356680b700000000000000000000000000000000000000000000000000000000815260040160405180910390fd5b600073ffffffffffffffffffffffffffffffffffffffff16600560009054906101000a900473ffffffffffffffffffffffffffffffffffffffff1673ffffffffffffffffffffffffffffffffffffffff16141561090b576040517fbec8fefe00000000000000000000000000000000000000000000000000000000815260040160405180910390fd5b6000610938600560009054906101000a900473ffffffffffffffffffffffffffffffffffffffff16611078565b90508073ffffffffffffffffffffffffffffffffffffffff166313cfbe508b8b8b8b8b8b8b8b8b336040518b63ffffffff1660e01b81526004016109859a99989796959493929190611823565b600060405180830381600087803b15801561099f57600080fd5b505af11580156109b3573d6000803e3d6000fd5b50505050600460009054906101000a900473ffffffffffffffffffffffffffffffffffffffff1673ffffffffffffffffffffffffffffffffffffffff1663617b53be3360006001811115610a0a57610a09611d21565b5b846040518463ffffffff1660e01b8152600401610a29939291906116de565b600060405180830381600087803b158015610a4357600080fd5b505af1158015610a57573d6000803e3d6000fd5b505050503373ffffffffffffffffffffffffffffffffffffffff168373ffffffffffffffffffffffffffffffffffffffff168273ffffffffffffffffffffffffffffffffffffffff167f62f95ba7343bb76df6fe61166cb92ac635280630a1b7b43c5b77c301211652598d8d6000604051610ad49392919061174b565b60405180910390a450505050505050505050565b600080610af361075b565b670de0b6b3a7640000600254610b099190611a5d565b610b1391906119f3565b90508091505090565b610b24610ae8565b341015610b5d576040517f356680b700000000000000000000000000000000000000000000000000000000815260040160405180910390fd5b600073ffffffffffffffffffffffffffffffffffffffff16600660009054906101000a900473ffffffffffffffffffffffffffffffffffffffff1673ffffffffffffffffffffffffffffffffffffffff161415610be6576040517f67fca64a00000000000000000000000000000000000000000000000000000000815260040160405180910390fd5b6000610c13600660009054906101000a900473ffffffffffffffffffffffffffffffffffffffff16611078565b90508073ffffffffffffffffffffffffffffffffffffffff1663f98d53a789898989898989336040518963ffffffff1660e01b8152600401610c5c989796959493929190611790565b600060405180830381600087803b158015610c7657600080fd5b505af1158015610c8a573d6000803e3d6000fd5b50505050600460009054906101000a900473ffffffffffffffffffffffffffffffffffffffff1673ffffffffffffffffffffffffffffffffffffffff1663617b53be33600180811115610ce057610cdf611d21565b5b846040518463ffffffff1660e01b8152600401610cff939291906116de565b600060405180830381600087803b158015610d1957600080fd5b505af1158015610d2d573d6000803e3d6000fd5b505050503373ffffffffffffffffffffffffffffffffffffffff168373ffffffffffffffffffffffffffffffffffffffff168273ffffffffffffffffffffffffffffffffffffffff167f62f95ba7343bb76df6fe61166cb92ac635280630a1b7b43c5b77c301211652598b8b6001604051610daa9392919061174b565b60405180910390a45050505050505050565b610dc4610f36565b600073ffffffffffffffffffffffffffffffffffffffff168173ffffffffffffffffffffffffffffffffffffffff161415610e2b576040517fbec8fefe00000000000000000000000000000000000000000000000000000000815260040160405180910390fd5b80600560006101000a81548173ffffffffffffffffffffffffffffffffffffffff021916908373ffffffffffffffffffffffffffffffffffffffff1602179055508073ffffffffffffffffffffffffffffffffffffffff167fed037ad9142f2f0bdc568a61ae7667137030ec85269e69f1601739b283ffb8e160405160405180910390a250565b610eba610f36565b600073ffffffffffffffffffffffffffffffffffffffff168173ffffffffffffffffffffffffffffffffffffffff161415610f2a576040517f08c379a0000000000000000000000000000000000000000000000000000000008152600401610f21906118db565b60405180910390fd5b610f3381610fb4565b50565b610f3e61114d565b73ffffffffffffffffffffffffffffffffffffffff16610f5c610732565b73ffffffffffffffffffffffffffffffffffffffff1614610fb2576040517f08c379a0000000000000000000000000000000000000000000000000000000008152600401610fa99061191b565b60405180910390fd5b565b60008060009054906101000a900473ffffffffffffffffffffffffffffffffffffffff169050816000806101000a81548173ffffffffffffffffffffffffffffffffffffffff021916908373ffffffffffffffffffffffffffffffffffffffff1602179055508173ffffffffffffffffffffffffffffffffffffffff168173ffffffffffffffffffffffffffffffffffffffff167f8be0079c531659141344cd1fd0a4f28419497f9722a3daafe3b4186f6b6457e060405160405180910390a35050565b60006040517f3d602d80600a3d3981f3363d3d373d3d3d363d7300000000000000000000000081528260601b60148201527f5af43d82803e903d91602b57fd5bf3000000000000000000000000000000000060288201526037816000f0915050600073ffffffffffffffffffffffffffffffffffffffff168173ffffffffffffffffffffffffffffffffffffffff161415611148576040517f08c379a000000000000000000000000000000000000000000000000000000000815260040161113f906118fb565b60405180910390fd5b919050565b600033905090565b60006111686111638461199b565b611976565b90508281526020810184848401111561118457611183611d84565b5b61118f848285611c50565b509392505050565b6000813590506111a681611e85565b92915050565b6000813590506111bb81611e9c565b92915050565b6000815190506111d081611e9c565b92915050565b600082601f8301126111eb576111ea611d7f565b5b81356111fb848260208601611155565b91505092915050565b60008135905061121381611eb3565b92915050565b60008151905061122881611eb3565b92915050565b60008151905061123d81611eca565b92915050565b60008135905061125281611ee1565b92915050565b60006020828403121561126e5761126d611d8e565b5b600061127c84828501611197565b91505092915050565b60006020828403121561129b5761129a611d8e565b5b60006112a9848285016111ac565b91505092915050565b600080600080600080600060e0888a0312156112d1576112d0611d8e565b5b600088013567ffffffffffffffff8111156112ef576112ee611d89565b5b6112fb8a828b016111d6565b975050602088013567ffffffffffffffff81111561131c5761131b611d89565b5b6113288a828b016111d6565b96505060406113398a828b01611204565b955050606061134a8a828b01611204565b945050608088013567ffffffffffffffff81111561136b5761136a611d89565b5b6113778a828b016111d6565b93505060a06113888a828b01611197565b92505060c06113998a828b01611243565b91505092959891949750929550565b60008060008060008060008060006101208a8c0312156113cb576113ca611d8e565b5b60008a013567ffffffffffffffff8111156113e9576113e8611d89565b5b6113f58c828d016111d6565b99505060208a013567ffffffffffffffff81111561141657611415611d89565b5b6114228c828d016111d6565b98505060406114338c828d01611204565b97505060606114448c828d01611204565b96505060806114558c828d01611204565b95505060a08a013567ffffffffffffffff81111561147657611475611d89565b5b6114828c828d016111d6565b94505060c08a013567ffffffffffffffff8111156114a3576114a2611d89565b5b6114af8c828d016111d6565b93505060e06114c08c828d01611197565b9250506101006114d28c828d01611243565b9150509295985092959850929598565b600080600080600060a086880312156114fe576114fd611d8e565b5b600061150c8882890161122e565b955050602061151d888289016111c1565b945050604061152e88828901611219565b935050606061153f88828901611219565b92505060806115508882890161122e565b9150509295509295909350565b61156681611b74565b82525050565b61157581611c08565b82525050565b61158481611c1a565b82525050565b61159381611b99565b82525050565b60006115a4826119cc565b6115ae81856119e2565b93506115be818560208601611c5f565b6115c781611d93565b840191505092915050565b60006115df6026836119e2565b91506115ea82611da4565b604082019050919050565b60006116026016836119e2565b915061160d82611df3565b602082019050919050565b60006116256020836119e2565b915061163082611e1c565b602082019050919050565b60006116486000836119d7565b915061165382611e45565b600082019050919050565b600061166b601f836119e2565b915061167682611e48565b602082019050919050565b61168a81611bc3565b82525050565b61169981611bcd565b82525050565b6116a881611bf0565b82525050565b60006116b98261163b565b9150819050919050565b60006020820190506116d8600083018461155d565b92915050565b60006060820190506116f3600083018661155d565b6117006020830185611690565b61170d604083018461155d565b949350505050565b600060208201905061172a600083018461156c565b92915050565b6000602082019050611745600083018461158a565b92915050565b600060608201905081810360008301526117658186611599565b905081810360208301526117798185611599565b9050611788604083018461157b565b949350505050565b60006101008201905081810360008301526117ab818b611599565b905081810360208301526117bf818a611599565b90506117ce6040830189611681565b6117db6060830188611681565b81810360808301526117ed8187611599565b90506117fc60a083018661155d565b61180960c083018561169f565b61181660e083018461155d565b9998505050505050505050565b600061014082019050818103600083015261183e818d611599565b90508181036020830152611852818c611599565b9050611861604083018b611681565b61186e606083018a611681565b61187b6080830189611681565b81810360a083015261188d8188611599565b905081810360c08301526118a18187611599565b90506118b060e083018661155d565b6118be61010083018561169f565b6118cc61012083018461155d565b9b9a5050505050505050505050565b600060208201905081810360008301526118f4816115d2565b9050919050565b60006020820190508181036000830152611914816115f5565b9050919050565b6000602082019050818103600083015261193481611618565b9050919050565b600060208201905081810360008301526119548161165e565b9050919050565b60006020820190506119706000830184611681565b92915050565b6000611980611991565b905061198c8282611c92565b919050565b6000604051905090565b600067ffffffffffffffff8211156119b6576119b5611d50565b5b6119bf82611d93565b9050602081019050919050565b600081519050919050565b600081905092915050565b600082825260208201905092915050565b60006119fe82611b99565b9150611a0983611b99565b925082611a1957611a18611cf2565b5b600160000383147f800000000000000000000000000000000000000000000000000000000000000083141615611a5257611a51611cc3565b5b828205905092915050565b6000611a6882611b99565b9150611a7383611b99565b9250827f7fffffffffffffffffffffffffffffffffffffffffffffffffffffffffffffff0482116000841360008413161615611ab257611ab1611cc3565b5b817f80000000000000000000000000000000000000000000000000000000000000000583126000841260008413161615611aef57611aee611cc3565b5b827f80000000000000000000000000000000000000000000000000000000000000000582126000841360008412161615611b2c57611b2b611cc3565b5b827f7fffffffffffffffffffffffffffffffffffffffffffffffffffffffffffffff0582126000841260008412161615611b6957611b68611cc3565b5b828202905092915050565b6000611b7f82611ba3565b9050919050565b6000819050611b9482611e71565b919050565b6000819050919050565b600073ffffffffffffffffffffffffffffffffffffffff82169050919050565b6000819050919050565b600060ff82169050919050565b600069ffffffffffffffffffff82169050919050565b60006bffffffffffffffffffffffff82169050919050565b6000611c1382611c2c565b9050919050565b6000611c2582611b86565b9050919050565b6000611c3782611c3e565b9050919050565b6000611c4982611ba3565b9050919050565b82818337600083830152505050565b60005b83811015611c7d578082015181840152602081019050611c62565b83811115611c8c576000848401525b50505050565b611c9b82611d93565b810181811067ffffffffffffffff82111715611cba57611cb9611d50565b5b80604052505050565b7f4e487b7100000000000000000000000000000000000000000000000000000000600052601160045260246000fd5b7f4e487b7100000000000000000000000000000000000000000000000000000000600052601260045260246000fd5b7f4e487b7100000000000000000000000000000000000000000000000000000000600052602160045260246000fd5b7f4e487b7100000000000000000000000000000000000000000000000000000000600052604160045260246000fd5b600080fd5b600080fd5b600080fd5b600080fd5b6000601f19601f8301169050919050565b7f4f776e61626c653a206e6577206f776e657220697320746865207a65726f206160008201527f6464726573730000000000000000000000000000000000000000000000000000602082015250565b7f455243313136373a20637265617465206661696c656400000000000000000000600082015250565b7f4f776e61626c653a2063616c6c6572206973206e6f7420746865206f776e6572600082015250565b50565b7f5265656e7472616e637947756172643a207265656e7472616e742063616c6c00600082015250565b60028110611e8257611e81611d21565b5b50565b611e8e81611b74565b8114611e9957600080fd5b50565b611ea581611b99565b8114611eb057600080fd5b50565b611ebc81611bc3565b8114611ec757600080fd5b50565b611ed381611bda565b8114611ede57600080fd5b50565b611eea81611bf0565b8114611ef557600080fd5b5056fea2646970667358221220d46a5f7061fbb6853198b9bc8d0574ea0a651e4042c0f9c9053884b4961907a964736f6c63430008070033",
  "devdoc": {
    "events": {
      "ContractCreated(address,string,string,uint8,address,address)": {
        "params": {
          "contractOwner": "Contract owner",
          "createdContract": "Address of deployed Contract",
          "name": "Contract name",
          "royaltyReceiver": "Royalty fee collector",
          "symbol": "Contract symbol"
        }
      },
      "SetERCImplementation(address)": {
        "params": {
          "ercImplementation": "implementation of contract"
        }
      }
    },
    "kind": "dev",
    "methods": {
      "constructor": {
        "params": {
          "_cost": "Contract deployment cost",
          "priceFeedAddress": "AggregatorV3Interface priceFeed address"
        }
      },
      "createERC1155Contract(string,string,uint256,uint256,string,address,uint96)": {
        "params": {
          "_amount": "Token supply",
          "_feePercent": "Royalty fee numerator; denominator is 10,000. So 500 represents 5%",
          "_id": "Token id",
          "_name": "Contract name",
          "_royaltyReceiver": "Royalty fee collector",
          "_symbol": "Contract symbol",
          "_uri": "Token uri"
        }
      },
      "createERC721AContract(string,string,uint256,uint256,uint256,string,string,address,uint96)": {
        "params": {
          "_cost": "Mint cost",
          "_feePercent": "Royalty fee numerator; denominator is 10,000. So 500 represents 5%",
          "_hiddenMetadataUri": "Hidden metadata uri",
          "_maxMintAmountPerTx": "Max mint amount per transaction",
          "_maxSupply": "Contract maxSupply",
          "_name": "Contract name",
          "_royaltyReceiver": "Royalty fee collector",
          "_symbol": "Contract symbol",
          "_uriPrefix": "Metadata uri prefix"
        }
      },
      "getCost()": {
        "returns": {
          "_0": "uint256 Cost price for contract deployment"
        }
      },
      "getLatestPrice()": {
        "returns": {
          "_0": "int256 Equation of price * 1e10"
        }
      },
      "owner()": {
        "details": "Returns the address of the current owner."
      },
      "renounceOwnership()": {
        "details": "Leaves the contract without owner. It will not be possible to call `onlyOwner` functions anymore. Can only be called by the current owner. NOTE: Renouncing ownership will leave the contract without an owner, thereby removing any functionality that is only available to the owner."
      },
      "setCost(int256)": {
        "params": {
          "_cost": "Cost in wei 18 dec as usd"
        }
      },
      "setERC1155Implementation(address)": {
        "params": {
          "_ercImplementation": "New ERC1155Implementation"
        }
      },
      "setERC721AImplementation(address)": {
        "params": {
          "_ercImplementation": "New ERC721AImplementation"
        }
      },
      "setPriceFeed(address)": {
        "params": {
          "_priceFeedAddress": "PriceFeed address"
        }
      },
      "setWizardStorageImplementation(address)": {
        "params": {
          "_wizardStorageImplementation": "New WizardStorageImplementation"
        }
      },
      "transferOwnership(address)": {
        "details": "Transfers ownership of the contract to a new account (`newOwner`). Can only be called by the current owner."
      }
    },
    "title": "Wizard Factory",
    "version": 1
  },
  "userdoc": {
    "errors": {
      "InsufficientFunds()": [
        {
          "notice": "Insufficient funds!"
        }
      ],
      "InvalidERC1155Implementation()": [
        {
          "notice": "Invalid ERC1155 Implementation!"
        }
      ],
      "InvalidERC721AImplementation()": [
        {
          "notice": "Invalid ERC721A Implementation!"
        }
      ],
      "InvalidStorageImplementation()": [
        {
          "notice": "Invalid Storage Implementation!"
        }
      ]
    },
    "events": {
      "ContractCreated(address,string,string,uint8,address,address)": {
        "notice": "Emitted on ERC Contracts create"
      },
      "SetERCImplementation(address)": {
        "notice": "Emmited on one of setERCImplementation()"
      }
    },
    "kind": "user",
    "methods": {
      "ERC1155Implementation()": {
        "notice": "ERC1155 contract to be cloned"
      },
      "ERC721AImplementation()": {
        "notice": "ERC721A contract to be cloned"
      },
      "WizardStorageImplementation()": {
        "notice": "Wizard Storage Implementation"
      },
      "constructor": {
        "notice": "Constructor"
      },
      "cost()": {
        "notice": "Contract deployment cost in wei as usd"
      },
      "createERC1155Contract(string,string,uint256,uint256,string,address,uint96)": {
        "notice": "Function for creating ERC1155 contracts"
      },
      "createERC721AContract(string,string,uint256,uint256,uint256,string,string,address,uint96)": {
        "notice": "Function for creating ERC721A contracts"
      },
      "getCost()": {
        "notice": "Function to get contract deployment cost"
      },
      "getLatestPrice()": {
        "notice": "Function to get latest network native token price"
      },
      "priceFeed()": {
        "notice": "AggregatorV3Interface priceFeed address"
      },
      "setCost(int256)": {
        "notice": "Set contract deployment cost"
      },
      "setERC1155Implementation(address)": {
        "notice": "Set address for ERC1155Implementation"
      },
      "setERC721AImplementation(address)": {
        "notice": "Set address for ERC721AImplementation"
      },
      "setPriceFeed(address)": {
        "notice": "Set address for AggregatorV3Interface"
      },
      "setWizardStorageImplementation(address)": {
        "notice": "Set address for WizardStorageImplementation"
      },
      "withdraw()": {
        "notice": "Function to withdraw contract funds"
      }
    },
    "notice": "Factory that creates ERC contracts",
    "version": 1
  },
  "storageLayout": {
    "storage": [
      {
        "astId": 3670,
        "contract": "contracts/WizardFactory.sol:WizardFactory",
        "label": "_owner",
        "offset": 0,
        "slot": "0",
        "type": "t_address"
      },
      {
        "astId": 3866,
        "contract": "contracts/WizardFactory.sol:WizardFactory",
        "label": "_status",
        "offset": 0,
        "slot": "1",
        "type": "t_uint256"
      },
      {
        "astId": 5756,
        "contract": "contracts/WizardFactory.sol:WizardFactory",
        "label": "cost",
        "offset": 0,
        "slot": "2",
        "type": "t_int256"
      },
      {
        "astId": 5760,
        "contract": "contracts/WizardFactory.sol:WizardFactory",
        "label": "priceFeed",
        "offset": 0,
        "slot": "3",
        "type": "t_contract(AggregatorV3Interface)45"
      },
      {
        "astId": 5763,
        "contract": "contracts/WizardFactory.sol:WizardFactory",
        "label": "WizardStorageImplementation",
        "offset": 0,
        "slot": "4",
        "type": "t_address"
      },
      {
        "astId": 5766,
        "contract": "contracts/WizardFactory.sol:WizardFactory",
        "label": "ERC721AImplementation",
        "offset": 0,
        "slot": "5",
        "type": "t_address"
      },
      {
        "astId": 5769,
        "contract": "contracts/WizardFactory.sol:WizardFactory",
        "label": "ERC1155Implementation",
        "offset": 0,
        "slot": "6",
        "type": "t_address"
      }
    ],
    "types": {
      "t_address": {
        "encoding": "inplace",
        "label": "address",
        "numberOfBytes": "20"
      },
      "t_contract(AggregatorV3Interface)45": {
        "encoding": "inplace",
        "label": "contract AggregatorV3Interface",
        "numberOfBytes": "20"
      },
      "t_int256": {
        "encoding": "inplace",
        "label": "int256",
        "numberOfBytes": "32"
      },
      "t_uint256": {
        "encoding": "inplace",
        "label": "uint256",
        "numberOfBytes": "32"
      }
    }
  }
}