{
  "address": "0x48aB10b4f4867D663CD7Cbf38F2F5A448a46F69d",
  "abi": [
    {
      "inputs": [
        {
          "internalType": "int256",
          "name": "_cost",
          "type": "int256"
        },
        {
          "internalType": "address",
          "name": "priceFeedAddress",
          "type": "address"
        }
      ],
      "stateMutability": "nonpayable",
      "type": "constructor"
    },
    {
      "inputs": [],
      "name": "WizardFactory__InsufficientFunds",
      "type": "error"
    },
    {
      "inputs": [],
      "name": "WizardFactory__InvalidERC1155Implementation",
      "type": "error"
    },
    {
      "inputs": [],
      "name": "WizardFactory__InvalidERC721Implementation",
      "type": "error"
    },
    {
      "anonymous": false,
      "inputs": [
        {
          "indexed": true,
          "internalType": "address",
          "name": "createdContract",
          "type": "address"
        },
        {
          "indexed": false,
          "internalType": "string",
          "name": "name",
          "type": "string"
        },
        {
          "indexed": false,
          "internalType": "string",
          "name": "symbol",
          "type": "string"
        },
        {
          "indexed": false,
          "internalType": "enum WizardFactory.ERCType",
          "name": "contractType",
          "type": "uint8"
        },
        {
          "indexed": true,
          "internalType": "address",
          "name": "royaltyReceiver",
          "type": "address"
        },
        {
          "indexed": true,
          "internalType": "address",
          "name": "contractOwner",
          "type": "address"
        }
      ],
      "name": "ContractCreated",
      "type": "event"
    },
    {
      "anonymous": false,
      "inputs": [
        {
          "indexed": true,
          "internalType": "address",
          "name": "previousOwner",
          "type": "address"
        },
        {
          "indexed": true,
          "internalType": "address",
          "name": "newOwner",
          "type": "address"
        }
      ],
      "name": "OwnershipTransferred",
      "type": "event"
    },
    {
      "anonymous": false,
      "inputs": [
        {
          "indexed": true,
          "internalType": "address",
          "name": "ercImplementation",
          "type": "address"
        }
      ],
      "name": "SetERCImplementation",
      "type": "event"
    },
    {
      "inputs": [],
      "name": "ERC1155Implementation",
      "outputs": [
        {
          "internalType": "address",
          "name": "",
          "type": "address"
        }
      ],
      "stateMutability": "view",
      "type": "function"
    },
    {
      "inputs": [],
      "name": "ERC721Implementation",
      "outputs": [
        {
          "internalType": "address",
          "name": "",
          "type": "address"
        }
      ],
      "stateMutability": "view",
      "type": "function"
    },
    {
      "inputs": [
        {
          "internalType": "uint256",
          "name": "",
          "type": "uint256"
        }
      ],
      "name": "allCreatedContracts",
      "outputs": [
        {
          "internalType": "address",
          "name": "",
          "type": "address"
        }
      ],
      "stateMutability": "view",
      "type": "function"
    },
    {
      "inputs": [],
      "name": "cost",
      "outputs": [
        {
          "internalType": "int256",
          "name": "",
          "type": "int256"
        }
      ],
      "stateMutability": "view",
      "type": "function"
    },
    {
      "inputs": [
        {
          "internalType": "string",
          "name": "_name",
          "type": "string"
        },
        {
          "internalType": "string",
          "name": "_symbol",
          "type": "string"
        },
        {
          "internalType": "uint256",
          "name": "_id",
          "type": "uint256"
        },
        {
          "internalType": "uint256",
          "name": "_amount",
          "type": "uint256"
        },
        {
          "internalType": "string",
          "name": "_uri",
          "type": "string"
        },
        {
          "internalType": "address",
          "name": "_royaltyReceiver",
          "type": "address"
        },
        {
          "internalType": "uint96",
          "name": "_feePercent",
          "type": "uint96"
        }
      ],
      "name": "createERC1155Contract",
      "outputs": [],
      "stateMutability": "payable",
      "type": "function"
    },
    {
      "inputs": [
        {
          "internalType": "string",
          "name": "_name",
          "type": "string"
        },
        {
          "internalType": "string",
          "name": "_symbol",
          "type": "string"
        },
        {
          "internalType": "uint256",
          "name": "_cost",
          "type": "uint256"
        },
        {
          "internalType": "uint256",
          "name": "_maxSupply",
          "type": "uint256"
        },
        {
          "internalType": "uint256",
          "name": "_maxMintAmountPerTx",
          "type": "uint256"
        },
        {
          "internalType": "string",
          "name": "_hiddenMetadataUri",
          "type": "string"
        },
        {
          "internalType": "string",
          "name": "_uriPrefix",
          "type": "string"
        },
        {
          "internalType": "address",
          "name": "_royaltyReceiver",
          "type": "address"
        },
        {
          "internalType": "uint96",
          "name": "_feePercent",
          "type": "uint96"
        }
      ],
      "name": "createERC721Contract",
      "outputs": [],
      "stateMutability": "payable",
      "type": "function"
    },
    {
      "inputs": [
        {
          "internalType": "address",
          "name": "",
          "type": "address"
        },
        {
          "internalType": "uint256",
          "name": "",
          "type": "uint256"
        }
      ],
      "name": "createdContracts",
      "outputs": [
        {
          "internalType": "enum WizardFactory.ERCType",
          "name": "_type",
          "type": "uint8"
        },
        {
          "internalType": "address",
          "name": "_address",
          "type": "address"
        }
      ],
      "stateMutability": "view",
      "type": "function"
    },
    {
      "inputs": [],
      "name": "getCost",
      "outputs": [
        {
          "internalType": "uint256",
          "name": "",
          "type": "uint256"
        }
      ],
      "stateMutability": "view",
      "type": "function"
    },
    {
      "inputs": [
        {
          "internalType": "address",
          "name": "_address",
          "type": "address"
        }
      ],
      "name": "getCreatedContracts",
      "outputs": [
        {
          "components": [
            {
              "internalType": "enum WizardFactory.ERCType",
              "name": "_type",
              "type": "uint8"
            },
            {
              "internalType": "address",
              "name": "_address",
              "type": "address"
            }
          ],
          "internalType": "struct WizardFactory.CreatedContract[]",
          "name": "",
          "type": "tuple[]"
        }
      ],
      "stateMutability": "view",
      "type": "function"
    },
    {
      "inputs": [],
      "name": "getLatestPrice",
      "outputs": [
        {
          "internalType": "int256",
          "name": "",
          "type": "int256"
        }
      ],
      "stateMutability": "view",
      "type": "function"
    },
    {
      "inputs": [],
      "name": "getTotalCreatedContracts",
      "outputs": [
        {
          "internalType": "uint256",
          "name": "",
          "type": "uint256"
        }
      ],
      "stateMutability": "view",
      "type": "function"
    },
    {
      "inputs": [],
      "name": "owner",
      "outputs": [
        {
          "internalType": "address",
          "name": "",
          "type": "address"
        }
      ],
      "stateMutability": "view",
      "type": "function"
    },
    {
      "inputs": [],
      "name": "priceFeed",
      "outputs": [
        {
          "internalType": "contract AggregatorV3Interface",
          "name": "",
          "type": "address"
        }
      ],
      "stateMutability": "view",
      "type": "function"
    },
    {
      "inputs": [],
      "name": "renounceOwnership",
      "outputs": [],
      "stateMutability": "nonpayable",
      "type": "function"
    },
    {
      "inputs": [
        {
          "internalType": "int256",
          "name": "_cost",
          "type": "int256"
        }
      ],
      "name": "setCost",
      "outputs": [],
      "stateMutability": "nonpayable",
      "type": "function"
    },
    {
      "inputs": [
        {
          "internalType": "address",
          "name": "_ercImplementation",
          "type": "address"
        }
      ],
      "name": "setERC1155Implementation",
      "outputs": [],
      "stateMutability": "nonpayable",
      "type": "function"
    },
    {
      "inputs": [
        {
          "internalType": "address",
          "name": "_ercImplementation",
          "type": "address"
        }
      ],
      "name": "setERC721Implementation",
      "outputs": [],
      "stateMutability": "nonpayable",
      "type": "function"
    },
    {
      "inputs": [
        {
          "internalType": "address",
          "name": "_priceFeedAddress",
          "type": "address"
        }
      ],
      "name": "setPriceFeed",
      "outputs": [],
      "stateMutability": "nonpayable",
      "type": "function"
    },
    {
      "inputs": [
        {
          "internalType": "address",
          "name": "newOwner",
          "type": "address"
        }
      ],
      "name": "transferOwnership",
      "outputs": [],
      "stateMutability": "nonpayable",
      "type": "function"
    },
    {
      "inputs": [],
      "name": "withdraw",
      "outputs": [],
      "stateMutability": "nonpayable",
      "type": "function"
    }
  ],
  "transactionHash": "0x645464f0c2332d8b9bbd721c3e71d1afdf512002e941ebccf1f5eab1901c6ed7",
  "args": [
    "100000000000000000",
    "0xd0D5e3DB44DE05E9F294BB0a3bEEaF030DE24Ada"
  ],
  "numDeployments": 2,
  "solcInputHash": "96817f9ae576f761002f2e2b34adeeec",
  "bytecode": "0x60806040523480156200001157600080fd5b5060405162002666380380620026668339818101604052810190620000379190620001a8565b620000576200004b620000ae60201b60201c565b620000b660201b60201c565b600180819055508160028190555080600360006101000a81548173ffffffffffffffffffffffffffffffffffffffff021916908373ffffffffffffffffffffffffffffffffffffffff160217905550505062000266565b600033905090565b60008060009054906101000a900473ffffffffffffffffffffffffffffffffffffffff169050816000806101000a81548173ffffffffffffffffffffffffffffffffffffffff021916908373ffffffffffffffffffffffffffffffffffffffff1602179055508173ffffffffffffffffffffffffffffffffffffffff168173ffffffffffffffffffffffffffffffffffffffff167f8be0079c531659141344cd1fd0a4f28419497f9722a3daafe3b4186f6b6457e060405160405180910390a35050565b6000815190506200018b8162000232565b92915050565b600081519050620001a2816200024c565b92915050565b60008060408385031215620001c257620001c16200022d565b5b6000620001d28582860162000191565b9250506020620001e5858286016200017a565b9150509250929050565b6000620001fc826200020d565b9050919050565b6000819050919050565b600073ffffffffffffffffffffffffffffffffffffffff82169050919050565b600080fd5b6200023d81620001ef565b81146200024957600080fd5b50565b620002578162000203565b81146200026357600080fd5b50565b6123f080620002766000396000f3fe60806040526004361061011f5760003560e01c8063741bef1a116100a05780638e15f473116100645780638e15f473146103a15780639646ba64146103cc578063bd3e19d4146103f7578063c9d6348d14610422578063f2fde38b1461043e5761011f565b8063741bef1a146102c95780637ac9041c146102f45780637d2405bb146103105780637fab834f146103395780638da5cb5b146103765761011f565b80633ccfd60b116100e75780633ccfd60b1461020c57806352486c4014610223578063641254bd14610260578063715018a614610289578063724e78da146102a05761011f565b806313faede6146101245780631a75a1061461014f5780632799459d1461018d5780632efb88e7146101b657806334820242146101e1575b600080fd5b34801561013057600080fd5b50610139610467565b6040516101469190611bc6565b60405180910390f35b34801561015b57600080fd5b50610176600480360381019061017191906115e6565b61046d565b604051610184929190611b9d565b60405180910390f35b34801561019957600080fd5b506101b460048036038101906101af9190611626565b6104d7565b005b3480156101c257600080fd5b506101cb6104e9565b6040516101d89190611b45565b60405180910390f35b3480156101ed57600080fd5b506101f661050f565b6040516102039190611b45565b60405180910390f35b34801561021857600080fd5b50610221610535565b005b34801561022f57600080fd5b5061024a60048036038101906102459190611883565b610612565b6040516102579190611b45565b60405180910390f35b34801561026c57600080fd5b50610287600480360381019061028291906115b9565b610651565b005b34801561029557600080fd5b5061029e610747565b005b3480156102ac57600080fd5b506102c760048036038101906102c291906115b9565b61075b565b005b3480156102d557600080fd5b506102de6107a7565b6040516102eb9190611b82565b60405180910390f35b61030e60048036038101906103099190611749565b6107cd565b005b34801561031c57600080fd5b50610337600480360381019061033291906115b9565b610b4e565b005b34801561034557600080fd5b50610360600480360381019061035b91906115b9565b610c44565b60405161036d9190611b60565b60405180910390f35b34801561038257600080fd5b5061038b610d6f565b6040516103989190611b45565b60405180910390f35b3480156103ad57600080fd5b506103b6610d98565b6040516103c39190611bc6565b60405180910390f35b3480156103d857600080fd5b506103e1610e58565b6040516103ee9190611df1565b60405180910390f35b34801561040357600080fd5b5061040c610e65565b6040516104199190611df1565b60405180910390f35b61043c60048036038101906104379190611653565b610e99565b005b34801561044a57600080fd5b50610465600480360381019061046091906115b9565b611213565b005b60025481565b6005602052816000526040600020818154811061048957600080fd5b90600052602060002001600091509150508060000160009054906101000a900460ff16908060000160019054906101000a900473ffffffffffffffffffffffffffffffffffffffff16905082565b6104df611297565b8060028190555050565b600760009054906101000a900473ffffffffffffffffffffffffffffffffffffffff1681565b600660009054906101000a900473ffffffffffffffffffffffffffffffffffffffff1681565b61053d611297565b60026001541415610583576040517f08c379a000000000000000000000000000000000000000000000000000000000815260040161057a90611dd1565b60405180910390fd5b60026001819055506000610595610d6f565b73ffffffffffffffffffffffffffffffffffffffff16476040516105b890611b30565b60006040518083038185875af1925050503d80600081146105f5576040519150601f19603f3d011682016040523d82523d6000602084013e6105fa565b606091505b505090508061060857600080fd5b5060018081905550565b6004818154811061062257600080fd5b906000526020600020016000915054906101000a900473ffffffffffffffffffffffffffffffffffffffff1681565b610659611297565b600073ffffffffffffffffffffffffffffffffffffffff168173ffffffffffffffffffffffffffffffffffffffff1614156106c0576040517f15e93c9600000000000000000000000000000000000000000000000000000000815260040160405180910390fd5b80600660006101000a81548173ffffffffffffffffffffffffffffffffffffffff021916908373ffffffffffffffffffffffffffffffffffffffff1602179055508073ffffffffffffffffffffffffffffffffffffffff167fed037ad9142f2f0bdc568a61ae7667137030ec85269e69f1601739b283ffb8e160405160405180910390a250565b61074f611297565b6107596000611315565b565b610763611297565b80600360006101000a81548173ffffffffffffffffffffffffffffffffffffffff021916908373ffffffffffffffffffffffffffffffffffffffff16021790555050565b600360009054906101000a900473ffffffffffffffffffffffffffffffffffffffff1681565b6107d5610e65565b34101561080e576040517f0f5fa7fd00000000000000000000000000000000000000000000000000000000815260040160405180910390fd5b600073ffffffffffffffffffffffffffffffffffffffff16600660009054906101000a900473ffffffffffffffffffffffffffffffffffffffff1673ffffffffffffffffffffffffffffffffffffffff161415610897576040517f15e93c9600000000000000000000000000000000000000000000000000000000815260040160405180910390fd5b60006108c4600660009054906101000a900473ffffffffffffffffffffffffffffffffffffffff166113d9565b90508073ffffffffffffffffffffffffffffffffffffffff166313cfbe508b8b8b8b8b8b8b8b8b336040518b63ffffffff1660e01b81526004016109119a99989796959493929190611cb9565b600060405180830381600087803b15801561092b57600080fd5b505af115801561093f573d6000803e3d6000fd5b505050506004819080600181540180825580915050600190039060005260206000200160009091909190916101000a81548173ffffffffffffffffffffffffffffffffffffffff021916908373ffffffffffffffffffffffffffffffffffffffff160217905550600560003373ffffffffffffffffffffffffffffffffffffffff1673ffffffffffffffffffffffffffffffffffffffff168152602001908152602001600020604051806040016040528060006001811115610a0457610a036121e3565b5b81526020018373ffffffffffffffffffffffffffffffffffffffff168152509080600181540180825580915050600190039060005260206000200160009091909190915060008201518160000160006101000a81548160ff02191690836001811115610a7357610a726121e3565b5b021790555060208201518160000160016101000a81548173ffffffffffffffffffffffffffffffffffffffff021916908373ffffffffffffffffffffffffffffffffffffffff16021790555050503373ffffffffffffffffffffffffffffffffffffffff168373ffffffffffffffffffffffffffffffffffffffff168273ffffffffffffffffffffffffffffffffffffffff167f62f95ba7343bb76df6fe61166cb92ac635280630a1b7b43c5b77c301211652598d8d6000604051610b3a93929190611be1565b60405180910390a450505050505050505050565b610b56611297565b600073ffffffffffffffffffffffffffffffffffffffff168173ffffffffffffffffffffffffffffffffffffffff161415610bbd576040517f08cb490a00000000000000000000000000000000000000000000000000000000815260040160405180910390fd5b80600760006101000a81548173ffffffffffffffffffffffffffffffffffffffff021916908373ffffffffffffffffffffffffffffffffffffffff1602179055508073ffffffffffffffffffffffffffffffffffffffff167fed037ad9142f2f0bdc568a61ae7667137030ec85269e69f1601739b283ffb8e160405160405180910390a250565b6060600560008373ffffffffffffffffffffffffffffffffffffffff1673ffffffffffffffffffffffffffffffffffffffff168152602001908152602001600020805480602002602001604051908101604052809291908181526020016000905b82821015610d64578382906000526020600020016040518060400160405290816000820160009054906101000a900460ff166001811115610ce957610ce86121e3565b5b6001811115610cfb57610cfa6121e3565b5b81526020016000820160019054906101000a900473ffffffffffffffffffffffffffffffffffffffff1673ffffffffffffffffffffffffffffffffffffffff1673ffffffffffffffffffffffffffffffffffffffff168152505081526020019060010190610ca5565b505050509050919050565b60008060009054906101000a900473ffffffffffffffffffffffffffffffffffffffff16905090565b600080600360009054906101000a900473ffffffffffffffffffffffffffffffffffffffff1673ffffffffffffffffffffffffffffffffffffffff1663feaf968c6040518163ffffffff1660e01b815260040160a06040518083038186803b158015610e0357600080fd5b505afa158015610e17573d6000803e3d6000fd5b505050506040513d601f19601f82011682018060405250810190610e3b91906118b0565b5050509150506402540be40081610e529190611f2c565b91505090565b6000600480549050905090565b600080610e70610d98565b670de0b6b3a7640000600254610e869190611f2c565b610e909190611ec2565b90508091505090565b610ea1610e65565b341015610eda576040517f0f5fa7fd00000000000000000000000000000000000000000000000000000000815260040160405180910390fd5b600073ffffffffffffffffffffffffffffffffffffffff16600760009054906101000a900473ffffffffffffffffffffffffffffffffffffffff1673ffffffffffffffffffffffffffffffffffffffff161415610f63576040517f08cb490a00000000000000000000000000000000000000000000000000000000815260040160405180910390fd5b6000610f90600760009054906101000a900473ffffffffffffffffffffffffffffffffffffffff166113d9565b90508073ffffffffffffffffffffffffffffffffffffffff1663f98d53a789898989898989336040518963ffffffff1660e01b8152600401610fd9989796959493929190611c26565b600060405180830381600087803b158015610ff357600080fd5b505af1158015611007573d6000803e3d6000fd5b505050506004819080600181540180825580915050600190039060005260206000200160009091909190916101000a81548173ffffffffffffffffffffffffffffffffffffffff021916908373ffffffffffffffffffffffffffffffffffffffff160217905550600560003373ffffffffffffffffffffffffffffffffffffffff1673ffffffffffffffffffffffffffffffffffffffff16815260200190815260200160002060405180604001604052806001808111156110cb576110ca6121e3565b5b81526020018373ffffffffffffffffffffffffffffffffffffffff168152509080600181540180825580915050600190039060005260206000200160009091909190915060008201518160000160006101000a81548160ff0219169083600181111561113a576111396121e3565b5b021790555060208201518160000160016101000a81548173ffffffffffffffffffffffffffffffffffffffff021916908373ffffffffffffffffffffffffffffffffffffffff16021790555050503373ffffffffffffffffffffffffffffffffffffffff168373ffffffffffffffffffffffffffffffffffffffff168273ffffffffffffffffffffffffffffffffffffffff167f62f95ba7343bb76df6fe61166cb92ac635280630a1b7b43c5b77c301211652598b8b600160405161120193929190611be1565b60405180910390a45050505050505050565b61121b611297565b600073ffffffffffffffffffffffffffffffffffffffff168173ffffffffffffffffffffffffffffffffffffffff16141561128b576040517f08c379a000000000000000000000000000000000000000000000000000000000815260040161128290611d71565b60405180910390fd5b61129481611315565b50565b61129f6114ae565b73ffffffffffffffffffffffffffffffffffffffff166112bd610d6f565b73ffffffffffffffffffffffffffffffffffffffff1614611313576040517f08c379a000000000000000000000000000000000000000000000000000000000815260040161130a90611db1565b60405180910390fd5b565b60008060009054906101000a900473ffffffffffffffffffffffffffffffffffffffff169050816000806101000a81548173ffffffffffffffffffffffffffffffffffffffff021916908373ffffffffffffffffffffffffffffffffffffffff1602179055508173ffffffffffffffffffffffffffffffffffffffff168173ffffffffffffffffffffffffffffffffffffffff167f8be0079c531659141344cd1fd0a4f28419497f9722a3daafe3b4186f6b6457e060405160405180910390a35050565b60006040517f3d602d80600a3d3981f3363d3d373d3d3d363d7300000000000000000000000081528260601b60148201527f5af43d82803e903d91602b57fd5bf3000000000000000000000000000000000060288201526037816000f0915050600073ffffffffffffffffffffffffffffffffffffffff168173ffffffffffffffffffffffffffffffffffffffff1614156114a9576040517f08c379a00000000000000000000000000000000000000000000000000000000081526004016114a090611d91565b60405180910390fd5b919050565b600033905090565b60006114c96114c484611e31565b611e0c565b9050828152602081018484840111156114e5576114e4612246565b5b6114f0848285612112565b509392505050565b60008135905061150781612347565b92915050565b60008135905061151c8161235e565b92915050565b6000815190506115318161235e565b92915050565b600082601f83011261154c5761154b612241565b5b813561155c8482602086016114b6565b91505092915050565b60008135905061157481612375565b92915050565b60008151905061158981612375565b92915050565b60008151905061159e8161238c565b92915050565b6000813590506115b3816123a3565b92915050565b6000602082840312156115cf576115ce612250565b5b60006115dd848285016114f8565b91505092915050565b600080604083850312156115fd576115fc612250565b5b600061160b858286016114f8565b925050602061161c85828601611565565b9150509250929050565b60006020828403121561163c5761163b612250565b5b600061164a8482850161150d565b91505092915050565b600080600080600080600060e0888a03121561167257611671612250565b5b600088013567ffffffffffffffff8111156116905761168f61224b565b5b61169c8a828b01611537565b975050602088013567ffffffffffffffff8111156116bd576116bc61224b565b5b6116c98a828b01611537565b96505060406116da8a828b01611565565b95505060606116eb8a828b01611565565b945050608088013567ffffffffffffffff81111561170c5761170b61224b565b5b6117188a828b01611537565b93505060a06117298a828b016114f8565b92505060c061173a8a828b016115a4565b91505092959891949750929550565b60008060008060008060008060006101208a8c03121561176c5761176b612250565b5b60008a013567ffffffffffffffff81111561178a5761178961224b565b5b6117968c828d01611537565b99505060208a013567ffffffffffffffff8111156117b7576117b661224b565b5b6117c38c828d01611537565b98505060406117d48c828d01611565565b97505060606117e58c828d01611565565b96505060806117f68c828d01611565565b95505060a08a013567ffffffffffffffff8111156118175761181661224b565b5b6118238c828d01611537565b94505060c08a013567ffffffffffffffff8111156118445761184361224b565b5b6118508c828d01611537565b93505060e06118618c828d016114f8565b9250506101006118738c828d016115a4565b9150509295985092959850929598565b60006020828403121561189957611898612250565b5b60006118a784828501611565565b91505092915050565b600080600080600060a086880312156118cc576118cb612250565b5b60006118da8882890161158f565b95505060206118eb88828901611522565b94505060406118fc8882890161157a565b935050606061190d8882890161157a565b925050608061191e8882890161158f565b9150509295509295909350565b60006119378383611ae3565b60408301905092915050565b61194c81612043565b82525050565b61195b81612043565b82525050565b600061196c82611e72565b6119768185611e95565b935061198183611e62565b8060005b838110156119b2578151611999888261192b565b97506119a483611e88565b925050600181019050611985565b5085935050505092915050565b6119c8816120ca565b82525050565b6119d7816120dc565b82525050565b6119e6816120dc565b82525050565b6119f581612068565b82525050565b6000611a0682611e7d565b611a108185611eb1565b9350611a20818560208601612121565b611a2981612255565b840191505092915050565b6000611a41602683611eb1565b9150611a4c82612266565b604082019050919050565b6000611a64601683611eb1565b9150611a6f826122b5565b602082019050919050565b6000611a87602083611eb1565b9150611a92826122de565b602082019050919050565b6000611aaa600083611ea6565b9150611ab582612307565b600082019050919050565b6000611acd601f83611eb1565b9150611ad88261230a565b602082019050919050565b604082016000820151611af960008501826119ce565b506020820151611b0c6020850182611943565b50505050565b611b1b81612092565b82525050565b611b2a816120b2565b82525050565b6000611b3b82611a9d565b9150819050919050565b6000602082019050611b5a6000830184611952565b92915050565b60006020820190508181036000830152611b7a8184611961565b905092915050565b6000602082019050611b9760008301846119bf565b92915050565b6000604082019050611bb260008301856119dd565b611bbf6020830184611952565b9392505050565b6000602082019050611bdb60008301846119ec565b92915050565b60006060820190508181036000830152611bfb81866119fb565b90508181036020830152611c0f81856119fb565b9050611c1e60408301846119dd565b949350505050565b6000610100820190508181036000830152611c41818b6119fb565b90508181036020830152611c55818a6119fb565b9050611c646040830189611b12565b611c716060830188611b12565b8181036080830152611c8381876119fb565b9050611c9260a0830186611952565b611c9f60c0830185611b21565b611cac60e0830184611952565b9998505050505050505050565b6000610140820190508181036000830152611cd4818d6119fb565b90508181036020830152611ce8818c6119fb565b9050611cf7604083018b611b12565b611d04606083018a611b12565b611d116080830189611b12565b81810360a0830152611d2381886119fb565b905081810360c0830152611d3781876119fb565b9050611d4660e0830186611952565b611d54610100830185611b21565b611d62610120830184611952565b9b9a5050505050505050505050565b60006020820190508181036000830152611d8a81611a34565b9050919050565b60006020820190508181036000830152611daa81611a57565b9050919050565b60006020820190508181036000830152611dca81611a7a565b9050919050565b60006020820190508181036000830152611dea81611ac0565b9050919050565b6000602082019050611e066000830184611b12565b92915050565b6000611e16611e27565b9050611e228282612154565b919050565b6000604051905090565b600067ffffffffffffffff821115611e4c57611e4b612212565b5b611e5582612255565b9050602081019050919050565b6000819050602082019050919050565b600081519050919050565b600081519050919050565b6000602082019050919050565b600082825260208201905092915050565b600081905092915050565b600082825260208201905092915050565b6000611ecd82612068565b9150611ed883612068565b925082611ee857611ee76121b4565b5b600160000383147f800000000000000000000000000000000000000000000000000000000000000083141615611f2157611f20612185565b5b828205905092915050565b6000611f3782612068565b9150611f4283612068565b9250827f7fffffffffffffffffffffffffffffffffffffffffffffffffffffffffffffff0482116000841360008413161615611f8157611f80612185565b5b817f80000000000000000000000000000000000000000000000000000000000000000583126000841260008413161615611fbe57611fbd612185565b5b827f80000000000000000000000000000000000000000000000000000000000000000582126000841360008412161615611ffb57611ffa612185565b5b827f7fffffffffffffffffffffffffffffffffffffffffffffffffffffffffffffff058212600084126000841216161561203857612037612185565b5b828202905092915050565b600061204e82612072565b9050919050565b600081905061206382612333565b919050565b6000819050919050565b600073ffffffffffffffffffffffffffffffffffffffff82169050919050565b6000819050919050565b600069ffffffffffffffffffff82169050919050565b60006bffffffffffffffffffffffff82169050919050565b60006120d5826120ee565b9050919050565b60006120e782612055565b9050919050565b60006120f982612100565b9050919050565b600061210b82612072565b9050919050565b82818337600083830152505050565b60005b8381101561213f578082015181840152602081019050612124565b8381111561214e576000848401525b50505050565b61215d82612255565b810181811067ffffffffffffffff8211171561217c5761217b612212565b5b80604052505050565b7f4e487b7100000000000000000000000000000000000000000000000000000000600052601160045260246000fd5b7f4e487b7100000000000000000000000000000000000000000000000000000000600052601260045260246000fd5b7f4e487b7100000000000000000000000000000000000000000000000000000000600052602160045260246000fd5b7f4e487b7100000000000000000000000000000000000000000000000000000000600052604160045260246000fd5b600080fd5b600080fd5b600080fd5b600080fd5b6000601f19601f8301169050919050565b7f4f776e61626c653a206e6577206f776e657220697320746865207a65726f206160008201527f6464726573730000000000000000000000000000000000000000000000000000602082015250565b7f455243313136373a20637265617465206661696c656400000000000000000000600082015250565b7f4f776e61626c653a2063616c6c6572206973206e6f7420746865206f776e6572600082015250565b50565b7f5265656e7472616e637947756172643a207265656e7472616e742063616c6c00600082015250565b60028110612344576123436121e3565b5b50565b61235081612043565b811461235b57600080fd5b50565b61236781612068565b811461237257600080fd5b50565b61237e81612092565b811461238957600080fd5b50565b6123958161209c565b81146123a057600080fd5b50565b6123ac816120b2565b81146123b757600080fd5b5056fea2646970667358221220098739c1aad3b8021c10886246d9887920323c15c4e85eac3f96fdd6f134b9c264736f6c63430008070033",
  "devdoc": {
    "author": "a6Ce6Bs",
    "events": {
      "ContractCreated(address,string,string,uint8,address,address)": {
        "params": {
          "contractOwner": "Contract owner",
          "createdContract": "Address of deployed Contract",
          "name": "Contract name",
          "royaltyReceiver": "Royalty fee collector",
          "symbol": "Contract symbol"
        }
      },
      "SetERCImplementation(address)": {
        "params": {
          "ercImplementation": "implementation of contract"
        }
      }
    },
    "kind": "dev",
    "methods": {
      "constructor": {
        "params": {
          "_cost": "Contract deployment cost",
          "priceFeedAddress": "AggregatorV3Interface priceFeed address"
        }
      },
      "createERC1155Contract(string,string,uint256,uint256,string,address,uint96)": {
        "params": {
          "_amount": "Token supply",
          "_feePercent": "Royalty fee numerator; denominator is 10,000. So 500 represents 5%",
          "_id": "Token id",
          "_name": "Contract (ERC1155) name",
          "_royaltyReceiver": "Royalty fee collector",
          "_symbol": "Contract (ERC1155) symbol",
          "_uri": "Token uri"
        }
      },
      "createERC721Contract(string,string,uint256,uint256,uint256,string,string,address,uint96)": {
        "params": {
          "_cost": "Mint cost",
          "_feePercent": "Royalty fee numerator; denominator is 10,000. So 500 represents 5%",
          "_hiddenMetadataUri": "Hidden metadata uri",
          "_maxMintAmountPerTx": "Max mint amount per transaction",
          "_maxSupply": "Contract (ERC721) maxSupply",
          "_name": "Contract (ERC721) name",
          "_royaltyReceiver": "Royalty fee collector",
          "_symbol": "Contract (ERC721) symbol",
          "_uriPrefix": "Metadata uri prefix"
        }
      },
      "getCost()": {
        "returns": {
          "_0": "uint256 Cost price for contract deployment"
        }
      },
      "getCreatedContracts(address)": {
        "params": {
          "_address": "Address of contract deployer"
        }
      },
      "getLatestPrice()": {
        "returns": {
          "_0": "int256 Equation of price * 1e10"
        }
      },
      "getTotalCreatedContracts()": {
        "returns": {
          "_0": "uint256 number of all deployed contracts"
        }
      },
      "owner()": {
        "details": "Returns the address of the current owner."
      },
      "renounceOwnership()": {
        "details": "Leaves the contract without owner. It will not be possible to call `onlyOwner` functions anymore. Can only be called by the current owner. NOTE: Renouncing ownership will leave the contract without an owner, thereby removing any functionality that is only available to the owner."
      },
      "setCost(int256)": {
        "params": {
          "_cost": "Cost in wei 18 dec"
        }
      },
      "setERC1155Implementation(address)": {
        "params": {
          "_ercImplementation": "New ERC1155Implementation"
        }
      },
      "setERC721Implementation(address)": {
        "params": {
          "_ercImplementation": "New ERC721Implementation"
        }
      },
      "setPriceFeed(address)": {
        "params": {
          "_priceFeedAddress": "PriceFeed address"
        }
      },
      "transferOwnership(address)": {
        "details": "Transfers ownership of the contract to a new account (`newOwner`). Can only be called by the current owner."
      }
    },
    "title": "Wizard Factory",
    "version": 1
  },
  "userdoc": {
    "errors": {
      "WizardFactory__InsufficientFunds()": [
        {
          "notice": "Insufficient funds!"
        }
      ],
      "WizardFactory__InvalidERC1155Implementation()": [
        {
          "notice": "Invalid ERC1155 Implementation!"
        }
      ],
      "WizardFactory__InvalidERC721Implementation()": [
        {
          "notice": "Invalid ERC721 Implementation!"
        }
      ]
    },
    "events": {
      "ContractCreated(address,string,string,uint8,address,address)": {
        "notice": "Emitted on createERC721Contract() & createERC1155Contract()"
      },
      "SetERCImplementation(address)": {
        "notice": "Emmited on one of setERCImplementation()"
      }
    },
    "kind": "user",
    "methods": {
      "ERC1155Implementation()": {
        "notice": "ERC1155 contract to be cloned"
      },
      "ERC721Implementation()": {
        "notice": "ERC721 contract to be cloned"
      },
      "allCreatedContracts(uint256)": {
        "notice": "Array of all deployed contract addresses"
      },
      "constructor": {
        "notice": "Constructor"
      },
      "cost()": {
        "notice": "Contract deployment cost in USD as wei"
      },
      "createERC1155Contract(string,string,uint256,uint256,string,address,uint96)": {
        "notice": "Function for creating ERC1155 contracts"
      },
      "createERC721Contract(string,string,uint256,uint256,uint256,string,string,address,uint96)": {
        "notice": "Function for creating ERC721 contracts"
      },
      "createdContracts(address,uint256)": {
        "notice": "Mapping of address (deployer) to created contracts"
      },
      "getCost()": {
        "notice": "Function to get contract deployment cost"
      },
      "getCreatedContracts(address)": {
        "notice": "Function to get all deployed contracts by an address"
      },
      "getLatestPrice()": {
        "notice": "Function to get latest network native token price"
      },
      "getTotalCreatedContracts()": {
        "notice": "Function to get number of deployed contracts"
      },
      "priceFeed()": {
        "notice": "AggregatorV3Interface priceFeed address"
      },
      "setCost(int256)": {
        "notice": "Set contract deployment cost"
      },
      "setERC1155Implementation(address)": {
        "notice": "Set address for ERC1155Implementation"
      },
      "setERC721Implementation(address)": {
        "notice": "Set address for ERC721Implementation"
      },
      "setPriceFeed(address)": {
        "notice": "Set address for AggregatorV3Interface"
      },
      "withdraw()": {
        "notice": "Function to withdraw contract funds"
      }
    },
    "notice": "Factory that creates ERC contracts",
    "version": 1
  },
  "storageLayout": {
    "storage": [
      {
        "astId": 2783,
        "contract": "contracts/WizardFactory.sol:WizardFactory",
        "label": "_owner",
        "offset": 0,
        "slot": "0",
        "type": "t_address"
      },
      {
        "astId": 2979,
        "contract": "contracts/WizardFactory.sol:WizardFactory",
        "label": "_status",
        "offset": 0,
        "slot": "1",
        "type": "t_uint256"
      },
      {
        "astId": 4911,
        "contract": "contracts/WizardFactory.sol:WizardFactory",
        "label": "cost",
        "offset": 0,
        "slot": "2",
        "type": "t_int256"
      },
      {
        "astId": 4915,
        "contract": "contracts/WizardFactory.sol:WizardFactory",
        "label": "priceFeed",
        "offset": 0,
        "slot": "3",
        "type": "t_contract(AggregatorV3Interface)45"
      },
      {
        "astId": 4919,
        "contract": "contracts/WizardFactory.sol:WizardFactory",
        "label": "allCreatedContracts",
        "offset": 0,
        "slot": "4",
        "type": "t_array(t_address)dyn_storage"
      },
      {
        "astId": 4926,
        "contract": "contracts/WizardFactory.sol:WizardFactory",
        "label": "createdContracts",
        "offset": 0,
        "slot": "5",
        "type": "t_mapping(t_address,t_array(t_struct(CreatedContract)4908_storage)dyn_storage)"
      },
      {
        "astId": 4929,
        "contract": "contracts/WizardFactory.sol:WizardFactory",
        "label": "ERC721Implementation",
        "offset": 0,
        "slot": "6",
        "type": "t_address"
      },
      {
        "astId": 4932,
        "contract": "contracts/WizardFactory.sol:WizardFactory",
        "label": "ERC1155Implementation",
        "offset": 0,
        "slot": "7",
        "type": "t_address"
      }
    ],
    "types": {
      "t_address": {
        "encoding": "inplace",
        "label": "address",
        "numberOfBytes": "20"
      },
      "t_array(t_address)dyn_storage": {
        "base": "t_address",
        "encoding": "dynamic_array",
        "label": "address[]",
        "numberOfBytes": "32"
      },
      "t_array(t_struct(CreatedContract)4908_storage)dyn_storage": {
        "base": "t_struct(CreatedContract)4908_storage",
        "encoding": "dynamic_array",
        "label": "struct WizardFactory.CreatedContract[]",
        "numberOfBytes": "32"
      },
      "t_contract(AggregatorV3Interface)45": {
        "encoding": "inplace",
        "label": "contract AggregatorV3Interface",
        "numberOfBytes": "20"
      },
      "t_enum(ERCType)4902": {
        "encoding": "inplace",
        "label": "enum WizardFactory.ERCType",
        "numberOfBytes": "1"
      },
      "t_int256": {
        "encoding": "inplace",
        "label": "int256",
        "numberOfBytes": "32"
      },
      "t_mapping(t_address,t_array(t_struct(CreatedContract)4908_storage)dyn_storage)": {
        "encoding": "mapping",
        "key": "t_address",
        "label": "mapping(address => struct WizardFactory.CreatedContract[])",
        "numberOfBytes": "32",
        "value": "t_array(t_struct(CreatedContract)4908_storage)dyn_storage"
      },
      "t_struct(CreatedContract)4908_storage": {
        "encoding": "inplace",
        "label": "struct WizardFactory.CreatedContract",
        "members": [
          {
            "astId": 4905,
            "contract": "contracts/WizardFactory.sol:WizardFactory",
            "label": "_type",
            "offset": 0,
            "slot": "0",
            "type": "t_enum(ERCType)4902"
          },
          {
            "astId": 4907,
            "contract": "contracts/WizardFactory.sol:WizardFactory",
            "label": "_address",
            "offset": 1,
            "slot": "0",
            "type": "t_address"
          }
        ],
        "numberOfBytes": "32"
      },
      "t_uint256": {
        "encoding": "inplace",
        "label": "uint256",
        "numberOfBytes": "32"
      }
    }
  }
}